:020000040800F2
:10000000A8100020C9010008033C0008BB3100080B
:10001000653B0008C5070008E14A00080000000031
:10002000000000000000000000000000073C000885
:100030006F08000800000000053C0008F9410008B6
:10004000E3010008E3010008E3010008E301000800
:10005000E3010008E3010008E3010008E3010008F0
:10006000E3010008E3010008E3010008E3010008E0
:10007000E301000819080008E3010008250800084A
:10008000E3010008E3010008E3010008E3010008C0
:10009000E3010008E3010008E3010008E3010008B0
:1000A000E3010008E3010008E3010008E3010008A0
:1000B000E3010008E3010008E3010008E301000890
:1000C000E3010008E3010008E3010008E301000880
:1000D000E3010008ED490008E3010008D54A0008E3
:1000E000E3010008E3010008E301000800F002F862
:1000F00000F040F80AA090E8000C82448344AAF182
:100100000107DA4501D100F035F8AFF2090EBAE87F
:100110000F0013F0010F18BFFB1A43F0010318473B
:100120002461000044610000103A24BF78C878C1FF
:10013000FAD8520724BF30C830C144BF04680C60ED
:10014000704700000023002400250026103A28BF35
:1001500078C1FBD8520728BF30C148BF0B60704739
:100160001FB59DE8030000F0E3F900F0CCF81FBDD7
:1001700010B510BD00F038FA1146FFF7F1FF04F09A
:1001800059FE00F056FA03B4FFF7F2FF03BC00F08B
:1001900087FA00000B49D1F800C04A685CF8043BBC
:1001A0001068184442F8040B8C4528BFA1F1DC0C00
:1001B0008A4228BFA1F1DC02C1F800C04A6020F0E9
:1001C00000407047400A002009488047094800471E
:1001D000FEE7FEE7FEE7FEE7FEE7FEE7FEE7FEE7F7
:1001E000FEE7FEE704480549054A064B7047000054
:1001F0008D420008ED000008A80A0020A810002089
:10020000A80C0020A80C002070B5064600F074F978
:10021000056806F10B0020F00704B4429CBF0020E3
:1002200070BD2B466A68BAB11068A04210D304F1C1
:10023000080188423CBF5068586007D351681019C4
:1002400041601168091B016058601460101D70BD89
:1002500013465268002AE7D12146284600F054F997
:100260000028DED170BD70B50446051F00F044F9CA
:100270000068002C14BF446870BD002C18BFAC424D
:100280003CBF20466468F8D301680A18AA4218BF28
:10029000456003D12A680546114401602868411968
:1002A000A1421CBF6C6070BD616869602168084430
:1002B000286070BDB2F120030AD5C2F1200320FAF4
:1002C00002F001FA03F321FA02F140EA0300704759
:1002D00021FA03F04FF00001704700000B4910B500
:1002E000A1F17C020A4CC2E93712372106E000EB8B
:1002F000104342F82130074B00FB03400B1EA1F1D5
:100300000101F4DC10BD0120E8E70000E009002055
:10031000E119D666CD0D010040EA010310B59B0737
:100320000FD1042A0DD310C808C9121F9C42F8D05F
:1003300020BA19BA884201D9012010BD4FF0FF3010
:1003400010BD1AB1D30703D0521C07E0002010BD26
:1003500010F8013B11F8014B1B1B07D110F8013BB2
:1003600011F8014B1B1B01D1921EF1D1184610BD93
:10037000032A40F2308010F0030C00F0158011F8D1
:10038000013BBCF1020F624498BF11F801CB00F8A9
:10039000013B38BF11F8013BA2F1040298BF00F8FD
:1003A00001CB38BF00F8013B11F0030300F02580BA
:1003B000083AC0F0088051F8043B083A51F804CBE1
:1003C000A0E80810F5E7121D5CBF51F8043B40F8A7
:1003D000043BAFF30080D20724BF11F8013B11F8B2
:1003E00001CB48BF11F8012B24BF00F8013B00F8F6
:1003F00001CB48BF00F8012B704710B5203AC0F080
:100400000B80B1E81850203AA0E81850B1E8185015
:10041000A0E81850BFF4F5AF5FEA027C24BFB1E852
:100420001850A0E8185044BF18C918C0BDE81040C3
:100430005FEA827C24BF51F8043B40F8043B08BFCC
:100440007047D20728BF31F8023B48BF11F8012B93
:1004500028BF20F8023B48BF00F8012B70474FF03F
:1004600000020429C0F0128010F0030C00F01B8081
:10047000CCF1040CBCF1020F18BF00F8012BA8BF8F
:1004800020F8022BA1EB0C0100F00DB85FEAC17C53
:1004900024BF00F8012B00F8012B48BF00F8012B06
:1004A00070474FF0000200B5134694469646203937
:1004B00022BFA0E80C50A0E80C50B1F12001BFF41D
:1004C000F7AF090728BFA0E80C5048BF0CC05DF883
:1004D00004EB890028BF40F8042B08BF704748BFD1
:1004E00020F8022B11F0804F18BF00F8012B704745
:1004F000704770477047000000487047500A00205E
:10050000704770477047704738B504460A46002068
:100510006946AFF30080002808BF38BD0246009945
:10052000204600F03FF8012038BD012000F054B80B
:10053000F8B5AFF30080054600200C46102000BF40
:100540000646A819A0420DD9324669460020AFF3ED
:100550000080070008BF00F03FF80098A04218BFD5
:100560000546C419FFF7C8FF05600746F01D20F0D7
:1005700007004619284600F00AF8B44208BFF8BD43
:10058000A21B31463868BDE8F84000F00BB80021E6
:100590000160C0E9011070471020704700487047A3
:1005A000480A0020034640688C46002818BF88424D
:1005B0003CBF03464068F8D318681844884207D007
:1005C0000CF1030020F00700001D411A521A0146E9
:1005D000081D0A60FFF747BE10B500F039F8BDE806
:1005E000104000F02FB870477546FFF7D7FFAE46B2
:1005F00005006946534620F00700854618B020B52F
:10060000FFF7F0FDBDE820404FF000064FF0000777
:100610004FF000084FF0000B21F00701AC46ACE8AA
:10062000C009ACE8C009ACE8C009ACE8C0098D4617
:10063000704710B50446AFF300802046BDE8104077
:10064000FFF7A1BD002801D000F02AB870470000D4
:1006500010B5012805D0002103A000F027F80120E3
:1006600010BD09A1F8E7000053494752544D454DCC
:100670003A204F7574206F662068656170206D6543
:100680006D6F7279000000003A2048656170206D3E
:10069000656D6F727920636F727275707465640036
:1006A00001491820ABBEFEE72600020070B50546E2
:1006B0000C460A2000E06D1C00F011F835B12878D6
:1006C0000028F8D102E0641C00F009F814B1207889
:1006D0000028F8D1BDE870400A20AFF3008008B5CB
:1006E00069468DF800000320ABBE08BD70B5044616
:1006F00000688168C943C90717D1816821F00101E9
:10070000816001F07BF805460AE000BF01F076F851
:10071000401B022804D920688068C043C00706D067
:1007200020688068C043C007F0D0002070BDA06A78
:1007300040F01000A062E06A40F00100E062012099
:1007400070BD2DE9F0410C4600F1F0011746064658
:100750008846002509E0204604F0C3F931462046CA
:1007600000F031F8214610341035BD42F3D3404635
:10077000BDE8F0411022FFF7FBBD70B515460446F9
:1007800002F03CFF294604F1F000BDE87040102261
:10079000FFF7EEBDF0B50024002304EB800601EB6B
:1007A000840503EB860CEF5C12F80CC087EA0C079B
:1007B000EF545B1CDBB2042BF3D3641CE4B2042CB7
:1007C000EAD3F0BDFEE770B50D460A46064601467F
:1007D0000020FFF7DFFF0124304603F0F9FC30462C
:1007E00003F088FB304603F0BFF92A463146204625
:1007F000FFF7D0FF641CE4B20E2CEDD3304603F0BB
:10080000E7FC304603F076FB2A463146BDE87040EF
:100810000E20FFF7BFBF0000014800F069BC0000D8
:10082000A002002005480168C90303D5416841F4CE
:10083000E0214160024800F05BBC00000000024083
:100840005C02002030B590F840500124AC40C56BEC
:100850006C60046863604368102B036803D0996080
:100860000068C26030BD9A600068C16030BD7047EA
:10087000092800D90920044964230A220870A0210C
:10088000024801F085B800002C00002090000020F4
:10089000FEB5214F15460E461E493A7804462844B7
:1008A00051F83210884213D895B100F0A7FF79684B
:1008B000401A052803D2C0F1050000F039FD39784F
:1008C0006420052921D2DFE801F0050507181A0088
:1008D0000120FEBDA02101E0022111E0E2B20123CE
:1008E000CDF80060CDE901500C4801F007F904464D
:1008F00000F084FF78602046FEBD062100E00E2156
:1009000001EAD41141F0A001E8E710232246A0211A
:100910000096E7E7BC5E00082C0000209000002055
:100920002DE9FE4F17460446C2192D480E462B49A5
:10093000037851F833309A4224D81FB38B464FF0D6
:10094000640A814600F05AFFD9F80410C846401ADC
:100950000A2803D2C0F10A0000F0EAFC98F800105F
:100960000BEBC1008088421E2240801A85B2AF4244
:1009700000D23D46C14605292AD2DFE801F006062D
:10098000082123000120BDE8FE8FA02101E0022004
:1009900019E0E2B20123CDF808A0CDE900651148C5
:1009A00001F0D4F98046601984B2781B2E4487B2D6
:1009B00000F024FFC9F80400002FC3D14046E2E74D
:1009C000062000E00E2000EAD41040F0A001E0E78D
:1009D00010232246A021CDF808A0DEE7BC5E000867
:1009E0002C0000209000002072B6FEE7064900208F
:1009F000C8610648016941F004010161016941F0E3
:100A00004001016170470000E80200200020024020
:100A1000064A0021D16106490A6942F002020A61D0
:100A20004861086940F0400008617047E802002012
:100A300000200240044B0022DA61044A136943F0AB
:100A40000103136101807047E8020020002002408A
:100A500014480022C168CB06134904D5CA6942F084
:100A60000202CA611022C3685B0705D5CB6943F057
:100A70000103CB6142F00402C369DB0707D0CB69F5
:100A800043F00403CB61C16921F00101C161A2F50A
:100A90008071013901D0C2607047C16921F0010144
:100AA000C161704700200240E802002070B5054691
:100AB00000F0A4FE0646114C09E0681C07D025B1E1
:100AC00000F09CFE801BA84201D9032070BDE068A5
:100AD000C007F2D1E068800601D52020E060E06820
:100AE000C00605D4E069C00702D1E068400703D51D
:100AF000FFF7AEFF012070BD002070BD0020024056
:100B0000F8B50024009490F824202546012A12D03C
:100B1000012280F824204A681F23072A0DD2066884
:100B2000776B521E02EB820293409F430B68934007
:100B30001F43776319E00220F8BD06680D2A0AD228
:100B4000376BD21F02EB820293409F430B689340A6
:100B50001F43376309E0F76A0D3A02EB82029340C4
:100B60009F430B6893401F43F7620A680723066898
:100B70000A2A0AD3F7680A3A02EB420293409F43DB
:100B80008B6893401F43F76008E0376902EB42022D
:100B900093409F438B6893401F4337610A68102A34
:100BA00001D0112A20D1124B02689A4217D19368C2
:100BB0001B0219D4936843F4000393600968102959
:100BC00012D10C490C4A0968B1FBF2F101EB810129
:100BD000490000E0491E00910029FBD104E0816A30
:100BE00041F020018162012480F824502046F8BDA4
:100BF000002401401800002040420F002DE9F04180
:100C00004FF0000704003D467ED0A06A002628B9B8
:100C1000E66284F82460204600F092F82046FFF750
:100C200065FDA16AC90600D420B1A06A40F0100099
:100C3000A06269E0A16A21F4885141F00201A16239
:100C40006268E169237B0A4347EA43010A43A168DA
:100C50004FF48077B94209D0012907D05FF0000135
:100C600094F814C0BCF1010F02D00AE03946F7E74E
:100C7000F3B1A36A43F02003A362E36A43F00103E4
:100C8000E3622368D3F804C02CF4694C4CEA010CED
:100C9000C3F804C021688B68DFF870C003EA0C0356
:100CA00013438B60A168B9420BD0012909D00CE035
:100CB000DFF85CC0A3690CEB43330B4343F40061E2
:100CC000DFE7218A0D05A5F580152168CB6A23F49D
:100CD00070032B43CB62216889680E4B1940914207
:100CE00008D1E662A16A21F0020141F00101A1628E
:100CF000BDE8F081A06A20F0020040F01000A06280
:100D0000E06A40F00100E0620120F1E7FDF7E1FF59
:100D100000E0FFFFFE0E1FFF00680649884208D171
:100D20000548816921F4007181610F21034800F0B9
:100D3000DFBB704700240140001002400008014062
:100D400000B585B0002100910191029103910068E6
:100D50000E49884218D10E48816941F400718161C1
:100D6000816901F400710491816941F0040181619C
:100D70008069694600F0040004900F200090032071
:100D80000190044800F040FC05B000BD0024014083
:100D9000001002400008014070B5040003D094F830
:100DA000200010B104E0012070BD204600F098F84A
:100DB0002068016841F00101016000F01FFD054657
:100DC000052604E000F01AFD401B0A2811D820680F
:100DD0004068C007F6D02068016821F00201016078
:100DE00000F00CFD05460BE000F008FD401B0A2852
:100DF00006D9606A40F40030606284F82060D2E76F
:100E0000206840688007EFD4207E012820680168B0
:100E10003DD021F080010160607E012820680168DA
:100E200038D021F040010160A07E012820680168CF
:100E300033D021F020010160E07E012820680168A4
:100E40002ED041F010010160207F01282068016848
:100E500029D021F008010160607F01282068016825
:100E600024D021F004010160D4E902010843D4E94F
:100E70000412114308436168491E08432168C86190
:100E800000206062012084F82000002070BD41F045
:100E90008001C0E741F04001C5E741F02001CAE709
:100EA00021F01001CFE741F00801D4E741F004013F
:100EB000D9E7000000680749884209D10648C1699E
:100EC00021F00071C1614FF4C051044800F010BB23
:100ED000704700000064004000100240000801401C
:100EE00010B586B000210091019102910391006834
:100EF0001349884222D11348C16941F00071C16190
:100F0000C16901F000710491816941F004018161BE
:100F100080690D4C00F0040004904FF400600090D4
:100F20006946204600F070FBA0140090022001905A
:100F3000032003906946204600F066FB06B010BD12
:100F400000640040001002400008014010B5040099
:100F500002D0607910B106E0012010BD00202071A0
:100F6000204600F013F801206071002010BD000041
:100F700000680449884204D10348416921F04001D6
:100F800041617047003002400010024008B500681F
:100F90000649884208D10648416941F04001416153
:100FA000406900F04000009008BD000000300240A1
:100FB0000010024010B590F821100022022905D03F
:100FC0000421816380F82020012010BD01680B6896
:100FD00023F00E030B6001680B6823F001030B6024
:100FE00090F84030C46B012101FA03F3636080F88C
:100FF000211080F82020104610BD000010B590F898
:1010000021100024022903D00421816301243DE042
:1010100001680A6822F00E020A6001680A6822F07C
:1010200001020A601A4A0168914201D1012121E0BE
:10103000174A1432914201D110211BE0144A283280
:10104000914201D1891515E0114A3C32914201D1FA
:1010500089140FE00E4A5032914202D14FF4803190
:1010600008E00B4A6432914202D14FF4801101E052
:101070004FF08071064A083A5160012180F8211032
:10108000002180F82010416B01B18847204610BD37
:101090000800024010B528B301680A6822F0010276
:1010A0000A60026800211160026851600268916064
:1010B0000268D1600C4B026801241A441423B2FB6D
:1010C000F3F29300094AC0E90F239C405460816207
:1010D000C16201634163816380F8211080F82010B0
:1010E000002010BD012010BDF8FFFDBF0000024030
:1010F0002DE9F05FC16B0C6801680B68D0F840C047
:10110000042202FA0CF2494DDFF824A1494E4A4F5D
:10111000DFF828B1DFF828E122422CD05A072AD57F
:101120000A68920603D40A6822F004020A60016881
:10113000A94201D1042219E0514501D1402215E014
:10114000B14202D14FF4806210E0B94202D14FF4B3
:1011500080420BE0594502D14FF4802206E07145F0
:1011600002D14FF4800201E04FF080622F4908392C
:101170004A60C16A3BE04FF0020808FA0CF818EA2E
:10118000040F4FF000094FF0010235D05FEA837879
:1011900032D50B689B0605D40B6823F00A030B605D
:1011A00080F821200168A94201D1022219E05145AD
:1011B00001D1202215E0B14202D14FF4007210E0BB
:1011C000B94202D14FF400520BE0594502D14FF41D
:1011D000003206E0714502D14FF4001201E04FF0F9
:1011E0000072124908394A6080F82090816A00290B
:1011F0001AD0BDE8F05F0847082505FA0CF525422E
:1012000012D01B0710D50B6823F00E030B6090F86B
:101210004010C36B02FA01F15960826380F821200B
:1012200080F82090016BE2E7BDE8F09F08000240E3
:101230001C000240300002404400024058000240BE
:101240006C00024030B528B308C813491422194471
:10125000B1FBF2F18900C16310498163022141773A
:101260001A6843F6F0718A43D0E900142143D0E9AB
:1012700002452C4321430469214344692143846985
:101280002143114319600021416301224277017714
:10129000084630BD012030BDF8FFFDBF0000024010
:1012A00070B5044690F82000002501280CD00120DC
:1012B00084F8200094F821600020012E06D084F8E4
:1012C00020000225284670BD022070BD022684F849
:1012D0002160A0632068066826F0010606602046AB
:1012E000FFF7B0FAE06A00282068016802D041F0F8
:1012F0000E0106E021F0040101602068016841F060
:101300000A0101602068016841F001010160D9E72C
:10131000064810B54FF0FF31016100220261C16043
:10132000C26000F039FE002010BD00000010024035
:1013300070B5044600F062FA0546601C02D004480D
:101340000078044400F05AFA401BA042FAD370BD62
:101350000C0000202DE9F047054626480F460126DF
:10136000017E01290FD00121814601762868DFF82E
:1013700088804CF25034022808D0A2462046FFF75D
:1013800095FBA8B131E00220BDE8F0872046FFF7C9
:101390008DFB08BB0120FFF729FB2046FFF786FBEA
:1013A000D8F81010064621F00401C8F810101CE00F
:1013B0004FF0FF303860AC6811E02046FFF728FBA3
:1013C0005046FFF773FBD8F81010060021F0020119
:1013D000C8F8101001D03C6007E004F58064D5E93E
:1013E000020100EB8120A042E7D8002189F8181003
:1013F0003046C9E7E80200200020024003480169A6
:1014000041F080010161002070470000002002408F
:101410000348016921F40071016100207047000058
:101420000020024005480169890505D4044981600E
:10143000044981600020704701207047002002406D
:1014400023016745AB89EFCD2DE9F05F07461C48C6
:1014500088460024017E15461E46012909D0012137
:10146000814601764CF2503A5046FFF71FFB18B107
:1014700022E00220BDE8F09F012F02D0022F00D011
:101480000427D346DFF83CA0220128463146FEF768
:1014900011FF81B208EB4400FFF7CCFA5846FFF782
:1014A00005FBDAF8102022F00102CAF8102018B962
:1014B000641CE4B2BC42E7D3002289F81820D9E7C3
:1014C000E802002000200240064900200A691206B6
:1014D00007D5054A4A60054A4A600969090600D5E8
:1014E000012070470020024023016745AB89EFCD02
:1014F0002DE9F04300233E4F0F2573E001229A406F
:101500000A406DD023F00304E619D6F808809C0742
:101510004FEA147C05FA0CF909EA0804DFF8D480D4
:10152000404502D14FF0000816E0DFF8CC8040457E
:1015300002D14FF001080FE0DFF8C080404502D132
:101540004FF0020808E0DFF8B880404502D14FF0C4
:10155000030801E04FF0040808FA0CF8A04522D176
:10156000284CD4F800C02CEA020CC4F800C0241D9A
:10157000D4F800C02CEA020CC4F800C0214C0C3492
:10158000D4F800C02CEA020CC4F800C0241FD4F820
:1015900000C02CEA020CC4F800C0D6F808C02CEA3F
:1015A000090CC6F808C0FF2A01D8064601E000F180
:1015B00004064FEA830401D9A4F12004D6F800C040
:1015C00005FA04F82CEA080C4FF0040808FA04F8AD
:1015D0004CEA080CC6F800C0C46824EA0204C460DF
:1015E00003F1010331FA03F288D1BDE8F083000072
:1015F0000000014000080140000C014000100140C3
:1016000000140140000401402DE9F84FDFF8B891C3
:101610000024A9F1040B23460F2709F1040AABF1BA
:10162000040EC9E00125A5402A40AA427DD1674E9B
:10163000D1F804C0ACEB0608B44532D014DCBCF1E0
:10164000030F3AD009DCBCF1000F2AD0BCF1010F26
:101650001CD0BCF1020F31D11DE0BCF1110F17D02D
:10166000BCF1120F2AD119E0B8F5881F19D006DC99
:10167000B8F5803F15D0B8F5801F1FD111E0B8F53F
:10168000001F0ED0B8F5041F18D10AE0CB6815E092
:10169000CB681B1D12E0CB6808330FE0CB680C331E
:1016A0000CE08B682BB1012B4FF0080303D0456190
:1016B00004E0042302E0056100E00023FF2A01D8D2
:1016C000064601E000F104064FEA840501D9A5F1C0
:1016D0002005D6F8008007FA05FC28EA0C0803FA72
:1016E00005F548EA0508C6F800804D68ED0062D5AA
:1016F000374DAE6946F00106AE61AD6924F00306D0
:1017000005F001050095334D06EB050CDCF808509B
:10171000A607360F07FA06F825EA0805DFF8B880AD
:10172000404503D14FF0000817E044E0DFF8AC80FB
:10173000404502D14FF001080FE0DFF8A48040459A
:1017400002D14FF0020808E0DFF89880404502D14E
:101750004FF0030801E04FF0040808FA06F848EAE1
:101760000508CCF808804D68D9F80060ED024D46B8
:1017700001D5164300E096432E604D68DAF800600C
:10178000AD02554601D5164300E096432E604D68E4
:10179000DBF80060AD035D4601D5164300E09643DB
:1017A0002E604D68DEF80060ED03754601D51643E6
:1017B00000E096432E60641C0D682A46E5407FF4E5
:1017C00031AFBDE8F88F000008040140000011109F
:1017D000001002400000014000080140000C0140E0
:1017E00000100140001401408068084000D0012032
:1017F00070470AB1016170470904FBE7014880683E
:10180000704700000C00002070B5040025D094F84B
:101810003D00002520B984F83C50204600F04AFBEA
:10182000242084F83D002068016821F00101016056
:101830002068016841F4004101602068016821F4DA
:101840000041016000F092FD4D4A6168914201D86B
:101850004C4900E04C49884201D2012070BD4B49FF
:101860002368B0FBF1F15E6826F03F060E435E6030
:101870006368934206D94FF4967359434FF47A73D1
:10188000B1FBF3F12368491C1E6A26F03F06314381
:1018900019626168914210D84900401EB0FBF1F214
:1018A000521CC2F30B02042A01D2042022E0B0FB36
:1018B000F1F0401CC0F30B001CE0A268F2B301EB96
:1018C000C10303EB0116431EB3FBF6F35B1C43F4A9
:1018D00080431B0549D092B301EBC10202EB011119
:1018E000401EB0FBF1F0401CC0F30B0040F4804000
:1018F00040F400402168CA694CF6FF739A431043D4
:10190000C861D4E9071001432068026822F0C002D0
:1019100011430160D4E9030101432068826848F261
:10192000FF339A4311438160D4E9050108432168DC
:10193000CA6822F0FF021043C86001E00EE016E022
:101940002068016841F0010101602564202084F8CD
:101950003D00256384F83E50002070BD01EB410638
:10196000431EB3FBF6F35B1CB3E70120C2E701EBB8
:101970004101401EB0FBF1F0401CC0F30B00B7E783
:10198000A086010080841E0000093D0040420F0037
:101990002DE9FF4F81B089460446FFF72FFF05462A
:1019A00094F83D004FF0000820287DD11923012232
:1019B00050492046009501F017FD002874D194F895
:1019C0003C00012870D0012084F83C0020680168A8
:1019D000C90703D1016841F0010101602068016875
:1019E00021F400610160242084F83D000026266473
:1019F0004148E0624FF0011B20272068016841F454
:101A0000807101600095002259462046049B01F038
:101A1000EBFC50B120680068C00502D54FF400709F
:101A20002064032005B0BDE8F08F216809F0FE00B6
:101A30000861FFF7E3FE2168054648694969C0F37C
:101A40004000C1F380214FF0A00A0FE0FFF7D6FE5F
:101A5000411B0498814200D808B984F83DA0216850
:101A600048694969C0F34000C1F3802194F83D20E2
:101A7000A02A02D008B90029E8D084F83D70206877
:101A80004169C943890716D4016841F400710160B6
:101A90002068416980691923012216492046009572
:101AA00001F0A2FCB8B900E021E084F83D7084F8B0
:101AB0003C600020B6E7016841F4007101602168D4
:101AC0006FF480604861192301220A49204600957D
:101AD00001F08AFC08B10120A4E7039808F101088D
:101AE00080458AD384F83D7084F83C60F3E7022097
:101AF00098E70000020010000000FFFF2DE9FF4FF3
:101B000083B00025DDE910799A4693460446DDF856
:101B100048800095FFF772FE064694F83D002028A5
:101B20007CD11923012285492046009601F05CFCF6
:101B30000028F5D194F83C0001286FD0012084F8EA
:101B40003C0020680168C90703D1016841F0010128
:101B500001602068016821F400610160222084F89E
:101B60003D00402084F83E0025646762A4F82A9076
:101B7000608D20857248E062CDE9008653465A4662
:101B80002046049901F032FB00287DD1208DDFF83A
:101B9000B491202768B1012814D002282068016878
:101BA0001ED041F480610160206841698069009025
:101BB000B6E02068416981690091016841F40071D3
:101BC0000160ADE02068016821F48061016072B6B7
:101BD0002068416981690091016841F400710AE05F
:101BE00041F40061016072B6206841698169009129
:101BF000016821F48061016062B691E0032868D831
:101C000001280CD0022843464FF0000249462046E6
:101C100000960FD001F0E8FBB0BB10E08BE032463D
:101C20004146204601F086FC70BB20680069616A6D
:101C300008706CE001F0D8FB30BB72B634E020686D
:101C4000016821F48061016072B620680069616AF0
:101C50000870606A401C6062208D401E2085608D87
:101C6000401E6085384846F2A8110068B0FBF1F0CC
:101C7000C0EBC00000EB80000090401E009008D038
:101C800020684069C04300E029E040070CD5009877
:101C9000F3E744F8305F6773A573206940F02000D4
:101CA000206162B625731AE02068016841F4007172
:101CB000016020680069616A0870606A401C6062A7
:101CC000218D491E2185618D491E618562B621687D
:101CD0001BE032464146204601F02CFC18B10120A1
:101CE00007B0BDE8F08F20680069616A0870606A1B
:101CF000401C6062218D491E2185618D491E6185D0
:101D000021684A69D24352070AD409690170606A9E
:101D1000401C6062208D401E2085608D401E6085C5
:101D2000208D00287FF46AAF84F83D7084F83E501F
:101D300084F83C50D4E70220D2E7000002001000F3
:101D40000000FFFF04000100180000202DE9FF4FF4
:101D500083B09A46DDE9119793460446DDF840804A
:101D6000FFF74CFD054694F83D0020287FD119234C
:101D7000012240492046009501F036FB002876D12B
:101D800094F83C00012872D0012084F83C002068BF
:101D90000168C90703D1016841F0010101602068B1
:101DA000016821F400610160212084F83D00402099
:101DB00084F83E0000262664C4F82480A4F82A9003
:101DC000608D20852C48E062CDE9007553465A4667
:101DD0002046049901F088FA70B930E02A46394665
:101DE000204601F0DFFB58B1206C042804D12068A4
:101DF000016841F400710160012007B0BDE8F08F77
:101E0000606A216800780861606A401C6062218D08
:101E1000491E89B22185628D521E628522685369EE
:101E2000DB435B070BD469B100781061606A401C2A
:101E30006062208D401E2085608D401E6085208D53
:101E40000028CBD12A463946204601F0A1FA0028C5
:101E5000CAD154F83D0B016841F4007101602020A3
:101E600004F81E09E67766770020C6E7FFE7022040
:101E7000C3E70000020010000000FFFF10B500687B
:101E8000094988420FD10948C16921F40011C16193
:101E9000074C81152046FFF72BFB61152046BDE856
:101EA0001040FFF725BB10BD005400400010024059
:101EB000000C014010B586B0002100910191029103
:101EC000039100681349884222D1134CA06940F065
:101ED0000800A061A069694600F0080004904FF472
:101EE0004070009012200190032003900B48FFF7F0
:101EF0008BFB0B48416841F0E06141F00201416019
:101F0000E06940F40010E061E06900F40010049022
:101F100006B010BD0054004000100240000C01400B
:101F200000000140024881680278114481607047D6
:101F30000C000020074810B5016841F01001016055
:101F4000032000F087F80F2000F006F800F026F8D4
:101F5000002010BD0020024070B50D4D04464FF426
:101F60007A712878B1FBF0F00A490968B1FBF0F00A
:101F700000F0A0FC48B9102C07D200222146501EC8
:101F800000F048F800206C6070BD012070BD0000BA
:101F90000C00002018000020704700000C4808B515
:101FA000816941F001018161816901F001010091C4
:101FB000C16941F08051C161C06900F0805000905A
:101FC0000448416821F0E06141F00071416008BDC2
:101FD000001002400000014000280DDB00F01F024D
:101FE000012191404009800000F1E020C0F88011FB
:101FF000BFF34F8FBFF36F8F7047002809DB00F0EE
:102000001F02012191404009800000F1E020C0F84A
:1020100000117047F0B40E4B1B680C46C3F302234B
:10202000C3F10705042D00D90425191D072901D284
:10203000002300E0DB1E012606FA05F1491E2140BF
:1020400099409E40761E16403143F0BC02F054BDCC
:102050000CED00E0064900F0070208684FF6FF03A8
:10206000184040EA0220034A10430860704700000D
:102070000CED00E00000FA052DE9F8430546007874
:10208000354CC00754D0E0690026C00008D4E06990
:1020900040F08050E061E069012600F0805000903F
:1020A0002E480168C90512D40168804641F4807148
:1020B0000160FFF7A3FB074605E000BFFFF79EFBAB
:1020C000C01B642823D8D8F80000C005F6D5206AC4
:1020D00010F4407021D0A98801F4407181421CD0D5
:1020E000206A1F49012220F440700A6000220A6021
:1020F0002062C00711D0FFF781FB074641F2883804
:1021000008E000BFFFF77AFBC11B414502D903205D
:10211000BDE8F883206A8007F4D5206A696820F456
:102120004070084320621EB1E06920F08050E061F9
:102130002878800705D56068A96820F440400843E6
:1021400060602878C00605D56068E96820F48000E2
:10215000084360600020DBE7001002400070004090
:10216000400442422DE9F0470F46050061D0434E3E
:10217000306800F00700B84209D2306820F007004C
:1021800038433060306800F00700B84251D1286809
:102190003B4C810712D5400703D5606840F4E060EE
:1021A00060602878000703D5606840F46050606084
:1021B0006068A96820F0F000084360602878C007D4
:1021C00028D06868012810D02168022810D089071B
:1021D00000292EDA616821F0030101436160FFF7F5
:1021E0000DFB804641F288390DE021688903EFE755
:1021F0008901EDE7FFF702FBA0EB0801494502D991
:102200000320BDE8F0876068696800F00C00B0EB5F
:10221000810FEFD1306800F00700B8420BD9306869
:1022200020F0070038433060306800F00700B84203
:1022300001D00120E5E72878400705D56068E96806
:1022400020F4E060084360602878000706D56068E5
:10225000296920F4605040EAC100606000F0A6F8EF
:102260006168084AC1F30311515CC840064908601F
:1022700006480068FFF770FE0020C2E70020024019
:1022800000100240425D00081800002010000020ED
:102290002DE9F041FFF7B2FA304C0546206840F0D6
:1022A0000100206005E000BFFFF7A8FA401B0228EC
:1022B00043D820688007F7D5206820F0F80040F068
:1022C00080002060FFF79AFA00250646656041F21B
:1022D000883704E0FFF792FA801BB8422DD8606877
:1022E00010F00C0FF6D11F491D4808601E48006809
:1022F000FFF732FE10B10120BDE8F081FFF77EFA52
:102300000646206820F08070206004E0FFF776FA2F
:10231000801B022811D820688001F7D46560FFF780
:102320006DFA0646206820F41020206007E000BF08
:10233000FFF764FA801B642801D90320DCE72068DA
:102340008003F5D4206820F480202060606A40F08B
:1023500080706062A5600020CEE70000001002409F
:1023600000127A00180000201000002004480549DF
:1023700000684968044AC1F30221515CC8407047B3
:102380001800002000100240525D00080448054972
:1023900000684968044AC1F3C221515CC8407047D3
:1023A0001800002000100240525D00080F4A5168DA
:1023B00001F00C00042803D0082803D00C48704713
:1023C0000C4870470C48C1F38343C903C05C0AD56D
:1023D0005168094AC1F34041921E515C054A50437D
:1023E000B0FBF1F0704705494843704700100240C8
:1023F00000127A000024F400325D000800093D005C
:1024000030B585B000200290022001900320039097
:102410000B4C4FF480700090A0690D4640F0040012
:10242000A061A069694600F0040004900548FFF728
:10243000EBF8606820F0E0602843606005B030BDD4
:1024400000100240000801402DE9F84F040070D050
:102450002078C04DC00749D06868C0F381000128CA
:1024600007D06868C0F38100022809D16868C003FA
:1024700006D52868800339D560680028E7D035E0A4
:102480006068B0F5803F0BD010B1B0F5A02F11D02F
:10249000286820F480302860286820F4802002E03A
:1024A000286840F480302860606890B1FFF7A6F992
:1024B00006460AE0286840F480202860F0E700BF64
:1024C000FFF79CF9801B642873D828688003F7D530
:1024D0000CE0FFF793F9064605E000BFFFF78EF921
:1024E000801B6428F0D828688003F7D420789A4E9F
:1024F00080074FF001094FF0000839D5686810F0E7
:102500000C0F07D06868C0F38100022809D1686801
:10251000C00306D42868800714D52069012808D193
:1025200010E02069B0B1C6F80090FFF767F90746E0
:1025300005E00AE1FFF762F9C01B0228C4D8286849
:102540008007F7D52868616920F0F80040EAC100EB
:1025500028600DE0C6F80080FFF750F9074604E058
:10256000FFF74CF9C01B022823D828688007F7D44E
:10257000207800072CD57948A169D9B1C0F800901E
:10258000FFF73CF9074604E0FFF738F9C01B0228C3
:102590000FD8686A8007F7D571484FF4FA51006880
:1025A000B0FBF1F0009000BF0098411E0091FAD2FC
:1025B0000EE080E0C0F80080FFF720F9074604E055
:1025C000FFF71CF9C01B022875D8686A8007F7D48A
:1025D0002078400760D5E8690027C00008D4E86982
:1025E00040F08050E861E869012700F080500090D9
:1025F0005C480168C90513D40168834641F48071C1
:102600000160FFF7FBF8824606E000BFFFF7F6F82F
:10261000A0EB0A0064284ED8DBF80000C005F5D511
:10262000E06801280AD008B1052813D0286A20F0F4
:1026300001002862286A20F0040002E0286A40F0C5
:1026400001002862E06841F2883B98B1FFF7D6F8B4
:1026500082460BE0286A40F004002862EEE700BFE3
:10266000FFF7CCF8A0EB0A0159455AD8286A800731
:10267000F6D50CE0FFF7C2F8824605E0FFF7BEF89A
:10268000A0EB0A0159454CD8286A8007F6D41FB13F
:10269000E86920F08050E861E06988B36968C1F3B7
:1026A0008101022944D00228C6F8608004D0FFF7D7
:1026B000A5F8044638E034E0FFF7A0F8074604E048
:1026C000FFF79CF8C01B02282BD828688001F7D49C
:1026D000206AB0F5803F05D16868A16820F4003019
:1026E00008436860D4E908010843696821F474115B
:1026F00008436860C6F86090FFF780F8044606E07B
:1027000025E000BFFFF77AF8001B022809D82868E7
:102710008001F7D51BE000BFFFF770F8001B02280F
:1027200002D90320BDE8F88F28688001F4D40EE0B8
:102730000128F7D06868226A00F48031914204D100
:10274000616A00F47010884201D00120EAE700209D
:10275000E8E70000001002400000424280044242CC
:10276000180000200070004070B5040009D0606AB5
:10277000002540B125616561A56294F8510040B122
:102780000CE0012070BD6068B0F5827FF4D0E56197
:10279000F2E784F85050204600F054F8022084F804
:1027A00051002068016821F040010160A088218962
:1027B00000F4827001F404410843A18901F400612E
:1027C0000843217C01F002010843217D01F0010151
:1027D0000843218B01F400710843217F01F0380187
:1027E000084394F8201001F080010843218D01F482
:1027F0000051084321680860A069042101EA1040E3
:10280000216848602068C16921F40061C161656583
:10281000012084F85100002070BD000000680649C6
:10282000884208D10548816921F480518161F021F5
:102830000348FEF75DBE70470030014000100240C3
:102840000008014030B585B0002400940194029442
:10285000039400681449884223D11448816941F4E3
:1028600080518161816901F480510491816941F055
:102870000401816180690E4D00F004000490B020D5
:102880000090022001900320039069462846FEF73D
:10289000BBFE4020CDE90004694628460294FEF7BD
:1028A000B3FE05B030BD0000003001400010024012
:1028B0000008014010B5401EB0F1807F01D3012017
:1028C00010BD4FF0E02460610F21601702F014F991
:1028D0000020A06107202061002010BD70B590F895
:1028E0003C20012A26D0012480F83C40022280F8B6
:1028F0003D2003685A689D6822F070060A683243DA
:102900005A600D4B02689A4208D0B2F1804F05D050
:102910000A4B9A4202D00A4B9A4204D1496825F0E8
:1029200080031943916080F83D40002180F83C10FD
:10293000084670BD022070BD002C0140000400401C
:102940000008004010B5040003D094F83D0010B119
:1029500007E0012010BD002084F83C00204600F074
:102960001FF8022084F83D00211D206801F090FC32
:10297000012084F8460084F83E0084F83F0084F883
:10298000400084F8410084F8420084F8430084F851
:10299000440084F8450084F83D00002010BD00008C
:1029A00008B500680649884208D10648C16941F067
:1029B0000201C161C06900F00200009008BD000082
:1029C000000400400010024070B5044690F83C003E
:1029D0000025012817D0012684F83C60022084F8E5
:1029E0003D002068826822F0770222F47F428260F4
:1029F0000868502838D00DDC20284FD005DC90B373
:102A0000102811D14AE0022070BD302846D040285D
:102A10000AD13BE060282FD070280DD0B0F5805F40
:102A200003D0B0F5005F12D0012584F83D6000208E
:102A300084F83C00284670BDCB68D1E901212068AC
:102A400001F069FC2068816841F0770109E0CB68FA
:102A5000D1E90121206801F05EFC2068816841F421
:102A600080418160E1E719E0CA684968206801F0A7
:102A700007FD5021206806E0CA684968206801F017
:102A800010FD6021206801F050FCCEE7CA6849685B
:102A9000206801F0F5FC40212068F4E72268014637
:102AA0001046F0E710B586B0002100910191029127
:102AB00003911A4C03681A4902221A48A34219D1F9
:102AC0008B6943F008038B618969039201F0080167
:102AD00004911021CDE900126946FEF795FD1248D8
:102AE000416821F4406141F0E06141F400614160DE
:102AF00006B010BD0D4CA342FAD18B6943F0080318
:102B00008B618969039201F008010491C021CDE92C
:102B100000126946FEF778FDEAE700000004004075
:102B200000100240000C014000000140000800407D
:102B300070B5044690F83C0000260D4601280FD0E1
:102B4000012084F83C006AB1042A1DD0082A2FD045
:102B50000C2A3FD00126002084F83C00304670BD8E
:102B6000022070BD206801F0E9FB2068816941F016
:102B7000080181612068816921F004018161206878
:102B800081692A69114311E0206801F0FFFB206888
:102B9000816941F4006181612068816921F480616B
:102BA0008161206881692A6941EA02218161D2E755
:102BB000206801F017FC2068C16941F00801C1617B
:102BC0002068C16921F00401C1612068C1692A69D6
:102BD000114311E0206801F031FC2068C16941F423
:102BE0000061C1612068C16921F48061C161206810
:102BF000C1692A6941EA0221C161ACE710B504004C
:102C000003D094F83D0010B107E0012010BD002072
:102C100084F83C00204600F01FF8022084F83D00B4
:102C2000211D206801F034FB012084F8460084F85F
:102C30003E0084F83F0084F8400084F8410084F8A6
:102C4000420084F8430084F8440084F8450084F886
:102C50003D00002010BD000008B50068064988420C
:102C600008D10648C16941F00401C161C06900F0A2
:102C70000400009008BD0000000800400010024061
:102C800010B50446022249B104290ED0082913D0F8
:102C900094F84100012816D0012010BD94F83E00A0
:102CA0000128F9D184F83E200FE094F83F00012874
:102CB000F2D184F83F2008E094F840000128EBD1DD
:102CC00084F8402001E084F841200122206801F0CE
:102CD00015FB0F492068884203D1426C42F4004240
:102CE00042642068884208D0B0F1804F05D009497D
:102CF000884202D00849884204D1816801F0070166
:102D0000062903D0016841F001010160002010BDD7
:102D1000002C01400004004000080040704770474C
:102D2000F8B5016804460868CA684B6910F00F0FCF
:102D30004FF0000559D003F0010602F490773743B5
:102D400065D0C10705D0D10503D5616C41F0010103
:102D50006164410705D5D90703D0616C41F00201D8
:102D60006164810705D5D90703D0616C41F0040186
:102D70006164010707D502F02001314303D0616C83
:102D800041F008016164616C00293AD0800604D5E5
:102D9000900602D5204601F023FD20684069616C51
:102DA000C0F38010090700D460B3204601F0E3FCB3
:102DB00020684069400621D52068143050E8001F83
:102DC00021F0400140E80012002AF5D1E06BA8B1E3
:102DD0006D494163E06BFEF711F9002811D0E06BFB
:102DE000416B01B0BDE8F040084783060FD593065C
:102DF0000DD52046BDE8F84001F0F2BC2046FFF7B3
:102E00008EFFF8BD2046FFF78AFF6564F8BD266B8C
:102E10002023012E7CD1C6067AD5D60678D508683F
:102E20004868009048694FF00206400640D5E16BC3
:102E3000086840680004000CE8D0A28D8242E5D901
:102E4000E085886920282DD020680C3050E8001FCC
:102E500021F4807140E80012002AF5D12068143076
:102E600050E8001F21F0010140E80012002AF5D1CE
:102E70002068143050E8001F21F0400140E80012A3
:102E8000002AF5D184F84230256320680C3050E8E0
:102E9000001F21F0100140E80012002AF5D1E06B7C
:102EA000FEF788F86663A08DE18D401A81B22AE0B2
:102EB000A08DE18D401A81B2E08D0028A6D00029B6
:102EC000A4D022680C3252E8000F20F4907042E83F
:102ED0000007002FF5D12068143050E8002F22F0B1
:102EE000010240E80027002FF5D184F84230256325
:102EF00020680C3050E8002F22F0100240E8002338
:102F0000002BF5D166632046FFF708FFF8BDFFE709
:102F100005062BD5150629D594F841002128F5D1B1
:102F2000A068B0F5805F01D12069B0B1206A411C72
:102F30002162216800784860E08C401E0004000C8B
:102F4000E084E3D12068C16821F08001C16020687D
:102F5000C16841F04001C160D8E7206A0088C0F331
:102F600008004860206A801C2062E5E74006CDD555
:102F70005006CBD5CA68204622F04002CA6084F8C9
:102F8000413000F019F9C1E77946000870B5040036
:102F900004D094F84100002510B106E0012070BD76
:102FA00084F84050204600F057F8242084F841006F
:102FB0002068C16821F40051C160204601F072FC14
:102FC0002068016921F4904101612068416921F084
:102FD0002A0141612068C16841F40051C160656403
:102FE000202084F8410084F842006563002070BD11
:102FF00010B50446134A0168134891420DD1816906
:1030000021F4804181614FF4C0611048FEF770FAED
:10301000E06BFEF73FF825200FE00D4A914210D1FA
:10302000C16921F48021C1614FF440610948FEF774
:103030005FFAE06BFEF72EF82720BDE81040FEF7A0
:10304000CBBF10BD00380140001002400008014015
:1030500000480040000C01402DE9F04186B00024FA
:103060000094019402940394064603684348DFF8F1
:1030700008C1022103220515802763453AD18369DF
:1030800043F480438361836903F480430493836939
:1030900043F0040383618069DFF8E48000F00400FA
:1030A00004900802CDE90001039269464046FEF70C
:1030B000ABFACDE90054694640460294FEF7A4FA03
:1030C000314D3048C5E90004C5E9024720202C6194
:1030D000C5E905402846EC61FEF7B4F808B1FDF7F4
:1030E00083FCF5630022114625206E62FEF792FFF5
:1030F00025203CE0DFF894C063453AD1C36943F42E
:103100008023C361C36903F480230493836943F07C
:10311000080383618069CDE9005100F00800CDE922
:1031200003201B4D69462846FEF76EFAE814CDE9E8
:103130000004694628460294FEF766FA1148154DC8
:103140002838C5E90004C5E902472C616C61AC610F
:103150002846EC61FEF776F808B1FDF745FCF5630B
:103160000022114627206E62FEF754FF2720FEF74B
:1031700044FF06B0BDE8F081003801400010024075
:1031800000080140580002405C0200200048004056
:10319000000C0140A002002090F84230202B01D00A
:1031A0000220704721B11AB10023036301F0D6BB9E
:1031B00001207047704770477047FEE701684A6911
:1031C000D24352050FD46FF480624A61002140F867
:1031D000301F202242738173026942F004020261AF
:1031E0000173012070470020704700002DE9F84F5F
:1031F0000446006889460B9D01689846174641F4CD
:10320000806101602068016841F48071016000956F
:103210004FF0011B0022594620460A9B00F0E4F8BB
:103220004FF4007A40B120680068C00501D5C4F8A9
:1032300040A00320BDE8F88F216809F0FE00086176
:103240002B46284920460A9A00F016F9F0BB206860
:103250004169806900902A4620460A9900F0A2F947
:1032600040B1206C04283AD12068016841F4007113
:10327000016034E0FEB2B8F1010F09D02168380ACC
:1032800008612A4620460A9900F08CF90028E8D106
:10329000206806612A4620460A9900F083F9002832
:1032A000DFD12068016841F480710160009500223F
:1032B000594620460A9B00F097F80028B3D12168B0
:1032C00009F0FF0040F00100086100E007E02B4634
:1032D000044920460A9A00F0CFF80028AAD001201D
:1032E000A8E70000020001002DE9F8430446006849
:1032F0000D46DDE9089701689846164641F480714D
:1033000001604B4600224FF001112046009700F06B
:103310006BF848B120680068C00502D54FF4007012
:1033200020640320BDE8F883216805F0FE000861F1
:103330003B464A461549204600F09EF888B9206869
:103340004169806900903A464946204600F02AF9D2
:1033500048B1206C042804D12068016841F4007150
:1033600001600120DEE7F5B2B8F1010F09D0216854
:10337000300A08613A464946204600F013F9002811
:10338000E7D1206805610020CCE7000002000100C1
:1033900070B516460D4604461EE02046FFF70EFFA8
:1033A00008B1012070BD681C16D0FEF727FA801BFB
:1033B000A84200D885B920684069C04340070BD5B2
:1033C000002044F8300F20216173A073216941F07F
:1033D000200121612073E4E720684069C043400771
:1033E000DBD4002070BD00002DE9F0479846174659
:1033F0000D460446C1F30746DDF820902AE000BFE1
:10340000B8F1FF3F26D0FEF7F9F9A0EB09014145DD
:1034100002D8B8F1000F1DD12068012E16D08069A6
:1034200025EA00000004000C12D00020B84211D19F
:10343000002044F8300F20216173A073216941F00E
:103440002001216120730120BDE8F0874069E7E792
:103450000120EBE72068012E0AD0806925EA0000F0
:103460000004000C06D00020B842C9D00020EBE7D1
:103470004069F3E70120F7E72DE9F0479846164643
:103480000D4604464FF000094FF0200AC1F30747EC
:1034900023E020684069C043400515D420680168D6
:1034A00041F40071016021686FF480604861C4F8E4
:1034B000309084F83DA084F83E90216C41F00401E6
:1034C000216484F83C9021E0701C06D0FEF796F948
:1034D000A0EB0800B04203D816B1012F1FD021E0A5
:1034E0002068012F15D0806925EA00000004000C37
:1034F00018D000BF44F8309F84F80DA084F80E90D7
:10350000216941F02001216184F80C900120BDE87F
:10351000F087406925EA00000004000CEAD1206829
:10352000406901E02068806925EA00000004000C81
:10353000AFD1ECE72DE9F041002590460E46044658
:10354000202728E04069C043C0060CD454F8301B43
:103550006FF01000486144F810596777A577206A2A
:103560002062257714E0FEF749F9A0EB0800B0428D
:1035700000D886B920684069C04340060BD544F89E
:10358000305F6773A573206940F0200020612573C8
:103590000120BDE8F08120684169C9434906D1D4C2
:1035A0000020F6E770B516460D4604461EE020469C
:1035B000FFF704FE08B1012070BD681C16D0FEF7AD
:1035C0001DF9801BA84200D885B920684069C04316
:1035D00000060BD5002044F8300F20216173A07342
:1035E000216941F0200121612073E4E720684069EE
:1035F000C0430006DBD4002070BD0000F0B50023FE
:1036000001EB830511F8234000F8234000EB83040D
:103610006E786670AE78A670ED785B1CE570082B4E
:10362000EED32A4C082399000E1F5FEA437E855D86
:10363000064465F3070296F801C0B7786CF30F22D1
:10364000F67867F3174266F31F6212D1E75DA65D55
:1036500067F30F22655D66F3174265F31F621C4D29
:1036600014F80CC005EBD3052D788CEA050C6CF32F
:10367000070203F00705042D11D1D5B2655D65F38E
:103680000702C2F30725655D65F30F22C2F3074504
:10369000655D65F31742150E655D65F31F62A1F167
:1036A00020055B1C465D0544564046546E78014437
:1036B00086EA12264E70AE783C2B86EA12468E7051
:1036C000ED7885EA1265CD70ADD3F0BD385F0008A6
:1036D0003861000810B504464FF400510B48FEF75E
:1036E00083F800280AD10A490878401CC2B2094868
:1036F0000A70012A03D114B1FA21016010BD002320
:103700000360142AFAD30B7010BD000000100140B2
:10371000000000203404004030B50F4A0546A9B02F
:1037200007CA1DAB002483E80700684602F0DAF9F7
:103730000C221DA9684602F093FA20A9684602F0FF
:103740006FF9202220A92846FCF7E6FD00B90124E4
:1037500029B0204630BD0000E8F7FF1FF0B5C7B024
:103760000646082900D300210C4602F00F070BB1D2
:10377000274801E02648803800EB0411102240A8B9
:10378000FCF7F6FD224904EB4400803101EB800098
:103790000168449141684591806846906FB1002569
:1037A00009E0102140A802F07FFA0C2144A802F0A1
:1037B0007BFA6D1CEDB2BD42F3D347EA041444A971
:1037C00040A801F0D5F913A0144A008830801248AF
:1037D0000168C6F802104168C6F806108068C6F88D
:1037E0000A003474A2F120016846FCF7C6FF1022DB
:1037F00031466846FCF7A5FF084820212038FCF731
:103800002EFE10210548FCF72AFE47B0F0BD00004F
:10381000DC5D000854520000E8F7FF1F2A04002076
:103820003EB5002410480094019402940D49846030
:10383000016004730475012505614FF46021446043
:10384000C161FDF7DBF908B172B6FEE7CDE90045CD
:10385000694605480294FDF753F9002801D072B675
:10386000FEE73EBD00240140380000200E4810B5A0
:103870000C4901600421416000214FF46022816005
:10388000C0E903124FF480124261017641768176DD
:10389000C17601774177FDF77FFA002801D072B633
:1038A000FEE710BD00640040680000202DE9F04FE5
:1038B00085B000243F4800940194029403948169E8
:1038C00041F010018161816901F010010491816969
:1038D00041F020018161816901F020010491816939
:1038E00041F004018161816901F004010491816961
:1038F00041F0080181618069DFF8BC9000F00800A8
:103900004FF440450490002229464846FDF771FFD8
:10391000DFF8A8A04CF22A07002239465046FDF7EE
:1039200068FFDFF89CB04FF400480022414658463B
:10393000FDF75FFF4FF40050CDE9000469464846AB
:103940000294FDF761FE0126CDE900560225694685
:103950004846CDE90245FDF757FE1A480096CDE9E5
:10396000010469465046FDF74FFECDE900766946F1
:103970005046CDE90245FDF747FE4FF44050CDE9F2
:103980000004694650460294FDF73EFEE801CDE989
:103990000005694658460395FDF736FECDE90086D9
:1039A00069465846CDE90245FDF72EFE05B0BDE853
:1039B000F08F00000010024000100140000C014098
:1039C00000080140000011100F4810B50D490160BA
:1039D0004FF48271416000218160C1604FF4802208
:1039E0000161C0E905121022C0E90721416281622C
:1039F0000A21C162FEF7B8FE002801D072B6FEE7C8
:103A000010BD000000300140E400002010B58EB071
:103A100000240794089409940A940B941C21684686
:103A20000C94FCF73EFD1E481C4901604721C0E98B
:103A300001144FF4FA71C0E903148461FEF782FFA8
:103A400008B172B6FEE74FF48050079007A91448FA
:103A5000FEF7BAFF08B172B6FEE71148FFF7CEF8DD
:103A600008B172B6FEE70B940BA90D480C94FEF753
:103A700035FF08B172B6FEE76020CDE9000402947C
:103A80000022694606480494FFF752F808B172B65E
:103A9000FEE70348FFF706F80EB010BD0004004033
:103AA0003C01002010B58AB0002407941C21684610
:103AB0000894FCF7F6FC1A481849C0E900144FF6C0
:103AC000FF71C0E9024104618461FFF797F808B112
:103AD00072B6FEE7079407A911480894FEF7FEFEA8
:103AE00008B172B6FEE76020CDE90004029400221E
:103AF00069460B480494FFF71BF808B172B6FEE75D
:103B0000042269460648FFF713F808B172B6FEE7CB
:103B10000348FEF7C7FF0AB010BD000000080040D0
:103B2000840100200E4810B50C4901604FF4E131CA
:103B30004160002181600C22C160C0E904128161F2
:103B4000C161FFF723FA08B172B6FEE703480C30F3
:103B5000016841F01001016010BD00000038014013
:103B6000CC010020FEE700002DE9F0435FF00005E6
:103B700000EB850C10F825209CF801709CF80240A1
:103B800082EA07039CF803604FEAD31884EA060927
:103B900008EBC80883EA090108EB480888EA4303F0
:103BA0004B40534000F8253087EA04034FEAD3180E
:103BB00008EBC80808EB480888EA43034B405F401D
:103BC0004FEAD91303EBC30303EB430383EA49032F
:103BD0004B405C4086EA0203DA0902EBC20202EBC8
:103BE000420282EA43024A408CF8017056406D1C42
:103BF0008CF80240EDB28CF80360042DB8D3BDE818
:103C0000F083FEE77047704770B500F05DFC054635
:103C100000262A4C46E000BF00F066FC217861B126
:103C200001290FD0022911D0032915D004291ED053
:103C3000052923D0062935D127E0242808D10120E1
:103C400020702FE04D2803D10220F9E73E2801D053
:103C50000020F5E70320F3E7FC2801D9267021E0D6
:103C600004212170A07066712671E0701AE00521B0
:103C700021706070E1784140E17013E008B1667036
:103C8000ECE7E078E0700620DAE76179A27891420B
:103C90000CD2E2784240E270084A921D8854607962
:103CA000401C60716D1EADB2B6D270BD2670E17859
:103CB0008142FAD1BDE8704000F002B8080300204C
:103CC000F0B5524E524989B070784C1E0870207879
:103CD000002728B1FDF792FD6168884200D927705E
:103CE00070784C4D64285BD007DCB8B1012819D03E
:103CF000022825D0032808D135E0652846D066285B
:103D000051D067286DD0682874D00021012000F0C0
:103D10008BF809B0BDE8F04000F0E6B8002000F0F4
:103D20007FF8F6E7042000F07BF8012000F0D0F8DF
:103D30008D2000F0CDF80221374800F0BDF8E8E70B
:103D4000FCF728FAC0B2010900F00F02012368460F
:103D5000FFF704FD112000F063F81121684600F020
:103D6000ABF82770D5E72021684600F08FF8684649
:103D7000FFF7D2FC207020B1FDF740FD2749084431
:103D80006060012000F04CF8207806E028780228D6
:103D900033D000BF00F072FF2FE000F099F8B8E7D1
:103DA00001F090FF29E028780227022814D101228F
:103DB000322100F08FF9B0783179401AC0F38704CE
:103DC00008E000BF00F059F800F0A0FF070003D1A1
:103DD000641EE4B2002CF5D1012000F021F8384631
:103DE000DBE72878022894D101F00AF800F0CCFF34
:103DF0008FE7FFE72878022804D0012000F010F8B0
:103E00002878CAE700F0FCFFC4E7000008030020A0
:103E10001D000020250000205A5D0008E0930400EA
:103E200001460020AFF3008070B50E4D064600201D
:103E3000A8700C466970242000F0C4FB4D2000F0EF
:103E4000C1FB0EB1212000E03E2000F0BBFB20466C
:103E500000F03EF8287800F03BF8BDE87040002004
:103E600000F036B81D00002000B500F01BF8034636
:103E700000F018F843EA002000BD10B5FFF7F4FF8A
:103E80000446FFF7F1FF44EA004010BD10B50C46B0
:103E9000034603E000F006F803F8010B641EE4B2E9
:103EA000F8D210BD034A901D1179085C491C1171AC
:103EB000704700000803002070B50D46044603E07B
:103EC00014F8010B00F004F86D1EEDB2F8D270BDCD
:103ED00010B5044600F076FB02488178614081709D
:103EE00010BD00001D0000200148807800F06ABB72
:103EF0001D000020417842794270427A4271427B33
:103F0000427241738178827A827081728179827B78
:103F100082718173C178C27BC270C27AC273C27966
:103F2000C272C171704770B50446FDF767FC054663
:103F3000E068A8420ED8207C032849D007280AD080
:103F4000001F022806D8204600F004F9D4E9021028
:103F50000844E06070BD60690028FBD0217E405CB1
:103F60000028F7D02D2820D02E2825D005F5FA6579
:103F7000E560607C28B1204600F0ECF8607C002809
:103F8000E8D1207E401CC0B22076617E8842E1D319
:103F900000202076E17E491CC9B2E176A27E9142E2
:103FA000D8D3E0760220207428E0204600F0D2F832
:103FB00005F54875E560E1E7204600F0CBF8607C48
:103FC00008B1C82001E04FF4C8702844E060D5E78C
:103FD000A0790028BED0204600F0BCF8D4E9021039
:103FE0000844E060607C0028B4D1A079401E10F045
:103FF000FF00A071AED1204600F050F8A06A002862
:10400000A8D0BDE87040004705490988884204D21D
:10401000044951F82000007C7047002070470000E0
:10402000340000204C0900202DE9F047184D8CB0D9
:1040300081462888DDF850A01E4617468846062887
:1040400023D22C20FCF7E0F804001ED02C221149CA
:104050006846FCF7D2F9CDF80090ADF804808DF8F1
:104060001270CDE9096A2C2269462046FCF7C5F991
:104070000949288841F82040401C2880204600F04B
:104080000DF801200CB0BDE8F0870020FAE7000031
:10409000340000200C5F00084C09002010B50446D5
:1040A000807C08B1012200E00022A1882068FDF791
:1040B000A0FB0020607410BD10B50446807C38B1B0
:1040C0000022A1882068FDF794FB0120607410BDD8
:1040D0000122F6E7084B10B51B8898420AD2074B1D
:1040E00053F82040A16053F820108A7153F8200043
:1040F0000321017410BD0000340000204C09002091
:10410000124A1288904216D2062900D90621104A76
:10411000072952F8203019740DD2DFE801F00C0F96
:10412000130C04070D004FF4487101E04FF4C871FF
:1041300052F8200081607047C821F9E752F820004A
:10414000FFF7BABF52F82000FFF7A8BF34000020E5
:104150004C09002010B50446407C0028204602D0BF
:10416000FFF79CFF01E0FFF7A7FF616A002903D07A
:10417000607CBDE81040084710BD00002DE9F0410B
:10418000FDF73CFB002406460F4DA0460F4F16E0FE
:1041900055F82400C168B14201D8FFF7C4FE55F8B4
:1041A0002410086A48B1B04207D8C1F8208055F8F9
:1041B0002400017F2046FFF7A3FF641CE4B2388887
:1041C0008442E5D3BDE8F0814C0900203400002092
:1041D00030B5084B0021002200EB8204521C655CC4
:1041E000D2B2042A5D5D6554F6D3491CC9B20429D4
:1041F000F1D330BD385F000810B5FDF793FEBDE880
:104200001040FFF7BBBF30B593B028216846FCF7DC
:1042100048F914210AA8FCF744F9002501210804F3
:104220000F951095CDE9001011954200129502925C
:1042300002240491CDE907404FF4E010099068464C
:10424000FEF702F908B172B6FEE70AA90F2081E86D
:1042500031004FF48060CDE90D0502210AA8FDF779
:1042600081FF08B172B6FEE74FF4004011900F9441
:104270000FA8FDF701FF08B172B6FEE700224FF06C
:10428000C0611046FEF7BCF813B030BD70470000A7
:10429000F0B50268164B174C174D4FF08047984207
:1042A00005D0B84203D0A04201D0A84203D122F0E9
:1042B00070064A683243984205D0B84203D0A04203
:1042C00001D0A84203D122F44074CA6822434C6949
:1042D00022F08002224302608A68C2620A68826217
:1042E000984201D10969016301214161F0BD0000DB
:1042F000002C0140000400400008004010B501F00F
:104300001F030121046A99408C430462016A9A40A8
:104310001143016210BD10B5846842EA032224F4FF
:104320007F440A432243826010BD826822F07002FB
:104330000A4342F0070181607047000030B5036A0C
:10434000026A22F0010202624268846924F0730565
:104350000C682C4323F002058B682B430A4DA842BE
:104360000BD123F00805CB6822F440722B434D6932
:1043700023F0040315438A692A4342608461496833
:104380004163036230BD0000002C014030B5026A79
:10439000036A23F010030362436884690D6824F400
:1043A000E64444EA05248D6822F0200242EA051220
:1043B0000B4DA8420ED1CD6822F0800242EA0512D0
:1043C0004D6923F4406343EA85038D6922F040027E
:1043D00043EA85034360846149688163026230BDBA
:1043E000002C014030B5036A026A22F48072026236
:1043F0004268C46923F4007324F073050C682C43ED
:104400008D6843EA05230C4DA8420ED1CD6823F4F4
:10441000006343EA05234D6922F4405242EA051243
:104420008D6923F4806342EA05124260C4614968E1
:10443000C163036230BD0000002C014030B5046A46
:10444000026A22F4805202624268C3690D6823F452
:10445000E64343EA05238D6824F4005444EA053416
:10446000064DA84204D14D6922F4804242EA8512E9
:104470004260C36149680164046230BD002C0140A0
:1044800010B5036A046A24F001040462846924F00C
:10449000F00444EA021423F00A020A43846102622F
:1044A00010BD10B5036A046A24F010040462846924
:1044B00023F0A00324F4704444EA023243EA0111D9
:1044C0008261016210BD00000148B0F8040270472B
:1044D0003A0400204FF4807201490248FEF75CBEA6
:1044E0004A080020CC01002010B500242520FDF74B
:1044F00073FD15494FF40073B1F804229A4206D1B6
:1045000091F8060220F0020081F8060200E04AB1AC
:10451000B1F800020C5C401CA1F80002521EA1F888
:10452000042205E091F8060220F0010081F806025D
:10453000B1F80002984202D10020A1F80002252023
:10454000FDF75BFD204610BD3A04002030B51B4846
:104550004FF40073B0F80412994206D190F8062285
:1045600022F0020280F8062200E051B1B0F80022E9
:10457000134D845C2C60521CA0F80022491EA0F848
:104580000412B0F80012994202D10021A0F80012E2
:10459000B0F8041200290FD190F8061221F007019B
:1045A00080F8061206480830016821F08001016099
:1045B000016841F04001016030BD0000420600206A
:1045C0000438014070B505462520FDF705FD234C54
:1045D0004FF40071B4F80402884206D194F8060240
:1045E00040F0040084F8060211E0884215D2B4F8C5
:1045F00002022554B4F80202401CA4F80202B4F8E6
:104600000402401C80B2A4F80402884205D194F848
:10461000060240F0020084F80602B4F80202884262
:1046200002D10020A4F802022520FDF7E6FCB4F830
:10463000040288B194F8060240F0010084F80602F2
:1046400007480168090607D4016841F0800101604C
:10465000016821F004010160002070BD42060020C5
:104660000C38014010B5044614F8010BFFF7AAFFFF
:1046700020780028F8D110BD10B5406A0021C1850E
:10468000C184FEF74CFB10BD70B5446A20684069D8
:1046900094F84110C0F3C0100025212904D118B1AD
:1046A000E584204600F08EF82068406994F84210B6
:1046B000C0F38010222904D118B1E585204600F00E
:1046C0005AF8606C40F0100060642046FEF727FB4B
:1046D00070BD10B50146406A096809684FF00002D4
:1046E00089062ED4C28501680C3151E8003F23F4BD
:1046F000807341E80034002CF5D10168143151E891
:10470000003F23F0010341E80034002CF5D101689B
:10471000143151E8003F23F0400341E80034002CFD
:10472000F5D1202180F84210016B012909D10168DF
:104730000C3151E8003F23F0100341E80034002C15
:10474000F5D14263016B012902D0FEF733FD10BDA4
:10475000818DFEF7E3FA10BD10B5406A0121416377
:10476000016B012902D0FEF726FD10BD818D49089D
:10477000FEF7D4FA10BD01680C3151E8002F22F485
:10478000907241E80023002BF5D10168143151E803
:10479000002F22F0010241E80023002BF5D1016B2C
:1047A000012909D101680C3151E8002F22F01002D3
:1047B00041E80023002BF5D1202180F84210002190
:1047C0000163704701680C3151E8002F22F0C002EC
:1047D00041E80023002BF5D1202180F841107047DB
:1047E00008B590F84210222901D0022008BD826845
:1047F0004FF480539A4201D1016921B1816A9A42F2
:104800001BD04AB10AE00268816A5268C2F308020A
:104810000A80816A891C08E0026972B102685268E4
:1048200002F07F020A70816A491C8162C18D491EB3
:104830000904090CC18503D01BE002685268F1E746
:104840000168CA6822F02002CA600168CA6822F4BE
:104850008072CA6001684A6922F001024A6120211F
:1048600080F8421000214163026B012A03D0FEF759
:10487000A1FC002008BD016301680C3151E8002F44
:1048800022F0100241E80023002BF5D101680A68EC
:10489000D20602D50A6849680091818DFEF73EFA7A
:1048A000E7E7000070B5044600680169E26821F49A
:1048B0004051114301612169A068084361690843BF
:1048C0002168CA6841F20C639A430243CA602068B7
:1048D0004169A26921F44071114341611E49206878
:1048E000884202D1FDF752FD01E0FDF73FFD00EBEC
:1048F000C00101EB0012606864218000B2FBF0F39C
:10490000B3FBF1F36FF018067343B2FBF0F5B2FBA3
:10491000F0F605EB8305322303EB0515B5FBF1F546
:10492000B6FBF1F605F0F00505EB0615B2FBF0F667
:10493000B2FBF0F0B0FBF1F06FF01802504306EB61
:10494000800003EB0010B0FBF1F0216800F00F00D5
:104950002844886070BD00000038014038B581628D
:1049600004468285002013466064222284F8422097
:10497000E56B1B4AAA62E56B1A4AEA62E56B1A4AC2
:104980002A63E26B50630A462168E06B091DFCF75D
:1049900087FC2068016840680090206948B1206861
:1049A0000C3050E8001F41F4807140E80012002AEA
:1049B000F5D12068143050E8001F41F0010140E8B3
:1049C0000012002AF5D12068143050E8001F41F091
:1049D000400140E80012002AF5D1002038BD000057
:1049E000D346000859470008894600082DE9F843D6
:1049F000334E3068810706F1040002D53168016842
:104A000000913168C90642D531680068DFF8B4907A
:104A10000090D9F8581021F00101C9F85810D9F8C0
:104A20005C00294DC0F58077B5F80202C0F500742E
:104A3000BC4200D93C462549284488462246FBF71B
:104A400097FCB5F802023F1B2044A5F80202B5F816
:104A5000040208EB04012044A5F804020AD03A46F7
:104A60001948FBF785FCA5F80272B5F80402384432
:104A7000A5F804021549C9F864104FF48071C9F80B
:104A80005C10D9F8581041F00101C9F8581030688D
:104A90000F4C000604D52068000601D5FFF756FD2F
:104AA000306840060AD52068400607D5206820F007
:104AB00040002060206840F004002060BDE8F883DA
:104AC00000380140000002403A0400204A0800205B
:104AD0000C3801400148FEF723B900001402002001
:104AE000FEE710B50022835C8C5C63408354521C4B
:104AF000D2B2102AF7D310BD0907090E002804DB33
:104B000000F1E02080F80014704700F00F0000F181
:104B1000E02080F8141D704710B5134C00200122CE
:104B2000606060702146FBF7B3FE207810B1FF2073
:104B3000207016E000210D4B084600BF53F82020DE
:104B4000521C01D1491CC9B2401CC0B20A28F5D37D
:104B50000A2902D000F018F903E005210020FFF730
:104B6000CFFA207810BD000024000020008000084B
:104B700030B5B5B004460D46684600F0B3FF1022CC
:104B80002146684601F06CF80949684600F048FF84
:104B90001CA800F0F1FA0C2229461CA800F01CFF0A
:104BA00003491CA8203100F095FA35B030BD000053
:104BB0000A04002010B5254C20212046FCF798FC63
:104BC00008212046FCF794FC4FF400412048FCF7F4
:104BD0008FFC2048FCF7A0F81F48FCF76BF91F4832
:104BE000FCF7C6F91E48FDF749F91E48FDF716FE09
:104BF0001D48FDF757FF1D48FDF754FF1C48FEF701
:104C0000F7F91C48FEF7F4F90D20FDF7E5F90F2040
:104C1000FDF7E2F91848816921F01001816181698D
:104C200021F020018161816921F0080181618169A0
:104C300021F004018161FDF72BFBFCF769FB4FF0CC
:104C4000E021002008614861886110BD000C01402E
:104C50000008014038000020680000200400002007
:104C600090000020E40000203C010020840100208E
:104C7000CC010020140200200010024010B586B0C4
:104C800004E000BFFCF7BAFB0028FBD1FCF71CFCDA
:104C90000028F7D104E000BFFCF7BAFB0028FBD1E5
:104CA000FCF7C0FB0028F7D11648039060200024D1
:104CB0000490019405A901A8FCF74CFB8DF80000B5
:104CC00004E000BFFCF700FC0028FBD1FCF796FBDA
:104CD0000028F7D104E000BFFCF7A4FB0028FBD1BB
:104CE000FCF796FB0028F7D19DF8000018B10621CB
:104CF0000020FFF705FA044801214170446006B026
:104D000010BD000000800008240000202DE9F843B9
:104D100005461B4800264178022904D002260122BC
:104D20004FF4967120E0DFF85C900024804600BFCD
:104D3000D8F804102A4601EB09070023394602205F
:104D4000FCF782FB8DF80000641C9DF80000E4B2C3
:104D500020B10A2C02D23868A842E9D19DF800009F
:104D600030B10126324664210020FFF7B3F904E098
:104D7000D8F80410091DC8F804103046BDE8F883BF
:104D80002400002000800008174810B50178FF2992
:104D900006D100210170014601220020FBF7C0FD71
:104DA000FFF708FF1148016841F001010160416807
:104DB0000F4A1140416001680E4A114001600168CC
:104DC00021F480210160416821F4FE0141604FF42B
:104DD0001F018160084908684A68084B196080F320
:104DE0000888BDE810401047240000200010024051
:104DF0000000FFF8FFFFF6FE0080000808ED00E06D
:104E000010B503E0FCF760FB0028FBD1FCF7F6FAD5
:104E10000028F7D104E000BFFCF704FB0028FBD119
:104E2000FCF7F6FA0028F7D101490320487010BDBD
:104E30002400002008B5FDF77DF8FFF7E4F9FEF740
:104E400035FD8748416941F0010141614069002217
:104E500000F00100009011460D20FDF7DBF80D2059
:104E6000FDF7CBF8002211460F20FDF7D3F80F20F5
:104E7000FDF7C3F8FEF7D4FCFEF7F8FC7A49794851
:104E800008600846FCF762F808B172B6FEE7784899
:104E90007649002401607749C0E901144FF4804548
:104EA000C0E9034544618461C4610462FCF7ACFC61
:104EB00008B172B6FEE7FEF787FDFEF7A7FDFEF725
:104EC000F1FDFEF72FFE6D486B4901604FF416515E
:104ED000C0E901140C21C460C0E904418461C461CB
:104EE000FEF754F808B172B6FEE7FFF7F3FA0520B3
:104EF000FBF7BEFC08B172B6FEE7624E604B0122C2
:104F0000202130460094FFF78FF80023012208216A
:104F100030460094FFF788F801220023D1035A4855
:104F20000094FFF781F804210020FFF7E9F85048CA
:104F30000021AC30FDF7A4FE544E4FF0FA0AC6F83B
:104F400000A0FFF7E9FDDFF848814FF40059FF2882
:104F500057D1FCF753FCAB460746454618E000BF67
:104F6000FCF74CFCC11B44F62060814210D90022A2
:104F70005F4659462846FCF73CFC0A20FCF7D8F966
:104F8000012239462846FCF734FCFCF737FC07467B
:104F900049462846FCF728FC0028E1D04FF400479A
:104FA000002239462846FCF724FC1420FCF7C0F9FF
:104FB000346002210020FFF7A3F805210220FFF74B
:104FC0009FF834A0FFF74EFB6420FCF7B1F937A03F
:104FD000FFF748FB3220FCF7ABF938A0FFF742FBA4
:104FE0003220FCF7A5F938A0FFF73CFBC6F800A07B
:104FF0006420FCF79DF93460012239462846FCF70D
:10500000F8FB194F4D463F1F29464046FCF7ECFB85
:1050100000284FF0000004D0FEF7F6FF04280ED061
:1050200016E0FEF7F1FF022800D13C70022108468D
:10503000FFF766F804210020FFF762F808E0052179
:105040000220FFF75DF802210020FFF759F83460D5
:10505000FFF73AFA0028D7D0FEF7D6FDD4E70000D4
:1050600000100240003002400400002000540040C4
:1050700090000020A086010000480040140200209B
:10508000D5360008000C01400008014034040040FF
:105090000010014041542B4E414D45536D617274D7
:1050A00020456D756C61746F720D0A0041542B536D
:1050B00054415254454E310D0A00000041542B41D9
:1050C0004456494E300D0A0041542B4D5455320D73
:1050D0000A00000070B504460E46006C80210025D1
:1050E0003828215401D305E02554401C3828FBD32F
:1050F0000BE02554401C4028FBD32146084600F015
:105100004FF838212046FBF7CCF9D4E91220216C66
:105110003834C90051186841C4E90410227C227057
:105120000A0A42EA006262700A0C42EA0042A27075
:10513000020242EA1160E07060692071010A617147
:10514000010CA171000EE071383C2146084600F0C8
:1051500027F80020226DC100CA403254636DCB4055
:1051600032181371A36DCB401372E36DCB40401C1A
:1051700013730428EED370BD00210164C0E912113D
:1051800005490165054941650349C94381650349ED
:10519000C943C165704700000123456789ABCDEF66
:1051A0002DE9F04390B000231A466D468C188E5CB2
:1051B0006778121D06EB0726A778E4783F0407EB13
:1051C0000464344445F823405B1C102BEED300F1FB
:1051D0005401026DC2C901EA060327EA0104234310
:1051E000FE4C91462344009C22441A4401EB726316
:1051F00003EA010226EA03042243F94C2244019CFB
:105200003C44224403EB325202EA030421EA020541
:105210002C43F44D2C44029D35442C4402EBF434D1
:1052200004EA020523EA040C45EA0C05DFF8B8C3DA
:105230006544DDF80CC08C44654404EBB52505EAF3
:10524000040C22EA05084CEA080CDFF8A083C444E9
:10525000DDF810804344634405EB736303EA050CF7
:1052600024EA03084CEA080CDFF88483C444DDF820
:1052700014804244624403EB325202EA030C25EAF2
:1052800002084CEA080CDFF86C83C444DDF818808F
:105290004444644402EBF43404EA020C23EA0408B4
:1052A0004CEA080CDFF85083C444DDF81C80454408
:1052B000654404EBB52505EA040C22EA05084CEA2E
:1052C000080CDFF83883C444DDF82080434463448D
:1052D00005EB736303EA050C24EA03084CEA080CA7
:1052E000DFF81C83C444DDF824804244624403EBAD
:1052F000325202EA030C25EA02084CEA080CDDF8F7
:105300002880ACF5244C4444ACF14F0C644402EBCF
:10531000F43404EA020C23EA04084CEA080CDFF82F
:10532000E482C444DDF82C804544654404EBB52593
:1053300005EA040C22EA05084CEA080CDFF8C882EA
:10534000C444DDF830804344634405EB736303EAEF
:10535000050C24EA03084CEA080CDFF8B082C444C8
:10536000DDF834804244624403EB325202EA030C1B
:1053700025EA02084CEA080CDFF89482C444DDF800
:1053800038804444644402EBF43404EA020C23EA17
:1053900004084CEA080CDFF87C82C444DDF83C8049
:1053A0004544654404EBB52505EA020C24EA0208ED
:1053B0004CEA080CDFF86082C444DDF80480434402
:1053C000634405EBF36303EA040C25EA04084CEAA2
:1053D000080CDFF84882C444DDF818804244624477
:1053E00003EBF25202EA050C23EA05084CEA080C2A
:1053F000DFF82C82C444DDF82C804444644402EB82
:10540000B44404EA030C22EA03084CEA080CDFF86F
:105410001482C444DDF800804544654404EB35350E
:1054200005EA020C24EA02084CEA080CDFF8F881CD
:10543000C444DDF814804344634405EBF36303EA9A
:10544000040C25EA04084CEA080CDFF8E081C444A7
:10545000DDF828804244624403EBF25202EA050C74
:1054600023EA05084CEA080CDFF8C481C444DDF8DF
:105470003C804444644402EBB44404EA030C22EA52
:1054800003084CEA080CDFF8AC81C444DDF8108056
:105490004544654404EB353505EA020C24EA02086C
:1054A0004CEA080CDFF89081C444DDF824804344C2
:1054B000634405EBF36303EA040C25EA04084CEAB1
:1054C000080CDFF87881C444DDF838804244624437
:1054D00003EBF25202EA050C23EA05084CEA080C39
:1054E000DFF85C81C444DDF80C804444644402EB82
:1054F000B44404EA030C22EA03084CEA080CDFF87F
:105500004481C444DDF820804544654404EB3535CE
:1055100005EA020C24EA02084CEA080CDFF82881AC
:10552000C444DDF834804344634405EBF36303EA89
:10553000040C25EA04084CEA080CDFF81081C44486
:10554000DDF808804244624403EBF25202EA050CA3
:1055500023EA05084CEA080CDFF8F480C444DDF8BF
:105560001C804444644402EBB44C0CEA030422EA79
:10557000030844EA0804DFF8DC804444DDF83080A6
:1055800045442C440CEB3435059CDFF8CC80234497
:1055900085EA0C0454404444234405EB3373089CCF
:1055A000DFF8B880224483EA050484EA0C0444440A
:1055B00022440B9C03EB7252644482EA030CDFF832
:1055C000A0808CEA050CC4446444DDF838C002EBCA
:1055D0003444654484EA020C44E0000078A46AD7AD
:1055E00056B7C7E8DB702024EECEBDC1AF0F7CF507
:1055F0002AC68747134630A8019546FDD89880698A
:10560000AFF7448BBED75C892211906B937198FDE4
:105610008E4379A62108B44962251EF640B340C0E6
:10562000515A5E26AAC7B6E95D102FD6531444021C
:1056300081E6A1D8C8FBD3E7E6CDE121D60737C381
:10564000870DD5F4ED145A4505E9E3A9F8A3EFFC5D
:10565000D9026F678A4C2A8D4239FAFF81F6718729
:1056600022619D6DDFF8FC828CEA030CC444654422
:10567000DDF804C004EB7525634485EA040CDFF80B
:10568000E8828CEA020CC4446344DDF810C005EBE8
:105690003373624483EA050CDFF8D0828CEA040C91
:1056A000C4446244DDF81CC003EB7252644482EAD5
:1056B000030CDFF8BC828CEA050CC4446444DDF8BA
:1056C00028C002EB3444654484EA020CDFF8A4826B
:1056D0008CEA030CC4446544DDF834C004EB752542
:1056E000634485EA040CDFF890828CEA020CC4441F
:1056F0006344DDF800C005EB3373624483EA050CB4
:10570000DFF878828CEA040CC4446244DDF80CC0F3
:1057100003EB7252644482EA030CDFF864828CEA81
:10572000050CC4446444DDF818C002EB34446544FD
:1057300084EA020CDFF84C828CEA030CC444654412
:10574000DDF824C004EB7525634485EA040CDFF81A
:1057500038828CEA020CC4446344DDF830C005EBA7
:105760003373624483EA050CDFF820828CEA040C70
:10577000C4446244DDF83CC003EB7252644482EAE4
:10578000030CDFF80C828CEA050CC4446444DDF899
:1057900008C002EB3444654484EA020CDFF8F4816B
:1057A0008CEA030CC4446544DDF800C004EB7525A5
:1057B000634465EA020CDFF8E0818CEA040CC4441F
:1057C0006344DDF81CC005EBB363624463EA040C78
:1057D000DFF8C8818CEA050CC4446244DDF838C0A7
:1057E00003EBB252644462EA050CDFF8B4818CEA40
:1057F000030CC4446444DDF814C002EB74446544F3
:1058000064EA030CDFF89C818CEA020CC444654412
:10581000DDF830C004EBF525634465EA020CDFF8DF
:1058200088818CEA040CC4446344DDF80CC005EBA9
:10583000B363624463EA040CDFF870818CEA050C00
:10584000C4446244DDF828C003EBB252644462EA07
:10585000050CDFF85C818CEA030CC4446444DDF879
:1058600004C002EB7444654464EA030CDFF844812D
:105870008CEA020CC4446544DDF820C004EBF52535
:10588000634465EA020CDFF830818CEA040CC444FE
:105890006344DDF83CC005EBB363624463EA040C87
:1058A000DFF818818CEA050CC4446244DDF818C0A6
:1058B00003EBB252644462EA050CDFF804818CEA1F
:1058C000030CC4446444DDF834C002EB7444654402
:1058D00064EA030CDFF8EC808CEA020CC4446544F3
:1058E000DDF810C004EBF525634465EA020CDFF82F
:1058F000D8808CEA040CC4446344DDF82CC005EB6A
:10590000B363624463EA040CDFF8C0808CEA050CE0
:10591000C4446244DDF808C003EBB252644462EA56
:10592000050CDFF8AC808CEA030CC4446444DDF859
:1059300024C002EB7444654464EA030C8CEA020C54
:10594000DFF890804B44C444654404EBF5252944BA
:10595000C0E9143131198165B918C16510B0BDE8CD
:10596000F08300000C38E5FD44EABEA4A9CFDE4B6D
:10597000604BBBF670BCBFBEC67E9B28FA27A1EA6F
:105980008530EFD4051D880439D0D4D9E599DBE6FC
:10599000F87CA21F6556ACC4442229F497FF2A4321
:1059A000A72394AB39A093FCC3595B6592CC0C8FB1
:1059B0007DF4EFFFD15D84854F7EA86FE0E62CFE7D
:1059C000144301A3A111084E827E53F735F23ABD6C
:1059D000BBD2D72A91D386EB2DE9F041002516469C
:1059E000884604462F4617E0216C18F805006054DD
:1059F000206C401C206440280DD121460846FFF74A
:105A0000CFFBD4E912014FF40072801841F100017C
:105A10002764C4E912016D1CB542E5D3BDE8F081ED
:105A200070B504460D46006C8021002638282154AC
:105A300001D305E02654401C3828FBD30BE0265444
:105A4000401C4028FBD32146084600F071F838215D
:105A50002046FAF726FDD4E91220216C3834C9001B
:105A600051187041C4E90410227CE2710A0A42EA2A
:105A70000062A2710A0C42EA00426271020242EA2A
:105A8000116020716069E070010AA170010C617001
:105A9000000E04F838092146084600F049F80022B3
:105AA00018235042216D03EBC000C140A954666D1C
:105AB000C640A9180E71A66DC6400E72E66DC640AE
:105AC0000E73266EC6400E74666EC6400E75A66EC8
:105AD000C6400E76E66EC640521C0E77042AE0D30E
