:020000040800F2
:10800000900F0020C981000849C800088BB40008FF
:1080100071C700083D8A000821DE0008000000004A
:1080200000000000000000000000000079C8000807
:10803000598B0008000000004DC8000855CF00080B
:10804000E3810008E3810008E3810008E381000880
:10805000E3810008E3810008E3810008E381000870
:10806000E3810008E3810008E3810008E381000860
:10807000E3810008D58A0008E3810008018B00082D
:10808000E3810008E3810008E3810008E381000840
:10809000E3810008E3810008E3810008E381000830
:1080A000E3810008E3810008E3810008E381000820
:1080B000E3810008E3810008E3810008E381000810
:1080C000E3810008E3810008E3810008E381000800
:1080D000E381000801DC0008E381000811DD0008ED
:1080E000E3810008E3810008E381000800F002F862
:1080F00000F040F80AA090E8000C82448344AAF102
:108100000107DA4501D100F035F8AFF2090EBAE8FF
:108110000F0013F0010F18BFFB1A43F001031847BB
:10812000F075000010760000103A24BF78C878C1BE
:10813000FAD8520724BF30C830C144BF04680C606D
:10814000704700000023002400250026103A28BFB5
:1081500078C1FBD8520728BF30C148BF0B607047B9
:108160001FB59DE8030000F0F9F900F0B8F81FBD55
:1081700010B510BD00F04EFA1146FFF7F1FF05F003
:10818000F1FE00F06CFA03B4FFF7F2FF03BC00F05D
:108190009DFA00000B49D1F800C04A685CF8043B26
:1081A0001068184442F8040B8C4528BFA1F1DC0C80
:1081B0008A4228BFA1F1DC02C1F800C04A6020F069
:1081C00000407047280900200948804709480047B7
:1081D000FEE7FEE7FEE7FEE7FEE7FEE7FEE7FEE777
:1081E000FEE7FEE704480549054A064B70470000D4
:1081F000C7CF0008ED80000890090020900F0020F4
:10820000900B0020900B002070B5064600F08AF914
:10821000056806F10B0020F00704B4429CBF002063
:1082200070BD2B466A68BAB11068A04210D304F141
:10823000080188423CBF5068586007D35168101944
:1082400041601168091B016058601460101D70BD09
:1082500013465268002AE7D12146284600F06AF901
:108260000028DED170BD70B50446051F00F05AF934
:108270000068002C14BF446870BD002C18BFAC42CD
:108280003CBF20466468F8D301680A18AA4218BFA8
:10829000456003D12A6805461144016028684119E8
:1082A000A1421CBF6C6070BD6168696021680844B0
:1082B000286070BD0B4910B5A1F17C020A4CC2E9DF
:1082C0003712372106E000EB104342F82130074B0C
:1082D00000FB03400B1EA1F10101F4DC10BD0120E5
:1082E000E8E70000C8080020E119D666CD0D0100BE
:1082F00040EA010310B59B070FD1042A0DD310C823
:1083000008C9121F9C42F8D020BA19BA884201D974
:10831000012010BD4FF0FF3010BD1AB1D30703D0BC
:10832000521C07E0002010BD10F8013B11F8014B72
:108330001B1B07D110F8013B11F8014B1B1B01D18E
:10834000921EF1D1184610BD10B5431C02E010F882
:10835000011B71B18107FAD14FF0013202C88C1AAA
:108360008C4314EAC211F9D0C01A0A0603D0C01E09
:1083700010BDC01A10BD0A0401D0801E10BD090234
:10838000FCD0401E10BD421E12F8013F002BFBD155
:1083900011F8013B002B02F8013BF9D17047032A89
:1083A00040F2308010F0030C00F0158011F8013B12
:1083B000BCF1020F624498BF11F801CB00F8013BF9
:1083C00038BF11F8013BA2F1040298BF00F801CBBD
:1083D00038BF00F8013B11F0030300F02580083A94
:1083E000C0F0088051F8043B083A51F804CBA0E8EB
:1083F0000810F5E7121D5CBF51F8043B40F8043B40
:10840000AFF30080D20724BF11F8013B11F801CB74
:1084100048BF11F8012B24BF00F8013B00F801CB45
:1084200048BF00F8012B704710B5203AC0F00B8010
:10843000B1E81850203AA0E81850B1E81850A0E868
:108440001850BFF4F5AF5FEA027C24BFB1E81850C2
:10845000A0E8185044BF18C918C0BDE810405FEA32
:10846000827C24BF51F8043B40F8043B08BF7047AE
:10847000D20728BF31F8023B48BF11F8012B28BFB3
:1084800020F8023B48BF00F8012B70474FF0000274
:108490000429C0F0128010F0030C00F01B80CCF116
:1084A000040CBCF1020F18BF00F8012BA8BF20F884
:1084B000022BA1EB0C0100F00DB85FEAC17C24BFD8
:1084C00000F8012B00F8012B48BF00F8012B704782
:1084D0004FF0000200B5134694469646203922BF5D
:1084E000A0E80C50A0E80C50B1F12001BFF4F7AFA8
:1084F000090728BFA0E80C5048BF0CC05DF804EB8A
:10850000890028BF40F8042B08BF704748BF20F8F7
:10851000022B11F0804F18BF00F8012B70477047F5
:10852000704770470048704738090020704770470F
:108530007047704738B504460A4600206946AFF3D5
:108540000080002808BF38BD02460099204600F090
:108550003FF8012038BD012000F054B8F8B5AFF362
:108560000080054600200C46102000BF0646A819D2
:10857000A0420DD9324669460020AFF300800700C3
:1085800008BF00F03FF80098A04218BF0546C41984
:10859000FFF7C8FF05600746F01D20F007004619E9
:1085A000284600F00AF8B44208BFF8BDA21B3146C5
:1085B0003868BDE8F84000F00BB800210160C0E960
:1085C00001107047102070470048704730090020A4
:1085D000034640688C46002818BF88423CBF0346CB
:1085E0004068F8D318681844884207D00CF103009B
:1085F00020F00700001D411A521A0146081D0A60AA
:10860000FFF731BE10B500F039F8BDE8104000F0BA
:108610002FB870477546FFF7D7FFAE46050069468D
:10862000534620F00700854618B020B5FFF7DAFD65
:10863000BDE820404FF000064FF000074FF0000863
:108640004FF0000B21F00701AC46ACE8C009ACE8E4
:10865000C009ACE8C009ACE8C0098D46704710B548
:108660000446AFF300802046BDE81040FFF78BBD05
:10867000002801D000F02AB87047000010B501288A
:1086800005D0002103A000F027F8012010BD09A1AA
:10869000F8E7000053494752544D454D3A204F7575
:1086A00074206F662068656170206D656D6F7279EA
:1086B000000000003A2048656170206D656D6F72A2
:1086C0007920636F727275707465640001491820B7
:1086D000ABBEFEE72600020070B505460C460A2038
:1086E00000E06D1C00F011F835B128780028F8D1B1
:1086F00002E0641C00F009F814B120780028F8D1D9
:10870000BDE870400A20AFF3008008B569468DF8D7
:1087100000000320ABBE08BD2DE9FF4104460D4615
:108720001646002715E0102229466846FFF737FE57
:108730002146284603F071F904F1F001284605F0BE
:1087400071FB1022694604F1F000FFF728FE103596
:108750001037B742E7D3BDE8FF812DE9F041044669
:108760000D46164604F1F00800270AE04146284667
:1087700005F058FB2146284600F082F9A84610353E
:108780001037B742F2D31022414604F1F000FFF750
:1087900006FEBDE8F08170B504460E46154631462A
:1087A000204603F0E7FB1022294604F1F000FFF712
:1087B000F6FD70BD70B504460B46002013E00021A5
:1087C0000DE0250105EB80050D44555D03EB8006AA
:1087D000765C754003EB800675544D1CE9B20429A4
:1087E000EFDB451CE8B20428E9DB70BD10B50021C1
:1087F000014804F06BF910BD3C0000202DE9F04168
:10880000C0B005467648007840B100F083FF754956
:108810000968884202D9002071490870032D5FD091
:1088200005DC4DB1012D0CD0022D73D13BE06E2D36
:1088300072D06F2DF9D18BE000216B4804F0C0F8A5
:10884000CAE06AA16846FFF79EFD69A16846FFF786
:108850009AFD68A16846FFF796FD65A16846FFF797
:1088600092FD68496846FFF78EFD61A16846FFF7F3
:108870008AFD65A16846FFF786FD5DA16846FFF7A2
:1088800082FD62A16846FFF77EFD59A16846FFF7A9
:108890007AFD61A16846FFF776FD6A4601215248DC
:1088A00004F020F998E0FFF775FC0446C01704EBCC
:1088B00010600012A4EB0020C6B2371106F00F08BA
:1088C0000123424639463BA803F050FC11233BAA42
:1088D0000221454804F0E5F80020414908707BE09A
:1088E000202238A9404804F0C5F838A803F00CFC51
:1088F0003B4908700846007828B100F00BFF494951
:10890000084438490860364802780321364804F0A4
:1089100000F961E05FE0FFE73148007888B1FFF7D8
:1089200039FC0446C01704EB10600012A4EB0020D1
:10893000C6B2371106F00F084146384603F004FC72
:1089400000BF274802786E21274804F0E2F843E090
:10895000234802786F21244804F0DBF8204800788F
:10896000C0B3FF203F9001223FA9002000F090F902
:1089700005F0A4FA2C48006840F001002A4908607C
:108980000846406829490840274948600846006869
:1089900027490840244908600846006820F48020E0
:1089A00008600846406820F4FE0048604FF41F004D
:1089B0008860C803046840681E4908604FF0006082
:1089C0001D490860204680F3088800BF19480068E8
:1089D000804700BF00E000BF00BF40B0BDE8F081AD
:1089E00000000020040000203C00002045534C0003
:1089F000200000004D657263656465732042656EFA
:108A00007A000000B8F600084E4F00004857205684
:108A1000312E30720000000046572056312E306251
:108A20000000000020BF0200001002400000FFF81C
:108A3000FFFFF6FE0800002008ED00E000BFFEE7A3
:108A400000B587B0FF200C4908700E21684606F07B
:108A5000FDF868B9094A07CA04AB07C30C220DF137
:108A6000020104A8FFF744FC10B901200249087074
:108A70000148007807B000BD2C000020E8F7FF1F78
:108A800070B505460E460024324629460020FFF701
:108A900091FE01240FE0284604F042FA284604F033
:108AA000CCF8284603F066FE324629462046FFF7FA
:108AB00081FE601CC4B20E2CEDDB284604F030FAB7
:108AC000284604F0BAF8324629460E20FFF772FE17
:108AD00070BD000010B50848006800F48070B0F563
:108AE000807F05D10448406840F4E0600249486056
:108AF000024800F069FA10BD00000240E0020020C8
:108B000010B50848006800F48030B0F5803F05D10A
:108B10000448406840F4E02002494860024800F000
:108B200053FA10BD000002409C02002030B590F8BE
:108B300040500124AC40C56B6C60046863604468BD
:108B4000102C04D10468A2600468E16003E00468AA
:108B5000A1600468E26030BD7047000010B50446B3
:108B6000092C01DD092000E0204604490870642337
:108B70000A22A021024800F0BBFE10BD38000020F0
:108B8000700100202DE9FE4304460E4615464FF0C5
:108B9000000960193A493B4A127851F8321088426C
:108BA00000D815B90120BDE8FE8300F0B3FD3649B9
:108BB0000968A0EB0108B8F1050F03D2C8F1050060
:108BC00000F064FB2F480078052845D2DFE800F06C
:108BD00003041122330000BFA0276420E2B2012366
:108BE0003946CDE900650290284800F05DFF8146D6
:108BF0003EE004F48070A02141EAE0176420E2B274
:108C000001233946CDE900650290204800F04CFF71
:108C100081462DE004F44070A02141EAE017642071
:108C2000E2B201233946CDE900650290174800F011
:108C30003BFF81461CE004F4E060A02141EAE0171C
:108C40006420E2B201233946CDE9006502900F4865
:108C500000F02AFF81460BE0642010232246A02169
:108C6000CDE900650290094800F01EFF814600BF73
:108C700000BF00F04FFD04490860484693E700003C
:108C8000FCF20008380000203400002070010020B1
:108C90002DE9FE4F04460E4617464FF0000BE01933
:108CA0004B494C4A127851F83210884200D817B913
:108CB0000120BDE8FE8F85E000F02CFD46490968E3
:108CC000A0EB010ABAF10A0F03D2CAF10A0000F0C0
:108CD000DDFA3F483F49097800EBC10081883C48F4
:108CE0003C4A127800EBC2008088401E2040081ADF
:108CF0001FFA80F94F4501DA384600E0484605463C
:108D000034480078052846D2DFE800F00304122337
:108D1000340000BF4FF0A0086420E2B201234146B6
:108D2000CDE9006502902D4801F078F883463EE0D9
:108D300004F48070A02141EAE0186420E2B201232B
:108D40004146CDE900650290244801F067F883466A
:108D50002DE004F44070A02141EAE0186420E2B262
:108D600001234146CDE9006502901C4801F056F808
:108D700083461CE004F4E060A02141EAE01864208E
:108D8000E2B201234146CDE900650290134801F0AB
:108D900045F883460BE0642010232246A021CDE94C
:108DA000006502900D4801F039F8834600BF00BF0E
:108DB000601984B22E44781B87B200F0ABFC0649E0
:108DC000086000BF002F3FF777AF584671E70000FB
:108DD000FCF2000838000020340000207001002060
:108DE00072B600BFFEE710B504460CB9012010BDF5
:108DF000607920B900202071204600F015F801208C
:108E000060710020F3E70000054A0168914205D136
:108E10000449496921F04001024A5161704700004C
:108E2000003002400010024008B5094A0168914232
:108E30000DD100BF0749496941F04001054A516120
:108E40001146496901F04001009100BF00BF08BD13
:108E500000300240001002400146002291F821003B
:108E6000022808D00420886300BF002081F8200079
:108E700000BF012070470868006820F00E000B68F2
:108E800018600868006820F001000B68186091F80D
:108E9000403001209840CB6B5860012081F82100C0
:108EA00000BF002081F8200000BF1046E2E700006C
:108EB00070B50446002594F82100022803D0042050
:108EC000A063012548E02068006820F00E002168BA
:108ED00008602068006820F00100216808601F49D0
:108EE0002068884201D1012026E01C491431206805
:108EF000884201D110201FE018492831206888429B
:108F000001D1801518E015493C312068884201D113
:108F1000801411E0114950312068884202D14FF489
:108F2000803009E00D4964312068884202D14FF455
:108F3000801001E04FF08070084908394860012036
:108F400084F8210000BF002084F8200000BF606B7F
:108F500010B12046616B8847284670BD080002406A
:108F6000014609B9012070470868006820F0010037
:108F70000A68106000200A6810600A6850600A6879
:108F800090600A68D0600F4A0868801A1422B0FB0B
:108F9000F2F0800008640B480838C86391F840205C
:108FA00001209040CA6B506000208862C86208634C
:108FB0004863886381F8210000BF81F8200000BF6A
:108FC00000BFD0E70800024070B50446E06B0568BA
:108FD0002068066894F84010042088402840002843
:108FE00046D006F00400002842D02068006800F057
:108FF000200028B92068006820F00400216808607B
:1090000057492068884201D1042027E0544914318F
:109010002068884201D1402020E051492831206851
:10902000884201D1001519E04D493C312068884241
:1090300002D14FF4804011E0494950312068884204
:1090400002D14FF4802009E045496431206888420C
:1090500002D14FF4800001E04FF0806040490839B0
:109060004860E06A00287AD02046E16A884776E0C6
:1090700094F84010022088402840A0B306F0020077
:1090800088B32068006800F0200040B920680068BC
:1090900020F00A0021680860012084F8210030498E
:1090A0002068884201D1022028E02D49143120682F
:1090B000884201D1202021E02949283120688842B6
:1090C00001D140151AE026493C312068884202D17E
:1090D0004FF4005012E0224950312068884203D1F9
:1090E0004FF400300AE017E01D49643120688842DF
:1090F00002D14FF4001001E04FF000701849083918
:10910000486000BF002084F8200000BFA06A30B390
:109110002046A16A884722E094F840100820884041
:109120002840E0B106F00800C8B12068006820F0CF
:109130000E002168086094F8401001208840E16B1F
:1091400048600120A06384F8210000BF002084F85B
:10915000200000BF206B10B12046216B884770BDF6
:10916000080002400146002209B901207047164B51
:109170000868C01A1423B0FBF3F08000086412489A
:109180000838C863022081F821000868026843F6A5
:10919000F0708243D1E901031843CB6818430B698F
:1091A00018434B6918438B691843CB691843024332
:1091B0000868026000208863012081F821000020F7
:1091C00081F8200000BFD1E7080002402DE9F041FE
:1091D00004460D4616461F464FF0000800BF94F89F
:1091E0002000012802D10220BDE8F081012084F88E
:1091F000200000BF94F8210001282CD1022084F81F
:1092000021000020A0632068006820F00100216890
:1092100008603B46324629462046FFF787FCE06A55
:1092200030B12068006840F00E00216808600BE053
:109230002068006820F00400216808602068006849
:1092400040F00A00216808602068006840F00100D2
:109250002168086006E000BF002084F8200000BFFD
:109260004FF002084046BFE710B54FF0FF30064907
:10927000086100200861401EC8600020C86000F03E
:1092800027FF002010BD00000010024070B504460A
:1092900000F040FA06462546681C10B104480078E4
:1092A000054400BF00F036FA801BA842FAD370BD17
:1092B000200000202DE9F04102460B46002080E00E
:1092C0000127874007EA0301002979D0404F4FEA80
:1092D000900C57F82C4087074FEA177C0F2707FAA6
:1092E0000CF73C403B4FBA4201D100270FE03A4F08
:1092F000BA4201D101270AE0384FBA4201D1022710
:1093000005E0374FBA4201D1032700E004274FEAB6
:10931000807C4FEA1C7C07FA0CF7A74231D1314F11
:109320003F688F43DFF8BCC0CCF800700CF1040735
:109330003F688F430CF1040CCCF80070294F0C37B8
:109340003F688F43DFF89CC00CF10C0CCCF8007028
:10935000ACF104073F688F43ACF1040CCCF800700B
:1093600087074FEA177C0F2707FA0CF4184F4FEACC
:10937000900C57F82CC02CEA040C4FEA900847F8E0
:1093800028C0FF2901D8174600E0171D3D46FF29D8
:1093900001D8870002E0A0F10807BF003E462F6811
:1093A0004FF00F0C0CFA06FC27EA0C074FF0040CE8
:1093B0000CFA06FC47EA0C072F60D7688F43D7608A
:1093C000401C23FA00F7002F7FF47AAFBDE8F0814C
:1093D0000800014000080140000C0140001001405D
:1093E00000140140000401402DE9F8470346002223
:1093F00094466EE14FF0010808FA02F4D1F80080BB
:1094000008EA0400A0427DD1DFF8DCA2D1F8048094
:10941000A8EB0A09D0453AD014DCB8F1030F50D0BC
:1094200009DCB8F1000F31D0B8F1010F1CD0B8F150
:10943000020F49D120E0B8F1110F18D0B8F1120F86
:1094400042D11EE0B9F5881F25D006DCB9F5803F72
:1094500020D0B9F5801F37D11AE0B9F5001F18D018
:10946000B9F5041F30D117E0D1F80CC02DE0D1F8C8
:109470000C8008F1040C28E0D1F80C8008F1080CED
:1094800023E0D1F80C8008F10C0C1EE000BF00BFF7
:1094900000BF00BF00BF00BFD1F80880B8F1000FC7
:1094A00002D14FF0040C0BE0D1F80880B8F1010FA5
:1094B00003D14FF0080C1C6102E04FF0080C5C6116
:1094C00003E04FF0000C00E000BF00BFFF2801D810
:1094D000984601E003F104084646FF2802D84FEA07
:1094E000820803E0A2F108084FEA88084746D6F848
:1094F00000804FF00F0909FA07F928EA09080CFA69
:1095000007F900E088E048EA0908C6F80080D1F8C9
:10951000048008F08058B8F1805F7DD100BFDFF88B
:10952000CC81D8F8188048F00108DFF8C091C9F85C
:109530001880C846D8F8188008F00108CDF80080D7
:1095400000BF00BF4FEAB9384FEA920958F82950D6
:109550004FEA82784FEA18794FF00F0808FA09F8B5
:1095600025EA0805DFF88881434502D14FF000085D
:1095700016E0DFF88081434502D14FF001080FE08B
:10958000DFF87481434502D14FF0020808E0DFF8AC
:109590006C81434502D14FF0030801E04FF004080D
:1095A0004FEA82794FEA197908FA09F848EA05057D
:1095B000DFF84C814FEA920948F82950D1F804802D
:1095C00008F48018B8F5801F0AD1DFF83881D8F880
:1095D000008048EA0008DFF82C91C9F8008009E013
:1095E000DFF82081D8F8008028EA0008DFF814911D
:1095F000C9F80080D1F8048008F40018B8F5001FFD
:1096000010D1DFF8008108F10408D8F8008048EA9A
:109610000008DFF8F09000E05AE009F10409C9F809
:1096200000800DE0DFF8DC8008F10408D8F8008045
:1096300028EA0008DFF8CC9009F10409C9F8008095
:10964000D1F8048008F40038B8F5003F0ED1DFF8F7
:10965000B480A8F10408D8F8008048EA0008DFF8D0
:10966000A490A9F10409C9F800800DE0DFF8948006
:10967000A8F10408D8F8008028EA0008DFF88490F0
:10968000A9F10409C9F80080D1F8048008F48038F1
:10969000B8F5803F0ED1DFF86C80A8F10808D8F843
:1096A000008048EA0008DFF85C90A9F10809C9F8D1
:1096B00000800DE0DFF84C80A8F10808D8F80080A1
:1096C00028EA0008DFF83C90A9F10809C9F80080F1
:1096D000521CD1F8008028FA02F8B8F1000F7FF48C
:1096E00089AEBDE8F88700000000111000100240AC
:1096F00000080140000C014000100140001401402E
:1097000008000140080401400AB1016101E00B04B6
:10971000036170470148006870470000180000208E
:1097200070B504460CB9012070BD94F83D0028B90D
:10973000002084F83C00204600F03EFC242084F801
:109740003D002068006820F0010021680860206862
:10975000006840F40040216808602068006820F438
:1097600000402168086000F0B7FE05465C4960686B
:10977000884206D85B48854201D2012007E00020DC
:1097800005E05948854201D2012000E0002001286F
:1097900000D1C9E75548B5FBF0F62068406820F0D5
:1097A0003F003043216848604D496068884201D8D5
:1097B000701C07E04FF4967070434FF47A71B0FB61
:1097C000F1F0401C2168096A21F03F01084321683B
:1097D000086243496068884214D8681E616849007D
:1097E000B0FBF1F0401CC0F30B00042801D20420B0
:1097F0003DE0681E61684900B0FBF1F0401CC0F319
:109800000B0034E0A06838B9681E616801EB4101C3
:10981000B0FBF1F0401C0AE0681E616801EBC10278
:1098200002EB0111B0FBF1F0401C40F48040C0F3AA
:109830000B0008B901201AE0A06848B9681E6168E9
:1098400001EB4101B0FBF1F0401CC0F30B000CE058
:10985000681E616801EBC10202EB0111B0FBF1F07F
:10986000401CC0F30B0040F4804040F400402168ED
:10987000C9694CF6FF72914308432168C861D4E975
:10988000070108432168096821F0C00108432168E5
:109890000860D4E9031008432168896848F2FF3260
:1098A0009143084321688860D4E905010843216891
:1098B000C96821F0FF0108432168C860206800687A
:1098C00040F001002168086000202064202084F816
:1098D0003D000020206384F83E0000BF24E7000024
:1098E000A086010080841E0000093D0040420F0058
:1098F0002DE9F84F04460F4690461E46FFF70AFF33
:1099000005464FF0000994F83D0020287ED1192328
:10991000012263492046009501F02BFF10B102207F
:10992000BDE8F88F00BF94F83C00012801D1022067
:10993000F6E7012084F83C0000BF2068006800F0D2
:10994000010028B92068006840F001002168086023
:109950002068006820F4006021680860242084F8F2
:109960003D00002020644F48E06200BF206800688E
:1099700040F4807021680860334600224FF00111E6
:109980002046009501F0F5FE58B12068006800F40B
:109990008070B0F5807F02D14FF400702064032006
:1099A000BEE707F0FE0021680861FFF7B3FE054639
:1099B00020684069C0F3400A20684069C0F3802BEA
:1099C00010E0FFF7A7FE401BB04200D816B9A02058
:1099D00084F83D0020684069C0F3400A206840696F
:1099E000C0F3802B94F83D00A02805D0BAF1000FF9
:1099F00002D1BBF1000FE4D0202084F83D002068A4
:109A00004069C0F3400028B3206800E045E00068EA
:109A100040F400702168086000BF002000902068BA
:109A20004069009020688069009000BF00BF192342
:109A300001221B492046009501F09BFE08B1012040
:109A40006EE7202084F83D0000BF002084F83C0031
:109A500000BF65E72068006840F400702168086076
:109A60006FF4806021684861192301220C49204667
:109A7000009501F07EFE08B1012051E709F10109CE
:109A8000C145FFF473AF202084F83D0000BF0020E3
:109A900084F83C0000BF012042E7022040E70000BC
:109AA000020010000000FFFF2DE9FE4F04460F46A4
:109AB00090469946DDE90CAB0E9E00200290FFF720
:109AC00029FE054694F83D00202872D11923012271
:109AD000CE492046009501F04CFE10B10220BDE8B1
:109AE000FE8F00BF94F83C00012801D10220F6E768
:109AF000012084F83C0000BF2068006800F00100ED
:109B000028B92068006840F00100216808602068DA
:109B1000006820F4006021680860222084F83D007D
:109B2000402084F83E0000202064C4F824A0A4F85B
:109B30002AB0608D2085B648E0624B4642463946E1
:109B40002046CDE9006501F0C1FC08B10120C6E75F
:109B5000208D88B900BF00200190206840690190E5
:109B600020688069019000BF00BF2068006840F451
:109B70000070216808604BE0208D01281AD1206810
:109B8000006820F480602168086072B600BF002081
:109B9000019020684069019020688069019000BFB1
:109BA00000BF2068006840F400702168086062B659
:109BB0002EE029E1208D022819D12068006840F4A8
:109BC00000602168086072B600BF00200190206824
:109BD0004069019020688069019000BF00BF206843
:109BE000006820F480602168086062B610E0206898
:109BF000006840F480602168086000BF0020019088
:109C000020684069019020688069019000BF00BF12
:109C1000EBE0208D03287DD8208D012815D12A4620
:109C20003146204601F081FE08B1012057E7206847
:109C30000069616A0870606A401C6062208D401E85
:109C40002085608D401E6085CFE0208D02282CD1BC
:109C5000334600226F492046009501F08AFD08B185
:109C600001203CE772B62068006840F4007021686B
:109C7000086020680069616A0870606A401C606260
:109C8000208D401E2085608D401E608562B6206854
:109C90000069616A0870606A401C6062208D401E25
:109CA0002085608D401E60859FE033460022594923
:109CB0002046009501F05DFD08B101200FE7206806
:109CC000006820F480602168086072B6206800692E
:109CD000616A0870606A401C6062208D401E2085A9
:109CE000608D401E60854C4800681921B0FBF1F082
:109CF0004FF47A71B0FBF1F0C0EBC00000EB8000D4
:109D0000029000BF0298401E02900298A8B900205D
:109D1000206300E039E0202084F83D00002084F832
:109D20003E00206C40F02000206462B600BF00209E
:109D300084F83C0000BF0120D1E620684069C0F3F0
:109D400080000028DED02068006840F400702168A0
:109D5000086020680069616A0870606A401C60627F
:109D6000208D401E2085608D401E608562B6206873
:109D70000069616A0870606A401C6062208D401E44
:109D80002085608D401E60852FE02A4631462046A2
:109D900001F0CBFD08B10120A1E620680069616AED
:109DA0000870606A401C6062208D401E2085608DB6
:109DB000401E608520684069C0F38000A8B1208DF6
:109DC000032805D12068006820F4806021680860BD
:109DD00020680069616A0870606A401C6062208DBA
:109DE000401E2085608D401E6085208D00287FF4F8
:109DF00010AF202084F83D00002084F83E0000BF12
:109E000084F83C0000BF6AE6022068E60200100009
:109E10000000FFFF04000100240000202DE9FC5F8A
:109E200004460F4690469946DDE90CAB0E9EFFF7BF
:109E300071FC054694F83D0020287DD119230122AC
:109E40004D492046009501F094FC10B10220BDE878
:109E5000FC9F00BF94F83C00012801D10220F6E7E6
:109E6000012084F83C0000BF2068006800F0010079
:109E700028B92068006840F0010021680860206867
:109E8000006820F4006021680860212084F83D000B
:109E9000402084F83E0000202064C4F824A0A4F8E8
:109EA0002AB0608D20853548E0624B4642463946EF
:109EB0002046CDE9006501F0B9FB08B10120C6E7F5
:109EC00031E02A463146204601F074FD50B1206C45
:109ED000042805D12068006840F4007021680860FB
:109EE0000120B4E7606A007821680861606A401C5C
:109EF0006062208D401E2085608D401E6085206838
:109F00004069C0F3800070B1208D60B1606A007854
:109F100021680861606A401C6062208D401E2085B7
:109F2000608D401E6085208D0028CAD12A463146AA
:109F3000204601F0EBFB00E01CE050B1206C04284F
:109F400005D12068006840F4007021680860012095
:109F50007DE72068006840F40070216808602020D8
:109F600084F83D00002084F83E0000BF84F83C00E7
:109F700000BF6CE702206AE7020010000000FFFF4C
:109F800010B504460949206888420ED10848C069C6
:109F900020F400100649C86189150648FFF78AF9C0
:109FA0004FF400710348FFF785F910BD00540040DD
:109FB00000100240000C014010B586B0044600209D
:109FC00002900390049005901A49206888422FD18E
:109FD00000BF1948806940F00800174988610846A9
:109FE000806900F00800019000BF00BF4FF440708E
:109FF0000290122003900320059002A90F48FFF75A
:10A00000F3F900BF0E49486840F0E06040F00200FC
:10A01000486000BF00BF0848C06940F4001006490E
:10A02000C8610846C06900F40010019000BF00BF7D
:10A0300006B010BD0054004000100240000C01406A
:10A0400000000140034800680349097808440149B9
:10A0500008607047180000202000002010B5084854
:10A06000006840F0100006490860032000F0CCF8BA
:10A070000F2000F007F800F02DF8002010BD0000C0
:10A080000020024070B504460E4800784FF47A7103
:10A09000B1FBF0F00C490968B1FBF0F5284600F07F
:10A0A000A7FC08B1012070BD102C07D20022214668
:10A0B000501E00F06BF80548046001E00120F2E753
:10A0C0000020F0E720000020240000201C000020D9
:10A0D0007047000008B500BF1148806940F00100DA
:10A0E0000F4988610846806900F00100009000BFB8
:10A0F00000BF00BF0846C06940F08050C8610846F4
:10A10000C06900F08050009000BF00BF00BF05494B
:10A11000486820F0E06040F00070486000BF08BD73
:10A12000001002400000014010B50146084600281A
:10A1300017DB00F01F0301229A400B4B440943F840
:10A14000242000BF00BF00BFBFF34F8F00BF00BF80
:10A1500000BF00BF00BF00BFBFF36F8F00BF00BFD5
:10A1600000BF00BF10BD000080E100E001460846CE
:10A17000002809DB00F01F0301229A4043099B00DD
:10A1800003F1E023C3F8002100BF70472DE9F05F21
:10A1900080460D461646002703F052FE0746394614
:10A1A0002A46334601F00700C0F1070ABAF1040F4E
:10A1B00002D94FF0040A01E0C0F1070AD14600F1CC
:10A1C000040ABAF1070F02D24FF0000A01E0A0F131
:10A1D000030AD4464FF0010A0AFA09FAAAF1010A61
:10A1E0000AEA020A0AFA0CFA4FF0010B0BFA0CFB0E
:10A1F000ABF1010B0BEA030B4AEA0B042146404684
:10A2000003F026FEBDE8F09F00BF00F00702064BFA
:10A2100019684FF6FF031940044B0B4343EA022130
:10A22000014B196000BF70470CED00E00000FA051B
:10A2300070B504460D460CB9012070BD5A4800683F
:10A2400000F00700A8420ED25748006820F007002F
:10A250002843554908600846006800F00700A842F6
:10A2600001D00120E9E7207800F0020002281DD18A
:10A27000207800F00400042805D14C48406840F4E0
:10A28000E0604A494860207800F00800082805D1BD
:10A290004648406840F4605044494860434840683C
:10A2A00020F0F000A168084340494860207800F0A1
:10A2B000010078B36068012806D13C48006800F4CA
:10A2C000003090B90120B8E76068022806D137480D
:10A2D000006800F0007040B90120AEE73348006824
:10A2E00000F0020008B90120A7E73048406820F0DC
:10A2F0000300616808432D494860FFF70BFA0646E2
:10A3000009E0FFF707FA801B41F28831884202D941
:10A31000032092E707E02548406800F00C006168E0
:10A32000B0EB810FEDD12048006800F00700A84293
:10A330000ED91D48006820F0070028431A4908601C
:10A340000846006800F00700A84201D0012074E729
:10A35000207800F00400042807D11448406820F455
:10A36000E060E168084311494860207800F0080087
:10A37000082808D10D48406820F46050216940EA5F
:10A38000C1000A49486000F0C7F808494968C1F3AC
:10A390000311074A515CC840064908600648006836
:10A3A000FFF770FE002048E7002002400010024046
:10A3B00056F10008240000201C00002010B5FFF713
:10A3C000A9F904463D48006840F001003B49086097
:10A3D00006E0FFF79FF9001B022801D9032010BDFA
:10A3E0003648006800F002000028F2D033480068C8
:10A3F00020F0F80040F0800030490860FFF78AF94B
:10A40000044600202D49486008E0FFF783F9001B4F
:10A4100041F28831884201D90320E0E727484068AB
:10A4200000F00C000028F0D1254826490860264895
:10A430000068FFF727FE08B10120D0E7FFF76AF9AF
:10A4400004461E48006820F080701C49086006E041
:10A45000FFF760F9001B022801D90320BFE7174866
:10A46000006800F000700028F2D114494860FFF73E
:10A4700051F904461148006820F410200F49086083
:10A4800006E0FFF747F9001B642801D90320A6E77F
:10A490000A48006800F400300028F2D1074800683C
:10A4A00020F48020054908600846406A40F080702A
:10A4B00048620020886000BF91E700000010024061
:10A4C00000127A00240000201C00002001480068CF
:10A4D000704700002400002000B5FFF7F7FF044993
:10A4E0004968C1F30221034A515CC84000BD000025
:10A4F0000010024066F1000800B5FFF7E7FF0449CD
:10A500004968C1F3C221034A515CC84000BD000044
:10A510000010024066F1000870B5002100220024FE
:10A5200000230020134D696801F00C05F5B1042DDE
:10A5300002D0082D19D101E00F4819E00F4DC1F3E9
:10A540008346AB5D01F4803555B10A4D6D68C5F3A6
:10A5500040450B4E725D084D5D43B5FBF2F402E0E1
:10A56000084D03FB05F4204602E000BF064800BF8B
:10A5700000BF70BD001002400024F40044F1000848
:10A5800054F1000800093D0000127A00F8B50446B5
:10A590000CB90120F8BD207800F00100002878D027
:10A5A000F848406800F00C0004280CD0F5484068DA
:10A5B00000F00C00082811D1F248406800F4803007
:10A5C000B0F5803F0AD1EF48006800F40030002861
:10A5D0005FD0606800285CD10120DBE700BF6068C5
:10A5E000B0F5803F06D1E748006840F48030E54987
:10A5F000086028E0606858B9E248006820F48030BC
:10A60000E04908600846006820F4802008601AE0ED
:10A610006068B0F5A02F0BD1DA48006840F48020C4
:10A62000D84908600846006840F4803008600AE0B5
:10A63000D448006820F48030D24908600846006899
:10A6400020F48020086000BF606888B1FFF762F8DE
:10A65000054606E0FFF75EF8401B642801D9032099
:10A6600098E7C848006800F400300028F2D010E0F5
:10A67000FFF750F8054606E0FFF74CF8401B64284A
:10A6800001D9032086E7BF48006800F400300028A5
:10A69000F2D1207800F00200022857D1B948406872
:10A6A00000F00C0050B1B748406800F00C000828DA
:10A6B00018D1B448406800F4803098B9B1480068B7
:10A6C00000F0020020B12069012801D0012061E7DB
:10A6D000AC48006820F0F800616940EAC100A9496F
:10A6E000086033E02069E8B10120A7490860FFF75E
:10A6F00011F8054606E0FFF70DF8401B022801D9C6
:10A70000032047E79F48006800F002000028F2D0CD
:10A710009C48006820F0F800616940EAC10099494E
:10A72000086013E0002098490860FEF7F3FF054633
:10A7300006E0FEF7EFFF401B022801D9032029E7BE
:10A740009048006800F002000028F2D1207800F064
:10A75000080008282DD1A069B8B101208B490860F4
:10A76000FEF7D8FF054606E0FEF7D4FF401B02289F
:10A7700001D903200EE78348406A00F00200002858
:10A78000F2D0012002F064F813E000207F49086055
:10A79000FEF7C0FF054606E0FEF7BCFF401B02289F
:10A7A00001D90320F6E67748406A00F0020000284D
:10A7B000F2D1207800F00400042873D100277148FA
:10A7C000C06900F0805070B900BF6E48C06940F0A9
:10A7D00080506C49C8610846C06900F08050009004
:10A7E00000BF00BF01276A48006800F48070B0B95C
:10A7F0006748006840F4807065490860FEF78AFF8A
:10A80000054606E0FEF786FF401B642801D90320B9
:10A81000C0E65F48006800F480700028F2D000BFF6
:10A82000E068012806D15748006A40F00100554908
:10A83000086227E0E06858B95248006A20F0010039
:10A84000504908620846006A20F00400086219E0D6
:10A85000E06805280BD14B48006A40F004004949E4
:10A8600008620846006A40F0010008620AE04548B4
:10A87000006A20F00100434908620846006A20F09F
:10A880000400086200BFE068A0B1FEF743FF054680
:10A8900009E0FEF73FFF401B41F28831884202D9B0
:10A8A000032077E622E03748006A00F00200002823
:10A8B000EFD012E0FEF72EFF054608E0FEF72AFF74
:10A8C000401B41F28831884201D9032062E62D48BD
:10A8D000006A00F002000028F0D1012F05D12948BC
:10A8E000C06920F080502749C86100BFE069C8B343
:10A8F0002448406800F00C00082860D0E069022875
:10A9000048D1002020490866FEF704FF054606E00E
:10A91000FEF700FF401B022801D903203AE6194840
:10A92000006800F000700028F2D1206AB0F5803F86
:10A9300007D11448406820F40030A1680843114949
:10A940004860D4E9080108430E49496821F47411AC
:10A9500008430C49486001200B490866FEF7DAFEFF
:10A96000054607E03DE0FEF7D5FE401B022801D971
:10A9700003200FE60348006800F000700028F2D0C2
:10A980002FE00000001002400000424280044242DA
:10A9900000700040002014490866FEF7BBFE054623
:10A9A00006E0FEF7B7FE401B022801D90320F1E5BF
:10A9B0000E48006800F000700028F2D111E0E06954
:10A9C000012800D1E6E50948466806F48031206A8E
:10A9D000814204D106F47011606A814201D00120E5
:10A9E000D8E50020D6E500000000424200100240F9
:10A9F00070B504462546681EB0F1807F01D3012062
:10AA00000FE0681E4FF0E02148610F214FF0FF304A
:10AA100003F01EFA00204FF0E02188610720086152
:10AA2000002070BD30B502460B4600BF92F83C00D6
:10AA3000012801D1022030BD012082F83C0000BF76
:10AA4000022082F83D00106844681068816824F094
:10AA500070041868044310684460104D1068A842E0
:10AA60000BD01068B0F1804F07D00D4D1068A84290
:10AA700003D00C4D1068A84205D121F08001586820
:10AA8000014310688160012082F83D0000BF002072
:10AA900082F83C0000BF00BFCDE70000002C014061
:10AAA000000400400008004010B504460CB9012025
:10AAB00010BD94F83D0028B9002084F83C002046E1
:10AAC00000F026F8022084F83D00211D206802F0E5
:10AAD0007BFA012084F8460000BF84F83E00012183
:10AAE0003F200155402001554120015500BF00BFC6
:10AAF000012084F84200432001554420015545209F
:10AB0000015500BF012084F83D000020D0E700007F
:10AB100008B5094A016891420DD100BF0749C969CA
:10AB200041F00201054AD1611146C96901F00201F3
:10AB3000009100BF00BF08BD0004004000100240AB
:10AB40002DE9F04104460D46002700BF94F83C0073
:10AB5000012802D10220BDE8F081012084F83C00E8
:10AB600000BF022084F83D002068866826F0770642
:10AB700026F47F46206886602868502833D00CDC95
:10AB8000202850D004DC00284BD0102851D149E0B7
:10AB9000302849D040284CD139E060282DD0702889
:10ABA00007D0B0F5805F03D0B0F5005F41D10DE074
:10ABB00041E0D5E902136A68206802F058FA20687B
:10ABC000866846F077062068866034E0D5E902138F
:10ABD0006A68206802F04BFA2068806840F4804080
:10ABE0002168886027E0EA686968206802F010FB45
:10ABF0005021206802F046FA1DE0EA686968206882
:10AC000002F019FB6021206802F03CFA13E0EA68C8
:10AC10006968206802F0FCFA4021206802F032FAEC
:10AC200009E000BF00BF00BF2968206802F02AFACF
:10AC300001E0012700BF00BF012084F83D0000BFF4
:10AC4000002084F83C0000BF384684E710B586B089
:10AC50000446002002900390049005901349206858
:10AC6000884221D100BF1248806940F00800104995
:10AC700088610846806900F00800019000BF00BFAD
:10AC80001020029002200390059002A90948FEF7C7
:10AC9000ABFB00BF0849486820F4406040F0E0602A
:10ACA00040F40060486000BF06B010BD00040040E2
:10ACB00000100240000C0140000001402DE9F0416D
:10ACC00004460D461646002700BF94F83C000128B4
:10ACD00002D10220BDE8F081012084F83C0000BFD1
:10ACE00036B1042E1BD0082E31D00C2E5ED145E09B
:10ACF0002946206802F0D0F92068806940F00800F9
:10AD0000216888612068806920F0040021688861DA
:10AD100020688069296908432168886148E02946DC
:10AD2000206802F0E9F92068806940F40060216839
:10AD300088612068806920F48060216888612068CB
:10AD40008069296940EA01202168886130E029464C
:10AD5000206802F005FA2068C06940F00800216808
:10AD6000C8612068C06920F004002168C8612068BB
:10AD7000C069296908432168C86119E0294620682B
:10AD800002F022FA2068C06940F400602168C861BE
:10AD90002068C06920F480602168C8612068C069AB
:10ADA000296940EA01202168C86101E0012700BF4C
:10ADB00000BF00BF002084F83C0000BF384689E790
:10ADC00010B504460CB9012010BD94F83D0028B917
:10ADD000002084F83C00204600F025F8022084F88A
:10ADE0003D00211D206802F0EFF8012084F84600A4
:10ADF00000BF84F83E0001213F200155402001554D
:10AE00004120015500BF00BF012084F842004320CB
:10AE10000155442001554520015500BF012084F80B
:10AE20003D000020D0E7704770B504460D4615B9C7
:10AE300094F83E000BE0042D02D13F20005D06E0B7
:10AE4000082D02D14020005D01E04120005D012875
:10AE500001D0012070BD1DB9022084F83E000EE033
:10AE6000042D03D102213F20015508E0082D03D114
:10AE700002214020015502E002214120015501221A
:10AE80002946206802F0E2F819492068884201D179
:10AE9000012000E0002028B12068406C40F4004010
:10AEA000216848641249206888420BD02068B0F1BC
:10AEB000804F07D00F492068884203D00E49206890
:10AEC00088420CD12068806800F00706062E0CD05E
:10AED0002068006840F001002168086005E02068F3
:10AEE000006840F00100216808600020B2E700001F
:10AEF000002C0140000400400008004070477047EB
:10AF00002DE9F84F0446206805682068C668206867
:10AF100047694FF00009CA4605F00F09B9F1000F63
:10AF20000AD105F0200038B106F0200020B12046FB
:10AF300002F0D5FCBDE8F88FB9F1000F7BD007F027
:10AF4000010018B906F49070002874D005F00100D3
:10AF500030B106F4807018B1606C40F0010060649C
:10AF600005F0040030B107F0010018B1606C40F04A
:10AF70000200606405F0020030B107F0010018B172
:10AF8000606C40F00400606405F0080048B106F011
:10AF9000200010B907F0010018B1606C40F0080003
:10AFA0006064606C002845D005F0200028B106F0F0
:10AFB000200010B1204602F092FC20684069C0F3E6
:10AFC000801A606C00F0080010B9BAF1000F2CD0A4
:10AFD000204602F02BFC2068406900F0400000B3DE
:10AFE00000BF00BF2168143151E8001F21F040006C
:10AFF0002168143141E80002002AF3D100BFE06B60
:10B0000050B17748E16B4863E06BFDF751FF88B1C1
:10B01000E06B416B88470DE02046FFF770FF09E0C9
:10B0200009E02046FFF76BFF04E02046FFF767FFCB
:10B03000002060647EE7206B012877D105F01000C6
:10B04000002873D006F010000028FAD000BF0020BE
:10B05000009020680068009020684068009000BF61
:10B0600000BF2068406900F0400000285FD0E06B1E
:10B07000006840681FFA80F8B8F1000F55D0A08D25
:10B08000404552DDA4F82E80E06B8069202843D033
:10B0900000BF00BF21680C3151E8001F21F480700F
:10B0A00021680C3141E80002002AF3D100BF00BF43
:10B0B00000BF2168143151E8001F21F00100216810
:10B0C000143141E80002002AF3D100BF00BF00BFE5
:10B0D0002168143151E8001F21F04000216814312B
:10B0E00041E80002002AF3D100BF202084F842008A
:10B0F0000020206300BF00BF21680C3151E8001F11
:10B1000021F0100021680C3141E80002002AF3D13F
:10B1100000BFE06BFDF7A0FE02206063A08DE28D12
:10B12000801A81B22046FFF7E9FE03E742E0A08DD6
:10B13000E18D401A1FFA80F8E08DD0B3B8F1000F0E
:10B1400037D000BF00BF21680C3151E8001F21F447
:10B15000907021680C3141E80002002AF3D100BF51
:10B1600000BF00BF2168143151E8001F21F0010029
:10B170002168143141E80002002AF3D100BF2020E9
:10B1800084F842000020206300BF00BF21680C311A
:10B1900051E8001F21F0100021680C3141E8000245
:10B1A000002AF3D100BF0220606341462046FFF72A
:10B1B000A5FEBFE605F0800030B106F0800018B1B2
:10B1C000204602F0EDFCB5E605F0400030B106F097
:10B1D000400018B1204602F05FFBABE600BFA9E6D5
:10B1E000F1D6000810B504460CB9012010BDA069C5
:10B1F00000B100E000BF94F8410028B9002084F8B5
:10B200004000204600F062F8242084F841002068C5
:10B21000C06820F400502168C860204602F0DEFBC0
:10B220002068006920F49040216808612068406926
:10B2300020F02A00216848612068C06840F400506E
:10B240002168C86000206064202084F8410084F8F0
:10B2500042000020606300BFC8E7000010B504464C
:10B2600015492068884211D11448806920F4804033
:10B27000124988614FF4C0611148FEF71BF8E06B7A
:10B28000FDF76EFE2520FEF74FFF14E00D49206804
:10B29000884210D10948C06920F480200749C8615C
:10B2A0004FF440610848FEF705F8E06BFDF758FEE3
:10B2B0002720FEF739FF10BD003801400010024082
:10B2C0000008014000480040000C014010B586B065
:10B2D000044600200290039004900590564920688F
:10B2E000884252D100BF5548806940F4804053499C
:10B2F00088610846806900F48040019000BF00BF6B
:10B3000000BF0846806940F00400886108468069F3
:10B3100000F00400019000BF00BF48150290022019
:10B3200003900320059002A94548FEF75DF84FF40D
:10B330008060029000200390049002A94048FEF72C
:10B3400053F84048404908600020486000213E48CA
:10B3500081608021C1600021016141612021816102
:10B360000021C161FDF7FEFE08B1FDF739FD00BF08
:10B370003548E063446200BF002211462520FEF7F5
:10B3800005FF2520FEF7F2FE54E030492068884290
:10B3900050D100BF2948C06940F480202749C861C6
:10B3A0000846C06900F48020019000BF00BF00BFC4
:10B3B0000846806940F0080088610846806900F00E
:10B3C0000800019000BF00BF081502900220039002
:10B3D0000320059002A91E48FEF706F84FF400600E
:10B3E000029000200390049002A91948FDF7FCFF89
:10B3F0001448283817490860002048600021154883
:10B4000081608021C1600021016141618161C16170
:10B41000FDF7A8FE08B1FDF7E3FC00BF0D48E063AF
:10B42000446200BF002211462720FEF7AFFE27200E
:10B43000FEF79CFE06B010BD00380140001002402F
:10B4400000080140580002409C02002000480040D3
:10B45000000C0140E002002070B504460D4616467F
:10B4600094F8420020280BD105B10EB9012070BD1F
:10B470000020206332462946204602F02DFBF6E7E5
:10B480000220F4E770477047704700BFFEE70146AF
:10B4900008684069C0F38020B0B16FF480600A682A
:10B4A000506100200863202081F83D00002081F8D1
:10B4B0003E00086C40F00400086400BF002081F8E2
:10B4C0003C0000BF012070470020FCE72DE9F84355
:10B4D00004460F4615469946DDE90886206800684F
:10B4E00040F48060216808602068006840F4807043
:10B4F00021680860434600224FF001112046009663
:10B5000000F037F960B12068006800F48070B0F591
:10B51000807F02D14FF4007020640320BDE8F883DF
:10B5200007F0FE0021680861334642463E49204646
:10B5300000F07EF908B10120F0E700BF0020009084
:10B5400020684069009020688069009000BF00BFBB
:10B5500032464146204600F02DFA50B1206C0428B6
:10B5600005D12068006840F400702168086001205F
:10B57000D4E7B9F1010F03D1E8B22168086117E0FF
:10B58000C5F307202168086132464146204600F095
:10B5900011FA50B1206C042805D12068006840F4ED
:10B5A0000070216808600120B8E7E8B221680861EE
:10B5B00032464146204600F0FDF950B1206C042887
:10B5C00005D12068006840F40070216808600120FF
:10B5D000A4E72068006840F4807021680860434652
:10B5E00000224FF001112046009600F0C2F858B139
:10B5F0002068006800F48070B0F5807F02D14FF4BD
:10B6000000702064032089E7F8B240F0010021684F
:10B610000861334642460449204600F009F908B162
:10B6200001207BE7002079E7020001002DE9F843C3
:10B630000446884615469946DDE908672068006893
:10B6400040F4807021680860334600224FF00111F9
:10B650002046009700F08DF860B12068006800F483
:10B660008070B0F5807F02D14FF400702064032019
:10B67000BDE8F88308F0FE00216808613B463246C9
:10B680002149204600F0D4F808B10120F0E700BFBE
:10B690000020009020684069009020688069009038
:10B6A00000BF00BF3A463146204600F083F950B152
:10B6B000206C042805D12068006840F400702168DF
:10B6C00008600120D4E7B9F1010F03D1E8B2216885
:10B6D000086117E0C5F30720216808613A46314642
:10B6E000204600F067F950B1206C042805D120688D
:10B6F000006840F40070216808600120B8E7E8B2F3
:10B70000216808610020B3E70200010070B504461B
:10B710000D46164625E02046FFF7B9FE08B1012088
:10B7200070BD681CE8B1FDF7F5FF801BA84200D88A
:10B73000BDB920684069C0F3800090B90020206343
:10B74000202084F83D00002084F83E00206C40F06A
:10B750002000206400BF002084F83C0000BF0120CE
:10B76000DEE720684069C0F380000028D3D00020C5
:10B77000D6E72DE9F04104460D4617461E46DDF892
:10B78000188038E0701CA8B3FDF7C4FFA0EB0800D8
:10B79000B04200D876BBC5F3074001280AD1206823
:10B7A0004069A9B20840A9B2884201D101200BE04A
:10B7B000002009E020688069A9B20840A9B2884247
:10B7C00001D1012000E00020B84214D10020206304
:10B7D000202084F83D00002084F83E00206C40F0DA
:10B7E0002000206400BF002084F83C0000BF01203E
:10B7F000BDE8F081FFE7C5F3074001280AD12068C2
:10B800004069A9B20840A9B2884201D101200BE0E9
:10B81000002009E020688069A9B20840A9B28842E6
:10B8200001D1012000E00020B842ABD00020DFE7CA
:10B830002DE9F04104460D4616461F4658E02068A3
:10B840004069C0F38020E8B12068006840F40070CF
:10B85000216808606FF480602168486100202063DF
:10B86000202084F83D00002084F83E00206C40F049
:10B870000400206400BF002084F83C0000BF0120C9
:10B88000BDE8F081701C90B3FDF744FFC01BB042CF
:10B8900000D866BBC5F3074001280AD1206840697B
:10B8A000A9B20840A9B2884201D101200BE00020D2
:10B8B00009E020688069A9B20840A9B2884201D194
:10B8C000012000E0002090B900202063202084F8AF
:10B8D0003D00002084F83E00206C40F020002064F1
:10B8E00000BF002084F83C0000BF0120C8E7FFE74C
:10B8F000C5F3074001280AD120684069A9B2084071
:10B90000A9B2884201D101200BE0002009E02068A3
:10B910008069A9B20840A9B2884201D1012000E0A3
:10B92000002000288BD00020AAE770B504460D4601
:10B93000164637E020684069C0F30010A0B16FF0F0
:10B9400010002168486100202063202084F83D0019
:10B95000002084F83E00206C206400BF002084F8A2
:10B960003C0000BF012070BDFDF7D4FE801BA84243
:10B9700000D8BDB920684069C0F3801090B900209C
:10B980002063202084F83D00002084F83E00206CD5
:10B9900040F02000206400BF002084F83C0000BF7D
:10B9A0000120E0E720684069C0F380100028C1D082
:10B9B0000020D8E770B504460D46164625E020461F
:10B9C000FFF765FD08B1012070BD681CE8B1FDF707
:10B9D000A1FE801BA84200D8BDB920684069C0F311
:10B9E000C01090B900202063202084F83D00002082
:10B9F00084F83E00206C40F02000206400BF00204E
:10BA000084F83C0000BF0120DEE720684069C0F3F5
:10BA1000C0100028D3D00020D6E770B505460E46EA
:10BA20000024324629460E20FCF7C4FE0D240FE008
:10BA3000284600F06BFA284600F082FA3246294682
:10BA40002046FCF7B7FE284600F010F8601EC4B28E
:10BA5000002CEDDC284600F059FA284600F070FA78
:10BA6000324629460020FCF7A5FE70BD31B588B0EE
:10BA70000020079044E2DDE9071010F8210006904D
:10BA8000DDE9071000EB810040780590DDE9071043
:10BA900000EB810080780490DDE9071000EB810065
:10BAA000C0780390069803F043FB0446069803F021
:10BAB0003FFB029003F03CFB4440069803F038FB48
:10BAC000019003F035FB029003F032FB44400698EE
:10BAD00003F02EFB009003F02BFB019003F028FBFA
:10BAE000029003F025FB059803F022FB054605981C
:10BAF000454003F01DFB029003F01AFB059803F08C
:10BB000017FB019003F014FB029003F011FB45407A
:10BB1000059803F00DFB009003F00AFB019003F081
:10BB200007FB029003F004FB6C40049803F000FB59
:10BB30000498054603F0FCFA029003F0F9FA454038
:10BB4000049803F0F5FA019003F0F2FA029003F082
:10BB5000EFFA4540049803F0EBFA009003F0E8FA9E
:10BB6000019003F0E5FA029003F0E2FA6C400398CA
:10BB700003F0DEFA0398054603F0DAFA029003F0C8
:10BB8000D7FA039803F0D4FA019003F0D1FA0290A7
:10BB900003F0CEFA4540039803F0CAFA009003F090
:10BBA000C7FA019003F0C4FA029003F0C1FA6C40A6
:10BBB000DDE9071000F82140069803F0B9FA06986D
:10BBC000044603F0B5FA029003F0B2FA069803F0C7
:10BBD000AFFA019003F0ACFA029003F0A9FA4440E6
:10BBE000069803F0A5FA009003F0A2FA019003F082
:10BBF0009FFA029003F09CFA059803F099FA054623
:10BC0000059803F095FA029003F092FA45400598E2
:10BC100003F08EFA019003F08BFA029003F088FA99
:10BC20004540059803F084FA009003F081FA0190F2
:10BC300003F07EFA029003F07BFA6C40049803F064
:10BC400077FA05460498454003F072FA029003F033
:10BC50006FFA049803F06CFA019003F069FA02900D
:10BC600003F066FA4540049803F062FA009003F08E
:10BC70005FFA019003F05CFA029003F059FA6C400D
:10BC8000039803F055FA0398054603F051FA029021
:10BC900003F04EFA4540039803F04AFA019003F08E
:10BCA00047FA029003F044FA4540039803F040FA43
:10BCB000009003F03DFA019003F03AFA029003F08D
:10BCC00037FA6C40DDE9071000EB810044700698FC
:10BCD00003F02EFA0698044603F02AFA029003F0C5
:10BCE00027FA4440069803F023FA019003F020FA63
:10BCF000029003F01DFA4440069803F019FA0090F0
:10BD000003F016FA019003F013FA029003F010FA10
:10BD1000059803F00DFA0598054603F009FA02901C
:10BD200003F006FA059803F003FA019003F000FA15
:10BD3000029003F0FDF94540059803F0F9F90090F1
:10BD400003F0F6F9019003F0F3F9029003F0F0F933
:10BD50006C40049803F0ECF90546049803F0E8F908
:10BD6000029003F0E5F94540049803F0E1F90190F1
:10BD700003F0DEF9029003F0DBF94540049803F08C
:10BD8000D7F9009003F0D4F9019003F0D1F90290B3
:10BD900003F0CEF96C40039803F0CAF90546039806
:10BDA000454003F0C5F9029003F0C2F9039803F08F
:10BDB000BFF9019003F0BCF9029003F0B9F94540D6
:10BDC000039803F0B5F9009003F0B2F9019003F085
:10BDD000AFF9029003F0ACF96C40DDE9071000EB1D
:10BDE00081008470069803F0A3F904460698444045
:10BDF00003F09EF9029003F09BF9069803F098F97E
:10BE0000019003F095F9029003F092F944400698EE
:10BE100003F08EF9009003F08BF9019003F088F99C
:10BE2000029003F085F9059803F082F9059805461C
:10BE300003F07EF9029003F07BF94540059803F08A
:10BE400077F9019003F074F9029003F071F945401D
:10BE5000059803F06DF9009003F06AF9019003F082
:10BE600067F9029003F064F96C40049803F060F9FC
:10BE70000498054603F05CF9029003F059F9049820
:10BE800003F056F9019003F053F9029003F050F9D2
:10BE90004540049803F04CF9009003F049F90190F3
:10BEA00003F046F9029003F043F96C40039803F065
:10BEB0003FF90546039803F03BF9029003F038F987
:10BEC0004540039803F034F9019003F031F90290F2
:10BED00003F02EF94540039803F02AF9009003F08F
:10BEE00027F9019003F024F9029003F021F96C4046
:10BEF000DDE9071000EB8100C4700798401C079033
:10BF000007980428FFF6B7AD09B030BD417B437AEE
:10BF10004373437943724378437141708178827AE5
:10BF2000827081728179837B83718173C178C279D8
:10BF3000C270C37AC371C37BC372C1737047000000
:10BF400010B5024600200FE0002109E002EB81035A
:10BF50001B5C074CE35C02EB810423544B1CD9B2FD
:10BF60000429F3DB431CD8B20428EDDB10BD00002C
:10BF70004CF4000878B502460C46002020E000256D
:10BF800005EB8005655D002606EB800695550125CD
:10BF900005EB8005655D012606EB800695550225BB
:10BFA00005EB8005655D022606EB800695550325A9
:10BFB00005EB8005655D032606EB80069555401C64
:10BFC0000828DCD3082079E0451EA900555C8DF8CF
:10BFD00000504D1C555D8DF801508D1C555D8DF840
:10BFE0000250CD1C555D8DF8035000F007056DBB68
:10BFF0009DF800509DF801608DF800609DF802608A
:10C000008DF801609DF803608DF802608DF8035093
:10C010009DF800502B4E755D8DF800509DF8015035
:10C02000755D8DF801509DF80250755D8DF80250D8
:10C030009DF80350755D8DF803509DF80050224E19
:10C0400006EBD006367875408DF8005000F00705F5
:10C05000042D14D19DF800501A4E755D8DF80050D6
:10C060009DF80150755D8DF801509DF80250755D89
:10C070008DF802509DF80350755D8DF803508300D4
:10C08000A0F10805A900555C9DF800607540D554E5
:10C090004D1C555D9DF8016075405E1C95558D1CCD
:10C0A000555D9DF8026075409E1C9555CD1C555DF3
:10C0B0009DF803607540DE1C9555401C3C2883D3D9
:10C0C00078BD00004CF300084CF50008704770473D
:10C0D0000B490968FA2903D10021094A11600EE0D1
:10C0E00001280CD107490978491CC9B2054A1170C9
:10C0F000052904DB00211170FA21014A1160704703
:10C10000340400400C00002030B5A7B004460025E0
:10C110000C4A07CA24AB07C3684602F099FE0C22FA
:10C1200024A9684602F0D4FF1CA9684602F0F2FD7B
:10C1300020221CA92046FCF7DBF800B9012528467F
:10C1400027B030BDE8F7FF1F30B585B004460D4677
:10C1500000232A462146684600F008F81122694665
:10C160000120FCF795FD05B030BD00002DE9F0433E
:10C17000C7B005460C4616461F46082C01DA204675
:10C1800000E00020044606F00F063FB12B4800EB0C
:10C190000411102203A8FCF702F906E0284800EB7E
:10C1A0000411102203A8FCF7FAF804EB4400254917
:10C1B00001EB800001680091416801918068029064
:10C1C00086B14FF000090BE0102103A802F0A2FF96
:10C1D0000C21684602F09EFF09F1010000F0FF0902
:10C1E000B145F1DB46EA041000F0FF08694603A8F8
:10C1F00001F042FE14A00088288014480168C5F8A8
:10C2000002104168C5F806108068C5F80A0085F874
:10C2100010800F4A0F4907A8FCF7BDFA10222946E3
:10C2200007A8FCF79AFA20210A48FCF72FF91021F9
:10C230000748FCF72BF947B0BDE8F0831CF2000873
:10C240009CF100089CF2000854520000E8F7FF1F20
:10C250001C080020FC07002010B500203949087098
:10C260003948C078A02814D008DC302815D03128EF
:10C2700014D042281AD05F283CD11FE0A22804D055
:10C28000BD282FD0CF2835D11CE001202D490870C2
:10C2900030E004202B4908702CE000BF022029491F
:10C2A00008700121084600F0B9FD23E0032025496C
:10C2B00008700421012000F0B1FD1BE00520214998
:10C2C000087017E020480079012803D106201D4995
:10C2D000087002E007201B4908700121084600F0A1
:10C2E0009DFD07E00820174908700421012000F097
:10C2F00095FD00BF00BF1348007810B3012013491B
:10C300000871FDF707FA0F490978491E01EB410151
:10C310000F4A12F8211008440C49086009480078B7
:10C32000401E00EB4000114601EB80010748401D14
:10C3300051F8012F02604A6842600A890281897AB5
:10C34000817210BD390000203C0800202C0800201C
:10C3500058F6000810B501F0ADF810BD70B50546EF
:10C3600050E001F0B3F804462948007830B10128C4
:10C370000ED0022813D004283ED120E0FF2C01D09B
:10C38000F02C01D1012000E000202149087037E0A5
:10C390001F48C470847302201D49087030E01C4897
:10C3A0000471807B2044C1B2194881730821417116
:10C3B00000201749887048700420087020E0144855
:10C3C0008178407981420DDA1148807B2044C1B2E6
:10C3D0000F48817381788078401C0D4A9070901DC1
:10C3E000445408E000200A4908700846807BA042B7
:10C3F00001D1FFF731FF03E000200549087000BFBD
:10C4000000BF00BF281EA5F10101CDB2A9D170BDAA
:10C410003C08002070B504460D4603E014F8010BFB
:10C4200001F0E8F8281EA5F10101CDB2F6D170BDEA
:10C4300010B50948007901280DD1FDF76BF90649BF
:10C440000968884207D30020034908710B2102487C
:10C45000401DFFF7DFFF10BD2C08002010B5054878
:10C46000054908600846FCF7BEFC08B1FCF7B8FCBB
:10C4700010BD0000003002401000002008B500BFD1
:10C480000E48406940F001000C4948610846406987
:10C4900000F00100009000BF00BF002211460D20F7
:10C4A000FDF774FE0D20FDF761FE002211460F20FE
:10C4B000FDF76CFE0F20FDF759FE08BD001002408D
:10C4C00000B585B00020019002900390049000BF59
:10C4D0004648806940F010004449886108468069F8
:10C4E00000F01000009000BF00BF00BF0846806948
:10C4F00040F0200088610846806900F0200000902C
:10C5000000BF00BF00BF0846806940F00800886196
:10C510000846806900F00800009000BF00BF00BF1F
:10C520000846806940F0040088610846806900F090
:10C530000400009000BF00BF00224FF440412C488F
:10C54000FDF7E2F800224CF22A012A48FDF7DCF858
:10C5500000224FF400412848FDF7D6F84FF4005070
:10C56000019000200290039001A92148FCF73CFFB4
:10C570004FF44040019001200290002003900220DF
:10C58000049001A91A48FCF72FFF012001901B48D5
:10C5900002900020039001A91648FCF725FF4CF2F9
:10C5A0002A000190012002900020039002200490B4
:10C5B00001A91048FCF718FF4FF4405001900020EB
:10C5C0000290039001A90B48FCF70EFF4FF40040C6
:10C5D000019001200290002003900220049001A904
:10C5E0000548FCF701FF05B000BD00000010024047
:10C5F00000100140000C0140000801400000111033
:10C6000010B50B480B4908600B48486000210948E9
:10C610008160C1604FF4804101610021416181610D
:10C62000C1610162FDF77CF808B1FCF7D9FB10BDD0
:10C630000054004070010020A086010000B58DB0BC
:10C64000002009900A900B900C90079008901C21F4
:10C650006846FBF73DFF20482049086047204860B6
:10C6600000211E4881604FF4FA71C1600021016110
:10C670008161FEF719FA08B1FCF7B2FB4FF4805064
:10C68000099009A91548FEF75BFA08B1FCF7A8FB69
:10C690001248FEF795FB08B1FCF7A2FB00200790BB
:10C6A000089007A90D48FEF7BDF908B1FCF798FB03
:10C6B00060200090002001900290049000226946C2
:10C6C0000648FEF7FBFA08B1FCF78AFB0348FEF7C1
:10C6D000BDFA0DB000BD000000040040C401002000
:10C6E00010B50F480F4908604FF4E1304860002151
:10C6F0000C488160C16001610C21416100218161B0
:10C70000C161FEF76FFD08B1FCF76AFB04480C300D
:10C71000006840F0100002490C31086010BD0000B4
:10C72000003801400C02002010B50F480F49086086
:10C730004FF41650486000210C488160C1600161CF
:10C740000C21416100218161C161FEF74BFD08B1FF
:10C75000FCF746FB04480C30006840F0100002492A
:10C760000C31086010BD0000004800405402002059
:10C7700000BFFEE72DE9F0410546002460E015F812
:10C78000248015F8240005EB84014978484005EB26
:10C7900084018978484005EB8401C97880EA010664
:10C7A00015F8240005EB8401497880EA0107384632
:10C7B00002F0BEFC074615F8240087EA060148404F
:10C7C00005F8240005EB8400407805EB84018978A6
:10C7D00080EA0107384602F0ABFC074605EB84000F
:10C7E000407887EA0601484005EB8401487005EB74
:10C7F0008400807805EB8401C97880EA0107384617
:10C8000002F096FC074605EB8400807887EA060173
:10C81000484005EB8401887005EB8400C07880EA0D
:10C820000807384602F084FC074605EB8400C07810
:10C8300087EA0601484005EB8401C870601CC4B259
:10C84000042C9CDBBDE8F08100BFFEE770470000D0
:10C8500008B508490968C9084FF47A72B1FBF2F1CA
:10C860004143009100BF00BF00994A1E0092002979
:10C87000F9D108BD24000020704770B50446D4F8F3
:10C8800020018047064671E0D4F824018047054620
:10C89000207A30B9242D01D1012000E0002020723F
:10C8A00063E0207A012806D14D2D01D1022000E05D
:10C8B0000020207259E0207A022809D13E2D00D1B3
:10C8C00004E0212D01D1062000E0002020724CE080
:10C8D000207A032802D0207A062813D1207A06284D
:10C8E00001D1012100E00021A173FA2D02DD002019
:10C8F00020723BE004202072A57200216173217335
:10C90000E57232E0207A042806D105202072657293
:10C91000E07A6840E07228E0207A05280DD1617B3A
:10C92000A07A814209DAE07A6840E072617B481CB3
:10C93000607304F10F00455417E0207A052814D1E4
:10C94000617BA07A814210DB00202072E07AA8424D
:10C950000AD101202070FCF7DDFE00F5FA6060606E
:10C96000607AD4F82C118847002600BF301EA6F14B
:10C9700001018EB288D1A07B08B9012070BD0020D2
:10C98000FCE770B504460D461646002140F20B1038
:10C99000015584F809512420D4F8281188474D20E6
:10C9A000D4F8281188473E20D4F82811884731460A
:10C9B000204600F015F92946204600F011F970BD17
:10C9C00070B505460C4622460021284600F001F8C5
:10C9D00070BD70B504460E461546002140F20B109E
:10C9E0000155401E05552420D4F8281188474D20B4
:10C9F000D4F8281188470EB1212200E03E221046CB
:10CA0000D4F8281188472946204600F0E9F894F820
:10CA10000911204600F0E4F870BD2DE9F047044606
:10CA20000D4616461F46DDE9088944B13DB136B1D1
:10CA30002FB1B8F1000F02D0B9F1000F02D10020E0
:10CA4000BDE8F0874FF49A712046FBF741FDC4F82A
:10CA50002051C4F82461C4F82871C4F82C81C4F8AA
:10CA6000309100202072FCF755FE00F5FA606060FE
:10CA70000120E5E730B5037B9C18837A9C4200DDFA
:10CA800030BD07E0047B631C037300F10F031B5DE3
:10CA900001F8013B131EA2F10104E2B2F2D100BF82
:10CAA000EEE72DE9F04106460F4614461D462A469C
:10CAB00039463046FFF765FF2A462146304600F0EA
:10CAC00077F8304600F09BF8BDE8F08170B5044679
:10CAD0000D46002229462046FFF753FF204600F06E
:10CAE0008EF870BD2DE9F04105460E4614462046ED
:10CAF000FBF72AFCC7B23A4631462846FFF741FF0A
:10CB00002146284600F084F8284600F078F8BDE871
:10CB1000F08170B505460E4614460122314628467E
:10CB2000FFF72FFF2146284600F05AF8284600F06C
:10CB300066F870BD70B50446FCF7ECFD05464FF491
:10CB40008F70005D28B3207818B34FF488700059B7
:10CB5000A8421ED8B4F80C0141194FF48870015155
:10CB600040F21F12135D04F58A72D05CD4F82C11C8
:10CB7000884740F21F10005D401CC1B240F21F10F8
:10CB80000155401E005D814203DB002140F21F1071
:10CB900001556068A84207D20020207005F5FA60B0
:10CBA0006060D4F8300180472046FFF766FE70BD14
:10CBB00070B504460D4616460CE02878D4F82811C6
:10CBC000884715F8010B40F20B11095D484040F20F
:10CBD0000B110855301EA6F10101CEB2EDD170BD8A
:10CBE00070B504460D462846D4F82811884740F20F
:10CBF0000B10005D684040F20B11085570BD10B578
:10CC0000044640F20B12105DD4F82811884710BD7D
:10CC100070B505460C460CE02078D5F828118847F9
:10CC200014F8010B40F20B11495D484040F20B1122
:10CC3000485520780028EFD170BD41784279427084
:10CC4000437A4371437B437241738178827A827065
:10CC500081728179837B83718173C178C27BC27059
:10CC6000C37AC373C379C372C171704770B5044688
:10CC7000FCF750FD0546E068A84272D8207C0328E6
:10CC800049D007285FD16069002843D0217E6069C0
:10CC9000405C00283ED0217E6069405C2D2802D097
:10CCA0002E2813D106E0204600F0F4F805F5487070
:10CCB000E06014E0204600F0EDF8607C08B1C82088
:10CCC00001E04FF4C8702844E06008E005F5FA6020
:10CCD000E060607C10B1204600F0DCF800BF00BFCF
:10CCE000607CB8B9207E401CC0B22076617E88424C
:10CCF00010DB00202076E07E401CC0B2E076A17EF2
:10CD0000884207DB0020E07602202074A06A08B188
:10CD1000A06A804724E0A079002813DD204600F0B7
:10CD2000B9F8A0682844E060607C58B9A079401E3A
:10CD3000C0B2A07130B9204600F052F8A06A08B124
:10CD4000A06A80470CE0207C042808DB207C0628B1
:10CD500005DC204600F09EF8A0682844E06000BF93
:10CD600000BF70BD2DE9F0438BB005460E46174657
:10CD70009846DDF8489017480088062803DB002015
:10CD80000BB0BDE8F0832C20FBF73EFA04460CB94B
:10CD90000020F5E72C2210496846FBF745FB00957B
:10CDA000ADF804608DF812702C2269462046CDE95A
:10CDB0000989FBF739FB074801880088401C054AB0
:10CDC0001080064840F82140204600F009F8012074
:10CDD000D6E700002800002070F10008240300209E
:10CDE00010B50446A37C0BB1012300E000231A46D2
:10CDF000A1882068FCF788FC0020607410BD10B585
:10CE00000446A37C0BB9012300E000231A46A18845
:10CE10002068FCF779FC0120607410BD70B50446F1
:10CE20000D461A48008884422FDA062D00DD0625BB
:10CE3000174850F824000574072D25D2DFE805F0C7
:10CE400024181E24040B12004FF44870104951F8A6
:10CE50002410886018E04FF4C8700D4951F8241070
:10CE6000886011E0C8200A4951F8241088600BE05E
:10CE7000074951F82400FFF7C2FF05E0044951F8C3
:10CE80002400FFF7ADFF00BF00BF70BD28000020E9
:10CE90002403002010B50446607C18B12046FFF73B
:10CEA0009FFF02E02046FFF7AAFF606A10B1607C96
:10CEB000616A884710BD000070B5FCF72BFC054681
:10CEC000002423E0144850F82400C068A84204D885
:10CED000114951F82400FFF7C9FE0F4850F824000B
:10CEE000006A88B10C4850F82400006AA8420BD8A8
:10CEF0000020094951F824100862074850F824001E
:10CF0000017F2046FFF78AFF601CC4B203480088F7
:10CF10008442D7DB70BD00002403002028000020DD
:10CF200010B5024600200FE0002109E002EB81036A
:10CF30001B5C074CE35C02EB810423544B1CD9B20D
:10CF40000429F3DB431CD8B20428EDDB10BD00003C
:10CF50004CF3000810B5FDF775F8FFF7ADFF10BDF5
:10CF600000B58FB0282105A8FBF7B2FA1421684656
:10CF7000FBF7AEFA012005900004069040000790F0
:10CF80000120099002200C90C1030D914FF4E01193
:10CF90000E9105A8FDF7FAFA08B1FBF721FF0F2063
:10CFA000009002200190002002904FF480600390D6
:10CFB0000020049002216846FDF73AF908B1FBF71A
:10CFC0000FFF0FB000BD704710B502681C4B9842B0
:10CFD00008D0B0F1804F05D01A4B984202D01A4BBE
:10CFE000984203D122F070024B681A43144B9842C6
:10CFF00008D0B0F1804F05D0124B984202D0124BAE
:10D00000984203D122F44072CB681A4322F0800385
:10D010004C6943EA040202608B68C3620B68836256
:10D02000074B984201D10B690363012343610369F4
:10D0300003F001031BB1036923F00103036110BD79
:10D04000002C0140000400400008004030B501F011
:10D050001F05012404FA05F3046A9C430462046A70
:10D0600001F01F0502FA05F52C43046230BD30B50E
:10D070000C46816821F47F4142EA03252543294378
:10D08000816030BD0A46816821F0700142F00703DB
:10D09000194381607047000030B5026A056A25F0C7
:10D0A000010505624368846924F0700424F00304D8
:10D0B0000D682C4322F002028D682A430D4DA842D0
:10D0C00006D100BF22F00802CD682A4322F00402F4
:10D0D000084DA84207D123F4807323F400734D69EF
:10D0E0002B438D692B43436084614D684563026225
:10D0F00030BD0000002C014030B5026A056A25F001
:10D10000100505624368846924F4E04424F4407403
:10D110000D6844EA052422F020028D6842EA0512D7
:10D120000E4DA84207D100BF22F08002CD6842EA2E
:10D13000051222F04002094DA84209D123F4806370
:10D1400023F400634D6943EA85038D6943EA85034F
:10D15000436084614D688563026230BD002C0140EC
:10D1600030B5026A056A25F4807505624368C469B2
:10D1700024F0700424F003040D682C4322F40072A0
:10D180008D6842EA05220F4DA84207D100BF22F464
:10D190000062CD6842EA052222F48062094DA8426D
:10D1A00009D123F4805323F400534D6943EA051356
:10D1B0008D6943EA05134360C4614D68C56302622B
:10D1C00030BD0000002C014030B5036A056A25F42B
:10D1D000805505624468C26922F4E04222F440723C
:10D1E0000D6842EA052223F400538D6843EA0533B3
:10D1F000064DA84204D124F480444D6944EA8514C4
:10D200004460C2614D680564036230BD002C01407A
:10D2100030B50B461446026A056A25F00105056221
:10D22000816921F0F00141EA041122F00A021A4357
:10D230008161026230BD30B50B461446026A056A50
:10D2400025F010050562816921F4704141EA04313D
:10D2500022F0A00242EA03128161026230BD0000A6
:10D260000148B0F804017047DC03002010B58022AB
:10D2700002490348FEF7F0F810BD00003C0300200F
:10D280000C02002010B500242520FCF74DFF1E489D
:10D29000B0F80401B0F5807F07D11B4890F8060173
:10D2A00020F00200184981F806011748B0F804017F
:10D2B000002811DD1448B0F8000113490C5C084641
:10D2C000B0F80001401CA1F800010846B0F80401C4
:10D2D000401EA1F8040107E00B4890F8060120F079
:10D2E0000100094981F806010748B0F80001B0F5CE
:10D2F000807F03D100200449A1F800012520FCF71C
:10D3000035FF204610BD0000DC0300202548B0F8A2
:10D310000401B0F5807F07D1224890F8060120F083
:10D320000200204981F806011E48B0F804010028D7
:10D3300013DD1C48B0F800011A49085C1A4908605E
:10D340001848B0F80001401C1649A1F80001084631
:10D35000B0F80401401EA1F804011248B0F8000121
:10D36000B0F5807F03D100200E49A1F800010D48DF
:10D37000B0F80401A0B90B4890F8060120F00700AE
:10D38000084981F8060108480830006820F080004C
:10D390000549083108600846006840F04000086010
:10D3A00070470000E40400200438014070B50446D2
:10D3B000FCF7B0F90546322608E0FCF7ABF9401B54
:10D3C000B04203D9364890F8060170BD3448B0F831
:10D3D0000401B0F5807FF0D02520FCF7A5FE304891
:10D3E000B0F80401B0F5807F08D12D4890F806010F
:10D3F00040F004002A4981F8060115E02848B0F8F9
:10D400000401FF2810DC2648B0F8020124490C541E
:10D410000846B0F80201401CA1F802010846B0F825
:10D420000401401CA1F804011D48B0F80401B0F546
:10D43000807F07D11A4890F8060140F00200184991
:10D4400081F806011648B0F80201B0F5807F03D1DB
:10D4500000201349A1F802012520FCF787FE10489F
:10D46000B0F80401002817DD0D4890F8060140F0DF
:10D4700001000B4981F806010A48006800F08000AD
:10D4800050B90848006840F0800006490860084626
:10D49000006820F004000860014890F8060194E755
:10D4A000E40400200C3801400148B0F80401704742
:10D4B000EC05002010B5202202490348FDF7CCFFFF
:10D4C00010BD0000BC0300205402002010B5002451
:10D4D0002720FCF729FE1E48B0F80401B0F5807F34
:10D4E00007D11B4890F8060120F00200184981F886
:10D4F00006011748B0F80401002811DD1448B0F8FF
:10D50000000113490C5C0846B0F80001401CA1F86A
:10D5100000010846B0F80401401EA1F8040107E02C
:10D520000B4890F8060120F00100094981F8060136
:10D530000748B0F80001B0F5807F03D1002004490E
:10D54000A1F800012720FCF711FE204610BD0000C5
:10D55000EC0500202548B0F80401B0F5807F07D124
:10D56000224890F8060120F00200204981F80601C7
:10D570001E48B0F80401002813DD1C48B0F8000173
:10D580001A49085C1A4908601848B0F80001401CA4
:10D590001649A1F800010846B0F80401401EA1F8A0
:10D5A00004011248B0F80001B0F5807F03D10020DB
:10D5B0000E49A1F800010D48B0F80401A0B90B48CC
:10D5C00090F8060120F00700084981F80601084894
:10D5D0000830006820F080000549083108600846DE
:10D5E000006840F04000086070470000F40600202A
:10D5F0000448004070B50446FCF78CF80546322616
:10D6000008E0FCF787F8401BB04203D9364890F891
:10D61000060170BD3448B0F80401B0F5807FF0D049
:10D620002720FCF781FD3048B0F80401B0F5807F79
:10D6300008D12D4890F8060140F004002A4981F8ED
:10D64000060115E02848B0F80401FF2810DC264840
:10D65000B0F8020124490C540846B0F80201401CFD
:10D66000A1F802010846B0F80401401CA1F8040129
:10D670001D48B0F80401B0F5807F07D11A4890F832
:10D68000060140F00200184981F806011648B0F87A
:10D690000201B0F5807F03D100201349A1F80201F7
:10D6A0002720FCF763FD1048B0F80401002817DDBF
:10D6B0000D4890F8060140F001000B4981F8060181
:10D6C0000A48006800F0800050B90848006840F03F
:10D6D0008000064908600846006820F004000860E1
:10D6E000014890F8060194E7F40600200C48004039
:10D6F00070B505466C6A0020E085E0842046FDF7A1
:10D70000FEFB70BD70B506460025746A206840694E
:10D71000C0F3C01594F84100212805D125B100209F
:10D72000E084204600F0C8F820684069C0F3801506
:10D7300094F84200222805D125B10020E08520463A
:10D7400000F074F8606C40F0100060642046FDF753
:10D75000D6FB70BD70B505466C6A2868006800F09D
:10D760002000002842D1E08500BF00BF21680C31B5
:10D7700051E8001F21F4807021680C3141E800025B
:10D78000002AF3D100BF00BF00BF2168143151E867
:10D79000001F21F001002168143141E80002002A35
:10D7A000F3D100BF00BF00BF2168143151E8001F52
:10D7B00021F040002168143141E80002002AF3D131
:10D7C00000BF202084F84200206B01280ED100BF4A
:10D7D00000BF21680C3151E8001F21F010002168C2
:10D7E0000C3141E80002002AF3D100BF0020606341
:10D7F000206B012804D1A18D2046FDF77FFB02E0BC
:10D800002046FDF73FFE70BD70B505466C6A0120ED
:10D810006063206B012805D1A08D41082046FDF7EB
:10D820006DFB02E02046FDF72EFE70BD00BF00BF7D
:10D8300002680C3252E8002F22F4907102680C3218
:10D8400042E80013002BF3D100BF00BF00BF026805
:10D85000143252E8002F22F001010268143242E82B
:10D860000013002BF3D100BF016B01290ED100BFC3
:10D8700000BF02680C3252E8002F22F0100102684B
:10D880000C3242E80013002BF3D100BF202180F8B6
:10D89000421000210163704710B504462068C0683B
:10D8A00020F040002168C860202084F84100204614
:10D8B000FDF7EAFD002010BD00BF00BF02680C327A
:10D8C00052E8002F22F0C00102680C3242E8001337
:10D8D000002BF3D100BF202180F841107047F8B52C
:10D8E000044694F84200222875D1A068B0F5805F04
:10D8F0000CD1206950B90025A66A20684068C0F3A1
:10D9000008003080A06A801CA06215E0A56A00268D
:10D91000A068B0F5805F03D0A06828B9206918B965
:10D9200020684068287004E02068406800F07F00AC
:10D930002870A06A401CA062E08D401E80B2E08585
:10D94000002846D12068C06820F020002168C86007
:10D950002068C06820F480702168C8602068406931
:10D9600020F0010021684861202084F84200002056
:10D970006063206B012826D10020206300BF00BF18
:10D9800021680C3151E8001F21F0100021680C3192
:10D9900041E80002002AF3D100BF2068006800F0CF
:10D9A000100010280AD100BF0020009020680068F5
:10D9B000009020684068009000BF00BFA18D204605
:10D9C000FDF79CFA02E02046FDF75CFD0020F8BD63
:10D9D00001E00020FBE70220F9E7000070B50446F3
:10D9E0002168096921F44051E268114322681161FC
:10D9F0002269A1681143626941EA02052168C96888
:10DA000041F20C62914329432268D160216849693F
:10DA100021F44071A2691143226851612D4A2168A5
:10DA2000914202D1FCF768FD01E0FCF755FD00EBE7
:10DA3000C00101EB001162689200B1FBF2F100EB52
:10DA4000C00202EB001263689B00B2FBF3F2642396
:10DA5000B2FBF3F202EBC20303EB0212A1EB820171
:10DA6000322202EB01116422B1FBF2F101F0F0016C
:10DA700000EBC00202EB001263689B00B2FBF3F202
:10DA80006423B2FBF3F201EB021200EBC00101EBE5
:10DA9000001163689B00B1FBF3F100EBC00303EBE3
:10DAA00000136668B600B3FBF6F36426B3FBF6F327
:10DAB00003EBC30606EB0313A1EB8301322303EB55
:10DAC00001116423B1FBF3F101F00F01114422684D
:10DAD000916070BD0038014077B581B004461546AD
