:020000040800F2
:10800000780E002009820008D9BC0008E9AF0008FA
:1080100055BC0008D58A000845CF000800000000C4
:1080200000000000000000000000000039BD000852
:10803000DD8B00080000000009BD0008F1C3000846
:10804000238200082382000823820008238200087C
:10805000238200082382000823820008238200086C
:10806000238200082382000823820008238200085C
:10807000238200082382000823820008898B0008DD
:10808000238200082382000823820008238200083C
:10809000238200082382000823820008238200082C
:1080A000238200082382000823820008238200081C
:1080B000238200082382000823820008238200080C
:1080C00023820008238200082382000823820008FC
:1080D0002382000839CE00082382000831CF00082F
:1080E00023820008238200082382000800F002F89F
:1080F00000F060F80AA090E8000C82448344AAF1E2
:108100000107DA4501D100F055F8AFF2090EBAE8DF
:108110000F0013F0010F18BFFB1A43F001031847BB
:10812000BC620000DC6200000A444FF0000C10F852
:10813000013B13F0070408BF10F8014B1D1108BFE5
:1081400010F8015B641E05D010F8016B641E01F885
:10815000016BF9D113F0080F1EBF10F8014BAD1CD5
:108160000C1B09D16D1E58BF01F801CBFAD505E0F3
:1081700014F8016B01F8016B6D1EF9D59142D6D34D
:10818000704700000023002400250026103A28BF75
:1081900078C1FBD8520728BF30C148BF0B60704779
:1081A0001FB59DE8030000F0BBF900F0B8F81FBD53
:1081B00010B510BD00F042FA1146FFF7F1FF04F0D0
:1081C000A1FF00F060FA03B4FFF7F2FF03BC00F078
:1081D00091FA00000B49D1F800C04A685CF8043BF2
:1081E0001068184442F8040B8C4528BFA1F1DC0C40
:1081F0008A4228BFA1F1DC02C1F800C04A6020F029
:108200000040704754020020094880470948004751
:10821000FEE7FEE7FEE7FEE7FEE7FEE7FEE7FEE736
:10822000FEE7FEE704480549054A064B7047000093
:1082300061C40008ED80000878080020780E002056
:10824000780A0020780A002070B5064600F04CF944
:10825000056806F10B0020F00704B4429CBF002023
:1082600070BD2B466A68BAB11068A04210D304F101
:10827000080188423CBF5068586007D35168101904
:1082800041601168091B016058601460101D70BDC9
:1082900013465268002AE7D12146284600F02CF9FF
:1082A0000028DED170BD70B50446051F00F01CF932
:1082B0000068002C14BF446870BD002C18BFAC428D
:1082C0003CBF20466468F8D301680A18AA4218BF68
:1082D000456003D12A6805461144016028684119A8
:1082E000A1421CBF6C6070BD616869602168084470
:1082F000286070BD0B4910B5A1F17C020A4CC2E99F
:108300003712372106E000EB104342F82130074BCB
:1083100000FB03400B1EA1F10101F4DC10BD0120A4
:10832000E8E70000F4010020E119D666CD0D010058
:1083300040EA010310B59B070FD1042A0DD310C8E2
:1083400008C9121F9C42F8D020BA19BA884201D934
:10835000012010BD4FF0FF3010BD1AB1D30703D07C
:10836000521C07E0002010BD10F8013B11F8014B32
:108370001B1B07D110F8013B11F8014B1B1B01D14E
:10838000921EF1D1184610BD10B5431C02E010F842
:10839000011B71B18107FAD14FF0013202C88C1A6A
:1083A0008C4314EAC211F9D0C01A0A0603D0C01EC9
:1083B00010BDC01A10BD0A0401D0801E10BD0902F4
:1083C000FCD0401E10BD032A40F2308010F0030C98
:1083D00000F0158011F8013BBCF1020F624498BF18
:1083E00011F801CB00F8013B38BF11F8013BA2F1B5
:1083F000040298BF00F801CB38BF00F8013B11F030
:10840000030300F0C380083AC0F0088051F8043B31
:10841000083A51F804CBA0E80810F5E7121D5CBF3C
:1084200051F8043B40F8043BAFF30080D20724BF6F
:1084300011F8013B11F801CB48BF11F8012B24BF03
:1084400000F8013B00F801CB48BF00F8012B704752
:108450004FF000020429C0F0128010F0030C00F06D
:108460001B80CCF1040CBCF1020F18BF00F8012BEB
:10847000A8BF20F8022BA1EB0C0100F00DB85FEAB9
:10848000C17C24BF00F8012B00F8012B48BF00F885
:10849000012B70474FF0000200B5134694469646F4
:1084A000203922BFA0E80C50A0E80C50B1F1200107
:1084B000BFF4F7AF090728BFA0E80C5048BF0CC0B5
:1084C0005DF804EB890028BF40F8042B08BF704713
:1084D00048BF20F8022B11F0804F18BF00F8012B85
:1084E000704770477047704700487047640200202B
:1084F000704770477047704738B504460A460020F9
:108500006946AFF30080002808BF38BD02460099D5
:10851000204600F071F8012038BD012000F086B837
:10852000F8B5AFF30080054600200C46102000BFD0
:108530000646A819A0420DD9324669460020AFF37D
:108540000080070008BF00F071F80098A04218BF33
:108550000546C419FFF7C8FF05600746F01D20F067
:1085600007004619284600F00AF8B44208BFF8BDD3
:10857000A21B31463868BDE8F84000F03DB8002144
:108580000160C0E9011070471020704710B5203A13
:10859000C0F00B80B1E81850A0E81850B1E81850AE
:1085A000A0E81850203ABFF4F5AF5FEA027C24BF80
:1085B000B1E81850A0E8185044BF18C918C0BDE869
:1085C00010405FEA827C24BF51F8043B40F8043B32
:1085D00008BF7047D20728BF31F8023B48BF11F8E7
:1085E000012B28BF20F8023B48BF00F8012B704741
:1085F000004870475C020020034640688C46002813
:1086000018BF88423CBF03464068F8D31868184436
:10861000884207D00CF1030020F00700001D411A2A
:10862000521A0146081D0A60FFF73DBE10B500F062
:1086300039F8BDE8104000F02FB870477546FFF7D5
:10864000D7FFAE4605006946534620F00700854631
:1086500018B020B5FFF7E6FDBDE820404FF000065A
:108660004FF000074FF000084FF0000BAC46ACE8AD
:10867000C009ACE8C009ACE8C009ACE8C00921F009
:1086800007018D46704710B50446AFF300802046C1
:10869000BDE81040FFF797BD002801D000F02AB8D0
:1086A0007047000010B5012805D0002103A000F09C
:1086B00027F8012010BD09A1F8E7000053494752EF
:1086C000544D454D3A204F7574206F6620686561A2
:1086D00070206D656D6F7279000000003A2048656A
:1086E0006170206D656D6F727920636F7272757045
:1086F0007465640001491820ABBEFEE72600020045
:1087000070B505460C460A2000E06D1C00F011F81B
:1087100035B128780028F8D102E0641C00F009F88F
:1087200014B120780028F8D1BDE870400A20AFF3DA
:10873000008008B569468DF800000320ABBE08BD77
:108740002DE9F04385B002B390460D46814600F115
:10875000F0070026A859AC1901906068E168A2688A
:108760000491CDE902022046494602F07BFE2046F4
:10877000394604F0E9FB01AB049A0BCB10364645B1
:10878000FA60BB6079603860E4D305B0BDE8F0837F
:108790002DE9F04700F1F00806464046AAB18A46A6
:1087A00091460025414654460AEB0507384604F039
:1087B000CBFB3846314600F0BDF910352146103468
:1087C0004D45F1D30AEB0500103801684268C368D3
:1087D0008068C8F80C30C8F80800C8F80420C8F849
:1087E0000010BDE8F0870000B0B51446054602F061
:1087F0002BFF20686168E268A368C5F8FC20C5F813
:10880000F830C5F8F410C5F8F000B0BD10B5A1F10E
:10881000010C02EB00104FF0000E00BF4FF0FF33D1
:10882000614600BFC218527811F8014F013362400F
:10883000032B0A70F6D10EF1010EBEF1040F0CF1FC
:10884000040C00F1040008BF10BDE7E780B540F25A
:10885000BC20C2F20000002103F094FB80BD0000A8
:1088600070B5C0B040F63405C2F200052978044660
:1088700051B100F079FF40F2B061C2F20001096825
:10888000884284BF00202870032C0CD8DFE804F055
:1088900002AE5E7640F2BC20C2F20000002103F07E
:1088A000E1FA40B070BD6E2C00F08B806F2C40F070
:1088B0009B802A7840F2BC20C2F200006F2103F0B6
:1088C0007FFB2878002800F08F80FF208DF80000C3
:1088D00069460020012200F0FDF904F0BBFB41F2E3
:1088E0000000C4F202000168002241F001010160B1
:1088F0004168CFF6FF021140416001684FF6FF72F8
:10890000CFF6F662114001600168042221F4802153
:1089100001604168C0F6000221F4FE0141604FF49D
:108920001F0181604FF000600168126840F2AC6383
:10893000C2F200031A604EF60852CEF20002106036
:1089400081F308881868804740B070BDFFF742FC8B
:108950006C46C0F3031100F00F022046012302F021
:1089600083FF40F2BC20C2F2000002212246112304
:1089700003F0F8FA0020287040B070BD40F2BC202F
:108980006C46C2F200002146202203F0D1FA2046B4
:1089900002F02AFF287050B100F0E6FE00F5283002
:1089A00040F2B06100F5F950C2F2000108602A7887
:1089B00040F2BC20C2F20000032103F001FB40B0F2
:1089C00070BD287840B1FFF705FCC0F3031200F03A
:1089D0000F01104602F036FF2A7840F2BC20C2F2A6
:1089E00000006E2103F0ECFA40B070BD6C462046EA
:1089F000FFF7CAFC45F24531C0F24C012150204638
:108A0000FFF7C2FC202525522046FFF7BDFC46F6A5
:108A10005672C7F26C62211822506F20888020465F
:108A2000FFF7B2FC25522046FFF7AEFC43F2564258
:108A3000C2F630422118225045F22000C3F2331012
:108A4000486043F23340C3F63010886043F2395037
:108A5000C0F23600C1F80B002046FFF795FC255206
:108A60002046FFF791FC44F64E7221182252002650
:108A700020468E70FFF788FC25522046FFF784FCC5
:108A800045F24872C5F220622118225042F6316048
:108A9000C7F23020486020460E72FFF775FC255261
:108AA0002046FFF771FC45F24672C5F2206221189C
:108AB000225042F63160C6F23020486040F2BC20BD
:108AC0000E72C2F200000121224603F065FA40B0A6
:108AD00070BD0000FEE70000B0B588B040F20005B0
:108AE000C2F20005FF200DF10604287020460E2179
:108AF00005F022F8D0B94FF2F070C1F6FF700068AF
:108B00004FF2E87107904FF2EC70C1F6FF70C1F6BA
:108B1000FF71006809680C22CDE90510A11C05A8A9
:108B2000FFF706FC002804BF01202870287808B051
:108B3000B0BD0000F0B581B00C46054600202946C6
:108B40002246FFF763FE0127284603F01DFC284656
:108B500003F0C0FA284603F07FF8FEB230462946FB
:108B60002246FFF753FE0D2E07F10107ECD32846EE
:108B700003F00AFC284603F0ADFA0E2029462246EF
:108B8000FFF744FE01B0F0BD80B50420C4F202003E
:108B900050F8041CC90303D5016841F4E0210160C9
:108BA00040F2C460C2F2000000F0ECFA80BD0000A8
:108BB000B0B5D0E900CED0E90F40012505FA00F0AC
:108BC00060600846CCF80430BEF1100F04BF1046B8
:108BD0000A46CCF80800CCF80C20B0BD7047000065
:108BE00080B540F2B461092828BF0920C2F2000113
:108BF000087040F20870C2F20000A0210A2264232B
:108C000000F084FE80BD00002DE9F04383B0002A0F
:108C10004FF0010759D040F2B464C2F20004894613
:108C2000054620784DF68C71C0F6000151F83000F1
:108C300051191646814248D800F096FD40F2B868B6
:108C4000C2F20008D8F80010401A042803D8C0F176
:108C5000050000F0E3FB207804280FD8DFE800F0DF
:108C600003031A1C1E0040F208706427CDE9009629
:108C7000EAB2C2F20000A021012309E040F208702C
:108C80006427C2F20000A0212A461023CDE90096F5
:108C9000029713E0022002E0062000E00E2000EA26
:108CA000D51000F1A0016420CDE9016040F2087008
:108CB000EAB2C2F200000123CDF8009000F0F6FE07
:108CC000074600F051FDC8F80000384603B0BDE883
:108CD000F08300002DE9F04F83B0002A4FF0010728
:108CE00070D0064640F2B460C2F2000000784DF643
:108CF0008C7AC0F6000A5AF830000D4691191446D5
:108D000081425FD840F2B86B40F20878C2F2000BA3
:108D1000C2F200081BE000EAD61000F1A0011FFA21
:108D200089F0CDE90050F2B2404601236427029752
:108D300001F02EF807461FFA89F04E440544A4EBD3
:108D4000090400F011FD2104CBF800003AD000F036
:108D50000BFDDBF80010401A092803D8C0F10A0007
:108D600000F05CFB40F2B460C2F2000000780AEB55
:108D7000C00189884A1E3240A1EB02091FFA89F11D
:108D8000A2B28A4238BFA14604280ED8DFE800F01C
:108D90000505031618000220BDE71FFA89F0CDE98A
:108DA0000050F2B24046A021BFE71FFA89F0CDE99A
:108DB0000050B2B24046A0211023B7E70620AAE730
:108DC0000E20A8E7384603B0BDE8F08F80B504F068
:108DD0000BF880BD70B540F6700640F63604C2F25E
:108DE00000060020C2F200043070207801216E28B5
:108DF0004FF002021CDCA0F11103262B00F2778059
:108E0000DFE803F0262828282828282828282828CA
:108E100028282828282828282828282828282828D2
:108E200028242828282428282828140002210EE095
:108E3000C02804DC6F280BD0B12807D00AE0F52841
:108E400004D0C12806D10222022101E0012108221A
:108E500062703170317802291DD0012940F0818083
:108E6000204603F027FF00287BD12078F52878D111
:108E7000A3781120412B4FF0010473D0222B4FF027
:108E800001024FF001016FD0052B40F086800421D4
:108E90001C20002268E040F67101C2F200010A784D
:108EA000012A18BF70BD372826D0C12851D140F6FD
:108EB0003500C2F20000037840F67200C2F20000F2
:108EC0000578012B40F2090340F2E902C2F20003E7
:108ED000C2F2000203EBC50308BF02EBC5031A8808
:108EE0004FF0020C84F801C062806A1C25E0612802
:108EF000B0D101210422ABE70820607040F63500B4
:108F0000C2F20000027840F67200C2F2000003785C
:108F100040F20905C2F2000540F2E90C05EBC30579
:108F2000C2F2000C012A08BF0CEBC3056A682D6869
:108F3000C4F806205A1CC4F8025040F20803C2F2DA
:108F400000031B78D5B29D42027022BF002202703E
:108F50000A7040F63600C2F2000003F003FF002062
:108F6000307070BD0122012140F63503C2F20003CA
:108F70001A7040F20802C2F200021070012003F0E1
:108F80008DF940F67100C2F20000047040F67200E4
:108F9000C2F200000021017070BD0120022103F027
:108FA0007DF970BD70470000EFF3108072B600BF0E
:108FB000FEE70000002804BF0120704710B50446FA
:108FC000407920B900202071204600F017F80120D8
:108FD0006071002010BD0000006843F20001C4F27F
:108FE0000201884218BF704741F21400C4F2020027
:108FF000016821F0400101607047000081B0006805
:1090000043F20001C4F20201884201D001B070476E
:1090100041F21400C4F20200016841F04001016015
:10902000006800F040000090009801B07047000018
:10903000014690F82100022813D10868D1E90FC336
:10904000026822F00E020260026822F00102026051
:10905000012000FA03F2CCF8042081F8210000205E
:1090600002E0042088630120002281F8202070475C
:1090700080B590F82110022923D10268116821F0EF
:109080000E0111602F211368C4F202018A4240F2DE
:109090000401C4F2020123F00103136016DD302342
:1090A000C4F202039A421DD04423C4F202039A423E
:1090B0001BD05823C4F202039A421BD14FF48033D1
:1090C00020E0042181630121084680BD0823C4F209
:1090D00002039A420CD01C23C4F202039A4209D123
:1090E00010230FE04FF480730CE04FF4805309E03D
:1090F000012307E001F1680C4FF08073624508BF5F
:109100004FF480130B60012180F82110426B002185
:1091100080F820100AB190470021084680BD000069
:109120004FF0010160B302684FF6F873CBF6FD73A0
:1091300002EB030C4CF6CD43CCF6CC43ACFB033C2A
:10914000136823F0010313600023136053609360DE
:10915000D3606FF0030202EA9C0240F2000CC4F2FA
:10916000020C9140C0E90FC2CCF804100021C0E904
:109170000A33C0E90C33836380F8213080F8203053
:109180000846704710B50168D0E90FCEDCF8002022
:109190000B685C0726D5042404FA0EF4144021D091
:1091A0000A68920603D40A6822F004020A602F2299
:1091B000C4F20202914240F20402C4F2020259DDFA
:1091C0003023C4F2020399426CD04423C4F2020358
:1091D00099426AD05823C4F2020399426AD14FF4EB
:1091E00080236FE09C0729D5022404FA0EF4144072
:1091F00024D00A68920606D40A6822F00A020A609D
:10920000012280F821202F22C4F20202914240F272
:109210000402C4F2020239DD3023C4F2020399428F
:1092200056D04423C4F20203994254D05823C4F2C6
:109230000203994254D14FF4003359E01B0758BF41
:1092400010BD082303FA0EF31A4012D00A6822F068
:109250000E020A60012101FA0EF2CCF804208163AB
:1092600080F82110016B0022002980F8202018BF0F
:10927000884710BD0823C4F20203994218D01C236A
:10928000C4F20203994215D140231BE00823C4F223
:109290000203994222D01C23C4F2020399421FD137
:1092A000202325E04FF480630CE04FF4804309E075
:1092B000042307E002F168044FF08063A14208BF75
:1092C0004FF480031360C16A0029D2D0884710BDD3
:1092D0004FF400730CE04FF4005309E0022307E061
:1092E00002F168044FF00073A14208BF4FF400136D
:1092F0001360816A0022002980F82020B9D08847B5
:1093000010BD0000014600284FF0010008BF704763
:109310002DE9F043D1F800C04FF6F873CBF6FD739A
:109320004CF6CD426344CCF6CC42A3FB02236FF053
:10933000030707EA93030027C4F2020701F10C09AF
:10934000C1E90F730223D1E9012E99E87002D1F827
:109350001C8081F82130DCF8003043F6F077BB4305
:109360001A4342EA0E0222432A43324342EA0902E6
:1093700042EA0802CCF8002000228A6381F821002A
:1093800081F820200020BDE8F043704710B5044666
:1093900090F82000012820D0012084F8200094F8C3
:1093A0002100012816D1022084F821000020A063AA
:1093B000D4F800C0DCF8000020F00100CCF8000078
:1093C0002046FFF7F5FB2068E26A01683AB141F0F8
:1093D0000E010AE0002084F82000022010BD21F0D8
:1093E00004010160016841F00A0101602068016820
:1093F00041F001010160002010BD000080B541F284
:109400000C00C4F202004FF0FF31002241604260C4
:109410000160026000F036FE002080BDB0B5044659
:1094200000F0A2F9054640F27110C2F20000007887
:10943000611C18BF044400BF00F096F9401BA04215
:10944000FAD3B0BD2DE9F04F82B0002900F085803D
:1094500041F20042C4F2010240F2004390424FF058
:109460000402C4F2010308BF03220092A3F57E7236
:109470006FF01F05019201220F261AE00746BAF588
:10948000807F24BFAC4604373C6806FA0CF324EA1C
:109490000303042404FA0CF423433B60C36823EA67
:1094A0000A03C36031FA02F302F1010205F1040577
:1094B00053D0541E012303FA04F717EA010AF1D02E
:1094C000019B4FEA940953F829E040F60003C4F2E7
:1094D0000103984213D040F60043C4F201039842BE
:1094E0000AD041F20003C4F20103DDF800B0984253
:1094F00008BF4FF0020B04E04FF0010B01E04FF00A
:10950000000B05F1200C0CF00C0406FA04F80EEA2E
:1095100008070BFA04F4A742B0D140F20044C4F2A9
:109520000104276840F20C4327EA0A0727606768AE
:10953000C4F2010327EA0A0767601F6827EA0A07DF
:109540001F60A76827EA0A07A760019B53F82970E4
:1095500027EA080743F8297090E702B0BDE8F08FCA
:109560002DE9F04F82B00E68002E00F0F38041F23A
:109570000042C4F20102042340F2004E904208BFB0
:1095800003234FF6FF7CC4F2010E00930024012355
:10959000C1F2100C4FF0000A4FF0000941E0012524
:1095A00004F00C030F279F402BEA070705FA03F38B
:1095B0003B4342F826304E6840F20C45F202DEF89A
:1095C000082054BF22EA080242EA0802C4F2010558
:1095D000CEF808202A68B30254BF22EA080242EA01
:1095E00008022A60B303DEF8042054BF22EA08020E
:1095F00042EA0802F303CEF80420DEF800204FF020
:10960000010354BF22EA080242EA0802CEF8002011
:109610000E680AF1010A36FA0AF204F1040400F0B5
:10962000998003FA0AFB16EA0B08F1D04A686245F2
:1096300010DC122A50D8DFE802F0330A41454F4FC0
:109640004F4F4F4F4F4F4F4F4F4F4F484C00D1F858
:109650000C9041E04FF6FF75C1F22105AA420FDCE4
:109660000025C1F21105AA421AD00025C1F2120547
:10967000AA4215D00025C1F22105AA4210D02BE044
:109680000025C1F22205AA420AD00025C1F2310507
:10969000AA4205D00025C1F23205AA421CD100BF62
:1096A0008A6842B1012A14BFC0F814B0C0F810B0E3
:1096B0004FF0080910E04FF004090DE0CA6802F10C
:1096C000080909E04FF0000906E0CA6802F1040940
:1096D00002E0CA6802F10C0922460546B8F5807F0F
:1096E00024BF203A04352E680F279740BE4309FA5D
:1096F00002F232432A60CA79D2067FF589AF41F27D
:109700001803C4F202031A684FEA9A0642F00102F3
:109710001A601A6840F6000302F001020192019AF1
:10972000AEF57E7252F826B0C4F2010398420FD013
:1097300040F60043C4F2010398423FF430AF41F2D7
:109740000003C4F20103009D984208BF022527E7E9
:10975000002525E702B0BDE8F08F0000002A08BF11
:10976000090401617047000040F67400C2F2000075
:1097700000687047F0B581B0B0B3044690F83D0082
:1097800028B9002084F83C00204600F0B5FB2420D6
:1097900084F83D002068016821F001010160016842
:1097A00041F400410160016821F40041016000F0D2
:1097B000DDFD48F28041C0F21E0140F600126568EE
:1097C00088424FF00001C0F23D0248F2A16C4FF018
:1097D000000338BF01219042C0F2010C38BF0123C1
:1097E000654538BF0B4613B1012001B0F0BD4DF601
:1097F0008361C4F21B31A0FB011221684FEA924E33
:109800004B684FF4967623F03F0343EA92434B6054
:1098100044F6D3530F6A0EFB06F6C1F26203A6FBB1
:10982000033627F03F03B709654538BF970C7A1C0C
:109830001A430A62CA6948F2A0674CF6FF73C0F285
:109840000107BD4222EA030C0AD801386A00B0FBC6
:10985000F2F001306FF31F30042898BF04202BE092
:10986000A368A0F1010E9BB119206843BEFBF0F084
:109870000422013062F31F30000512D09BB1192081
:109880006843BEFBF0F00422013062F31F3011E0A8
:1098900005EB4500BEFBF0F001306FF31F30000513
:1098A000ECD1012008E005EB4500BEFBF0F00130F3
:1098B0006FF31F3040F4004040EA0C00C8610868B4
:1098C000D4E9072320F0C0001043184308608868DB
:1098D00048F2FF3204F10C0790438CCF1843104339
:1098E000A6698860C86820F0FF0038433043C8602C
:1098F000086840F00100086000202021206484F8FE
:109900003D10206384F83E0001B0F0BD2DE9F04F1A
:1099100083B01E46154689460446FFF725FF94F896
:109920003D1020290CD102210746C0F2100120462B
:1099300001221923009701F08DFC30B1022500E0CF
:109940000225284603B0BDE8F08F94F83C000128BA
:1099500001D10225F5E74FF0010A206884F83CA008
:109960000168C90703D1016841F001010160016884
:109970004FF0000B21F400610160242084F83D00C9
:109980000020CFF6FF7009F0FE094FF0A008C4F8E0
:1099900040B0E062012D88BFAA4600BF20680022C7
:1099A0000168334641F48071016020464FF0011197
:1099B000009701F04FFC2168002854D1C1F81090A5
:1099C000FFF7D2FE21680A4652F8143F156894F852
:1099D0003D70A02F074620D003F0020005F48063FD
:1099E000C0181AD1FFF7C0FE36B1C01BB04288BF05
:1099F00084F83D8002E000BF84F83D80216848691A
:109A00004A6994F83D30A02B05D000F0020002F422
:109A100080628018E6D001F11402202084F83D0015
:109A200048690B68800743F400730B6023D46FF41C
:109A30008060022110602046C0F21001012219232B
:109A40000097012501F006FC00287FF47AAF0BF1A6
:109A5000010BD345A2D1202084F83D000020012530
:109A600084F83C006DE708680325C00544BF4FF447
:109A70000070206465E700260296106801220290BB
:109A800088690221029002982046C0F21001192331
:109A90000097012501F0DEFB00287FF452AF202063
:109AA00084F83D0084F83C6000254AE72DE9F04742
:109AB00084B0044600201F4616460D460390FFF76B
:109AC00053FE94F83D1020290FD102218146C0F2A7
:109AD0001001204601221923CDF8009001F0BAFBB5
:109AE00018B994F83C00012803D1022004B0BDE865
:109AF000F0870121226884F83C101368DDE90D0825
:109B00000C99DB0703D1136843F00103136013685A
:109B100023F400631360222284F83D20402284F85D
:109B20003E200022226461626085608D2946208586
:109B30000020CFF6FF70E062204632463B46CDF86B
:109B40000080CDF8049001F069FA18B1012004B04A
:109B5000BDE8F087208D022810D0012824D00028ED
:109B600038D10020029020684169029181690291F8
:109B70000299016841F40071016037E020680168D2
:109B800041F400610160EFF3108072B60020029092
:109B9000206841690291816902910299016821F46A
:109BA0008061016062B621E02068016821F4806173
:109BB0000160EFF3108072B60020029020684169C6
:109BC0000291816902910299016841F4007101607A
:109BD00062B60BE02068016841F4806101600021F9
:109BE000029141690291806902900298208D0028BB
:109BF00000F0B380042740F2040A4BF28956C0F209
:109C00000107C2F2000AC1F2F846232517E02046F8
:109C100041464A4601F0B4FB002897D12068616AAA
:109C200000690870606A218D01306062481E2085DD
:109C3000608D01386085208D002800F08E8003281B
:109C400047D8022868D00128E1D0204639460022B2
:109C50004346CDF8009001F0FDFA00287FF476AF7E
:109C60002068016821F480610160EFF3108072B612
:109C70002068616A00690870606A218D01300139CD
:109C800060622185618D01396185DAF80010C908AB
:109C9000A1FB0612110A6943039100BF0399013920
:109CA00003910399002963D021684A695207F5D5C9
:109CB0000A6842F400720A6009690170606A218DC5
:109CC00001306062481E2085608D0138608562B673
:109CD000A4E7204641464A4601F052FB00287FF4A3
:109CE00035AF2068616A00690870606A228D0130B2
:109CF000013A606222852168638D013B63854B696F
:109D00005B0798D592B2032A03D10A6822F48062D5
:109D10000A600969017085E72046394600224346FA
:109D2000CDF8009001F096FA00287FF40FAFEFF322
:109D3000108072B62068616A026842F400720260A4
:109D400000690870606A218D01306062481E2085BC
:109D5000608D0138608562B660E7202084F83D00A0
:109D6000002084F83E0084F83C0004B0BDE8F08791
:109D700000202021206384F83D1084F83E00216CEF
:109D800041F02001216462B684F83C00DEE6000068
:109D90002DE9F04383B0994616460F460446FFF777
:109DA000E3FC94F83D1020290ED102210546C0F2B3
:109DB0001001204601221923009501F04BFA18B931
:109DC00094F83C00012803D1022003B0BDE8F083E1
:109DD0000121226884F83C101368DDE90B080A9918
:109DE000DB0703D1136843F001031360136823F406
:109DF00000631360212284F83D20402284F83E2035
:109E00000022226461626085608D394620850020D1
:109E1000CFF6FF70E062204632464B46CDF8008018
:109E2000019501F081F930B3012003B0BDE8F08362
:109E3000204641462A4601F0DFFA28BB606A2168C5
:109E4000034613F8012B0A61228D6362571E278592
:109E5000638D3F04A3F1010363854B6918BF13F0C1
:109E6000040308D0437802300B616062901E2085A5
:109E7000608D01386085208D0028D9D1204641466B
:109E80002A4601F0B1F940B1206C0428CCD12068F9
:109E9000016841F400710160C6E72068016841F47F
:109EA00000710160202084F83D00002084F83E000D
:109EB00084F83C0003B0BDE8F083000010B540F624
:109EC0000044C4F201040068A4F53841884218BF78
:109ED00010BD41F21C00C4F20200016821F400111F
:109EE000016020464FF48071FFF7ACFA20464FF432
:109EF0000071FFF7A7FA10BD10B586B0006845F2F3
:109F00000041C4F2000188424FF00000CDE9040096
:109F1000CDE9020001D006B010BD41F21804C4F230
:109F20000204206802A940F008002060206800F0C8
:109F30000800019001984FF44070029012200390A5
:109F40000320059040F60040C4F20100FFF708FB33
:109F50000420C4F20100016841F0E06141F0020117
:109F60000160606840F400106060606800F40010F8
:109F70000190019806B010BD40F2711040F67401D6
:109F8000C2F20000C2F2000100780A6810440860C2
:109F90007047000080B542F20000C4F20200016880
:109FA00041F010010160032000F0A8F80F2000F03C
:109FB00005F800F069F8002080BD0000B0B540F25F
:109FC0007112C2F2000240F204011278C2F20001E2
:109FD0004FF47A730968B3FBF2F20446B1FBF2F175
:109FE000084600F0A3FB0F2C4FF001050CD858B920
:109FF0004FF0FF3021460022002500F06FF840F2BC
:10A000007410C2F2000004602846B0BD002804BFEE
:10A0100001207047B0B5044690F841000D4628B9BC
:10A02000002084F84000204600F01EFF242084F821
:10A0300041002068C16821F40051C160204602F04F
:10A040007BFD2068016921F400610161416921F013
:10A050002A014161016941F480410161016921F0F6
:10A0600020010161016929430161C16841F4005186
:10A07000C16000202021606484F8411084F84210FF
:10A080006063B0BD7047000082B041F21800C4F2B6
:10A0900002000168022241F001010160016801F043
:10A0A000010101910199416841F08051416040688E
:10A0B00000F08050009000980420C4F20100016874
:10A0C00062F31A61016002B07047000080B502F0CF
:10A0D0004DFF80BD80B502F05DFF80BD70B51446B8
:10A0E0000D46064602F066FF2946224601F0F6FDBF
:10A0F0000146304602F066FF70BD000080B502F0F8
:10A1000073FF80BD2DE9F04381B0002800F0898005
:10A1100042F20008C4F202080446D8F800000D46D6
:10A1200000F0070088420CD2D8F8000020F00700A9
:10A130002843C8F80000D8F8000000F00700A84243
:10A140006FD1206841F204098107C4F2020917D5D2
:10A15000410705D5D9F8001041F4E061C9F80010B5
:10A16000010705D5D9F8001041F46051C9F8001075
:10A17000D9F80010A26821F0F0011143C9F80010CD
:10A18000C00745D1D8F8000000F00700A8420CD95C
:10A19000D8F8000020F007002843C8F80000D8F8DD
:10A1A000000000F00700A8423BD12068410707D516
:10A1B000D9F80010E26821F4E0611143C9F80010F9
:10A1C000000708D5D9F80000216920F4605040EA62
:10A1D000C100C9F8000000F0EDF8D9F800104DF604
:10A1E0001472C1F30311C0F60002515C40F2040284
:10A1F00020FA01F140F27410C2F200000068C2F2CD
:10A2000000021160FFF7DAFE002001B0BDE8F08324
:10A210006068022809D0012829D159F8041C890353
:10A2200007D4012001B0BDE8F08359F8041C89016E
:10A23000F7D5D9F8001021F003010843C9F8000050
:10A24000FFF792FA064641F2883700BFD9F80000BE
:10A25000616800F00C00B0EB810F93D0FFF784FA37
:10A26000801BB842F2D9032001B0BDE8F08359F851
:10A27000041C8907D5D5DCE770B541F20005C4F2AE
:10A280000205FFF771FA2968044641F001002860D1
:10A290002868800706D4FFF767FA001B0228F7D961
:10A2A000032070BD2868102161F3C7002860FFF704
:10A2B0005BFA0446002041F288366860686810F056
:10A2C0000C0F06D0FFF750FA001BB042F6D903205E
:10A2D00070BD40F27410C2F2000040F2040141F27D
:10A2E00000220068C2F20001C0F27A020A60FFF7A1
:10A2F00065FE00281CBF012070BDFFF735FA2968F4
:10A30000044621F0807028602868800106D5FFF798
:10A310002BFA001B0228F7D9032070BD00206860CB
:10A32000FFF722FA2968044621F41020286000BFB4
:10A330002868800308D5FFF717FA001B64284FF040
:10A34000030088BF70BDF3E7286820F480202860F0
:10A35000686A40F0807068620020A86070BD0000EC
:10A3600040F20400C2F200000068704780B5FFF7B9
:10A37000F7FF41F20401C4F2020109684DF62472AC
:10A38000C1F30221C0F60002515CC84080BD00004C
:10A3900080B5FFF7E5FF41F20401C4F2020109684C
:10A3A0004DF62472C1F3C221C0F60002515CC840D0
:10A3B00080BD000041F20401C4F202010B6842F2C8
:10A3C000004003F00C02042AC0F2F40008BF7047FA
:10A3D000082A0CD1C3F3834C0CA212F80C20DB0327
:10A3E0000AD440F60010C0F23D005043704741F2DD
:10A3F0000020C0F27A007047096808A3C1F3404109
:10A40000595C5043B0FBF1F0704700BF02030405F4
:10A41000060708090A0B0C0D0E0F101001020000B0
:10A420002DE9F04182B0002800F0C4800446007895
:10A4300041F20006C007C4F2020643D0706800F083
:10A440000C00042817D0706800F00C00082802D116
:10A450007068C0030FD465682DB1B5F5A02F10D07A
:10A46000B5F5803F11D0306820F48030306030681E
:10A4700020F480200CE03068800323D5606808BB9E
:10A4800098E0306840F480203060306840F48030DC
:10A490003060FFF769F9002D054610D03068800361
:10A4A00010D4FFF761F9401B6428F7D904E100BF1D
:10A4B000FFF75AF9401B64284FF0030077D8306843
:10A4C0008003F5D42078800718D5706810F00C0F41
:10A4D00007D0706800F00C00082826D17068C0030F
:10A4E00023D43068800702D52069012862D1306802
:10A4F000616920F0F80040EAC10030602078000770
:10A500003DD5A06938B30020C4F242200121C0F833
:10A510008014FFF729F90546706A80072DD4FFF7EC
:10A5200023F9401B0228F7D9C6E02069002840F231
:10A530000000C4F2422000F0968001210160FFF784
:10A5400013F9054630688007D1D4FFF70DF9401B99
:10A550000228F7D9B0E00020C4F242200021C0F860
:10A560008014FFF701F90546706A800707D5FFF7E9
:10A57000FBF8401B0228F7D99EE001F0C7FB2078CA
:10A5800040071BD4E5698DB1706800F00C00082805
:10A5900047D1012D0ED07068216A00F480328A42C2
:10A5A00008D1616A00F47010884203D1002002B023
:10A5B000BDE8F081012002B0BDE8F081F06910F043
:10A5C000805808D1F06940F08050F061F06900F0E7
:10A5D00080500190019847F20007C4F200073868E4
:10A5E000C00510D4386840F480703860FFF7BCF8BC
:10A5F000054600BF3868C00505D4FFF7B5F8401B15
:10A600006428F7D958E0E5681DB1052D3CD0012D2F
:10A610003ED0306A20F001003062306A20F0040041
:10A6200039E00027C4F2422700203866FFF79CF883
:10A63000022D05460CD100BF3068800154D5FFF7CC
:10A6400093F8401B02284FF00300F5D9AFE700BF95
:10A6500030688001AAD5FFF787F8401B02284FF029
:10A660000300F5D9A3E700210160FFF77DF8054657
:10A67000306880077FF542AFFFF776F8401B02286D
:10A680004FF00300F4D992E7306A40F004003062E2
:10A69000306A40F001003062FFF766F8002D054691
:10A6A00041F2883714D000BF306A800713D4FFF717
:10A6B0005BF8401BB842F7D9032002B0BDE8F08137
:10A6C000FFF752F8401BB8424FF003003FF66FAF60
:10A6D000306A8007F4D4B8F1000F7FF453AFF0690B
:10A6E00020F08050F0614DE7206AB0F5803F05D141
:10A6F0007168A26821F40031114371607168626A67
:10A7000021F4741110430843706001203866FFF78C
:10A710002BF80446306880013FF548AFFFF724F876
:10A72000001B02284FF00300F4D940E780B501F088
:10A7300047FE80BD10B590F83C20012A4FF0020280
:10A7400031D0012380F83C3080F83D200268D2F8F7
:10A7500004E0D2F808C00C682EF07003234340F2E6
:10A76000FF74C4F20004A242536005DCB2F1804FD2
:10A770000ED040F2004307E042F60043C4F201036A
:10A780009A4205D040F60003C4F200039A4204D175
:10A7900049682CF08003194391600121002280F860
:10A7A0003D1080F83C20104610BD0000002804BF7A
:10A7B0000120704710B5044690F83D0028B90020EC
:10A7C00084F83C00204600F01FF8022084F83D0089
:10A7D0002068211D01F046FE012084F8460084F81F
:10A7E0003E0084F83F0084F8400084F8410084F87B
:10A7F000420084F8430084F8440084F8450084F85B
:10A800003D00002010BD000081B0006840F2004112
:10A81000C4F20001884201D001B0704741F21C002F
:10A82000C4F20200016841F002010160006800F01A
:10A8300002000090009801B07047000010B5044677
:10A8400090F83C0001284FF0020008BF10BD012223
:10A8500084F83C2084F83D0020684FF677738268C6
:10A860009A4382600A684F2A0FDC1F2A22DD202AC1
:10A8700023D0302A21D0402A4DD14B68CA681946CE
:10A8800001F020FF206840213BE06F2A17DDB2F580
:10A89000005F20D0B2F5805F2AD0702A3BD1D1E989
:10A8A000012CCB68614601F03DFE2068816841F0D3
:10A8B00077011AE00AB1102A2DD1114621E0502A61
:10A8C00018D0602A27D14B68CA68194601F00CFFDE
:10A8D0002068602115E0D1E9012CCB68614601F0C8
:10A8E00021FE2068816841F48041816000200BE0F6
:10A8F000002009E04B68CA68194601F0E3FE2068B1
:10A90000502101F01BFE0020012184F83D100021A0
:10A9100084F83C1010BD0120F6E7000080B586B039
:10A92000006840F20041C4F2000188424FF000008C
:10A93000CDE90400CDE9020001D006B080BD41F2AE
:10A940001800C4F20200016841F0080101600068CB
:10A9500002A900F008000190019810200290022046
:10A960000390059040F60040C4F20100FEF7F8FDA8
:10A970000420C4F2010001684FF2FF32CFF6FF025B
:10A98000114041F0E06141F40061016006B080BD1A
:10A99000B0B5044690F83C00012804BF0220B0BDC9
:10A9A0000D464FEAB2010120032984F83C0037D854
:10A9B000DFE801F0020A12222068294601F0C6FDF4
:10A9C000206850F8181F0EE02068294601F0EEFDBF
:10A9D000206850F8181F16E02068294601F01AFE7A
:10A9E000206850F81C1F41F008010160016821F047
:10A9F0000401016029690FE02068294601F03CFE4E
:10AA0000206850F81C1F41F400610160016821F4C6
:10AA10008061016029690902026811430160002018
:10AA2000002184F83C10B0BD002804BF012070470D
:10AA300010B5044690F83D0028B9002084F83C0089
:10AA4000204600F01FF8022084F83D002068211DF8
:10AA500001F008FD012084F8460084F83E0084F8E7
:10AA60003F0084F8400084F8410084F8420084F8F4
:10AA7000430084F8440084F8450084F83D00002039
:10AA800010BD000070470000B0B5044641B1082970
:10AA900009D0042914BF04F1410004F13F0004E08F
:10AAA00004F13E0001E004F14000007801281CBFE1
:10AAB0000120B0BD022041B1082909D0042914BFEA
:10AAC00084F8410084F83F0004E084F83E0001E08F
:10AAD00084F84000206842F644450122C4F2010592
:10AAE00001F00EFD2068A5F14401884203D12968D8
:10AAF00041F40041296040F2FF71C4F20001884234
:10AB000005DCB0F1804F0ED040F2004107E042F684
:10AB10000041C4F20101884205D040F60001C4F2B0
:10AB20000001884206D1816801F00701062904BFAF
:10AB30000020B0BD016841F0010101600020B0BDFE
:10AB40007047000070470000B0B582B0036804464B
:10AB50001868D9685A6900F02F05202D01F02005EA
:10AB600005D125B1204601F083FF02B0B0BD5FEAF8
:10AB7000007C1EBF02F0010E01F4907212EB0E0277
:10AB80004AD1226B0840C1063DD5012A3BD10020A5
:10AB90000190186801905868019001985869400622
:10ABA00042D4A08DE18DE28D002A1CBF401A5FEADD
:10ABB000004101D102B0B0BD216851E8031F2268F5
:10ABC00021F4907142E80313002BF5D1216851E87C
:10ABD000051F226821F0010142E80513002BF5D181
:10ABE000202184F842100021216300BF216851E830
:10ABF000031F226821F0100142E80313002BF5D156
:10AC00000221616354E0010658D44006D2D52046A3
:10AC100001F014FF02B0B0BDC20718BF11F480727A
:10AC200051D1420755D45BE0E06B016849688AB2B4
:10AC3000002ABFD0A38D9A42BCD2E185806920282A
:10AC400031D000BF206850E8030F216820F48070E5
:10AC500041E80302002AF5D1206850E8050F216879
:10AC600020F0010041E80502002AF5D1206850E8F3
:10AC7000050F216820F0400041E80502002AF5D1C7
:10AC8000202084F842000020206300BF206850E8A4
:10AC9000030F216820F0100041E80302002AF5D1DB
:10ACA000E06BFEF7C5F902206063A08DE18D401ACC
:10ACB00081B22046FFF744FF02B0B0BD204601F04C
:10ACC000CFFF02B0B0BD626C42F001026264420785
:10ACD00006D5BEF1000F03D0626C42F0020262643E
:10ACE000820706D5BEF1000F03D0626C42F0040269
:10ACF0006264BCF1000F06D55EEA050203D0626C07
:10AD000042F008026264626C002A3FF453AF0840CC
:10AD1000800602D5204601F0ABFE20684069616CD8
:10AD200000F0400001F00801401827D0204601F053
:10AD30005DFE2068406940061BD500BF206850E8D2
:10AD4000050F216820F0400041E80502002AF5D1F6
:10AD5000E06B70B14CF6ED01C0F600014163FEF707
:10AD600087F900283FF426AFE06B416B884702B0BB
:10AD7000B0BD2046FFF7E6FE02B0B0BD2046FFF7AB
:10AD8000E1FE0020606402B0B0BD0000002804BFF6
:10AD90000120704710B5044690F8410028B9002002
:10ADA00084F84000204600F05FF8242084F8410039
:10ADB0002068C16821F40051C160204601F0BCFE4A
:10ADC0002068016921F490410161416921F02A0163
:10ADD0004161C16841F40051C160002020216064DC
:10ADE00084F8411084F84210606310BD10B5044629
:10ADF000006844F60001C4F2000188421DD043F609
:10AE00000001C4F20101884218BF10BD41F21800D0
:10AE1000C4F20200016821F48041016040F60000A4
:10AE2000C4F201004FF4C061FEF70CFBE06BFEF7CB
:10AE300077F92520FFF74AF910BD41F21800C4F256
:10AE40000200416821F48021416040F60000C4F214
:10AE5000010000F580604FF44061FEF7F3FA27200F
:10AE6000FFF734F910BD00002DE9F04186B004462B
:10AE7000006844F60001C4F20001002688420596ED
:10AE8000CDE90366029652D043F60001C4F20101F7
:10AE9000884240F08A8041F21807C4F202073868FD
:10AEA00040F6000540F4804038603868C4F201057F
:10AEB00000F480400190019838680DF1080840F0D6
:10AEC000040038603868414600F0040001900198A1
:10AED0004FF4007002900220039003200590284652
:10AEE000FEF73EFB4FF48060029000262846414664
:10AEF000CDE90366FEF734FB40F2C465A7F57C603C
:10AF0000C2F2000580212022C5E900062846C5E9D5
:10AF10000261C5E90466C5E90626FEF7F3F90028D3
:10AF200018BFFEF741F8E5636C62252435E041F275
:10AF30001C00C4F20200016802AD41F480210160EE
:10AF4000006800F480200190019841F21800C4F2DA
:10AF50000200016841F0080101600068294600F024
:10AF60000800019001984FF4806002900220039045
:10AF70000320059040F60000C4F2010000F5806453
:10AF80002046FEF7EDFA4FF40060CDE902062046B8
:10AF900029460496FEF7E4FA2724204600210022E1
:10AFA000FFF79CF82046FFF795F806B0BDE8F08162
:10AFB00010B590F84230202B1CBF022010BD002994
:10AFC0004FF0010418BF002A01D1204610BD002413
:10AFD000046301F0F9FD204610BD00007047000039
:10AFE0007047000070470000FEE7000002685169EA
:10AFF00049054FF000010FD56FF4806353612022A3
:10B00000016380F83D2080F83E10026C42F004029B
:10B01000026480F83C100121084670472DE9F04792
:10B0200082B0044600680E460168DDF828A041F4AD
:10B03000806101600168DDF82C9041F480711D464B
:10B040001746016020464FF0011100225346CDF80B
:10B05000009000F0FFF850B120680068C00544BFC0
:10B060004FF400702064032002B0BDE8F08740F286
:10B0700002082068C0F2010806F0FE0606612046BC
:10B08000414652464B4600F02FF948BB0020019044
:10B0900020684A46416901918069514601900198B2
:10B0A000204600F0A9F998B9012D08D02068390A86
:10B0B0000161204651464A4600F09EF940B9206899
:10B0C000F9B20161204651464A4600F095F958B15F
:10B0D000206C042804D12068016841F400710160EB
:10B0E000012002B0BDE8F0872068002201685346C5
:10B0F00041F48071016020464FF00111CDF80090BD
:10B1000000F0A8F80028A7D1206846F001010161ED
:10B110002046414652464B4600F0E6F8002818BF4C
:10B12000012002B0BDE8F0872DE9F04383B004466A
:10B1300000680D4601680A9F0B9E41F48071994694
:10B140009046016020464FF0011100223B460096D8
:10B1500000F080F850B120680068C00544BF4FF48B
:10B1600000702064032003B0BDE8F083206805F080
:10B17000FE0101610221C0F2010120463A46334638
:10B1800000F0B2F818B1012003B0BDE8F083002050
:10B1900002902068324641690291806939460290E6
:10B1A0000298204600F028F940B1206C0428EAD12A
:10B1B0002068016841F400710160E4E7B9F1010F12
:10B1C0000AD020684FEA18210161204639463246EC
:10B1D00000F012F90028E8D120685FFA88F10161D7
:10B1E000002003B0BDE8F083F0B581B004460068EC
:10B1F000406940071AD415460E464F1C08E000BFB0
:10B2000020684069400714D52068406940070DD484
:10B210002046FFF7EBFEC8B9002FF5D0FEF7A4FAE1
:10B22000002EEDD0401BB042EED9E9E7002001B07E
:10B23000F0BD00202021206384F83D1084F83E00FA
:10B24000216C41F02001216484F83C00012001B010
:10B25000F0BD00002DE9F047DDF820809946164644
:10B26000044601F47F078DB203F1010A0EE000BF2E
:10B270002068B7F5803F14BF1830143000682840AC
:10B28000401BB0FA80F04009B0421DD02068B7F5ED
:10B29000803F14BF1830143000682840401BB0FABB
:10B2A00080F04009B0420CD1BAF1000FEED0FEF7A9
:10B2B0005BFAB9F1000FDBD0A0EB08004845E5D9F7
:10B2C000D6E70020BDE8F08700202021206384F825
:10B2D0003D1084F83E00216C41F02001216484F887
:10B2E0003C000120BDE8F0872DE9F04104460068EC
:10B2F000984643698FB203EA0701B94202D10020A0
:10B30000BDE8F0814169490517D41646551C00BFB8
:10B310005DB1FEF729FA1EB1A0EB0800B04204D9D6
:10B32000206840693840B8421ED1206841693940E0
:10B33000B942E4D041694905EAD5016841F4007198
:10B3400001606FF48061416100202021206384F856
:10B350003D1084F83E00216C41F00401216484F822
:10B360003C000120BDE8F08100202021206384F80A
:10B370003D1084F83E00216C41F02001EEE7000012
:10B3800070B504460068154650F8143F5A0615D4A7
:10B390000E4608E02068406940061DD5206850F838
:10B3A000141F49060AD40168C90609D4FEF7DCF95E
:10B3B000002EEFD0401BB042F0D9EBE7002070BD6B
:10B3C0006FF01001016000202021206384F83D10FF
:10B3D00084F83E00216C09E000202021206384F8DD
:10B3E0003D1084F83E00216C41F02001216484F876
:10B3F0003C00012070BD0000F0B581B0044600683B
:10B40000406900061AD415460E464F1C08E000BFDE
:10B4100020684069000614D52068406900060DD4F4
:10B420002046FFF7E3FDC8B9002FF5D0FEF79CF9E1
:10B43000002EEDD0401BB042EED9E9E7002001B06C
:10B44000F0BD00202021206384F83D1084F83E00E8
:10B45000216C41F02001216484F83C00012001B0FE
:10B46000F0BD000070B50C4605460E202946224668
:10B47000FDF7CCF90D2600BF284600F0ABF82846B2
:10B4800000F0C6F8F0B229462246FDF7BFF928467B
:10B4900000F010F8013E3006EED1284600F09AF890
:10B4A000284600F0B5F8002029462246FDF7AEF9FF
:10B4B00070BD00002DE9F04F8BB0A0F1030904210D
:10B4C00019F8044F079119F8010C99F8016099F8DF
:10B4D000025004940690089602F014FD0A9002F0BF
:10B4E00011FD099002F00EFD0590204602F00AFDC4
:10B4F000039002F007FD044602F004FD8346304647
:10B5000002F000FD029002F0FDFC804602F0FAFC21
:10B51000824628462E4602F0F5FC019002F0F2FC2D
:10B52000074602F0EFFC089A049D864682EA050170
:10B530000A987140414009983346059E414003985E
:10B540007140414081EA0B0181EA080181EA0A0168
:10B55000DDF818C081EA0E0109F8011C82EA0C012D
:10B560005940714041401A466140029B81EA0B01FB
:10B57000594081EA0A01794081EA0E0189F80010F8
:10B5800085EA0C0109984A404240089872404140BF
:10B590000A9882EA0B024140714061405A40019B87
:10B5A00081EA0B0181EA0A01594082EA08027940E6
:10B5B00082EA0A0281EA0E0007995A4082EA0E02E4
:10B5C000013989F8012089F802007FF479AF0BB0C6
:10B5D000BDE8F08F80B5417A90F80DC04173417895
:10B5E00042794171817A83788170817B427282795C
:10B5F0008171C17990F803E08273C170C17AC27B16
:10B6000080F801C08372C171C27280F80FE080BD02
:10B6100080B54EF2DC1E4FF0000CC0F6000E00BFED
:10B620006FF00303C1180A7904331EF802200C2BB3
:10B630000A71F7D10CF1010CBCF1040F00F101000B
:10B6400008BF80BDECE700002DE9F04FC21E0339B2
:10B65000082300BFCF78013BD77011F8047F02F8B0
:10B66000047F4F7857708F789770F3D14EF2DC2EAD
:10B6700008210022C0F6000E1AE000BF845CDD78CD
:10B680007C409F7883F820405C7887EA0B0704327F
:10B6900084EA0C0483F8227085EA0607D02A83F82E
:10B6A000214083F8237001F1010108BFBDE8F08F4C
:10B6B00083181F7F93F81DC093F81EB0DE7F11F032
:10B6C000070803D0B8F1040FD8D110E01EF80C9091
:10B6D0001EF80BC01EF806B0CE080AA414F806A087
:10B6E0001EF807608AEA0907B8F1040FC6D1FFB255
:10B6F0001EF807701EF80CC01EF80BB01EF806608E
:10B70000BCE700BF8D01020408102040801B3600FA
:10B71000704700007047000040F23441C4F200015D
:10B720000A68FA2A02BF00200860704770B140F230
:10B73000AA60C2F2000002780132D3B2052B027077
:10B7400038BF704700220270FA200860704700007E
:10B7500040F2EC70C2F2000000680168C90508D52B
:10B760006FF48071016040F27A41C2F2000101225F
:10B770000A700168890600D47047416840F27A4037
:10B78000C2F200000278013A052A88BF7047DFE85C
:10B7900002F0040B03031326EEE789B255290CBF10
:10B7A00002210021017070470322027040F27040B4
:10B7B000C2F2000001707047427840F2704CC2F251
:10B7C000000C0CEB02039970511C9CF80120CBB2C9
:10B7D0009342417022BF062101707047CCE781700F
:10B7E000002101707047000070B5A8B04FF2E871F9
:10B7F000C1F6FF710968044625914FF2EC704FF2D3
:10B80000F071C1F6FF70C1F6FF71006809686D46FE
:10B81000CDE92601284602F071FA25A928460C2216
:10B8200002F03AFB1DAE2846314602F0F9F92046F7
:10B8300031462022FCF77CFDB0FA80F0400928B0A8
:10B8400070BD000010B586B00DF107040A46014630
:10B850002046002300F008F8012021461122FDF7C0
:10B8600039FA06B010BD00002DE9F047C8B08A468D
:10B87000814608294EF25C104EF2DC01C0F6000051
:10B88000C0F600014FF0000828BFC246002B18BFC9
:10B8900001464FEA0A10085801EB0A1102F00F04A2
:10B8A000049048688A68C968CDE9050207914DF699
:10B8B0002C710AEB4A00C0F6000151F8202001EB80
:10B8C00080004168806801920291039074B1002564
:10B8D00004AE01AF3046102102F002FB38460C21C5
:10B8E00002F0FEFA0135E8B2A042F3D304A801A9A0
:10B8F00044EA0A1401F088FB45F25420A9F800003C
:10B900004FF2E870C1F6FF70006840F65005C9F8C4
:10B9100002004FF2EC70C1F6FF70006840F640067E
:10B92000C9F806004FF2F070C1F6FF700068C2F26D
:10B930000005C2F2000608AFC9F80A0038462946D9
:10B94000324689F81040FCF74FFF3846494610222E
:10B95000FCF71EFFC5E90088C5E90288C5E904882F
:10B96000C5E90688C6E90088C6E9028848B0BDE88E
:10B97000F087000080B540F2BC6043F20001C2F2E3
:10B980000000C4F202010160FDF714FB002808BFAB
:10B9900080BDFDF709FB000080B582B041F21400C4
:10B9A000C4F202000168002241F001010160006858
:10B9B000002100F00100019001980F20FEF78EFB9E
:10B9C0000F20FEF787FB02B080BD00002DE9F04F8D
:10B9D00085B0002541F21800CDE90355CDE90155A8
:10B9E000C4F20200016840F6004B41F01001016012
:10B9F0000168C4F2010B01F0100100910099016887
:10BA00000BF5806741F0200101600168002201F020
:10BA100020010091009901684FF4404441F0080171
:10BA20000160016801F0080100910099016841F08E
:10BA30000401016000684FF4404100F004000090F0
:10BA400000983846FDF78AFE58464CF22A0100223B
:10BA50004CF22A0AFDF782FEABF5806840464FF4AF
:10BA600000410022FDF77AFE4FF4005001AECDE90F
:10BA70000105384631460395FDF772FD0194012416
:10BA80004FF0020938463146CDE90245CDF8109015
:10BA9000FDF766FD0020C1F21100CDE90205584610
:10BAA00031460194FDF75CFD58463146CDE901A4CD
:10BAB000CDE90359FDF754FD4FF44050CDE90105A0
:10BAC000584631460395FDF74BFD4FF4004001A960
:10BAD00081E8310240463146FDF742FD05B0BDE840
:10BAE000F08F000080B540F2087045F20041C2F2CC
:10BAF0000000C4F2000148F2A06200234FF4804C21
:10BB0000C0F2010280E80E00C0E9033CC0E9053341
:10BB1000C0E90733FDF72EFE002808BF80BDFDF702
:10BB200043FA000010B58EB040F25C7040F2004263
:10BB30000021C2F20000C4F2000247234FF4FA745D
:10BB40000D91CDE90B11CDE90911CDE90711CDE931
:10BB50000511CDE90311CDE90111C0E90023C0E9C8
:10BB6000021401618161FEF721FE90BB4FF4805009
:10BB70000A9040F25C70C2F200000AA9FEF75EFE75
:10BB800038BB40F25C70C2F20000FEF74DFF00BB14
:10BB900040F25C700024C2F2000008A9CDE908441C
:10BBA000FEF7C8FDA8B96020CDE9010440F25C7041
:10BBB000C2F2000001A9002203940594FEF7E8FEFA
:10BBC00038B940F25C70C2F20000FEF7A7FE0EB07A
:10BBD00010BDFDF7E9F9000010B543F60C04C4F2FE
:10BBE000010440F2A470A4F10C01C2F20000002391
:10BBF0004FF00C0C4FF4E13280E80E00C0E9033343
:10BC0000C0E905C3C361FFF7C1F8002801BF206880
:10BC100040F01000206010BDFDF7C6F980B540F27D
:10BC2000EC7044F60001C2F20000C4F200014FF4CF
:10BC3000165200234FF00C0C80E80E000021C0E9E2
:10BC40000333C0E905C3FEF7E1F9002808BF80BD52
:10BC5000FDF7AAF9FEE700002DE9F04F83B00130AF
:10BC60006FF00305019000BF0198461996F803A0F4
:10BC7000347996F80580B77984EA0A0B8BEA0800D4
:10BC8000029080EA07095FFA8BF002F03BF989EA3B
:10BC90000A014840F07088EA0400C0B202F032F9AC
:10BCA00089EA04014840307187EA0800C0B202F016
:10BCB00029F98BEA07014840707187EA0A00C0B28F
:10BCC00002F020F90299043548400C2DB071CBD117
:10BCD00003B0BDE8F08F0000FEE7000000F00700B1
:10BCE00080F00703042B28BF04234FF0FF3C0338E8
:10BCF0000CFA03F338BF0020994381400CFA00F09E
:10BD000022EA0000084370477047000081B040F20B
:10BD10000400C2F20000006844F6D351C1F262018F
:10BD2000A0FB0101480A009000BF0098411E0028B6
:10BD30000091F9D101B07047704700002DE9F04340
:10BD400081B00446D0F820018047002864D0054621
:10BD500000264FF0040805274FF0010902E0E072C9
:10BD6000280459D0D4F82401013D8047217A0629BE
:10BD7000F6D8DFE801F012181F09042D0900E17A56
:10BD8000607248402772EAE70639B1FA81F1490941
:10BD9000FB28A17317D32672E2E72438B0FA80F0AB
:10BDA00040092072DCE74D38B0FA80F040094000CD
:10BDB0002072D5E70021212808BF06213E2808BFB0
:10BDC00002212172CCE784F80880A072A681C6E720
:10BDD000A37A627B9A4207D2E17A4140E172511C18
:10BDE0006173A118C873BBE70529B9D1A17A627B39
:10BDF0008A42B5D3E17A002581422572B0D184F818
:10BE00000090FDF7B1FC00F5FA61D4F82C21607ABE
:10BE1000616090470025A3E7A07BB0FA80F040095D
:10BE200001B0BDE8F083000070B506460C46002066
:10BE3000D6F8281186F80B012420154686F809410A
:10BE40008847D6F828114D208847D6F828113E207B
:10BE500088473046294600F00FF93046214600F069
:10BE60000BF970BD80B50A46002100F001F880BDD5
:10BE700070B506460D460020D6F8281186F80B014D
:10BE80002420144686F80A218847D6F828114D2028
:10BE90008847D6F828112120002D08BF3E2088476A
:10BEA0003046214600F0E8F896F80911304600F0D7
:10BEB000E3F870BD2DE9F04700280F46044618BF8F
:10BEC0000120002918BF012108401146002A18BF8F
:10BED0000121DDE908A908401946002B18BF0121FE
:10BEE00008405146BAF1000F18BF012108404946E9
:10BEF000B9F1000F18BF012100EA0105012D13D18E
:10BF000020464FF49A7198461646FCF7C3FA002073
:10BF1000C4E94876C4E94A8AC4F830912072FDF732
:10BF200023FC00F5FA6060602846BDE8F087000059
:10BF3000037B90F80AC01344634511D8002A08BF58
:10BF40007047013990F80CC0013A0CF101030373FA
:10BF500000EB0C0393F80FC0130601F801CFF1D1E9
:10BF60007047000070B515461A461C460646FFF796
:10BF70005BFF30462946224600F066F8304600F066
:10BF800089F870BD10B500220446FFF74DFF20462A
:10BF900000F080F810BD000070B50646104614464B
:10BFA0000D46FCF7F1F9C2B230462946FFF73CFFD7
:10BFB0003046214600F076F8304600F06BF870BD50
:10BFC000B0B5144601220546FFF72EFF284621464C
:10BFD00000F052F8284600F05DF8B0BDB0B5044658
:10BFE000FDF7C2FB94F81E110546F1B12078E0B1CF
:10BFF000D4F81001854218D394F81F1104F5867007
:10C00000B4F80C210844A918D4F82C21007AC4F8FB
:10C010001011904794F81F0194F81E110130C2B21C
:10C020008A4228BF002084F81F016068854207D932
:10C030000020D4F83011207005F5FA606060884760
:10C040002046FFF77BFEB0BD70B5002A08BF70BD6B
:10C05000144605464E1E00BFD5F8281116F8010FEC
:10C06000013C8847307895F80B114840210685F847
:10C070000B01F1D170BD0000B0B5D0F82821044605
:10C0800008460D46904794F80B01684084F80B0170
:10C09000B0BD000080B5D0F8281190F80B0188479A
:10C0A00080BD0000B0B50A78002A08BFB0BD0446C4
:10C0B0004D1E00BFD4F82811D0B2884715F8010FE3
:10C0C00094F80B11484084F80B016A78002AF1D1EA
:10C0D000B0BD0000427A417843794271427B41739E
:10C0E0004272827A817B90F802C08270827981717B
:10C0F000C17B4370C3788273C170C17AC27980F802
:10C100000AC0C173C272C37170470000B0B5044663
:10C11000FDF72AFBE16888421FD30546207C0328EF
:10C1200011D007281AD16069B8B1217E405CA0B156
:10C130002E282BD02D2835D1204600F0D9F805F532
:10C140004870E06036E0A07938B1204600F0D0F8C1
:10C15000A068617C2844E06059B1B0BD0438022871
:10C1600088BFB0BD204600F0C3F8A0682844E06056
:10C17000B0BDA07901380106A071EED1204600F0D3
:10C1800077F8A06A0028E8D08047B0BD204600F0CC
:10C19000AFF8607CC821002808BF4FF4C871481967
:10C1A000E06007E0607C05F5FA61E16010B12046CF
:10C1B00000F09EF8607C0028CFD1207E617E0130A7
:10C1C000C2B28A422076C8D3E17EA27E0131CBB2D0
:10C1D000002093422076E176BFD3E076A06A022168
:10C1E00000282174B9D08047B0BD00002DE9F04788
:10C1F00082B040F2984AC2F2000ABAF80060052EF6
:10C2000001D900242FE005462C20984691460F4680
:10C21000FCF71AF8044618B30A980222A062701CB0
:10C22000AAF8000040F2804022822277BDF8052063
:10C230009DF80730C2F20000002140F82640204659
:10C240002560A780A171C4E9021184F81290C4E9A5
:10C250000511A4F81D20E377C4E9081800F008F8D8
:10C26000002C18BF0124204602B0BDE8F087000072
:10C2700010B504460068A188A27CFDF76FFA002083
:10C28000607410BD10B50446A27C0068A18882F0DD
:10C290000102FDF763FA0120607410BD80B540F221
:10C2A0009842C2F200021288824214D940F28042BF
:10C2B000C2F2000252F820004A1E052A017488BF0B
:10C2C00080BDDFE802F0030608090D11FFF7DAFF71
:10C2D00080BDFFF7CDFF80BD4FF44871816080BD08
:10C2E0004FF4C871816080BDC821816080BD0000AD
:10C2F00010B50446407C18B12046FFF7B9FF02E0B4
:10C300002046FFF7BFFF616A002908BF10BD607CAF
:10C31000884710BD2DE9F04381B0FDF725FA40F2C2
:10C320009849C2F20009B9F8001049B340F28047B9
:10C3300004464FF00008C2F20007002606E000BFE6
:10C340000136B9F80000F1B2884219D9F5B257F8B0
:10C350002500C1688C4228BFFFF7D8FE57F825009A
:10C36000016A0139A142EBD2C0F82080FDF7FCF947
:10C3700057F82520117FD0602846FFF78FFFDFE7B1
:10C3800001B0BDE8F083000080B54EF2DC2E4FF026
:10C39000000CC0F6000E00BF6FF00303C1180A794D
:10C3A00004331EF802200C2B0A71F7D10CF1010C9A
:10C3B000BCF1040F00F1010008BF80BDECE70000F4
:10C3C000B0B501380024B4EB106F1CBF0120B0BD24
:10C3D0004EF21005CEF2000568604FF0FF300F21DD
:10C3E00000F0F0FD0720AC6028602046B0BD0000E2
:10C3F00080B5FDF7C1FDFFF78DFF80BD70B590B032
:10C4000006AC20462821FCF745F8012006900A904A
:10C410004FF4E01000254FF480314FF40032022633
:10C420000F9020460595CDE90355CDE901550791BB
:10C430000892CDE90D61FDF7F3FF78B90F20CDE942
:10C4400001064FF48060CDE9040501A8022103959F
:10C45000FDF758FE002804BF10B070BDFCF7A4FD26
:10C460007047000010B540F2FF7E0368C4F2000E72
:10C4700042F6004C7045C4F2010C05DCB0F1804F6F
:10C480000AD040F2004203E0604505D040F60002C9
:10C49000C4F20002904203D14A6823F070031343B0
:10C4A000704505DCB0F1804F0AD040F2004203E055
:10C4B000604505D040F60002C4F20002904203D16C
:10C4C000CA6823F44073134323F080024B69D1F808
:10C4D00000E08C681A4360450260C462C0F828E03E
:10C4E00002D10969CCF83010012141610169C90705
:10C4F00008BF10BD016921F00101016110BD0000FC
:10C5000080B501F01F014FF0010CD0F820E00CFACB
:10C5100001F32EEA03030362036A02FA01F11943ED
:10C52000016280BDD0F808C011432CF47F4C41EA71
:10C53000032141EA0C01816070470000826822F00B
:10C540007002114341F0070181607047B0B5026A83
:10C55000036A42F6004423F001030362D0F804E0CA
:10C56000D0F818C08B6822F00202C4F20104A04285
:10C5700042EA030205D1CB6822F00C0223F0040347
:10C580001A430B68A04207D1D1E905452EF4407E3D
:10C5900044EA0E0444EA050E2CF073052B43C0F860
:10C5A00004E08361496841630262B0BDB0B5026ACC
:10C5B000036A42F6004423F010030362D0F804E05B
:10C5C000D0F818C08B6822F02002C4F20104A04207
:10C5D00042EA031207D1CB686FF0400522F0C00297
:10C5E00005EA03131A430B68A04207D1D1E90545B8
:10C5F0002EF4406E4EEA840444EA850E2CF4E6459F
:10C6000045EA0323C0F804E083614968816302625C
:10C61000B0BD0000B0B5026A036A42F6004423F4DC
:10C6200080730362D0F804E0D0F81CC08B6822F459
:10C630000072C4F20104A04242EA032207D1CB688F
:10C6400040F2FF451B0222F44062AB431A430B68E1
:10C65000A04207D1D1E905452EF4405E4EEA04140C
:10C6600044EA051E2CF073052B43C0F804E0C361B7
:10C670004968C1630262B0BDB0B5D0F820C0026A9B
:10C6800042F6004522F4805202624268C3690C6897
:10C69000D1F808E0C4F20105A84204D14D6922F4A2
:10C6A000804242EA851223F4E64343EA04234260CF
:10C6B000C3612CF40055496845EA0E3201640262F8
:10C6C000B0BD0000D0F820C0036A23F0010303626C
:10C6D000836923F0F00343EA02122CF00A031943A2
:10C6E0008261016270470000D0F820C0036A23F025
:10C6F00010030362836923F4704343EA02322CF08F
:10C70000A00343EA011182610162704740F29A403E
:10C71000C2F20000B0F804017047000080B540F29A
:10C72000A47040F2F031C2F20000C2F20001802297
:10C73000FEF73EFC80BD000010B52520FDF7C6FCCD
:10C7400040F29A40C2F20000B0F8041191B1B1F584
:10C75000807F05D190F8062102F0FD0280F80621C5
:10C76000B0F800210139845C0132A0F80021A0F862
:10C77000041106E090F80611002401F0FE0180F893
:10C780000611B0F80011B1F5807F04BF0021A0F8B8
:10C7900000112520FDF79EFC204610BD40F2A2515D
:10C7A000C2F20001B1F8042143F60C0CC4F2010CF2
:10C7B0009AB1B2F5807F05D191F8063103F0FD03FF
:10C7C00081F80631B1F80031C85C4CF8080C581CEF
:10C7D000A1F80001501EA1F80401B1F80001B0F564
:10C7E000807F04BF0020A1F80001B1F804010028F7
:10C7F00018BF704791F8060100F0F80081F80601B3
:10C80000DCF8000020F08000CCF80000DCF800002C
:10C8100040F04000CCF800007047000070B50446BE
:10C82000FCF7A2FF40F2A2560546C2F2000600BF86
:10C83000B6F80401B0F5807F07D1FCF795FF401BE7
:10C840003228F5D996F8060170BD2520FDF73EFC8B
:10C85000B6F80401B0F5807F06D196F8060140F0E5
:10C86000040086F806010EE0FF280CD8B6F8020195
:10C870003454B6F80201B6F804110130A6F80201EA
:10C88000481CA6F80401B6F80401B0F5807F05D174
:10C8900096F8060140F0020086F80601B6F802019B
:10C8A000B0F5807F04BF0020A6F802012520FDF727
:10C8B00011FCB6F804010028C4D096F8061143F61E
:10C8C0000C0041F00101C4F2010086F80611016874
:10C8D0000906B7D4016841F080010160016821F0C8
:10C8E0000401016096F8060170BD000080B5406A41
:10C8F0000021C185C184FEF725F980BD10B5446AC9
:10C900002068406994F84110212907D110F0800077
:10C9100004D00020E084204600F09CF820684069A4
:10C9200094F84210222907D110F0400004D00020D2
:10C93000E085204600F05AF8606C40F0100060641A
:10C940002046FEF7FFF810BD80B50168406A09680F
:10C9500089062FD40021C185016851E8031F0268B0
:10C9600021F4807142E80313002BF5D1016851E8EE
:10C97000051F026821F0010142E80513002BF5D1E3
:10C98000016851E8051F026821F0400142E80513E3
:10C99000002BF5D1202180F84210016B012909D12B
:10C9A000016851E8031F026821F0100142E80313F7
:10C9B000002BF5D100214163016B012903D1818D49
:10C9C000FEF7BEF880BDFEF709FB80BD80B5406A6A
:10C9D00001214163016B012904D1818D4908FEF7D2
:10C9E000AFF880BDFEF7FCFA80BD0000016851E899
:10C9F000031F026821F4907142E80313002BF5D164
:10CA0000016851E8051F026821F0010142E80513A1
:10CA1000002BF5D1016B01290AD100BF016851E853
:10CA2000031F026821F0100142E80313002BF5D127
:10CA3000202180F8421000210163704780B5016811
:10CA4000CA6822F04002CA60202180F84110FEF737
:10CA5000C9FA80BD016851E8031F026821F0C001D6
:10CA600042E80313002BF5D1202180F841107047D4
:10CA700080B582B090F8421022291ED18268B2F5AA
:10CA8000805F02D1016900294AD0816AB2F5805FD6
:10CA900007D00AB9026922B10268526802F07F0227
:10CAA00001E0026852680A700121826A11448162C1
:10CAB000C18D01390A04C18501D002B080BD016871
:10CAC000CA6822F02002CA60CA6822F48072CA6072
:10CAD0004A6922F001024A61202180F842100021B7
:10CAE0004163026B012A23D1016300BF016851E851
:10CAF000031F026821F0100142E80313002BF5D157
:10CB000001680A68D20606D5002201920A680192DD
:10CB1000496801910199818DFEF712F802B080BD3C
:10CB20000168826A49686FF35F2111800221BCE7C6
:10CB3000FEF754FA02B080BD10B504460068D4E98F
:10CB400002C22369016921F4405111430161616905
:10CB500043EA0C021143C26841F20C639A43114349
:10CB6000C1604169A26921F44071114343F600029A
:10CB7000C4F201029042416102D0FDF7F7FB01E0EF
:10CB8000FDF706FC6268192148439100B0FBF1F003
:10CB900048F21F51C5F2EB11A0FB01235A096FF0B7
:10CBA000630302FB0300322303EB0010A0FB01012F
:10CBB000F02303EA5113206803EB0212C1F343117F
:10CBC0001144816010BD000070B582B0134600258D
:10CBD0000446816283854564222084F842000A4627
:10CBE0002168E06B4CF6491C4CF6CD1E4CF6FD0658
:10CBF000C0F6000CC0F6000EC0F600060431C0E915
:10CC00000ACEC0E90C65FCF7C1FB019520680168FC
:10CC10000191406801900198206948B1206850E86E
:10CC2000030F216840F4807041E80302002AF5D127
:10CC3000206850E8050F216840F0010041E8050236
:10CC4000002AF5D1206850E8050F216840F0400027
:10CC500041E80502002AF5D1002002B070BD0000B5
:10CC600090F84110212923D18168B1F5805F01D16D
:10CC7000016931B1016A02684B1C03620978516095
:10CC800007E0016A036831F8022B6FF35F225A60F4
:10CC90000162C18C01390A04C18418BF7047006861
:10CCA000C16821F08001C160C16841F04001C160EC
:10CCB000704700002DE9F04381B040F27A45C2F29E
:10CCC00000052978042906D18146407801380728D3
:10CCD00005D9012025E0042001B0BDE8F08305203E
:10CCE000288099F8010040F270480027C2F200083D
:10CCF00000260024AF7088F8010088F8027000BF99
:10CD000001200136FCF78AFB052E07D868782978C0
:10CD1000A04218BF3E4600290446F1D1287828B128
:10CD200002200021297001B0BDE8F08399F80100CC
:10CD300070B1484610F8011F08F10102012998BF9F
:10CD4000012100BF12F8013F013900F8013FF9D17C
:10CD5000484600F0C1FEA978081A18BF032001B0A8
:10CD6000BDE8F0832DE9F04140F27A46C2F20006B8
:10CD7000317804291CBF0420BDE8F08104464078C6
:10CD80000138072801D901202AE0204600F0A4FE3E
:10CD900040F2EC77C2F20007396880460868000666
:10CDA000FCD5052000F0B0FE60780721317078B125
:10CDB000002500BF60198178386841600168490624
:10CDC000FCD5022000F0A0FE607801358542F1D349
:10CDD0003868C0F8048000BF01684906FCD500200F
:10CDE00000213170BDE8F08180B540F27A40C2F296
:10CDF000000000210180817040F27040C2F200000A
:10CE0000018081700A2000F07FFE00F05DFE80BD91
:10CE100040F27A42C2F2000213780146032B4FF02F
:10CE2000040018BF704740F27043C2F200031B7841
:10CE3000107000200B7070472DE9F04381B043F66D
:10CE40000C05C4F2010555F80C0CC0064CD555F87C
:10CE50000C0C40F25809009055F8080CC4F2020975
:10CE600000900098D9F8000040F29A4420F00100A8
:10CE7000C9F80000C2F20004D9F80400B4F80211A5
:10CE800040F2F038C0F18007C1F58076C2F20008A8
:10CE9000BE4288BF3E46601841463246FBF793FAD1
:10CEA000B4F80201B4F804113044A4F8020188195E
:10CEB000BF1BA4F804010CD008EB060120463A463B
:10CEC000FBF781FAB4F80401A4F802713844A4F81D
:10CED00004018020C9F80C80C9F80400D9F80000CA
:10CEE00040F00100C9F8000055F80C0C000642BFE4
:10CEF00028685FEA0060FFF751FC55F80C0C40060B
:10CF000044BF28685FEA406008D440F2A470C2F2CF
:10CF10000000FDF719FE01B0BDE8F083286820F09D
:10CF200040002860286840F004002860EDE7000019
:10CF300080B5FEF70DFC40F2EC70C2F20000FDF788
:10CF400003FE80BDFEE7000080B501394FF0FF32DF
:10CF500000EB020E11F801CF9EF80130013283EA96
:10CF60000C030F2A8EF80130F2D180BD002848BF93
:10CF7000704700F01F01012202FA01F14EF2801207
:10CF80004009CEF2000242F82010BFF34F8FBFF3EA
:10CF90006F8F7047002848BF704700F01F010122C3
:10CFA00002FA01F14EF200124009CEF2000242F8FC
:10CFB000201070474EF60C50CEF200000068C0F30F
:10CFC000022070474EF6145300F00F02CEF2000319
:10CFD00009011A4400F16043B0F1FF3FC8BF03F5F7
:10CFE00064421170704700004EF60C51CEF2000101
:10CFF0000A684FF6FF031A4060F30A2242F080608D
:10D0000040F0FD700860704770B5B4B018AE0546CA
:10D0100030460C4600F072FE30462946102200F0E1
:10D020003BFF40F65001C2F20001304600F0F8FD2F
:10D030006D46284600F05AF9284621460C2200F099
:10D040001FFD40F64001C2F20001284600F0F6F84C
:10D0500034B070BD10B540F60044C4F2010420465F
:10D060002021FCF7EFF920460821FCF7EBF9A4F5A5
:10D0700080604FF40041FCF7E5F940F2BC60C2F279
:10D080000000FBF7A9FF40F20870C2F20000FCF7B5
:10D0900015FF40F25C70C2F20000FDF73FFC40F269
:10D0A000A470C2F20000FDF7A1FE40F2EC70C2F2E3
:10D0B0000000FDF79BFE0D20FDF708F80F20FDF79F
:10D0C00005F841F21800C4F20200016821F01001D5
:10D0D0000160016821F020010160016821F0080170
:10D0E0000160016821F004010160FDF7C5F8FCF75B
:10D0F00085F94EF21000CEF200000021016041607F
:10D10000816010BD82B0FCF745FFFFF777F9FEF7AD
:10D110005DFCFEF741FCFEF72DFCFEF7E3FCFEF79D
:10D1200001FDFEF759FDFEF779FD40F25C70C2F299
:10D13000000000210025FDF7A7FCFFF7EFFA48F6F5
:10D140006100C0F6000048F64D06009040F2BC2099
:10D150004CF20D714CF239724CF61D03C0F600060C
:10D16000C2F20000C0F60001C0F60002C0F60003E3
:10D170000196FEF79FFE05200524FBF731FD0028F0
:10D180005AD140F2B860C2F20000046040F6004498
:10D190004BF21973C4F20104C0F6000320462021AB
:10D1A00001220095FFF722F84BF21573C0F6000339
:10D1B0002046082101220095FFF718F84BF2117361
:10D1C000A4F58060C0F600034FF4004101220095F1
:10D1D000FFF70CF8FBF780FC012806D1FBF7F6FD02
:10D1E00001200421FFF75AF809E000200421FFF78D
:10D1F00055F840F2AA60C2F200000521017040F229
:10D20000BC2440F2000640F63605C2F20004C2F229
:10D210000006C2F2000500BF2046FEF7DFFE3078B0
:10D220000128F9D12846FFF7F3FD002808BFFBF7D6
:10D23000D1FDFBF7B7FEEFE7FBF7B6FE70B50E4684
:10D24000016C044680206054372901F1010007D8A1
:10D25000372814D82044C1F13701FBF7F9F80EE064
:10D260003F2804D82044C1F13F01FBF7F1F82046E4
:10D27000214600F055F820463821FBF70BF9206CC9
:10D28000D4E9121211EBC00042F10001C4E912010D
:10D2900084F83800030A050C000E0A0A84F83930B5
:10D2A0000B0C84F83A500D0E84F83B0084F83C10C7
:10D2B0002046214684F83D2084F83E3084F83F50D3
:10D2C00000F02EF8701E0021226DCA4000F8012FD8
:10D2D000626DCA400271A26DCA400272E26DCA401C
:10D2E000083120290273EFD170BD000080B5002104
:10D2F00042F201320164C6F245724AF689334DF6B4
:10D30000FE4C45F2764EC0E912115030CEF6CD7388
:10D31000C9F6BA0CC1F2320E80E80C5080BD000094
:10D320002DE9F04FA4B0CA1E6FF0030614A900BF88
:10D33000D2F803308F19043604323C2E7B60F7D1CB
:10D34000D0E91531076DC26D01EA03050A970E4653
:10D35000089122EA03012F440F441499DDE9155482
:10D360001291CDE9054078184AF27841CDF26A7100
:10D37000084403EB7067099226EA07012A4407EA8A
:10D380000300114408444BF25671CEF6C70108441D
:10D3900007EB305223EA0201264402EA0700314437
:10D3A000084447F2DB01C2F22041DDF85C8008440A
:10D3B00002EBF031AA46119527EA010603EB0805B6
:10D3C00001EA02002E4430444CF6EE66CCF2BD1663
:10D3D00007933044189B01EBB02022EA00061F445B
:10D3E000374400EA0106374440F6AF76CFF27C5668
:10D3F0000F933744199B00EB77671A4421EA07061D
:10D40000324407EA000632444CF22A66C4F28776B8
:10D410003244DDF868E007EB3252714420EA02063C
:10D42000314402EA0706314444F21366CAF6300674
:10D430000C9331441B9B02EBF131184427EA01069F
:10D44000304401EA0206304449F20156CFF646560E
:10D45000039330441C9B01EBB0201F4422EA0004DC
:10D46000274400EA0104274449F6D804C6F680148C
:10D470000E9327441D9B00EB77641A4421EA0407AE
:10D480003A4404EA00073A444FF2AF77C8F644370B
:10D490003A441E9F04EB32523944BC46009720EABE
:10D4A0000207394402EA040739444AF24F47C91BCC
:10D4B0001F9F02EBF131139338443B46109724EA47
:10D4C0000107384401EA020738444DF2BE77C8F636
:10D4D0005C173844209D01EBB027281922EA070485
:10D4E000204407EA0104204441F22214C6F6903495
:10D4F0002044219C07EB706BA01821EA0B0210441A
:10D500000BEA0702104447F29312CFF698520244F6
:10D5100022980BEB3252014427EA0209494402EAFD
:10D520000B06314444F28E36CAF279660B900E44F3
:10D53000239802EBF6360D9407442BEA06043C448C
:10D5400006EA02073C4440F62107C4F6B4173C44FF
:10D5500001950AEB0B0726EA020506EBB4243D44CD
:10D5600004EA02073D4442F26257CFF21E673D448F
:10D57000724424EA060704EBF5653A4405EA060717
:10D580003A444BF24037CCF240073A441E4425EA75
:10D59000040705EBF2523E4402EA04073E4445F616
:10D5A0005127C2F25E6712993E440C4422EA0507F5
:10D5B00002EBB6463C4406EA05073C444CF2AA7727
:10D5C000CEF6B6170C993C440D4426EA020706EB4A
:10D5D00034343D4404EA02073D4441F25D07CDF294
:10D5E0002F673D44624424EA060704EBF5653A449C
:10D5F00005EA06073A4441F25347C0F244273A4449
:10D60000064425EA040705EBF2523E4402EA040709
:10D610003E444EF28167CDF6A107DDF83CA03E44C2
:10D62000544422EA050702EBB6463C4406EA0507E5
:10D630003C444FF6C8370290CEF2D37713983C445F
:10D64000054426EA020706EB34343D4404EA0207A7
:10D650003D444CF6E657C2F2E117DDF82CC03D44DC
:10D66000624424EA060704EBF5653A4405EA060736
:10D670003A4440F2D677CCF237373A44464425EA6A
:10D68000040705EBF2523E4402EA04073E4440F62A
:10D690008757CFF2D5470E9B3E441C4422EA05072C
:10D6A00002EBB6463C4406EA05073C4441F2ED472E
:10D6B000CDF810E0C4F25A57DDF834E03C4475442C
:10D6C00026EA020706EB34343D4404EA02073D44EF
:10D6D0004EF60517CAF6E317DDF814B03D445A4478
:10D6E00024EA060704EBF5653A4405EA06073A44DE
:10D6F0004AF2F837CFF6EF4703983A44064425EA52
:10D70000040705EBF2523E4402EA04073E4440F2AD
:10D71000D927C6F26F77DDF804903E444C4422EAE4
:10D72000050702EBB6463C4406EA05073C4444F6CE
:10D730008A47C8F62A573C4406EB343484EA060785
:10D740000D4487EA0201294443F64215CFF6FA75E3
:10D75000294404EB317187EA01051A442A444FF247
:10D760008165C8F271752A44109B01EB725281EAFF
:10D77000040555401E44354446F22216C6F69D5611
:10D78000354402EB354582EA01066E406444344478
:10D7900043F60C06CFF6E5563444119B05EB742492
:10D7A00085EA02066640194431444EF64426CAF220
:10D7B000BE46314404EB317184EA05064E405244C2
:10D7C00032444CF6A976C4F6DE36324401EB72528E
:10D7D00081EA040656400544354444F66036CFF2EB
:10D7E000BB663544DDF800A002EB354582EA010650
:10D7F0006E40544434444BF67046CBF6BF66344416
:10D8000005EB742485EA020666407144314447F60C
:10D81000C666C2F69B063144129F04EB317184EA5E
:10D8200005064E403A44324442F2FA76CEF6A1263C
:10D83000324401EB725281EA0406564045443544B5
:10D8400043F28506CDF2EF463544DDF810E002EBF9
:10D85000354582EA01066E407444344441F605566B
:10D86000C0F288463444139B05EB742485EA020613
:10D870006640194431444DF23906CDF6D416314490
:10D8800004EB317184EA05064E404A44324449F6BD
:10D89000E516CEF2DB663244DDF808C001EB7252C9
:10D8A00081EA040656406544354447F6F846C1F619
:10D8B000A276354402EB354582EA01066E405C44AF
:10D8C000344445F26566CCF2AC46344405EB74242E
:10D8D00064EA020639446E40314442F24426CFF2F3
:10D8E0002946314404EBB16161EA0507024467400F
:10D8F0003A444FF69777C4F22A373A440B9801EB33
:10D90000B25262EA040728444F40384442F2A73733
:10D91000CAF6943738440C9D02EB704060EA010669
:10D920002F19564037444AF23906CFF6934637440A
:10D9300000EBF72767EA020649444640314445F6C2
:10D94000C316C6F25B56314407EBB16161EA0006CB
:10D9500042447E4032444CF69246C8F60C7632443D
:10D9600001EBB25262EA070650444E4030444FF297
:10D970007D46CFF6EF763044119B02EB704060EAB3
:10D9800001061F445640374445F6D156C8F2845626
:10D9900037440E9B00EBF72767EA0206194446401E
:10D9A000314447F64F66C6F6A876314407EBB161BD
:10D9B00061EA000662447E4032444EF2E066CFF6F1
:10D9C0002C66324401EBB25262EA070670444E40C4
:10D9D000304444F21436CAF20136304402EB70404F
:10D9E0000D9B60EA01061F445640374441F2A116E0
:10D9F000C4F60866374400EBF7270F9B67EA020678
:10DA000019444640314447F68266CFF2537631449A
:10DA100007EBB161109B61EA00061A447E40324474
:10DA20004FF23526CBF63A56324401EBB25262EA57
:10DA3000070658444E4030444DF2BB26C2F6D72666
:10DA4000304402EB7040139B60EA01061F445640CD
:10DA500037444DF29136079BCEF686363744034461
:10DA600003EBF723089F0A9E3844099F31443A4448
:10DA7000069FC7E91413C7E9160224B0BDE8F08F6A
:10DA8000F0B581B0F2B114460D460646002703E01A
:10DA9000013C05F1010515D02878316C7054306CCB
:10DAA000013040283064F3D130463146FFF738FC6E
:10DAB000D6E91201376410F5007041F10001C6E9A2
:10DAC0001201E5E701B0F0BD80B5052000F01CF8BB
:10DAD000052000F019F880BD417889B110F8011FC8
