:020000040800F2
:10000000000E0020C901000845500008D93C000836
:100010006D4F0008910800080D6400080000000002
:100020000000000000000000000000007550000803
:10003000AD090008000000004950000829570008D9
:10004000E3010008E3010008E3010008E301000800
:10005000E3010008E3010008E3010008E3010008F0
:10006000E3010008E3010008E3010008E3010008E0
:10007000E301000829090008E30100085509000808
:10008000E3010008E3010008E3010008E3010008C0
:10009000FD630008E3010008E3010008E301000834
:1000A000E3010008E3010008E3010008E3010008A0
:1000B000E3010008E3010008E3010008E301000890
:1000C000E3010008E3010008E3010008E301000880
:1000D000E3010008F5610008E3010008F962000887
:1000E000E3010008E3010008E301000800F002F862
:1000F00000F040F80AA090E8000C82448344AAF182
:100100000107DA4501D100F035F8AFF2090EBAE87F
:100110000F0013F0010F18BFFB1A43F0010318473B
:10012000787B0000987B0000103A24BF78C878C123
:10013000FAD8520724BF30C830C144BF04680C60ED
:10014000704700000023002400250026103A28BF35
:1001500078C1FBD8520728BF30C148BF0B60704739
:100160001FB59DE8030000F0EBF900F0B8F81FBDE3
:1001700010B510BD00F072FA1146FFF7F1FF06F05E
:10018000FBF900F090FA03B4FFF7F2FF03BC00F0B4
:10019000C1FA00000B49D1F800C04A685CF8043B82
:1001A0001068184442F8040B8C4528BFA1F1DC0C00
:1001B0008A4228BFA1F1DC02C1F800C04A6020F0E9
:1001C00000407047980700200948804709480047C9
:1001D000FEE7FEE7FEE7FEE7FEE7FEE7FEE7FEE7F7
:1001E000FEE7FEE704480549054A064B7047000054
:1001F000C5570008ED00000800080020000E002090
:10020000000A0020000A002070B5064600F07CF9C4
:10021000056806F10B0020F00704B4429CBF0020E3
:1002200070BD2B466A68BAB11068A04210D304F1C1
:10023000080188423CBF5068586007D351681019C4
:1002400041601168091B016058601460101D70BD89
:1002500013465268002AE7D12146284600F05CF98F
:100260000028DED170BD70B50446051F00F04CF9C2
:100270000068002C14BF446870BD002C18BFAC424D
:100280003CBF20466468F8D301680A18AA4218BF28
:10029000456003D12A680546114401602868411968
:1002A000A1421CBF6C6070BD616869602168084430
:1002B000286070BD0B4910B5A1F17C020A4CC2E95F
:1002C0003712372106E000EB104342F82130074B8C
:1002D00000FB03400B1EA1F10101F4DC10BD012065
:1002E000E8E7000038070020E119D666CD0D0100CF
:1002F00040EA010310B59B070FD1042A0DD310C8A3
:1003000008C9121F9C42F8D020BA19BA884201D9F4
:10031000012010BD4FF0FF3010BD1AB1D30703D03C
:10032000521C07E0002010BD10F8013B11F8014BF2
:100330001B1B07D110F8013B11F8014B1B1B01D10E
:10034000921EF1D1184610BD40EA0103024630B5B5
:100350009B0710D14FF0013400E008C208C91D1BF3
:100360009D4315EAC41FF8D013F0FF0102F8011BEA
:100370000DD01B0AF8E711F8013B002B02F8013BF6
:1003800005D011F8013B002B02F8013BF3D130BD41
:1003900010B5431C02E010F8011B71B18107FAD1BE
:1003A0004FF0013202C88C1A8C4314EAC211F9D002
:1003B000C01A0A0603D0C01E10BDC01A10BD0A0420
:1003C00001D0801E10BD0902FCD0401E10BD421E8F
:1003D00012F8013F002BFBD111F8013B002B02F872
:1003E000013BF9D17047032A40F2308010F0030C32
:1003F00000F0158011F8013BBCF1020F624498BF78
:1004000011F801CB00F8013B38BF11F8013BA2F114
:10041000040298BF00F801CB38BF00F8013B11F08F
:10042000030300F0C380083AC0F0088051F8043B91
:10043000083A51F804CBA0E80810F5E7121D5CBF9C
:1004400051F8043B40F8043BAFF30080D20724BFCF
:1004500011F8013B11F801CB48BF11F8012B24BF63
:1004600000F8013B00F801CB48BF00F8012B7047B2
:100470004FF000020429C0F0128010F0030C00F0CD
:100480001B80CCF1040CBCF1020F18BF00F8012B4B
:10049000A8BF20F8022BA1EB0C0100F00DB85FEA19
:1004A000C17C24BF00F8012B00F8012B48BF00F8E5
:1004B000012B70474FF0000200B513469446964654
:1004C000203922BFA0E80C50A0E80C50B1F1200167
:1004D000BFF4F7AF090728BFA0E80C5048BF0CC015
:1004E0005DF804EB890028BF40F8042B08BF704773
:1004F00048BF20F8022B11F0804F18BF00F8012BE5
:10050000704770477047704700487047A807002041
:10051000704770477047704738B504460A46002058
:100520006946AFF30080002808BF38BD0246009935
:10053000204600F071F8012038BD012000F086B897
:10054000F8B5AFF30080054600200C46102000BF30
:100550000646A819A0420DD9324669460020AFF3DD
:100560000080070008BF00F071F80098A04218BF93
:100570000546C419FFF7C8FF05600746F01D20F0C7
:1005800007004619284600F00AF8B44208BFF8BD33
:10059000A21B31463868BDE8F84000F03DB80021A4
:1005A0000160C0E9011070471020704710B5203A73
:1005B000C0F00B80B1E81850203AA0E81850B1E81C
:1005C0001850A0E81850BFF4F5AF5FEA027C24BFD2
:1005D000B1E81850A0E8185044BF18C918C0BDE8C9
:1005E00010405FEA827C24BF51F8043B40F8043B92
:1005F00008BF7047D20728BF31F8023B48BF11F847
:10060000012B28BF20F8023B48BF00F8012B7047A0
:1006100000487047A0070020034640688C46002829
:1006200018BF88423CBF03464068F8D31868184496
:10063000884207D00CF1030020F00700001D411A8A
:10064000521A0146081D0A60FFF70DBE10B500F0F2
:1006500039F8BDE8104000F02FB870477546FFF735
:10066000D7FFAE4605006946534620F00700854691
:1006700018B020B5FFF7B6FDBDE820404FF00006EA
:100680004FF000074FF000084FF0000B21F007017A
:10069000AC46ACE8C009ACE8C009ACE8C009ACE8BD
:1006A000C0098D46704710B50446AFF30080204660
:1006B000BDE81040FFF767BD002801D000F02AB860
:1006C0007047000010B5012805D0002103A000F0FC
:1006D00027F8012010BD09A1F8E70000534947524F
:1006E000544D454D3A204F7574206F662068656102
:1006F00070206D656D6F7279000000003A204865CA
:100700006170206D656D6F727920636F72727570A4
:100710007465640001491820ABBEFEE726000200A4
:1007200070B505460C460A2000E06D1C00F011F87B
:1007300035B128780028F8D102E0641C00F009F8EF
:1007400014B120780028F8D1BDE870400A20AFF33A
:10075000008008B569468DF800000320ABBE08BDD7
:1007600070B5044600252068806800F0010018B3C9
:100770002068806820F001002168886001F0B6FBE5
:10078000054613E001F0B2FB401B02280ED9206899
:10079000806800F0010048B1A06A40F01000A0623B
:1007A000E06A40F00100E062012070BD20688068CE
:1007B00000F001000028E5D10020F6E72DE9FF4117
:1007C00004460D461646002715E0102229466846C5
:1007D000FFF709FE2146284603F047FD04F1F0012A
:1007E000284605F015FE1022694604F1F000FFF7D7
:1007F000FAFD10351037B742E7D3BDE8FF812DE988
:10080000F04104460D46164604F1F00800270AE0C0
:100810004146284605F0FCFD2146284600F05AF8DE
:10082000A84610351037B742F2D31022414604F1E2
:10083000F000FFF7D8FDBDE8F08170B504460E4624
:1008400015463146204603F0BDFF1022294604F12B
:10085000F000FFF7C8FD70BD70B504460B460020E0
:1008600013E000210DE0250105EB80050D44555DE9
:1008700003EB8006765C754003EB800675544D1CD7
:10088000E9B20429EFDB451CE8B20428E9DB70BDBE
:1008900000BFFEE700B587B0FF200C4908700E21AD
:1008A000684606F0C5FC68B9094A07CA04AB07C325
:1008B0000C220DF1020104A8FFF71AFD10B9012066
:1008C000024908700148007807B000BD2C000020E4
:1008D000E8F7FF1F70B505460E460024324629464C
:1008E0000020FFF7B9FF01240FE0284604F002FFC3
:1008F000284604F00AFE284604F03AFB3246294610
:100900002046FFF7A9FF601CC4B20E2CEDDB284681
:1009100004F0F0FE284604F0F8FD324629460E2089
:10092000FFF79AFF70BD000010B50848006800F49A
:100930008070B0F5807F05D10448406840F4E060E5
:1009400002494860024800F02BFF10BD0000024041
:10095000A402002010B50848006800F48030B0F50B
:10096000803F05D10448406840F4E02002494860D7
:10097000024800F015FF10BD000002406002002098
:1009800030B590F840500124AC40C56B6C600468F1
:1009900063604468102C04D10468A2600468E160BC
:1009A00003E00468A1600468E26030BD70470000A5
:1009B00010B50446092C01DD092000E02046044959
:1009C000087064230A22A021024801F07DFB10BDBB
:1009D00038000020940000202DE9FE4304460E4616
:1009E00015464FF0000960193A493B4A127851F810
:1009F0003210884200D815B90120BDE8FE8301F00D
:100A000075FA36490968A0EB0108B8F1050F03D261
:100A1000C8F1050001F026F82F480078052845D2D6
:100A2000DFE800F003041122330000BFA027642098
:100A3000E2B201233946CDE900650290284801F071
:100A40001FFC81463EE004F48070A02141EAE017DB
:100A50006420E2B201233946CDE9006502902048C6
:100A600001F00EFC81462DE004F44070A02141EA23
:100A7000E0176420E2B201233946CDE90065029017
:100A8000174801F0FDFB81461CE004F4E060A02162
:100A900041EAE0176420E2B201233946CDE900655E
:100AA00002900F4801F0ECFB81460BE0642010231C
:100AB0002246A021CDE900650290094801F0E0FB43
:100AC000814600BF00BF01F011FA044908604846A2
:100AD00093E70000B47800083800002034000020BC
:100AE000940000202DE9FE4F04460E4617464FF0B5
:100AF000000BE0194B494C4A127851F832108842E9
:100B000000D817B90120BDE8FE8F85E001F0EEF9AD
:100B100046490968A0EB010ABAF10A0F03D2CAF1EB
:100B20000A0000F09FFF3F483F49097800EBC100F1
:100B300081883C483C4A127800EBC2008088401E05
:100B40002040081A1FFA80F94F4501DA384600E0C4
:100B50004846054634480078052846D2DFE800F0CC
:100B600003041223340000BF4FF0A0086420E2B257
:100B700001234146CDE9006502902D4801F032FD88
:100B800083463EE004F48070A02141EAE01864202E
:100B9000E2B201234146CDE900650290244801F00C
:100BA00021FD83462DE004F44070A02141EAE018C5
:100BB0006420E2B201234146CDE9006502901C4861
:100BC00001F010FD83461CE004F4E060A02141EA3E
:100BD000E0186420E2B201234146CDE900650290AD
:100BE000134801F0FFFC83460BE0642010232246EB
:100BF000A021CDE9006502900D4801F0F3FC834689
:100C000000BF00BF601984B22E44781B87B201F088
:100C10006DF90649086000BF002F3FF777AF5846CF
:100C200071E70000B478000838000020340000208C
:100C30009400002010B5FF202B4908702B48C07885
:100C4000042802D0472822D113E02848807953286D
:100C500007D10220244908700121084604F0EEFC67
:100C600006E022488079452802D101201E490870FB
:100C70000DE003201C4908700421012004F0DEFC73
:100C800001201B49087003201A49087000BF00BFEB
:100C9000154890F90000401C20B301201649487106
:100CA00001F024F9104991F9001001EB0111134AE8
:100CB000515C0844104908600B4890F9000000EBB3
:100CC00000101146084440780B490871064890F915
:100CD000000000EB00101044811C0F220648801D0C
:100CE000FFF781FB10BD000039000020A80600209E
:100CF0003A0000203B00002090060020107C0008F5
:100D000010B504F0B5FF01200949487101F0EEF873
:100D1000084909780844064908600648407808717F
:100D2000084602790349891C801DFFF75CFB10BD52
:100D300090060020107C000870B5054661E004F0C4
:100D4000A3FF044632480078052854D2DFE800F0BB
:100D5000030A162636000CB9012000E000202C49B9
:100D600008704CE0601EC1B2294841710474002033
:100D70002749887048700220087040E024480471B8
:100D8000007C60402249087408464079401EC1B288
:100D90001F48417103201E49087030E01C48C47090
:100DA000007C60401A49087408464079401EC1B270
:100DB0001748417104201649087020E014488178D2
:100DC000407981420DDA1248007C60401049087475
:100DD000084681788078401C0D4A9070901D4454DC
:100DE00008E000200A4908700846007CA04201D1B2
:100DF000FFF720FF03E000200549087000BF00BF97
:100E000000BF281EA5F10101CDB298D170BD000030
:100E1000A806002070B504460D4603E014F8010B47
:100E200004F0C2FF281EA5F10101CDB2F6D170BDBC
:100E300010B523484079012841D101F057F82049E5
:100E4000096888423BD300201D4948710846017952
:100E5000801DFFF7DFFF1B48007880B31A48007839
:100E600008282CDA18480078401CC0B216490870CF
:100E7000072802DB0020134908700120104948713F
:100E800001F034F81049097801EB01110F4A515C67
:100E900008440B4908600C48007800EB001011462C
:100EA00008444078064908710748007800EB0010B4
:100EB0001044811C0F220248801DFFF794FA10BDD8
:100EC000900600203A0000203B000020107C000823
:100ED00072B600BFFEE7000038B5024600230020CE
:100EE000009000BF92F82400012801D1022038BDF3
:100EF000012082F8240000BF4868072812D2106839
:100F0000406B0C79641E04EB84051F24AC40A043A5
:100F10000D796D1E05EB85050C68AC402043146807
:100F2000606327E048680D2812D21068006B0C79C6
:100F3000E41F04EB84051F24AC40A0430D79ED1F92
:100F400005EB85050C68AC4020431468206311E074
:100F50001068C06A0C790D3C04EB84051F24AC407A
:100F6000A0430D790D3D05EB85050C68AC40204391
:100F70001468E06208680A2812D31068C0680C7808
:100F80000A3C04EB44050724AC40A0430D780A3D1D
:100F900005EB45058C68AC4020431468E0600FE029
:100FA000106800690C7804EB44050724AC40A043AA
:100FB0000D7805EB45058C68AC4020431468206132
:100FC0000868102802D00868112827D1174C10682B
:100FD000A0421ED11068806800F40000F0B91068CB
:100FE000806840F400001468A0600868102815D1DB
:100FF0000F4800680F4CB0FBF4F000EB800040009D
:10100000009002E00098401E009000980028F9D15E
:1010100004E0906A40F020009062012300BF0020AD
:1010200082F8240000BF184661E700000024014058
:101030001800002040420F002DE9F041044600272F
:1010400000250026A84614B90120BDE8F081A0685B
:1010500010B1207D00B100BFA06A30B90020E0626D
:1010600084F82400204600F0A1F82046FFF778FB22
:101070000746A06A00F01000002873D1002F71D13C
:10108000A06A20F4885040F00200A062E169606824
:101090000843217B40EA41000643A068B0F5807F09
:1010A00002D0A068012802D14FF4807000E0002037
:1010B0000543207D012811D1207B38B9A069401E4D
:1010C0004FF4006141EA4030054307E0A06A40F078
:1010D0002000A062E06A40F00100E0622068406801
:1010E00020F46940284321684860206880682149CD
:1010F0000840304321688860A068B0F5807F02D046
:10110000A068012802D14FF4807000E00020B0F503
:10111000807F03D1208A401E4FEA00582068C06AB1
:1011200020F4700040EA08002168C86220688068E6
:1011300011490840B04208D10020E062A06A20F0C6
:10114000020040F00100A06211E0A06A20F002005D
:1011500040F01000A062E06A40F00100E062012768
:1011600005E0FFE7A06A40F01000A06201273846C2
:101170006BE70000FDF7E1FFFE0E1FFF10B5044610
:1011800007492068884209D10648806920F4007028
:10119000044988610F21044800F078FC10BD00006C
:1011A00000240140001002400008014010B586B044
:1011B0000446002002900390049005901449206892
:1011C000884222D100BF1348806940F40070114961
:1011D00088610846806900F40070019000BF00BF7C
:1011E00000BF0846806940F00400886108468069B5
:1011F00000F00400019000BF00BF0F200290032008
:10120000039002A9044800F0DBFC06B010BD00000A
:1012100000240140001002400008014070472DE901
:10122000F05F04460025206846692068D0F80490E5
:10123000206887682068D0F80CA02068D0F810B02B
:101240002068D0F8188006F00100002855D007F07B
:101250000100C0B101202168886007F0020018B1C8
:10126000204600F02BFA0EE007F0040010B145F420
:10127000006508E007F0080010B145F4805502E071
:10128000204600F01AFA07F48070C8B14FF480705D
:101290002168886007F4007018B1204600F010FA49
:1012A0000EE007F4806010B145F4005508E007F443
:1012B000006010B145F4804502E0204600F0FFF9DF
:1012C00007F48030C8B14FF480302168886007F49B
:1012D000003018B1204600F0F5F90EE007F4802048
:1012E00010B145F4004508E007F4002010B145F4C2
:1012F000803502E0204600F0E4F906F0080038B13D
:101300000AF0100020B145F4007510202168C86073
:1013100006F0040040B10AF0080028B10820216856
:10132000C860204600F0C4F906F0020038B1206819
:10133000C06800F0030010B1204600F0BAF906F0D2
:10134000400038B10BF0100020B145F4806510204A
:101350002168086106F0200040B10BF0080028B1B8
:10136000082021680861204600F0A4F906F010006A
:1013700038B12068006900F0030010B1204600F089
:101380009AF906F4003040B109F0100028B110209D
:1013900021684860204600F08FF906F4803040B1A3
:1013A00009F0080028B1082021684860204600F0B4
:1013B0008AF906F4004088B309F0040078B306F413
:1013C000807020B108F0010008B145F0010506F475
:1013D000007020B108F0020008B145F0020506F4E3
:1013E000806020B108F0040008B145F0040506F45F
:1013F0000060A0B108F0700088B108F070004028CB
:1014000017D006DC10280BD020280CD0302819D19A
:101410000CE0502810D0602814D110E01DE019E035
:1014200045F008050FE045F010050CE045F02005FB
:1014300009E045F0400506E045F0800503E045F48D
:10144000807500E000BF00BF2068806920F0700058
:10145000216888610420216848602DB1606A2843B2
:1014600060622046FFF7DAFEBDE8F09F70B50446E3
:101470000CB9012070BD94F8200010B9204600F08E
:10148000CBF82068006840F001002168086000F097
:101490002DFD05460DE000F029FD401B0A2808D966
:1014A000606A40F400306062052084F8200001206A
:1014B000E0E72068406800F001000028EBD02068D9
:1014C000006820F002002168086000F00FFD05466A
:1014D0000DE000F00BFD401B0A2808D9606A40F4BB
:1014E00000306062052084F820000120C2E72068F7
:1014F000406800F002000028EBD1207E012806D1D0
:101500002068006840F080002168086005E02068DD
:10151000006820F0800021680860607E012806D104
:101520002068006840F040002168086005E02068FD
:10153000006820F0400021680860A07E012806D1E4
:101540002068006840F020002168086005E02068FD
:10155000006820F0200021680860E07E012806D1A4
:101560002068006820F010002168086005E020680D
:10157000006840F0100021680860207F012806D133
:101580002068006840F008002168086005E02068D5
:10159000006820F0080021680860607F012806D1FB
:1015A0002068006840F004002168086005E02068B9
:1015B000006820F0040021680860D4E902010843B3
:1015C00021690843616908436168491E084321682D
:1015D000C86100206062012084F82000002049E7F3
:1015E00010B504460949206888420DD10848C069F1
:1015F00020F000700649C8614FF4C051054800F062
:1016000045FA142001F074F910BD00000064004098
:10161000001002400008014010B586B004460020CA
:1016200002900390049005901E492068884236D1AC
:1016300000BF1D48C06940F000701B49C8610846E2
:10164000C06900F00070019000BF00BF00BF0846F5
:10165000806940F0040088610846806900F0040059
:10166000019000BF00BFC8140290002003900490B6
:1016700002A90E4800F0A4FA4FF480500290022014
:1016800003900320059002A9084800F099FA00226F
:101690001146142001F05EF9142001F04BF906B058
:1016A00010BD00000064004000100240000801402E
:1016B0007047704770477047704770477047704772
:1016C000704770477047704710B504460CB9012049
:1016D00010BD607920B900202071204600F014F878
:1016E000012060710020F3E7054A0168914205D1AD
:1016F0000449496921F04001024A516170470000E4
:10170000003002400010024008B5094A01689142C9
:101710000DD100BF0749496941F04001054A5161B7
:101720001146496901F04001009100BF00BF08BDAA
:101730000030024000100240014609B90120704704
:101740000868006820F001000A68106000200A683C
:1017500010600A6850600A6890600A68D0600F4A9A
:101760000868801A1422B0FBF2F0800008640B486D
:101770000838C86391F8402001209040CA6B50603F
:1017800000208862C86208634863886381F821008A
:1017900000BF81F8200000BF00BFD0E70800024072
:1017A00070B50446E06B05682068066894F8401040
:1017B000042088402840002846D006F00400002875
:1017C00042D02068006800F0200028B92068006836
:1017D00020F004002168086057492068884201D140
:1017E000042027E0544914312068884201D1402068
:1017F00020E0514928312068884201D1001519E0C4
:101800004D493C312068884202D14FF4804011E0BC
:10181000494950312068884202D14FF4802009E0C4
:10182000454964312068884202D14FF4800001E0CC
:101830004FF08060404908394860E06A00287AD05B
:101840002046E16A884776E094F8401002208840FC
:101850002840A0B306F0020088B32068006800F0BA
:10186000200040B92068006820F00A002168086064
:10187000012084F8210030492068884201D10220EB
:1018800028E02D4914312068884201D1202021E030
:10189000294928312068884201D140151AE026499B
:1018A0003C312068884202D14FF4005012E02249B6
:1018B00050312068884203D14FF400300AE017E02D
:1018C0001D4964312068884202D14FF4001001E0C4
:1018D0004FF0007018490839486000BF002084F8B4
:1018E000200000BFA06A30B32046A16A884722E0EA
:1018F00094F84010082088402840E0B106F0080025
:10190000C8B12068006820F00E002168086094F8D3
:10191000401001208840E16B48600120A06384F8FA
:10192000210000BF002084F8200000BF206B10B110
:101930002046216B884770BD080002400146002206
:1019400009B901207047164B0868C01A1423B0FB70
:10195000F3F08000086412480838C863022081F858
:1019600021000868026843F6F0708243D1E9010360
:101970001843CB6818430B6918434B6918438B69AC
:101980001843CB691843024308680260002088634B
:10199000012081F82100002081F8200000BFD1E75C
:1019A000080002402DE9F04104460D4616461F4648
:1019B0004FF0000800BF94F82000012802D1022057
:1019C000BDE8F081012084F8200000BF94F82100D8
:1019D00001282CD1022084F821000020A063206877
:1019E000006820F00100216808603B463246294625
:1019F0002046FEF7C5FFE06A30B12068006840F07D
:101A00000E00216808600BE02068006820F00400E8
:101A1000216808602068006840F00A0021680860BA
:101A20002068006840F001002168086006E000BFFF
:101A3000002084F8200000BF4FF002084046BFE7B6
:101A400010B54FF0FF300649086100200861401EC4
:101A5000C8600020C86000F01FFF002010BD00001B
:101A60000010024070B5044600F040FA06462546D4
:101A7000681C10B104480078054400BF00F036FA35
:101A8000801BA842FAD370BD140000202DE9F0415C
:101A900002460B46002080E00127874007EA030149
:101AA000002979D0404F4FEA900C57F82C40870717
:101AB0004FEA177C0F2707FA0CF73C403B4FBA421E
:101AC00001D100270FE03A4FBA4201D101270AE0C5
:101AD000384FBA4201D1022705E0374FBA4201D14F
:101AE000032700E004274FEA807C4FEA1C7C07FABA
:101AF0000CF7A74231D1314F3F688F43DFF8BCC0AC
:101B0000CCF800700CF104073F688F430CF1040C13
:101B1000CCF80070294F0C373F688F43DFF89CC02A
:101B20000CF10C0CCCF80070ACF104073F688F434B
:101B3000ACF1040CCCF8007087074FEA177C0F2734
:101B400007FA0CF4184F4FEA900C57F82CC02CEA07
:101B5000040C4FEA900847F828C0FF2901D817461F
:101B600000E0171D3D46FF2901D8870002E0A0F1E3
:101B70000807BF003E462F684FF00F0C0CFA06FC1A
:101B800027EA0C074FF0040C0CFA06FC47EA0C0796
:101B90002F60D7688F43D760401C23FA00F7002FCF
:101BA0007FF47AAFBDE8F0810800014000080140F1
:101BB000000C0140001001400014014000040140ED
:101BC0002DE9F8470346002294466EE14FF00108E4
:101BD00008FA02F4D1F8008008EA0400A0427DD19E
:101BE000DFF8DCA2D1F80480A8EB0A09D0453AD08E
:101BF00014DCB8F1030F50D009DCB8F1000F31D07C
:101C0000B8F1010F1CD0B8F1020F49D120E0B8F1B2
:101C1000110F18D0B8F1120F42D11EE0B9F5881F8C
:101C200025D006DCB9F5803F20D0B9F5801F37D12B
:101C30001AE0B9F5001F18D0B9F5041F30D117E02C
:101C4000D1F80CC02DE0D1F80C8008F1040C28E08C
:101C5000D1F80C8008F1080C23E0D1F80C8008F1D1
:101C60000C0C1EE000BF00BF00BF00BF00BF00BFE4
:101C7000D1F80880B8F1000F02D14FF0040C0BE04E
:101C8000D1F80880B8F1010F03D14FF0080C1C61A6
:101C900002E04FF0080C5C6103E04FF0000C00E044
:101CA00000BF00BFFF2801D8984601E003F10408F7
:101CB0004646FF2802D84FEA820803E0A2F108084E
:101CC0004FEA88084746D6F800804FF00F0909FA16
:101CD00007F928EA09080CFA07F900E088E048EA61
:101CE0000908C6F80080D1F8048008F08058B8F1DF
:101CF000805F7DD100BFDFF8CC81D8F8188048F034
:101D00000108DFF8C091C9F81880C846D8F81880D3
:101D100008F00108CDF8008000BF00BF4FEAB938D5
:101D20004FEA920958F829504FEA82784FEA187919
:101D30004FF00F0808FA09F825EA0805DFF888814E
:101D4000434502D14FF0000816E0DFF8808143459B
:101D500002D14FF001080FE0DFF87481434502D152
:101D60004FF0020808E0DFF86C81434502D14FF0E4
:101D7000030801E04FF004084FEA82794FEA19792D
:101D800008FA09F848EA0505DFF84C814FEA92099C
:101D900048F82950D1F8048008F48018B8F5801F5D
:101DA0000AD1DFF83881D8F8008048EA0008DFF867
:101DB0002C91C9F8008009E0DFF82081D8F8008074
:101DC00028EA0008DFF81491C9F80080D1F80480EF
:101DD00008F40018B8F5001F10D1DFF8008108F1F1
:101DE0000408D8F8008048EA0008DFF8F09000E026
:101DF0005AE009F10409C9F800800DE0DFF8DC8041
:101E000008F10408D8F8008028EA0008DFF8CC9030
:101E100009F10409C9F80080D1F8048008F40038F9
:101E2000B8F5003F0ED1DFF8B480A8F10408D8F867
:101E3000008048EA0008DFF8A490A9F10409C9F875
:101E400000800DE0DFF89480A8F10408D8F8008045
:101E500028EA0008DFF88490A9F10409C9F8008095
:101E6000D1F8048008F48038B8F5803F0ED1DFF84F
:101E70006C80A8F10808D8F8008048EA0008DFF86C
:101E80005C90A9F10809C9F800800DE0DFF84C80EA
:101E9000A8F10808D8F8008028EA0008DFF83C908C
:101EA000A9F10809C9F80080521CD1F8008028FA6D
:101EB00002F8B8F1000F7FF489AEBDE8F8870000A2
:101EC000000011100010024000080140000C014009
:101ED00000100140001401400800014008040140C6
:101EE0000AB1016101E00B04036170470148006819
:101EF000704700000C00002070B504460CB90120AA
:101F000070BD94F83D0028B9002084F83C002046BC
:101F100000F036FC242084F83D002068006820F0A2
:101F20000100216808602068006840F400402168D2
:101F300008602068006820F400402168086000F014
:101F400047FF05465C496068884206D85B48854281
:101F500001D2012007E0002005E05948854201D266
:101F6000012000E00020012800D1C9E75548B5FB59
:101F7000F0F62068406820F03F0030432168486058
:101F80004D496068884201D8701C07E04FF4967094
:101F900070434FF47A71B0FBF1F0401C2168096A7C
:101FA00021F03F0108432168086243496068884284
:101FB00014D8681E61684900B0FBF1F0401CC0F302
:101FC0000B00042801D204203DE0681E616849002E
:101FD000B0FBF1F0401CC0F30B0034E0A06838B94E
:101FE000681E616801EB4101B0FBF1F0401C0AE0A2
:101FF000681E616801EBC10202EB0111B0FBF1F058
:10200000401C40F48040C0F30B0008B901201AE0E6
:10201000A06848B9681E616801EB4101B0FBF1F0AE
:10202000401CC0F30B000CE0681E616801EBC102AC
:1020300002EB0111B0FBF1F0401CC0F30B0040F4C7
:10204000804040F400402168C9694CF6FF7291431A
:1020500008432168C861D4E9070108432168096879
:1020600021F0C001084321680860D4E90310084347
:102070002168896848F2FF329143084321688860EB
:10208000D4E9050108432168C96821F0FF0108432C
:102090002168C8602068006840F00100216808607D
:1020A00000202064202084F83D000020206384F874
:1020B0003E0000BF24E70000A086010080841E00CF
:1020C00000093D0040420F002DE9F84F04460F463D
:1020D00090461E46FFF70AFF05464FF0000994F8A8
:1020E0003D0020287ED11923012263492046009516
:1020F00001F067FF10B10220BDE8F88F00BF94F82F
:102100003C00012801D10220F6E7012084F83C00C0
:1021100000BF2068006800F0010028B9206800684E
:1021200040F00100216808602068006820F4006029
:1021300021680860242084F83D00002020644F4876
:10214000E06200BF2068006840F480702168086089
:10215000334600224FF001112046009501F031FF77
:1021600058B12068006800F48070B0F5807F02D11B
:102170004FF4007020640320BEE707F0FE002168E2
:102180000861FFF7B3FE054620684069C0F3400AC6
:1021900020684069C0F3802B10E0FFF7A7FE401BCA
:1021A000B04200D816B9A02084F83D0020684069EC
:1021B000C0F3400A20684069C0F3802B94F83D00CA
:1021C000A02805D0BAF1000F02D1BBF1000FE4D076
:1021D000202084F83D0020684069C0F3400028B307
:1021E000206800E045E0006840F400702168086065
:1021F00000BF00200090206840690090206880693E
:10220000009000BF00BF192301221B492046009502
:1022100001F0D7FE08B101206EE7202084F83D00D0
:1022200000BF002084F83C0000BF65E7206800681C
:1022300040F40070216808606FF480602168486194
:10224000192301220C492046009501F0BAFE08B17D
:10225000012051E709F10109C145FFF473AF2020C6
:1022600084F83D0000BF002084F83C0000BF01203E
:1022700042E7022040E70000020010000000FFFFDC
:102280002DE9FE4F04460F4690469946DDE90CAB1A
:102290000E9E00200290FFF729FE054694F83D00AF
:1022A000202872D119230122CA492046009501F045
:1022B00088FE10B10220BDE8FE8F00BF94F83C00FC
:1022C000012801D10220F6E7012084F83C0000BF7C
:1022D0002068006800F0010028B92068006840F01C
:1022E0000100216808602068006820F4006021680F
:1022F0000860222084F83D00402084F83E00002041
:102300002064C4F824A0A4F82AB0608D2085B248C7
:10231000E0624B46424639462046CDE9006501F071
:10232000FDFC08B10120C6E7208D88B900BF002060
:10233000019020684069019020688069019000BF89
:1023400000BF2068006840F40070216808604BE01E
:10235000208D01281AD12068006820F4806021684F
:10236000086072B600BF00200190206840690190AB
:1023700020688069019000BF00BF2068006840F4B9
:1023800000702168086062B62EE020E1208D0228EE
:1023900019D12068006840F400602168086072B6B6
:1023A00000BF00200190206840690190206880698A
:1023B000019000BF00BF2068006820F480602168A1
:1023C000086062B610E02068006840F48060216810
:1023D000086000BF002001902068406901902068DB
:1023E0008069019000BF00BFE2E0208D03287DD806
:1023F000208D012815D12A463146204601F0BDFE28
:1024000008B1012057E720680069616A0870606AB6
:10241000401C6062208D401E2085608D401E6085BE
:10242000C6E0208D02282CD1334600226B4920467D
:10243000009501F0C6FD08B101203CE772B62068A6
:10244000006840F400702168086020680069616AD3
:102450000870606A401C6062208D401E2085608D7F
:10246000401E608562B620680069616A0870606A13
:10247000401C6062208D401E2085608D401E60855E
:1024800096E03346002255492046009501F099FD1B
:1024900008B101200FE72068006820F480602168FF
:1024A000086072B620680069616A0870606A401C42
:1024B0006062208D401E2085608D401E60854848EA
:1024C00000681921B0FBF1F04FF47A71B0FBF1F024
:1024D000C0EBC00000EB8000029000BF0298401EDD
:1024E00002900298A8B90020206300E039E0202083
:1024F00084F83D00002084F83E00206C40F020006D
:10250000206462B600BF002084F83C0000BF0120B8
:10251000D1E620684069C0F380000028DED0206842
:10252000006840F400702168086020680069616AF2
:102530000870606A401C6062208D401E2085608D9E
:10254000401E608562B620680069616A0870606A32
:10255000401C6062208D401E2085608D401E60857D
:1025600026E02A463146204601F007FE08B1012048
:10257000A1E620680069616A0870606A401C6062B8
:10258000208D401E2085608D401E6085206840693A
:10259000C0F3800060B120680069616A0870606AF9
:1025A000401C6062208D401E2085608D401E60852D
:1025B000208D00287FF419AF202084F83D000020F2
:1025C00084F83E0000BF84F83C0000BF73E60220A0
:1025D00071E60000020010000000FFFF040001008F
:1025E000180000202DE9FC5F04460F4690469946EE
:1025F000DDE90CAB0E9EFFF779FC054694F83D0033
:1026000020287DD1192301224D492046009501F053
:10261000D8FC10B10220BDE8FC9F00BF94F83C003C
:10262000012801D10220F6E7012084F83C0000BF18
:102630002068006800F0010028B92068006840F0B8
:102640000100216808602068006820F400602168AB
:102650000860212084F83D00402084F83E000020DE
:102660002064C4F824A0A4F82AB0608D20853548E1
:10267000E0624B46424639462046CDE9006501F00E
:10268000FDFB08B10120C6E731E02A46314620466D
:1026900001F0B8FD50B1206C042805D12068006815
:1026A00040F40070216808600120B4E7606A007897
:1026B00021680861606A401C6062208D401E208590
:1026C000608D401E608520684069C0F3800070B155
:1026D000208D60B1606A007821680861606A401CE2
:1026E0006062208D401E2085608D401E6085208D9B
:1026F0000028CAD12A463146204601F02FFC00E0CE
:102700001CE050B1206C042805D12068006840F41A
:1027100000702168086001207DE72068006840F4AF
:10272000007021680860202084F83D00002084F8B3
:102730003E0000BF84F83C0000BF6CE702206AE75F
:10274000020010000000FFFF10B504460949206890
:1027500088420ED10848C06920F400100649C861BB
:1027600089150648FFF792F94FF400710348FFF707
:102770008DF910BD0054004000100240000C0140D3
:1027800010B586B004460020029003900490059096
:102790001A49206888422FD100BF1948806940F04B
:1027A0000800174988610846806900F00800019018
:1027B00000BF00BF4FF4407002901220039003202E
:1027C000059002A90F48FFF7FBF900BF0E494868C2
:1027D00040F0E06040F00200486000BF00BF0848E1
:1027E000C06940F400100649C8610846C06900F499
:1027F0000010019000BF00BF06B010BD00540040A3
:1028000000100240000C0140000001400348006835
:102810000349097808440149086070470C0000200A
:102820001400002010B50848006840F01000064968
:102830000860032000F0CCF80F2000F007F800F04B
:102840002DF8002010BD00000020024070B50446A5
:102850000E4800784FF47A71B1FBF0F00C4909682A
:10286000B1FBF0F5284600F02BFE08B1012070BD49
:10287000102C07D200222146501E00F06BF80548AC
:10288000046001E00120F2E70020F0E714000020DE
:1028900018000020100000207047000008B500BF9D
:1028A0001148806940F001000F498861084680693D
:1028B00000F00100009000BF00BF00BF0846C069E3
:1028C00040F08050C8610846C06900F08050009018
:1028D00000BF00BF00BF0549486820F0E06040F03D
:1028E0000070486000BF08BD0010024000000140B9
:1028F00010B501460846002817DB00F01F0301222F
:102900009A400B4B440943F8242000BF00BF00BF8E
:10291000BFF34F8F00BF00BF00BF00BF00BF00BFAD
:10292000BFF36F8F00BF00BF00BF00BF10BD00002E
:1029300080E100E001460846002809DB00F01F03A3
:1029400001229A4043099B0003F1E023C3F80021D0
:1029500000BF70472DE9F05F80460D461646002700
:1029600003F064FD074639462A46334601F0070066
:10297000C0F1070ABAF1040F02D94FF0040A01E0CE
:10298000C0F1070AD14600F1040ABAF1070F02D2DA
:102990004FF0000A01E0A0F1030AD4464FF0010A0B
:1029A0000AFA09FAAAF1010A0AEA020A0AFA0CFA70
:1029B0004FF0010B0BFA0CFBABF1010B0BEA030B15
:1029C0004AEA0B042146404603F038FDBDE8F09F7B
:1029D00000BF00F00702064B19684FF6FF031940CD
:1029E000044B0B4343EA0221014B196000BF7047BF
:1029F0000CED00E00000FA05F8B5044600260025BD
:102A0000207800F0010000286BD000274348C069FF
:102A100000F0805070B900BF4048C06940F080505D
:102A20003E49C8610846C06900F08050009000BF70
:102A300000BF01273A48006800F48070B0B93848F8
:102A4000006840F4807036490860FFF74FFA064688
:102A500006E0FFF74BFA801B642801D90320F8BD7C
:102A60002F48006800F480700028F2D02B48006ADC
:102A700000F440752DB3A08800F44070A84220D027
:102A80002648006A20F4407501202649086000208D
:102A900008602248056205F0010090B1FFF726FAB0
:102AA000064608E0FFF722FA801B41F2883188428F
:102AB00001D90320D3E71948006A00F0020000287A
:102AC000F0D01648006A20F440706168084313494A
:102AD0000862012F04D10846C06920F08050C86107
:102AE00000BF207800F00200022807D10B484068A0
:102AF00020F44040A168084308494860207800F06D
:102B00001000102807D10548406820F48000E168D3
:102B10000843024948600020A1E70000001002407D
:102B2000007000404004424270B504460D460CB9A6
:102B3000012070BD5A48006800F00700A8420ED27C
:102B40005748006820F007002843554908600846A8
:102B5000006800F00700A84201D00120E9E72078D2
:102B600000F0020002281DD1207800F004000428A3
:102B700005D14C48406840F4E0604A4948602078FC
:102B800000F00800082805D14648406840F460502D
:102B9000444948604348406820F0F000A168084379
:102BA00040494860207800F0010078B3606801284F
:102BB00006D13C48006800F4003090B90120B8E725
:102BC0006068022806D13748006800F0007040B9FC
:102BD0000120AEE73348006800F0020008B9012088
:102BE000A7E73048406820F00300616808432D499A
:102BF0004860FFF77BF9064609E0FFF777F9801B8D
:102C000041F28831884202D9032092E707E0254843
:102C1000406800F00C006168B0EB810FEDD12048F6
:102C2000006800F00700A8420ED91D48006820F097
:102C3000070028431A4908600846006800F00700AA
:102C4000A84201D0012074E7207800F00400042895
:102C500007D11448406820F4E060E1680843114956
:102C60004860207800F00800082808D10D48406826
:102C700020F46050216940EAC1000A49486000F030
:102C8000C7F808494968C1F30311074A515CC840B5
:102C90000649086006480068FFF7D8FD002048E7AD
:102CA00000200240001002403A770008180000207F
:102CB0001000002010B5FFF719F904463D480068E0
:102CC00040F001003B49086006E0FFF70FF9001BE8
:102CD000022801D9032010BD3648006800F0020028
:102CE0000028F2D03348006820F0F80040F080005F
:102CF00030490860FFF7FAF8044600202D49486083
:102D000008E0FFF7F3F8001B41F28831884201D94F
:102D10000320E0E72748406800F00C000028F0D1CD
:102D200025482649086026480068FFF78FFD08B14E
:102D30000120D0E7FFF7DAF804461E48006820F0CB
:102D400080701C49086006E0FFF7D0F8001B0228DD
:102D500001D90320BFE71748006800F00070002881
:102D6000F2D114494860FFF7C1F8044611480068E1
:102D700020F410200F49086006E0FFF7B7F8001BA9
:102D8000642801D90320A6E70A48006800F400304F
:102D90000028F2D10748006820F480200549086027
:102DA0000846406A40F0807048620020886000BF9A
:102DB00091E700000010024000127A001800002085
:102DC0001000002001480068704700001800002033
:102DD00000B5FFF7F7FF04494968C1F30221034A30
:102DE000515CC84000BD0000001002404A77000856
:102DF00000B5FFF7E7FF04494968C1F3C221034A60
:102E0000515CC84000BD0000001002404A77000835
:102E100070B500210022002400230020134D6968B2
:102E200001F00C05F5B1042D02D0082D19D101E0F7
:102E30000F4819E00F4DC1F38346AB5D01F48035B7
:102E400055B10A4D6D68C5F340450B4E725D084D96
:102E50005D43B5FBF2F402E0084D03FB05F42046A8
:102E600002E000BF064800BF00BF70BD0010024076
:102E70000024F400287700083877000800093D0096
:102E800000127A0070B586B005460C461646002042
:102E90000290039004900590022003900320059077
:102EA000002004904FF48070029000BF0C488069AD
:102EB00040F004000A4988610846806900F0040077
:102EC000019000BF00BF02A90648FEF779FE044842
:102ED000406820F0E06020430149486006B070BDC2
:102EE0000010024000080140F8B504460CB901206A
:102EF000F8BD207800F00100002878D0F84840683C
:102F000000F00C0004280CD0F548406800F00C00DC
:102F1000082811D1F248406800F48030B0F5803FB5
:102F20000AD1EF48006800F4003000285FD06068E4
:102F300000285CD10120DBE700BF6068B0F5803F6E
:102F400006D1E748006840F48030E549086028E091
:102F5000606858B9E248006820F48030E0490860B1
:102F60000846006820F4802008601AE06068B0F528
:102F7000A02F0BD1DA48006840F48020D8490860BF
:102F80000846006840F4803008600AE0D4480068D1
:102F900020F48030D24908600846006820F4802080
:102FA000086000BF606888B1FEF7A0FF054606E034
:102FB000FEF79CFF401B642801D9032098E7C8480E
:102FC000006800F400300028F2D010E0FEF78EFF19
:102FD000054606E0FEF78AFF401B642801D903205E
:102FE00086E7BF48006800F400300028F2D120785E
:102FF00000F00200022857D1B948406800F00C00E8
:1030000050B1B748406800F00C00082818D1B44807
:10301000406800F4803098B9B148006800F00200C0
:1030200020B12069012801D0012061E7AC48006887
:1030300020F0F800616940EAC100A949086033E066
:103040002069E8B10120A7490860FEF74FFF054657
:1030500006E0FEF74BFF401B022801D9032047E79B
:103060009F48006800F002000028F2D09C480068E9
:1030700020F0F800616940EAC1009949086013E056
:10308000002098490860FEF731FF054606E0FEF78C
:103090002DFF401B022801D9032029E79048006832
:1030A00000F002000028F2D1207800F00800082883
:1030B0002DD1A069B8B101208B490860FEF716FF39
:1030C000054606E0FEF712FF401B022801D9032047
:1030D0000EE78348406A00F002000028F2D0012089
:1030E00001F0B4FF13E000207F490860FEF7FEFE08
:1030F000054606E0FEF7FAFE401B022801D9032030
:10310000F6E67748406A00F002000028F2D1207805
:1031100000F00400042873D100277148C06900F052
:10312000805070B900BF6E48C06940F080506C4953
:10313000C8610846C06900F08050009000BF00BF21
:1031400001276A48006800F48070B0B967480068D9
:1031500040F4807065490860FEF7C8FE054606E049
:10316000FEF7C4FE401B642801D90320C0E65F4877
:10317000006800F480700028F2D000BFE0680128E9
:1031800006D15748006A40F001005549086227E01F
:10319000E06858B95248006A20F0010050490862BE
:1031A0000846006A20F00400086219E0E06805287B
:1031B0000BD14B48006A40F00400494908620846B8
:1031C000006A40F0010008620AE04548006A20F009
:1031D0000100434908620846006A20F004000862C2
:1031E00000BFE068A0B1FEF781FE054609E0FEF7EA
:1031F0007DFE401B41F28831884202D9032077E6E8
:1032000022E03748006A00F002000028EFD012E008
:10321000FEF76CFE054608E0FEF768FE401B41F233
:103220008831884201D9032062E62D48006A00F007
:1032300002000028F0D1012F05D12948C06920F0F3
:1032400080502749C86100BFE069C8B3244840687E
:1032500000F00C00082860D0E069022848D1002066
:1032600020490866FEF742FE054606E0FEF73EFEF0
:10327000401B022801D903203AE61948006800F0F3
:1032800000700028F2D1206AB0F5803F07D11448C1
:10329000406820F40030A168084311494860D4E92F
:1032A000080108430E49496821F4741108430C4988
:1032B000486001200B490866FEF718FE054607E046
:1032C0003DE0FEF713FE401B022801D903200FE664
:1032D0000348006800F000700028F2D02FE00000E2
:1032E0000010024000004242800442420070004050
:1032F000002014490866FEF7F9FD054606E0FEF7D2
:10330000F5FD401B022801D90320F1E50E480068B5
:1033100000F000700028F2D111E0E069012800D12E
:10332000E6E50948466806F48031206A814204D106
:1033300006F47011606A814201D00120D8E50020B6
:10334000D6E50000000042420010024010B50446DD
:103350000CB9012010BD606A38B96068B0F5827F91
:1033600000D105E00021E16102E0002121616161FD
:103370000021A16294F8510028B9002084F850007F
:10338000204600F05BF8022084F8510020680068B5
:1033900020F0400021680860A08800F48270218934
:1033A00001F404410843A18901F400610843217C30
:1033B00001F002010843217D01F001010843218B46
:1033C00001F400710843217F01F0380108432021F6
:1033D000095D01F080010843218D01F4005108438B
:1033E000216808600421A06901EA10402168486052
:1033F0002068C06920F400602168C8610020606511
:10340000012084F851000020A4E7000010B5044614
:1034100007492068884209D10648806920F4805015
:1034200004498861F0210448FEF730FB10BD00001C
:1034300000300140001002400008014010B586B085
:1034400004460020029003900490059019492068DA
:1034500088422DD100BF1848806940F48050164939
:1034600088610846806900F48050019000BF00BF69
:1034700000BF0846806940F0040088610846806902
:1034800000F00400019000BF00BFB02002900220B5
:1034900003900320059002A90848FEF791FB402005
:1034A000029000200390049002A90448FEF788FBD4
:1034B00006B010BD0030014000100240000801407D
:1034C00070B504462546681EB0F1807F01D3012007
:1034D0000FE0681E4FF0E02148610F214FF0FF30F0
:1034E00002F0ACFF00204FF0E02188610720086166
:1034F000002070BD30B502460B4600BF92F83C007C
:10350000012801D1022030BD012082F83C0000BF1B
:10351000022082F83D00106844681068816824F039
:1035200070041868044310684460104D1068A84285
:103530000BD01068B0F1804F07D00D4D1068A84235
:1035400003D00C4D1068A84205D121F080015868C5
:10355000014310688160012082F83D0000BF002017
:1035600082F83C0000BF00BFCDE70000002C014006
:10357000000400400008004010B504460CB90120CA
:1035800010BD94F83D0028B9002084F83C00204686
:1035900000F026F8022084F83D00211D206802F08A
:1035A00013F9012084F8460000BF84F83E00012191
:1035B0003F200155402001554120015500BF00BF6B
:1035C000012084F842004320015544200155452044
:1035D000015500BF012084F83D000020D0E7000025
:1035E00008B5124A016891420DD100BF1049C9695E
:1035F00041F002010E4AD1611146C96901F0020190
:10360000009100BF11E00B4A016891420DD100BF4B
:103610000749C96941F00401054AD1611146C969E8
:1036200001F00401009100BF00BF08BD000400408C
:1036300000100240000800402DE9F04104460D460C
:10364000002700BF94F83C00012802D10220BDE809
:10365000F081012084F83C0000BF022084F83D0086
:103660002068866826F0770626F47F462068866004
:103670002868502833D00CDC202850D004DC0028E7
:103680004BD0102851D149E0302849D040284CD1A6
:1036900039E060282DD0702807D0B0F5805F03D0C6
:1036A000B0F5005F41D10DE041E0D5E902136A6851
:1036B000206802F0D4F82068866846F07706206813
:1036C000866034E0D5E902136A68206802F0C7F822
:1036D0002068806840F480402168886027E0EA68BC
:1036E0006968206802F08CF95021206802F0C2F865
:1036F0001DE0EA686968206802F095F96021206899
:1037000002F0B8F813E0EA686968206802F078F916
:103710004021206802F0AEF809E000BF00BF00BF02
:103720002968206802F0A6F801E0012700BF00BF69
:10373000012084F83D0000BF002084F83C0000BF59
:10374000384684E710B586B0044600200290039006
:103750000490059021492068884221D100BF20486B
:10376000806940F008001E4988610846806900F0C1
:103770000800019000BF00BF1020029002200390BB
:10378000059002A91748FEF71BFA00BF16494868C2
:1037900020F4406040F0E06040F4006048601AE0CF
:1037A00012492068884216D100BF0D48806940F058
:1037B00008000B4988610846806900F00800019004
:1037C00000BF00BFC020029002200390059002A914
:1037D0000448FEF7F5F906B010BD000000040040F3
:1037E00000100240000C01400000014000080040B1
:1037F0002DE9F04104460D461646002700BF94F817
:103800003C00012802D10220BDE8F081012084F8AB
:103810003C0000BF36B1042E1BD0082E31D00C2E38
:103820005ED145E02946206802F02EF820688069C4
:1038300040F00800216888612068806920F0040059
:103840002168886120688069296908432168886146
:1038500048E02946206802F047F82068806940F473
:103860000060216888612068806920F48060216898
:10387000886120688069296940EA0120216888619F
:1038800030E02946206802F063F82068C06940F003
:1038900008002168C8612068C06920F00400216820
:1038A000C8612068C069296908432168C86119E0B6
:1038B0002946206802F080F82068C06940F4006062
:1038C0002168C8612068C06920F480602168C861EF
:1038D0002068C069296940EA01202168C86101E0C7
:1038E000012700BF00BF00BF002084F83C0000BFDC
:1038F000384689E710B504460CB9012010BD94F88C
:103900003D0028B9002084F83C00204600F025F84E
:10391000022084F83D00211D206801F055FF0120A0
:1039200084F8460000BF84F83E0001213F20015585
:10393000402001554120015500BF00BF012084F8FF
:10394000420043200155442001554520015500BF48
:10395000012084F83D000020D0E7704770B5044690
:103960000D4615B994F83E000BE0042D02D13F201E
:10397000005D06E0082D02D14020005D01E04120FD
:10398000005D012801D0012070BD1DB9022084F81E
:103990003E000EE0042D03D102213F20015508E036
:1039A000082D03D102214020015502E002214120CF
:1039B000015501222946206801F040FF194920687D
:1039C000884201D1012000E0002028B12068406C2D
:1039D00040F40040216848641249206888420BD0B6
:1039E0002068B0F1804F07D00F492068884203D08B
:1039F0000E49206888420CD12068806800F00706D4
:103A0000062E0CD02068006840F001002168086094
:103A100005E02068006840F001002168086000208F
:103A2000B2E70000002C0140000400400008004004
:103A30007047704710B504460CB9012010BDA0694D
:103A400000B100E000BF94F8410028B9002084F8DC
:103A50004000204600F062F8242084F841002068ED
:103A6000C06820F400502168C860204602F0E0FAE7
:103A70002068006920F4904021680861206840694E
:103A800020F02A00216848612068C06840F4005096
:103A90002168C86000206064202084F8410084F818
:103AA00042000020606300BFC8E7000010B5044674
:103AB00015492068884211D11448806920F480405B
:103AC000124988614FF4C0611148FDF7DFFFE06BD8
:103AD000FDF732FE2520FEF70BFF14E00D492068AC
:103AE000884210D10948C06920F480200749C86184
:103AF0004FF440610848FDF7C9FFE06BFDF71CFE7D
:103B00002720FEF7F5FE10BD0038014000100240EE
:103B10000008014000480040000C014010B586B08C
:103B200004460020029003900490059056492068B6
:103B3000884252D100BF5548806940F480405349C3
:103B400088610846806900F48040019000BF00BF92
:103B500000BF0846806940F004008861084680691B
:103B600000F00400019000BF00BF48150290022041
:103B700003900320059002A94548FEF721F84FF471
:103B80008060029000200390049002A94048FEF754
:103B900017F84048404908600020486000213E482E
:103BA00081608021C160002101614161202181612A
:103BB0000021C161FDF7C2FE08B1FDF789F900BF20
:103BC0003548E063446200BF002211462520FEF71D
:103BD000C1FE2520FEF7AEFE54E030492068884241
:103BE00050D100BF2948C06940F480202749C861EE
:103BF0000846C06900F48020019000BF00BF00BFEC
:103C00000846806940F0080088610846806900F035
:103C10000800019000BF00BF081502900220039029
:103C20000320059002A91E48FDF7CAFF4FF400606B
:103C3000029000200390049002A91948FDF7C0FFEC
:103C400014482838174908600020486000211548AA
:103C500081608021C1600021016141618161C16198
:103C6000FDF76CFE08B1FDF733F900BF0D48E063C6
:103C7000446200BF002211462720FEF76BFE27207A
:103C8000FEF758FE06B010BD00380140001002409B
:103C90000008014058000240600200200048004037
:103CA000000C0140A402002070B504460D461646E3
:103CB00094F8420020280BD105B10EB9012070BD47
:103CC0000020206332462946204602F02FFAF6E70C
:103CD0000220F4E77047704700BFFEE7014608681E
:103CE0004069C0F38020B0B16FF480600A68506111
:103CF00000200863202081F83D00002081F83E006C
:103D0000086C40F00400086400BF002081F83C000B
:103D100000BF012070470020FCE700002DE9F843B8
:103D200004460F4615469946DDE908862068006876
:103D300040F48060216808602068006840F480706A
:103D400021680860434600224FF00111204600968A
:103D500000F037F960B12068006800F48070B0F5B9
:103D6000807F02D14FF4007020640320BDE8F88307
:103D700007F0FE0021680861334642463E4920466E
:103D800000F07EF908B10120F0E700BF00200090AC
:103D900020684069009020688069009000BF00BFE3
:103DA00032464146204600F02DFA50B1206C0428DE
:103DB00005D12068006840F4007021680860012087
:103DC000D4E7B9F1010F03D1E8B22168086117E027
:103DD000C5F307202168086132464146204600F0BD
:103DE00011FA50B1206C042805D12068006840F415
:103DF0000070216808600120B8E7E8B22168086116
:103E000032464146204600F0FDF950B1206C0428AE
:103E100005D12068006840F4007021680860012026
:103E2000A4E72068006840F4807021680860434679
:103E300000224FF001112046009600F0C2F858B160
:103E40002068006800F48070B0F5807F02D14FF4E4
:103E500000702064032089E7F8B240F00100216877
:103E60000861334642460449204600F009F908B18A
:103E700001207BE7002079E7020001002DE9F843EB
:103E80000446884615469946DDE9086720680068BB
:103E900040F4807021680860334600224FF0011121
:103EA0002046009700F08DF860B12068006800F4AB
:103EB0008070B0F5807F02D14FF400702064032041
:103EC000BDE8F88308F0FE00216808613B463246F1
:103ED0002149204600F0D4F808B10120F0E700BFE6
:103EE0000020009020684069009020688069009060
:103EF00000BF00BF3A463146204600F083F950B17A
:103F0000206C042805D12068006840F40070216806
:103F100008600120D4E7B9F1010F03D1E8B22168AC
:103F2000086117E0C5F30720216808613A46314669
:103F3000204600F067F950B1206C042805D12068B4
:103F4000006840F40070216808600120B8E7E8B21A
:103F5000216808610020B3E70200010070B5044643
:103F60000D46164625E02046FFF7B8FE08B10120B1
:103F700070BD681CE8B1FDF7B9FF801BA84200D8EE
:103F8000BDB920684069C0F3800090B9002020636B
:103F9000202084F83D00002084F83E00206C40F092
:103FA0002000206400BF002084F83C0000BF0120F6
:103FB000DEE720684069C0F380000028D3D00020ED
:103FC000D6E72DE9F04104460D4617461E46DDF8BA
:103FD000188038E0701CA8B3FDF788FFA0EB08003C
:103FE000B04200D876BBC5F3074001280AD120684B
:103FF0004069A9B20840A9B2884201D101200BE072
:10400000002009E020688069A9B20840A9B288426E
:1040100001D1012000E00020B84214D1002020632B
:10402000202084F83D00002084F83E00206C40F001
:104030002000206400BF002084F83C0000BF012065
:10404000BDE8F081FFE7C5F3074001280AD12068E9
:104050004069A9B20840A9B2884201D101200BE011
:10406000002009E020688069A9B20840A9B288420E
:1040700001D1012000E00020B842ABD00020DFE7F2
:104080002DE9F04104460D4616461F4658E02068CB
:104090004069C0F38020E8B12068006840F40070F7
:1040A000216808606FF48060216848610020206307
:1040B000202084F83D00002084F83E00206C40F071
:1040C0000400206400BF002084F83C0000BF0120F1
:1040D000BDE8F081701C90B3FDF708FFC01BB04233
:1040E00000D866BBC5F3074001280AD120684069A3
:1040F000A9B20840A9B2884201D101200BE00020FA
:1041000009E020688069A9B20840A9B2884201D1BB
:10411000012000E0002090B900202063202084F8D6
:104120003D00002084F83E00206C40F02000206418
:1041300000BF002084F83C0000BF0120C8E7FFE773
:10414000C5F3074001280AD120684069A9B2084098
:10415000A9B2884201D101200BE0002009E02068CB
:104160008069A9B20840A9B2884201D1012000E0CB
:10417000002000288BD00020AAE770B504460D4629
:10418000164637E020684069C0F30010A0B16FF018
:1041900010002168486100202063202084F83D0041
:1041A000002084F83E00206C206400BF002084F8CA
:1041B0003C0000BF012070BDFDF798FE801BA842A7
:1041C00000D8BDB920684069C0F3801090B90020C4
:1041D0002063202084F83D00002084F83E00206CFD
:1041E00040F02000206400BF002084F83C0000BFA5
:1041F0000120E0E720684069C0F380100028C1D0AA
:104200000020D8E770B504460D46164625E0204646
:10421000FFF764FD08B1012070BD681CE8B1FDF72F
:1042200065FE801BA84200D8BDB920684069C0F374
:10423000C01090B900202063202084F83D000020A9
:1042400084F83E00206C40F02000206400BF002075
:1042500084F83C0000BF0120DEE720684069C0F31D
:10426000C0100028D3D00020D6E770B505460E4612
:104270000024324629460E20FCF7EEFA0D240FE00A
:10428000284600F06BFA284600F082FA32462946AA
:104290002046FCF7E1FA284600F010F8601EC4B290
:1042A000002CEDDC284600F059FA284600F070FAA0
:1042B000324629460020FCF7CFFA70BD31B588B0F0
:1042C0000020079044E2DDE9071010F82100069075
:1042D000DDE9071000EB810040780590DDE907106B
:1042E00000EB810080780490DDE9071000EB81008D
:1042F000C0780390069803F00DFA0446069803F080
:1043000009FA029003F006FA4440069803F002FA14
:10431000019003F0FFF9029003F0FCF94440069885
:1043200003F0F8F9009003F0F5F9019003F0F2F9C9
:10433000029003F0EFF9059803F0ECF905460598B3
:10434000454003F0E7F9029003F0E4F9059803F023
:10435000E1F9019003F0DEF9029003F0DBF945404A
:10436000059803F0D7F9009003F0D4F9019003F019
:10437000D1F9029003F0CEF96C40049803F0CAF929
:104380000498054603F0C6F9029003F0C3F94540CE
:10439000049803F0BFF9019003F0BCF9029003F018
:1043A000B9F94540049803F0B5F9009003F0B2F96B
:1043B000019003F0AFF9029003F0ACF96C40039860
:1043C00003F0A8F90398054603F0A4F9029003F05E
:1043D000A1F9039803F09EF9019003F09BF9029074
:1043E00003F098F94540039803F094F9009003F026
:1043F00091F9019003F08EF9029003F08BF96C4073
:10440000DDE9071000F82140069803F083F90698CB
:10441000044603F07FF9029003F07CF9069803F05C
:1044200079F9019003F076F9029003F073F94440B2
:10443000069803F06FF9009003F06CF9019003F017
:1044400069F9029003F066F9059803F063F90546EF
:10445000059803F05FF9029003F05CF94540059878
:1044600003F058F9019003F055F9029003F052F966
:104470004540059803F04EF9009003F04BF9019088
:1044800003F048F9029003F045F96C40049803F0FA
:1044900041F905460498454003F03CF9029003F0C9
:1044A00039F9049803F036F9019003F033F90290DA
:1044B00003F030F94540049803F02CF9009003F024
:1044C00029F9019003F026F9029003F023F96C40DA
:1044D000039803F01FF90398054603F01BF90290B7
:1044E00003F018F94540039803F014F9019003F024
:1044F00011F9029003F00EF94540039803F00AF910
:10450000009003F007F9019003F004F9029003F022
:1045100001F96C40DDE9071000EB8100447006985A
:1045200003F0F8F80698044603F0F4F8029003F05C
:10453000F1F84440069803F0EDF8019003F0EAF832
:10454000029003F0E7F84440069803F0E3F8009087
:1045500003F0E0F8019003F0DDF8029003F0DAF8E0
:10456000059803F0D7F80598054603F0D3F80290B4
:1045700003F0D0F8059803F0CDF8019003F0CAF8E5
:10458000029003F0C7F84540059803F0C3F8009087
:1045900003F0C0F8019003F0BDF8029003F0BAF800
:1045A0006C40049803F0B6F80546049803F0B2F89E
:1045B000029003F0AFF84540049803F0ABF8019087
:1045C00003F0A8F8029003F0A5F84540049803F022
:1045D000A1F8009003F09EF8019003F09BF8029080
:1045E00003F098F86C40039803F094F8054603989C
:1045F000454003F08FF8029003F08CF8039803F025
:1046000089F8019003F086F8029003F083F84540A2
:10461000039803F07FF8009003F07CF8019003F01A
:1046200079F8029003F076F86C40DDE9071000EBB2
:1046300081008470069803F06DF8044606984440A3
:1046400003F068F8029003F065F8069803F062F84A
:10465000019003F05FF8029003F05CF84440069884
:1046600003F058F8009003F055F8019003F052F869
:10467000029003F04FF8059803F04CF805980546B2
:1046800003F048F8029003F045F84540059803F020
:1046900041F8019003F03EF8029003F03BF84540EA
:1046A000059803F037F8009003F034F8019003F018
:1046B00031F8029003F02EF86C40049803F02AF8C9
:1046C0000498054603F026F8029003F023F80498B6
:1046D00003F020F8019003F01DF8029003F01AF89F
:1046E0004540049803F016F8009003F013F8019089
:1046F00003F010F8029003F00DF86C40039803F0FB
:1047000009F80546039803F005F8029003F002F853
:104710004540039802F0FEFF019002F0FBFF02907B
:1047200002F0F8FF4540039802F0F4FF009002F019
:10473000F1FF019002F0EEFF029002F0EBFF6C40FF
:10474000DDE9071000EB8100C4700798401C07905A
:1047500007980428FFF6B7AD09B030BD417B437A16
:104760004373437943724378437141708178827A0D
:10477000827081728179837B83718173C178C27900
:10478000C270C37AC371C37BC372C1737047000028
:1047900010B5024600200FE0002109E002EB810382
:1047A0001B5C074CE35C02EB810423544B1CD9B225
:1047B0000429F3DB431CD8B20428EDDB10BD000054
:1047C000047A000878B502460C46002020E0002557
:1047D00005EB8005655D002606EB800695550125F5
:1047E00005EB8005655D012606EB800695550225E3
:1047F00005EB8005655D022606EB800695550325D1
:1048000005EB8005655D032606EB80069555401C8B
:104810000828DCD3082079E0451EA900555C8DF8F6
:1048200000504D1C555D8DF801508D1C555D8DF867
:104830000250CD1C555D8DF8035000F007056DBB8F
:104840009DF800509DF801608DF800609DF80260B1
:104850008DF801609DF803608DF802608DF80350BB
:104860009DF800502B4E755D8DF800509DF801505D
:10487000755D8DF801509DF80250755D8DF8025000
:104880009DF80350755D8DF803509DF80050224E41
:1048900006EBD006367875408DF8005000F007051D
:1048A000042D14D19DF800501A4E755D8DF80050FE
:1048B0009DF80150755D8DF801509DF80250755DB1
:1048C0008DF802509DF80350755D8DF803508300FC
:1048D000A0F10805A900555C9DF800607540D5540D
:1048E0004D1C555D9DF8016075405E1C95558D1CF5
:1048F000555D9DF8026075409E1C9555CD1C555D1B
:104900009DF803607540DE1C9555401C3C2883D300
:1049100078BD000004790008047B000870477047E8
:104920000B490968FA2903D10021094A11600EE0F8
:1049300001280CD107490978491CC9B2054A1170F0
:10494000052904DB00211170FA21014A116070472A
:10495000340400400000002030B5A7B00446002514
:104960000C4A07CA24AB07C3684602F063FD0C2259
:1049700024A9684602F09EFE1CA9684602F0BCFC11
:1049800020221CA92046FBF7B3FC00B901252846CC
:1049900027B030BDE8F7FF1F30B585B004460D469F
:1049A00000232A462146684600F008F8112269468D
:1049B0000120FCF797F805B030BD00002DE9F04369
:1049C000C7B005460C4616461F46082C01DA20469D
:1049D00000E00020044606F00F063FB12B4800EB34
:1049E0000411102203A8FBF7FEFC06E0284800EBA8
:1049F0000411102203A8FBF7F6FC04EB4400254940
:104A000001EB80000168009141680191806802908B
:104A100086B14FF000090BE0102103A802F06CFEF4
:104A20000C21684602F068FE09F1010000F0FF0960
:104A3000B145F1DB46EA041000F0FF08694603A81F
:104A400001F010FD14A00088288014480168C5F802
:104A500002104168C5F806108068C5F80A0085F89C
:104A600010800F4A0F4907A8FBF7E7FE10222946DE
:104A700007A8FBF7C4FE20210A48FBF7F9FC102128
:104A80000748FBF7F5FC47B0BDE8F083D277000894
:104A9000527700085278000854520000E8F7FF1FD0
:104AA00080060020600600200EB5002000900190D6
:104AB0000290124812490860002111488160017378
:104AC00001754FF46021C16100200D49486001214A
:104AD0000B480161FCF7B0FA08B1FCF7F9F90020C6
:104AE0000090012001900020029069460448FCF7E4
:104AF000F3F908B1FCF7ECF90EBD00000024014009
:104B00003C00002010B50F480F49086004204860A1
:104B100000210D488160C1604FF4602101614FF4B4
:104B20008011416100210176417681760121C176B3
:104B3000002101774177FCF799FC08B1FCF7C8F92F
:104B400010BD0000006400406C00002010B5054856
:104B5000054908600846FCF7B7FD08B1FCF7B8F94D
:104B600010BD0000003002400400002008B500BF66
:104B70000E48406940F001000C4948610846406910
:104B800000F00100009000BF00BF002211460D2080
:104B9000FDF7E0FE0D20FDF7CDFE002211460F20AF
:104BA000FDF7D8FE0F20FDF7C5FE08BD001002403E
:104BB00000B585B00020019002900390049000BFE2
:104BC0004B48806940F01000494988610846806977
:104BD00000F01000009000BF00BF00BF08468069D1
:104BE00040F0200088610846806900F020000090B5
:104BF00000BF00BF00BF0846806940F00400886124
:104C00000846806900F00400009000BF00BF00BFAC
:104C10000846806940F0080088610846806900F015
:104C20000800009000BF00BF00224FF4404131480F
:104C3000FDF756F900224CF22A012F48FDF750F9F2
:104C400000224FF400412D48FDF74AF94FF400507F
:104C5000019000200290039001A92648FCF7B0FFC4
:104C60004FF4404001900120029000200390022068
:104C7000049001A91F48FCF7A3FF012001902048E0
:104C800002900020039001A91B48FCF799FF4CF209
:104C90002A0001900120029000200390022004903D
:104CA00001A91548FCF78CFF4FF4405001900020FB
:104CB0000290039001A91048FCF782FF4FF4807026
:104CC000019002200290049001A90C48FCF778FFA3
:104CD0004FF4004001900120029000200390022038
:104CE000049001A90548FCF76BFF05B000BD00006A
:104CF0000010024000100140000C0140000801407B
:104D00000000111010B50B480B4908600B484860B3
:104D1000002109488160C1604FF480410161002198
:104D200041618161C1610162FDF7E6F808B1FCF7FC
:104D3000CFF810BD0054004094000020A086010070
:104D400010B50E480E4908604FF48270486000218B
:104D50000B488160C160016141614FF48021816134
:104D60001021C16100210162416281620A21C16298
:104D7000FEF7ECFA08B1FCF7ABF810BD00300140CB
:104D8000E800002000B58DB0002009900A900B903B
:104D90000C90079008901C216846FBF78BFB20487D
:104DA000204908604720486000211E4881604FF478
:104DB000FA71C160002101618161FEF7DDFB08B17C
:104DC000FCF786F84FF48050099009A91548FEF7C2
:104DD00033FC08B1FCF77CF81248FEF78BFD08B1F4
:104DE000FCF776F800200790089007A90D48FEF719
:104DF00081FB08B1FCF76CF8602000900020019066
:104E000002900490002269460648FEF7F1FC08B1C2
:104E1000FCF75EF80348FEF795FC0DB000BD0000FE
:104E2000000400404001002000B58DB00020099032
:104E30000A900B900C90079008901C216846FBF795
:104E400039FB24482449086000204860002122489A
:104E500081604FF6FF71C160002101618161FEF741
:104E60008BFB08B1FCF734F84FF48050099009A986
:104E70001948FEF7E1FB08B1FCF72AF81648FEF7DF
:104E800039FD08B1FCF724F800200790089007A925
:104E90001148FEF72FFB08B1FCF71AF860200090CC
:104EA0000020019002900490002269460A48FEF713
:104EB0009FFC08B1FCF70CF8042269460648FEF78F
:104EC00097FC08B1FCF704F80348FEF73BFC0DB073
:104ED00000BD0000000800408801002010B50F4808
:104EE0000F4908604FF4E130486000210C488160B0
:104EF000C16001610C21416100218161C161FEF746
:104F000099FD08B1FBF7E4FF04480C30006840F05D
:104F1000100002490C31086010BD0000003801404B
:104F2000D001002010B50F480F4908604FF416500B
:104F3000486000210C488160C16001610C21416121
:104F400000218161C161FEF775FD08B1FBF7C0FF6B
:104F500004480C30006840F0100002490C31086031
:104F600010BD0000004800401802002000BFFEE70E
:104F70002DE9F0410546002460E015F8248015F87D
:104F8000240005EB84014978484005EB84018978C9
:104F9000484005EB8401C97880EA010615F8240031
:104FA00005EB8401497880EA0107384602F0B2FB3C
:104FB000074615F8240087EA0601484005F8240052
:104FC00005EB8400407805EB8401897880EA0107CD
:104FD000384602F09FFB074605EB8400407887EADD
:104FE0000601484005EB8401487005EB8400807899
:104FF00005EB8401C97880EA0107384602F08AFB94
:10500000074605EB8400807887EA0601484005EBF7
:105010008401887005EB8400C07880EA0807384670
:1050200002F078FB074605EB8400C07887EA0601AA
:10503000484005EB8401C870601CC4B2042C9CDBA2
:10504000BDE8F08100BFFEE77047000008B50849E1
:105050000968C9084FF47A72B1FBF2F1414300913B
:1050600000BF00BF00994A1E00920029F9D108BD77
:10507000180000207047000070B500F0E9FC0546FC
:1050800074E000F0F7FC04463B48007838B9242C63
:1050900001D1012000E000203749087065E0364862
:1050A0000078012807D14D2C01D1022000E000201A
:1050B0003149087059E030480078022807D13E2C69
:1050C00001D1032000E000202B4908704DE02A4860
:1050D0000078032810D1FE2C03DD0020264908703B
:1050E00044E0042024490870084684700020487178
:1050F00008710846C47038E01F480078042808D1B9
:1051000005201D49087008464470C0786040C8708A
:105110002BE019480078052813D117484079164923
:10512000897888420DDA1448C07860401249C87006
:10513000084641794079401C0F4A5071901D4454F3
:1051400013E00D48007805280FD10B4840790A4933
:105150008978884209DB0020074908700846C07832
:10516000A04201D100F00AF8002500BF281EA5F1D9
:1051700001018DB285D170BDE8020020F0B5C1B04B
:105180007A4840787A4908707A48007840B1FCF74C
:10519000ADFE79490968884202D900207549087036
:1051A00072484078032861D005DC48B101280BD053
:1051B000022875D13CE06E2874D06F28F9D18EE0BA
:1051C000002000F00DF9CCE06CA101A8FBF7BCF8C1
:1051D0006CA101A8FBF7FBF86BA101A8FBF7F7F89E
:1051E00068A101A8FBF7F3F868A101A8FBF7EFF8A5
:1051F00064A101A8FBF7EBF865A101A8FBF7E7F8AC
:1052000060A101A8FBF7E3F86CA101A8FBF7DFF8A8
:105210006CA101A8FBF7DBF801A8FBF7B9F8401C6B
:10522000C4B2204600F0DCF801A800F061F998E073
:10523000FAF7B0FF0446C01704EB10600012A4EBAD
:105240000020C5B22E1105F00F0701233A46314662
:105250003CA8FFF7B3FB112000F0C2F811213CA8D5
:1052600000F014F90020434908707AE0202139A8A1
:1052700000F0F2F839A8FFF76FFB3E4908700846C6
:10528000007828B1FCF732FE4F4908443A490860DB
:10529000012000F0A5F83748007800F005F960E03B
:1052A0005AE0FFE73348007888B1FAF773FF044605
:1052B000C01704EB10600012A4EB0020C5B22E1141
:1052C00005F00F0739463046FFF766FB00BF0120A7
:1052D00000F086F82748007800F0E6F841E0012069
:1052E00000F07EF82348007800F0DEF821480078CE
:1052F00088B301F0D9F83548006840F0010033491F
:10530000086008464068324908403049486008460D
:105310000068304908402D4908600846006820F4BC
:10532000802008600846406820F4FE0048604FF482
:105330001F008860C80304684068274908604FF070
:10534000006026490860204680F3088800BF224894
:105350000068804700BF04E00021012000F048F809
:1053600000BF00BF00F0B4F841B0F0BDE80200207B
:105370001C0000201F000020200000204857203182
:105380002E3000005F00000045534C00424D570096
:105390004D696E6920436F6F7065722C2045363001
:1053A0002C204538342C204538372C204539302CDA
:1053B00020332D3520536572696500004657203132
:1053C0002E3062000000000020BF020000100240EA
:1053D0000000FFF8FFFFF6FE2400002008ED00E0CB
:1053E00010B504462146002000F002F810BD000070
:1053F00070B505460C460020164988700846447072
:10540000242000F0C7FB00F00200022802D1C820CF
:10541000FCF728FB4D2000F0BDFB00F00200022845
:1054200002D1C820FCF71EFB0DB1212100E03E2176
:10543000084600F0AFFB00F00200022802D1C820AD
:10544000FCF710FB204600F02FF80249087800F026
:105450002BF870BD1C00002010B503460C4603E07D
:1054600000F008F803F8010B201EA4F10101CCB2F2
:10547000F6D110BD044801790079401C024A107130
:10548000901D405C70470000E802002070B50446A3
:105490000D4603E014F8010B00F006F8281EA5F1F4
:1054A0000101CDB2F6D170BD10B50446204600F022
:1054B00071FB00F00200022802D1C820FCF7D2FAEA
:1054C0000248807860400149887010BD1C000020AF
:1054D00010B50649887800F05DFB00F00200022854
:1054E00002D1C820FCF7BEFA10BD00001C0000204D
:1054F00010B5044600BF14F8010BFFF7D5FF207864
:105500000028F8D1FFF7D0FF10BD417842794270F2
:10551000437A4371437B437241738178827A82700C
:1055200081728179837B83718173C178C27BC27000
:10553000C37AC373C379C372C171704770B504462F
:10554000FCF7D4FC0546E068A84228D8A0682844A7
:10555000E060207C032811D0042804D0052803D063
:1055600006281BD101E000BF00BF204600F0A2F8D2
:10557000606910B1607C616988470FE0A07960B113
:10558000204600F097F8607C38B9A079401EC0B280
:10559000A07110B9204600F033F800BF00BF70BD05
:1055A0002DE9F04105460E461746984612480088F8
:1055B000062802DB0020BDE8F0811820FAF724FE5F
:1055C00004460CB90020F6E72560A680A7740020E9
:1055D000607402202074C4F8148007480188008891
:1055E000401C054A1080054840F82140204600F044
:1055F00007F80120DFE7000028000020EC0300206E
:1056000010B50446A37C0BB1012300E000231A4629
:10561000A1882068FCF764FC0020607410BD10B500
:105620000446A37C0BB9012300E000231A46A1889D
:105630002068FCF755FC0120607410BD70B504466D
:105640000D461A48008884422EDA062D00DD062514
:10565000174850F824000574072D24D2DFE805F020
:1056600023171D23040B11004FF4FA70104951F851
:105670002410886017E0FA200D4951F82410886042
:1056800011E064200A4951F8241088600BE00849B1
:1056900051F82400FFF7C3FF05E0054951F8240045
:1056A000FFF7AEFF00BF00BF70BD00002800002064
:1056B000EC03002010B50446607C18B12046FFF7CB
:1056C0009FFF02E02046FFF7AAFF10BD10B500249F
:1056D00006E0064951F82400FFF730FF601CC4B211
:1056E000034800888442F4DB10BD0000EC03002076
:1056F0002800002010B5024600200FE0002109E03C
:1057000002EB81031B5C074CE35C02EB8104235436
:105710004B1CD9B20429F3DB431CD8B20428EDDBBF
:1057200010BD00000479000810B5FDF76FF8FFF711
:10573000CDFF10BD00B593B0282109A8FAF7BAFE35
:10574000142104A8FAF7B6FE002000900190029000
:1057500003900120099000040A9040000B90012062
:105760000D9002201090C10311914FF4E01112919D
:1057700009A8FDF7B9FB08B1FBF7AAFB0F200490BD
:1057800002200590002006904FF4806007900020D2
:105790000890022104A8FDF7C7F908B1FBF798FBB0
:1057A00002200090800302906846FDF725F908B1B9
:1057B000FBF78EFB00224FF0C0611046FDF762FB45
:1057C00013B000BD7047000010B50268184B984236
:1057D00008D0B0F1804F05D0164B984202D0164B3E
:1057E000984203D122F070024B681A43104B984242
:1057F00008D0B0F1804F05D00E4B984202D00E4B2E
:10580000984203D122F44072CB681A4322F08003FD
:105810004C6943EA040202608B68C3620B688362CE
:10582000034B984201D10B6903630123436110BD0F
:10583000002C0140000400400008004030B501F099
:105840001F05012404FA05F3046A9C430462046AF8
:1058500001F01F0502FA05F52C43046230BD30B596
:105860000C46816821F47F4142EA03252543294300
:10587000816030BD0A46816821F0700142F0070363
:10588000194381607047000030B5026A056A25F04F
:10589000010505624368846924F0700424F0030460
:1058A0000D682C4322F002028D682A430D4DA84258
:1058B00006D100BF22F00802CD682A4322F004027C
:1058C000084DA84207D123F4807323F400734D6977
:1058D0002B438D692B43436084614D6845630262AD
:1058E00030BD0000002C014030B5026A056A25F089
:1058F000100505624368846924F4E04424F440748C
:105900000D6844EA052422F020028D6842EA05125F
:105910000E4DA84207D100BF22F08002CD6842EAB6
:10592000051222F04002094DA84209D123F48063F8
:1059300023F400634D6943EA85038D6943EA8503D7
:10594000436084614D688563026230BD002C014074
:1059500030B5026A056A25F4807505624368C4693A
:1059600024F0700424F003040D682C4322F4007228
:105970008D6842EA05220F4DA84207D100BF22F4EC
:105980000062CD6842EA052222F48062094DA842F5
:1059900009D123F4805323F400534D6943EA0513DE
:1059A0008D6943EA05134360C4614D68C5630262B3
:1059B00030BD0000002C014030B5036A056A25F4B3
:1059C000805505624468C26922F4E04222F44072C4
:1059D0000D6842EA052223F400538D6843EA05333B
:1059E000064DA84204D124F480444D6944EA85144C
:1059F0004460C2614D680564036230BD002C014003
:105A000030B50B461446026A056A25F001050562A9
:105A1000816921F0F00141EA041122F00A021A43DF
:105A20008161026230BD30B50B461446026A056AD8
:105A300025F010050562816921F4704141EA0431C5
:105A400022F0A00242EA03128161026230BD00002E
:105A50000148B0F87C0070476004002010B53C227B
:105A600002490348FEF720F910BD0000040400209D
:105A7000D001002010B500242520FCF739FF1D4877
:105A8000B0F87C00782807D11A4890F87E0020F002
:105A90000200184981F87E001648B0F87C00002802
:105AA00011DD1448B0F8780012490C5C0846B0F8D3
:105AB0007800401CA1F878000846B0F87C00401E31
:105AC000A1F87C0007E00B4890F87E0020F0010070
:105AD000084981F87E000748B0F87800782803D19B
