:020000040800F2
:1000000088100020C9010008A9510008393C0008E7
:10001000D15000088D0A00080566000800000000A5
:10002000000000000000000000000000D95100089E
:10003000A90B000800000000AD510008B5580008E9
:10004000E3010008E3010008E3010008E301000800
:10005000E3010008E3010008E3010008E3010008F0
:10006000E3010008E3010008E3010008E3010008E0
:10007000E3010008250B0008E3010008510B00080C
:10008000E3010008E3010008E3010008E3010008C0
:10009000F5650008E3010008E3010008E30100083A
:1000A000E3010008E3010008E3010008E3010008A0
:1000B000E3010008E3010008E3010008E301000890
:1000C000E3010008E3010008E3010008E301000880
:1000D000E3010008ED630008E3010008F164000893
:1000E000E3010008E3010008E301000800F002F862
:1000F00000F040F80AA090E8000C82448344AAF182
:100100000107DA4501D100F035F8AFF2090EBAE87F
:100110000F0013F0010F18BFFB1A43F0010318473B
:10012000007E0000207E0000103A24BF78C878C10D
:10013000FAD8520724BF30C830C144BF04680C60ED
:10014000704700000023002400250026103A28BF35
:1001500078C1FBD8520728BF30C148BF0B60704739
:100160001FB59DE8030000F0F9F900F0B8F81FBDD5
:1001700010B510BD00F04EFA1146FFF7F1FF06F082
:10018000F7FA00F06CFA03B4FFF7F2FF03BC00F0DB
:100190009DFA00000B49D1F800C04A685CF8043BA6
:1001A0001068184442F8040B8C4528BFA1F1DC0C00
:1001B0008A4228BFA1F1DC02C1F800C04A6020F0E9
:1001C00000407047200A002009488047094800473E
:1001D000FEE7FEE7FEE7FEE7FEE7FEE7FEE7FEE7F7
:1001E000FEE7FEE704480549054A064B7047000054
:1001F00051590008ED000008880A002088100020EE
:10020000880C0020880C002070B5064600F08AF9A2
:10021000056806F10B0020F00704B4429CBF0020E3
:1002200070BD2B466A68BAB11068A04210D304F1C1
:10023000080188423CBF5068586007D351681019C4
:1002400041601168091B016058601460101D70BD89
:1002500013465268002AE7D12146284600F06AF981
:100260000028DED170BD70B50446051F00F05AF9B4
:100270000068002C14BF446870BD002C18BFAC424D
:100280003CBF20466468F8D301680A18AA4218BF28
:10029000456003D12A680546114401602868411968
:1002A000A1421CBF6C6070BD616869602168084430
:1002B000286070BD0B4910B5A1F17C020A4CC2E95F
:1002C0003712372106E000EB104342F82130074B8C
:1002D00000FB03400B1EA1F10101F4DC10BD012065
:1002E000E8E70000C0090020E119D666CD0D010045
:1002F00040EA010310B59B070FD1042A0DD310C8A3
:1003000008C9121F9C42F8D020BA19BA884201D9F4
:10031000012010BD4FF0FF3010BD1AB1D30703D03C
:10032000521C07E0002010BD10F8013B11F8014BF2
:100330001B1B07D110F8013B11F8014B1B1B01D10E
:10034000921EF1D1184610BD10B5431C02E010F802
:10035000011B71B18107FAD14FF0013202C88C1A2A
:100360008C4314EAC211F9D0C01A0A0603D0C01E89
:1003700010BDC01A10BD0A0401D0801E10BD0902B4
:10038000FCD0401E10BD421E12F8013F002BFBD1D5
:1003900011F8013B002B02F8013BF9D17047032A09
:1003A00040F2308010F0030C00F0158011F8013B92
:1003B000BCF1020F624498BF11F801CB00F8013B79
:1003C00038BF11F8013BA2F1040298BF00F801CB3D
:1003D00038BF00F8013B11F0030300F02580083A14
:1003E000C0F0088051F8043B083A51F804CBA0E86B
:1003F0000810F5E7121D5CBF51F8043B40F8043BC0
:10040000AFF30080D20724BF11F8013B11F801CBF4
:1004100048BF11F8012B24BF00F8013B00F801CBC5
:1004200048BF00F8012B704710B5203AC0F00B8090
:10043000B1E81850203AA0E81850B1E81850A0E8E8
:100440001850BFF4F5AF5FEA027C24BFB1E8185042
:10045000A0E8185044BF18C918C0BDE810405FEAB2
:10046000827C24BF51F8043B40F8043B08BF70472E
:10047000D20728BF31F8023B48BF11F8012B28BF33
:1004800020F8023B48BF00F8012B70474FF00002F4
:100490000429C0F0128010F0030C00F01B80CCF196
:1004A000040CBCF1020F18BF00F8012BA8BF20F804
:1004B000022BA1EB0C0100F00DB85FEAC17C24BF58
:1004C00000F8012B00F8012B48BF00F8012B704702
:1004D0004FF0000200B5134694469646203922BFDD
:1004E000A0E80C50A0E80C50B1F12001BFF4F7AF28
:1004F000090728BFA0E80C5048BF0CC05DF804EB0A
:10050000890028BF40F8042B08BF704748BF20F877
:10051000022B11F0804F18BF00F8012B7047704775
:100520007047704700487047300A00207047704796
:100530007047704738B504460A4600206946AFF355
:100540000080002808BF38BD02460099204600F010
:100550003FF8012038BD012000F054B8F8B5AFF3E2
:100560000080054600200C46102000BF0646A81952
:10057000A0420DD9324669460020AFF30080070043
:1005800008BF00F03FF80098A04218BF0546C41904
:10059000FFF7C8FF05600746F01D20F00700461969
:1005A000284600F00AF8B44208BFF8BDA21B314645
:1005B0003868BDE8F84000F00BB800210160C0E9E0
:1005C000011070471020704700487047280A00202B
:1005D000034640688C46002818BF88423CBF03464B
:1005E0004068F8D318681844884207D00CF103001B
:1005F00020F00700001D411A521A0146081D0A602A
:10060000FFF731BE10B500F039F8BDE8104000F03A
:100610002FB870477546FFF7D7FFAE46050069460D
:10062000534620F00700854618B020B5FFF7DAFDE5
:10063000BDE820404FF000064FF000074FF00008E3
:100640004FF0000B21F00701AC46ACE8C009ACE864
:10065000C009ACE8C009ACE8C0098D46704710B5C8
:100660000446AFF300802046BDE81040FFF78BBD85
:10067000002801D000F02AB87047000010B501280A
:1006800005D0002103A000F027F8012010BD09A12A
:10069000F8E7000053494752544D454D3A204F75F5
:1006A00074206F662068656170206D656D6F72796A
:1006B000000000003A2048656170206D656D6F7222
:1006C0007920636F72727570746564000149182037
:1006D000ABBEFEE72600020070B505460C460A20B8
:1006E00000E06D1C00F011F835B128780028F8D131
:1006F00002E0641C00F009F814B120780028F8D159
:10070000BDE870400A20AFF3008008B569468DF857
:1007100000000320ABBE08BD70B50446002520686C
:10072000806800F0010018B32068806820F00100A4
:100730002168886001F08AFB054613E001F086FB22
:10074000401B02280ED92068806800F0010048B1E3
:10075000A06A40F01000A062E06A40F00100E06290
:10076000012070BD2068806800F001000028E5D1FC
:100770000020F6E72DE9FF4104460D461646002706
:1007800015E0102229466846FFF709FE2146284653
:1007900003F01BFD04F1F001284605F035FF10229F
:1007A000694604F1F000FFF7FAFD10351037B74243
:1007B000E7D3BDE8FF812DE9F04104460D4616461A
:1007C00004F1F00800270AE04146284605F01CFF26
:1007D0002146284600F07CF9A84610351037B7426C
:1007E000F2D31022414604F1F000FFF7D8FDBDE836
:1007F000F08170B504460E4615463146204603F09A
:1008000091FF1022294604F1F000FFF7C8FD70BDEA
:1008100070B504460B46002013E000210DE02501D1
:1008200005EB80050D44555D03EB8006765C754055
:1008300003EB800675544D1CE9B20429EFDB451C1F
:10084000E8B20428E9DB70BD10B50021014804F0CE
:10085000EDFD10BD3C0000202DE9F041C0B0054683
:100860007348007840B101F0F1FA72490968884292
:1008700002D900206E490870032D5FD005DC4DB110
:10088000012D0CD0022D73D13BE06E2D72D06F2D57
:10089000F9D18BE00021684804F042FDC3E067A174
:1008A0006846FFF770FD66A16846FFF76CFD65A11D
:1008B0006846FFF768FD62A16846FFF764FD654979
:1008C0006846FFF760FD5EA16846FFF75CFD62A128
:1008D0006846FFF758FD5AA16846FFF754FD5FA12F
:1008E0006846FFF750FD56A16846FFF74CFD5EA134
:1008F0006846FFF748FD6A4601214F4804F0A2FD13
:1009000091E0FFF747FC0446C01704EB10600012AB
:10091000A4EB0020C6B2371106F00F0801234246AF
:1009200039463BA803F0FAFF11233BAA02214248B3
:1009300004F067FD00203E49087074E0202238A9C9
:100940003D4804F047FD38A803F0B6FF3849087069
:100950000846007828B101F079FA4649084435493B
:100960000860334802780321334804F082FD5AE0DE
:1009700058E0FFE72E48007888B1FFF70BFC0446EB
:10098000C01704EB10600012A4EB0020C6B23711B0
:1009900006F00F084146384603F0AEFF00BF24487A
:1009A00002786E21244804F064FD3CE0204802787F
:1009B0006F21214804F05DFD1D48007888B305F0E3
:1009C0006FFE2D48006840F001002B490860084682
:1009D00040682A4908402849486008460068284974
:1009E0000840254908600846006820F48020086017
:1009F0000846406820F4FE0048604FF41F008860FD
:100A0000C803046840681F4908604FF000601E4931
:100A10000860204680F3088800BF1A4800688047B5
:100A200000BF00E000BF00BF40B0BDE8F0810000A3
:100A300000000020040000203C00002045534C0032
:100A4000200000004D657263656465732042656E29
:100A50007A000000C87E00084E4F0000485720561C
:100A6000312E30720000000046572056312E306281
:100A70000000000020BF0200001002400000FFF84C
:100A8000FFFFF6FE0800002008ED00E000BFFEE7D3
:100A900000B587B0FF200C4908700E21684606F0AB
:100AA000DDFC68B9094A07CA04AB07C30C220DF183
:100AB000020104A8FFF71CFC10B9012002490870CC
:100AC0000148007807B000BD2C000020E8F7FF1FA8
:100AD00070B505460E460024324629460020FFF731
:100AE00097FE01240FE0284604F0CAFE284604F0D1
:100AF00054FD284604F0EEFA324629462046FFF718
:100B000087FE601CC4B20E2CEDDB284604F0B8FE54
:100B1000284604F042FD324629460E20FFF778FEB3
:100B200070BD000010B50848006800F48070B0F592
:100B3000807F05D10448406840F4E0600249486085
:100B4000024800F0DDFD10BD00000240D803002087
:100B500010B50848006800F48030B0F5803F05D13A
:100B60000448406840F4E02002494860024800F030
:100B7000C7FD10BD000002409403002030B590F87E
:100B800040500124AC40C56B6C60046863604468ED
:100B9000102C04D10468A2600468E16003E00468DA
:100BA000A1600468E26030BD7047000010B50446E3
:100BB000092C01DD092000E0204604490870642367
:100BC0000A22A021024801F02FFA10BD38000020AF
:100BD000C80100202DE9FE4304460E4615464FF09D
:100BE000000960193A493B4A127851F8321088429C
:100BF00000D815B90120BDE8FE8301F027F9364978
:100C00000968A0EB0108B8F1050F03D2C8F105008F
:100C100000F0D8FE2F480078052845D2DFE800F024
:100C200003041122330000BFA0276420E2B2012395
:100C30003946CDE900650290284801F0D1FA814695
:100C40003EE004F48070A02141EAE0176420E2B2A3
:100C500001233946CDE900650290204801F0C0FA31
:100C600081462DE004F44070A02141EAE0176420A1
:100C7000E2B201233946CDE900650290174801F040
:100C8000AFFA81461CE004F4E060A02141EAE017DD
:100C90006420E2B201233946CDE9006502900F4895
:100CA00001F09EFA81460BE0642010232246A02129
:100CB000CDE900650290094801F092FA814600BF33
:100CC00000BF01F0C3F804490860484693E70000FC
:100CD0000C7B00083800002034000020C8010020F0
:100CE0002DE9FE4F04460E4617464FF0000BE01963
:100CF0004B494C4A127851F83210884200D817B943
:100D00000120BDE8FE8F85E001F0A0F846490968A2
:100D1000A0EB010ABAF10A0F03D2CAF10A0000F0EF
:100D200051FE3F483F49097800EBC10081883C48AB
:100D30003C4A127800EBC2008088401E2040081A0E
:100D40001FFA80F94F4501DA384600E0484605466B
:100D500034480078052846D2DFE800F00304122367
:100D6000340000BF4FF0A0086420E2B201234146E6
:100D7000CDE9006502902D4801F0E4FB83463EE09A
:100D800004F48070A02141EAE0186420E2B201235B
:100D90004146CDE900650290244801F0D3FB83462B
:100DA0002DE004F44070A02141EAE0186420E2B292
:100DB00001234146CDE9006502901C4801F0C2FBC9
:100DC00083461CE004F4E060A02141EAE0186420BE
:100DD000E2B201234146CDE900650290134801F0DB
:100DE000B1FB83460BE0642010232246A021CDE90D
:100DF000006502900D4801F0A5FB834600BF00BFCF
:100E0000601984B22E44781B87B201F01FF806499E
:100E1000086000BF002F3FF777AF584671E700002A
:100E20000C7B00083800002034000020C80100209E
:100E300072B600BFFEE7000038B50246002300206E
:100E4000009000BF92F82400012801D1022038BD93
:100E5000012082F8240000BF4868072812D21068D9
:100E6000406B0C79641E04EB84051F24AC40A04346
:100E70000D796D1E05EB85050C68AC4020431468A8
:100E8000606327E048680D2812D21068006B0C7967
:100E9000E41F04EB84051F24AC40A0430D79ED1F33
:100EA00005EB85050C68AC4020431468206311E015
:100EB0001068C06A0C790D3C04EB84051F24AC401B
:100EC000A0430D790D3D05EB85050C68AC40204332
:100ED0001468E06208680A2812D31068C0680C78A9
:100EE0000A3C04EB44050724AC40A0430D780A3DBE
:100EF00005EB45058C68AC4020431468E0600FE0CA
:100F0000106800690C7804EB44050724AC40A0434A
:100F10000D7805EB45058C68AC40204314682061D2
:100F20000868102802D00868112827D1174C1068CB
:100F3000A0421ED11068806800F40000F0B910686B
:100F4000806840F400001468A0600868102815D17B
:100F50000F4800680F4CB0FBF4F000EB800040003D
:100F6000009002E00098401E009000980028F9D1FF
:100F700004E0906A40F020009062012300BF00204E
:100F800082F8240000BF184661E7000000240140F9
:100F90002400002040420F002DE9F04104460027C4
:100FA00000250026A84614B90120BDE8F081A068FC
:100FB00010B1207D00B100BFA06A30B90020E0620E
:100FC00084F82400204600F0A1F82046FFF7A4FB97
:100FD0000746A06A00F01000002873D1002F71D1DD
:100FE000A06A20F4885040F00200A062E1696068C5
:100FF0000843217B40EA41000643A068B0F5807FAA
:1010000002D0A068012802D14FF4807000E00020D7
:101010000543207D012811D1207B38B9A069401EED
:101020004FF4006141EA4030054307E0A06A40F018
:101030002000A062E06A40F00100E06220684068A1
:1010400020F469402843216848602068806821496D
:101050000840304321688860A068B0F5807F02D0E6
:10106000A068012802D14FF4807000E00020B0F5A4
:10107000807F03D1208A401E4FEA00582068C06A52
:1010800020F4700040EA08002168C8622068806887
:1010900011490840B04208D10020E062A06A20F067
:1010A000020040F00100A06211E0A06A20F00200FE
:1010B00040F01000A062E06A40F00100E062012709
:1010C00005E0FFE7A06A40F01000A0620127384663
:1010D0006BE70000FDF7E1FFFE0E1FFF10B50446B1
:1010E00007492068884209D10648806920F40070C9
:1010F000044988610F21044800F078FC10BD00000D
:1011000000240140001002400008014010B586B0E4
:101110000446002002900390049005901449206832
:10112000884222D100BF1348806940F40070114901
:1011300088610846806900F40070019000BF00BF1C
:1011400000BF0846806940F0040088610846806955
:1011500000F00400019000BF00BF0F2002900320A8
:10116000039002A9044800F0DBFC06B010BD0000AB
:1011700000240140001002400008014070472DE9A2
:10118000F05F04460025206846692068D0F8049086
:10119000206887682068D0F80CA02068D0F810B0CC
:1011A0002068D0F8188006F00100002855D007F01C
:1011B0000100C0B101202168886007F0020018B169
:1011C000204600F02BFA0EE007F0040010B145F4C1
:1011D000006508E007F0080010B145F4805502E012
:1011E000204600F01AFA07F48070C8B14FF48070FE
:1011F0002168886007F4007018B1204600F010FAEA
:101200000EE007F4806010B145F4005508E007F4E3
:10121000006010B145F4804502E0204600F0FFF97F
:1012200007F48030C8B14FF480302168886007F43B
:10123000003018B1204600F0F5F90EE007F48020E8
:1012400010B145F4004508E007F4002010B145F462
:10125000803502E0204600F0E4F906F0080038B1DD
:101260000AF0100020B145F4007510202168C86014
:1012700006F0040040B10AF0080028B108202168F7
:10128000C860204600F0C4F906F0020038B12068BA
:10129000C06800F0030010B1204600F0BAF906F073
:1012A000400038B10BF0100020B145F480651020EB
:1012B0002168086106F0200040B10BF0080028B159
:1012C000082021680861204600F0A4F906F010000B
:1012D00038B12068006900F0030010B1204600F02A
:1012E0009AF906F4003040B109F0100028B110203E
:1012F00021684860204600F08FF906F4803040B144
:1013000009F0080028B1082021684860204600F054
:101310008AF906F4004088B309F0040078B306F4B3
:10132000807020B108F0010008B145F0010506F415
:10133000007020B108F0020008B145F0020506F483
:10134000806020B108F0040008B145F0040506F4FF
:101350000060A0B108F0700088B108F0700040286B
:1013600017D006DC10280BD020280CD0302819D13B
:101370000CE0502810D0602814D110E01DE019E0D6
:1013800045F008050FE045F010050CE045F020059C
:1013900009E045F0400506E045F0800503E045F42E
:1013A000807500E000BF00BF2068806920F07000F9
:1013B000216888610420216848602DB1606A284353
:1013C00060622046FFF7DAFEBDE8F09F70B5044684
:1013D0000CB9012070BD94F8200010B9204600F02F
:1013E000CBF82068006840F001002168086000F038
:1013F0002DFD05460DE000F029FD401B0A2808D907
:10140000606A40F400306062052084F8200001200A
:10141000E0E72068406800F001000028EBD0206879
:10142000006820F002002168086000F00FFD05460A
:101430000DE000F00BFD401B0A2808D9606A40F45B
:1014400000306062052084F820000120C2E7206897
:10145000406800F002000028EBD1207E012806D170
:101460002068006840F080002168086005E020687E
:10147000006820F0800021680860607E012806D1A5
:101480002068006840F040002168086005E020689E
:10149000006820F0400021680860A07E012806D185
:1014A0002068006840F020002168086005E020689E
:1014B000006820F0200021680860E07E012806D145
:1014C0002068006820F010002168086005E02068AE
:1014D000006840F0100021680860207F012806D1D4
:1014E0002068006840F008002168086005E0206876
:1014F000006820F0080021680860607F012806D19C
:101500002068006840F004002168086005E0206859
:10151000006820F0040021680860D4E90201084353
:1015200021690843616908436168491E08432168CD
:10153000C86100206062012084F82000002049E793
:1015400010B504460949206888420DD10848C06991
:1015500020F000700649C8614FF4C051054800F002
:1015600045FA142001F074F910BD00000064004039
:10157000001002400008014010B586B0044600206B
:1015800002900390049005901E492068884236D14D
:1015900000BF1D48C06940F000701B49C861084683
:1015A000C06900F00070019000BF00BF00BF084696
:1015B000806940F0040088610846806900F00400FA
:1015C000019000BF00BFC814029000200390049057
:1015D00002A90E4800F0A4FA4FF4805002900220B5
:1015E00003900320059002A9084800F099FA002210
:1015F0001146142001F05EF9142001F04BF906B0F9
:1016000010BD0000006400400010024000080140CE
:101610007047704770477047704770477047704712
:10162000704770477047704710B504460CB90120E9
:1016300010BD607920B900202071204600F014F818
:10164000012060710020F3E7054A0168914205D14D
:101650000449496921F04001024A51617047000084
:10166000003002400010024008B5094A016891426A
:101670000DD100BF0749496941F04001054A516158
:101680001146496901F04001009100BF00BF08BD4B
:101690000030024000100240014609B901207047A5
:1016A0000868006820F001000A68106000200A68DD
:1016B00010600A6850600A6890600A68D0600F4A3B
:1016C0000868801A1422B0FBF2F0800008640B480E
:1016D0000838C86391F8402001209040CA6B5060E0
:1016E00000208862C86208634863886381F821002B
:1016F00000BF81F8200000BF00BFD0E70800024013
:1017000070B50446E06B05682068066894F84010E0
:10171000042088402840002846D006F00400002815
:1017200042D02068006800F0200028B920680068D6
:1017300020F004002168086057492068884201D1E0
:10174000042027E0544914312068884201D1402008
:1017500020E0514928312068884201D1001519E064
:101760004D493C312068884202D14FF4804011E05D
:10177000494950312068884202D14FF4802009E065
:10178000454964312068884202D14FF4800001E06D
:101790004FF08060404908394860E06A00287AD0FC
:1017A0002046E16A884776E094F84010022088409D
:1017B0002840A0B306F0020088B32068006800F05B
:1017C000200040B92068006820F00A002168086005
:1017D000012084F8210030492068884201D102208C
:1017E00028E02D4914312068884201D1202021E0D1
:1017F000294928312068884201D140151AE026493C
:101800003C312068884202D14FF4005012E0224956
:1018100050312068884203D14FF400300AE017E0CD
:101820001D4964312068884202D14FF4001001E064
:101830004FF0007018490839486000BF002084F854
:10184000200000BFA06A30B32046A16A884722E08A
:1018500094F84010082088402840E0B106F00800C5
:10186000C8B12068006820F00E002168086094F874
:10187000401001208840E16B48600120A06384F89B
:10188000210000BF002084F8200000BF206B10B1B1
:101890002046216B884770BD0800024001460022A7
:1018A00009B901207047164B0868C01A1423B0FB11
:1018B000F3F08000086412480838C863022081F8F9
:1018C00021000868026843F6F0708243D1E9010301
:1018D0001843CB6818430B6918434B6918438B694D
:1018E0001843CB69184302430868026000208863EC
:1018F000012081F82100002081F8200000BFD1E7FD
:10190000080002402DE9F04104460D4616461F46E8
:101910004FF0000800BF94F82000012802D10220F7
:10192000BDE8F081012084F8200000BF94F8210078
:1019300001282CD1022084F821000020A063206817
:10194000006820F00100216808603B4632462946C5
:101950002046FFF713F9E06A30B12068006840F0D4
:101960000E00216808600BE02068006820F0040089
:10197000216808602068006840F00A00216808605B
:101980002068006840F001002168086006E000BFA0
:10199000002084F8200000BF4FF002084046BFE757
:1019A00010B54FF0FF300649086100200861401E65
:1019B000C8600020C86000F01FFF002010BD0000BC
:1019C0000010024070B5044600F040FA0646254675
:1019D000681C10B104480078054400BF00F036FAD6
:1019E000801BA842FAD370BD200000202DE9F041F1
:1019F00002460B46002080E00127874007EA0301EA
:101A0000002979D0404F4FEA900C57F82C408707B7
:101A10004FEA177C0F2707FA0CF73C403B4FBA42BE
:101A200001D100270FE03A4FBA4201D101270AE065
:101A3000384FBA4201D1022705E0374FBA4201D1EF
:101A4000032700E004274FEA807C4FEA1C7C07FA5A
:101A50000CF7A74231D1314F3F688F43DFF8BCC04C
:101A6000CCF800700CF104073F688F430CF1040CB4
:101A7000CCF80070294F0C373F688F43DFF89CC0CB
:101A80000CF10C0CCCF80070ACF104073F688F43EC
:101A9000ACF1040CCCF8007087074FEA177C0F27D5
:101AA00007FA0CF4184F4FEA900C57F82CC02CEAA8
:101AB000040C4FEA900847F828C0FF2901D81746C0
:101AC00000E0171D3D46FF2901D8870002E0A0F184
:101AD0000807BF003E462F684FF00F0C0CFA06FCBB
:101AE00027EA0C074FF0040C0CFA06FC47EA0C0737
:101AF0002F60D7688F43D760401C23FA00F7002F70
:101B00007FF47AAFBDE8F081080001400008014091
:101B1000000C01400010014000140140000401408D
:101B20002DE9F8470346002294466EE14FF0010884
:101B300008FA02F4D1F8008008EA0400A0427DD13E
:101B4000DFF8DCA2D1F80480A8EB0A09D0453AD02E
:101B500014DCB8F1030F50D009DCB8F1000F31D01C
:101B6000B8F1010F1CD0B8F1020F49D120E0B8F153
:101B7000110F18D0B8F1120F42D11EE0B9F5881F2D
:101B800025D006DCB9F5803F20D0B9F5801F37D1CC
:101B90001AE0B9F5001F18D0B9F5041F30D117E0CD
:101BA000D1F80CC02DE0D1F80C8008F1040C28E02D
:101BB000D1F80C8008F1080C23E0D1F80C8008F172
:101BC0000C0C1EE000BF00BF00BF00BF00BF00BF85
:101BD000D1F80880B8F1000F02D14FF0040C0BE0EF
:101BE000D1F80880B8F1010F03D14FF0080C1C6147
:101BF00002E04FF0080C5C6103E04FF0000C00E0E5
:101C000000BF00BFFF2801D8984601E003F1040897
:101C10004646FF2802D84FEA820803E0A2F10808EE
:101C20004FEA88084746D6F800804FF00F0909FAB6
:101C300007F928EA09080CFA07F900E088E048EA01
:101C40000908C6F80080D1F8048008F08058B8F17F
:101C5000805F7DD100BFDFF8CC81D8F8188048F0D4
:101C60000108DFF8C091C9F81880C846D8F8188074
:101C700008F00108CDF8008000BF00BF4FEAB93876
:101C80004FEA920958F829504FEA82784FEA1879BA
:101C90004FF00F0808FA09F825EA0805DFF88881EF
:101CA000434502D14FF0000816E0DFF8808143453C
:101CB00002D14FF001080FE0DFF87481434502D1F3
:101CC0004FF0020808E0DFF86C81434502D14FF085
:101CD000030801E04FF004084FEA82794FEA1979CE
:101CE00008FA09F848EA0505DFF84C814FEA92093D
:101CF00048F82950D1F8048008F48018B8F5801FFE
:101D00000AD1DFF83881D8F8008048EA0008DFF807
:101D10002C91C9F8008009E0DFF82081D8F8008014
:101D200028EA0008DFF81491C9F80080D1F804808F
:101D300008F40018B8F5001F10D1DFF8008108F191
:101D40000408D8F8008048EA0008DFF8F09000E0C6
:101D50005AE009F10409C9F800800DE0DFF8DC80E1
:101D600008F10408D8F8008028EA0008DFF8CC90D1
:101D700009F10409C9F80080D1F8048008F400389A
:101D8000B8F5003F0ED1DFF8B480A8F10408D8F808
:101D9000008048EA0008DFF8A490A9F10409C9F816
:101DA00000800DE0DFF89480A8F10408D8F80080E6
:101DB00028EA0008DFF88490A9F10409C9F8008036
:101DC000D1F8048008F48038B8F5803F0ED1DFF8F0
:101DD0006C80A8F10808D8F8008048EA0008DFF80D
:101DE0005C90A9F10809C9F800800DE0DFF84C808B
:101DF000A8F10808D8F8008028EA0008DFF83C902D
:101E0000A9F10809C9F80080521CD1F8008028FA0D
:101E100002F8B8F1000F7FF489AEBDE8F887000042
:101E2000000011100010024000080140000C0140A9
:101E30000010014000140140080001400804014066
:101E40000AB1016101E00B040361704701480068B9
:101E5000704700001800002070B504460CB901203E
:101E600070BD94F83D0028B9002084F83C0020465D
:101E700000F036FC242084F83D002068006820F043
:101E80000100216808602068006840F40040216873
:101E900008602068006820F400402168086000F0B5
:101EA00047FF05465C496068884206D85B48854222
:101EB00001D2012007E0002005E05948854201D207
:101EC000012000E00020012800D1C9E75548B5FBFA
:101ED000F0F62068406820F03F00304321684860F9
:101EE0004D496068884201D8701C07E04FF4967035
:101EF00070434FF47A71B0FBF1F0401C2168096A1D
:101F000021F03F0108432168086243496068884224
:101F100014D8681E61684900B0FBF1F0401CC0F3A2
:101F20000B00042801D204203DE0681E61684900CE
:101F3000B0FBF1F0401CC0F30B0034E0A06838B9EE
:101F4000681E616801EB4101B0FBF1F0401C0AE042
:101F5000681E616801EBC10202EB0111B0FBF1F0F8
:101F6000401C40F48040C0F30B0008B901201AE087
:101F7000A06848B9681E616801EB4101B0FBF1F04F
:101F8000401CC0F30B000CE0681E616801EBC1024D
:101F900002EB0111B0FBF1F0401CC0F30B0040F468
:101FA000804040F400402168C9694CF6FF729143BB
:101FB00008432168C861D4E907010843216809681A
:101FC00021F0C001084321680860D4E903100843E8
:101FD0002168896848F2FF3291430843216888608C
:101FE000D4E9050108432168C96821F0FF010843CD
:101FF0002168C8602068006840F00100216808601E
:1020000000202064202084F83D000020206384F814
:102010003E0000BF24E70000A086010080841E006F
:1020200000093D0040420F002DE9F84F04460F46DD
:1020300090461E46FFF70AFF05464FF0000994F848
:102040003D0020287ED119230122634920460095B6
:1020500001F067FF10B10220BDE8F88F00BF94F8CF
:102060003C00012801D10220F6E7012084F83C0061
:1020700000BF2068006800F0010028B920680068EF
:1020800040F00100216808602068006820F40060CA
:1020900021680860242084F83D00002020644F4817
:1020A000E06200BF2068006840F48070216808602A
:1020B000334600224FF001112046009501F031FF18
:1020C00058B12068006800F48070B0F5807F02D1BC
:1020D0004FF4007020640320BEE707F0FE00216883
:1020E0000861FFF7B3FE054620684069C0F3400A67
:1020F00020684069C0F3802B10E0FFF7A7FE401B6B
:10210000B04200D816B9A02084F83D00206840698C
:10211000C0F3400A20684069C0F3802B94F83D006A
:10212000A02805D0BAF1000F02D1BBF1000FE4D016
:10213000202084F83D0020684069C0F3400028B3A7
:10214000206800E045E0006840F400702168086005
:1021500000BF0020009020684069009020688069DE
:10216000009000BF00BF192301221B4920460095A3
:1021700001F0D7FE08B101206EE7202084F83D0071
:1021800000BF002084F83C0000BF65E720680068BD
:1021900040F40070216808606FF480602168486135
:1021A000192301220C492046009501F0BAFE08B11E
:1021B000012051E709F10109C145FFF473AF202067
:1021C00084F83D0000BF002084F83C0000BF0120DF
:1021D00042E7022040E70000020010000000FFFF7D
:1021E0002DE9FE4F04460F4690469946DDE90CABBB
:1021F0000E9E00200290FFF729FE054694F83D0050
:10220000202872D119230122CA492046009501F0E5
:1022100088FE10B10220BDE8FE8F00BF94F83C009C
:10222000012801D10220F6E7012084F83C0000BF1C
:102230002068006800F0010028B92068006840F0BC
:102240000100216808602068006820F400602168AF
:102250000860222084F83D00402084F83E000020E1
:102260002064C4F824A0A4F82AB0608D2085B24868
:10227000E0624B46424639462046CDE9006501F012
:10228000FDFC08B10120C6E7208D88B900BF002001
:10229000019020684069019020688069019000BF2A
:1022A00000BF2068006840F40070216808604BE0BF
:1022B000208D01281AD12068006820F480602168F0
:1022C000086072B600BF002001902068406901904C
:1022D00020688069019000BF00BF2068006840F45A
:1022E00000702168086062B62EE020E1208D02288F
:1022F00019D12068006840F400602168086072B657
:1023000000BF00200190206840690190206880692A
:10231000019000BF00BF2068006820F48060216841
:10232000086062B610E02068006840F480602168B0
:10233000086000BF0020019020684069019020687B
:102340008069019000BF00BFE2E0208D03287DD8A6
:10235000208D012815D12A463146204601F0BDFEC8
:1023600008B1012057E720680069616A0870606A57
:10237000401C6062208D401E2085608D401E60855F
:10238000C6E0208D02282CD1334600226B4920461E
:10239000009501F0C6FD08B101203CE772B6206847
:1023A000006840F400702168086020680069616A74
:1023B0000870606A401C6062208D401E2085608D20
:1023C000401E608562B620680069616A0870606AB4
:1023D000401C6062208D401E2085608D401E6085FF
:1023E00096E03346002255492046009501F099FDBC
:1023F00008B101200FE72068006820F480602168A0
:10240000086072B620680069616A0870606A401CE2
:102410006062208D401E2085608D401E608548488A
:1024200000681921B0FBF1F04FF47A71B0FBF1F0C4
:10243000C0EBC00000EB8000029000BF0298401E7D
:1024400002900298A8B90020206300E039E0202023
:1024500084F83D00002084F83E00206C40F020000D
:10246000206462B600BF002084F83C0000BF012059
:10247000D1E620684069C0F380000028DED02068E3
:10248000006840F400702168086020680069616A93
:102490000870606A401C6062208D401E2085608D3F
:1024A000401E608562B620680069616A0870606AD3
:1024B000401C6062208D401E2085608D401E60851E
:1024C00026E02A463146204601F007FE08B10120E9
:1024D000A1E620680069616A0870606A401C606259
:1024E000208D401E2085608D401E608520684069DB
:1024F000C0F3800060B120680069616A0870606A9A
:10250000401C6062208D401E2085608D401E6085CD
:10251000208D00287FF419AF202084F83D00002092
:1025200084F83E0000BF84F83C0000BF73E6022040
:1025300071E60000020010000000FFFF040001002F
:10254000240000202DE9FC5F04460F469046994682
:10255000DDE90CAB0E9EFFF779FC054694F83D00D3
:1025600020287DD1192301224D492046009501F0F4
:10257000D8FC10B10220BDE8FC9F00BF94F83C00DD
:10258000012801D10220F6E7012084F83C0000BFB9
:102590002068006800F0010028B92068006840F059
:1025A0000100216808602068006820F4006021684C
:1025B0000860212084F83D00402084F83E0000207F
:1025C0002064C4F824A0A4F82AB0608D2085354882
:1025D000E0624B46424639462046CDE9006501F0AF
:1025E000FDFB08B10120C6E731E02A46314620460E
:1025F00001F0B8FD50B1206C042805D120680068B6
:1026000040F40070216808600120B4E7606A007837
:1026100021680861606A401C6062208D401E208530
:10262000608D401E608520684069C0F3800070B1F5
:10263000208D60B1606A007821680861606A401C82
:102640006062208D401E2085608D401E6085208D3B
:102650000028CAD12A463146204601F02FFC00E06E
:102660001CE050B1206C042805D12068006840F4BB
:1026700000702168086001207DE72068006840F450
:10268000007021680860202084F83D00002084F854
:102690003E0000BF84F83C0000BF6CE702206AE700
:1026A000020010000000FFFF10B504460949206831
:1026B00088420ED10848C06920F400100649C8615C
:1026C00089150648FFF792F94FF400710348FFF7A8
:1026D0008DF910BD0054004000100240000C014074
:1026E00010B586B004460020029003900490059037
:1026F0001A49206888422FD100BF1948806940F0EC
:102700000800174988610846806900F008000190B8
:1027100000BF00BF4FF440700290122003900320CE
:10272000059002A90F48FFF7FBF900BF0E49486862
:1027300040F0E06040F00200486000BF00BF084881
:10274000C06940F400100649C8610846C06900F439
:102750000010019000BF00BF06B010BD0054004043
:1027600000100240000C01400000014003480068D6
:10277000034909780844014908607047180000209F
:102780002000002010B50848006840F010000649FD
:102790000860032000F0CCF80F2000F007F800F0EC
:1027A0002DF8002010BD00000020024070B5044646
:1027B0000E4800784FF47A71B1FBF0F00C490968CB
:1027C000B1FBF0F5284600F02BFE08B1012070BDEA
:1027D000102C07D200222146501E00F06BF805484D
:1027E000046001E00120F2E70020F0E72000002073
:1027F000240000201C0000207047000008B500BF26
:102800001148806940F001000F49886108468069DD
:1028100000F00100009000BF00BF00BF0846C06983
:1028200040F08050C8610846C06900F080500090B8
:1028300000BF00BF00BF0549486820F0E06040F0DD
:102840000070486000BF08BD001002400000014059
:1028500010B501460846002817DB00F01F030122CF
:102860009A400B4B440943F8242000BF00BF00BF2F
:10287000BFF34F8F00BF00BF00BF00BF00BF00BF4E
:10288000BFF36F8F00BF00BF00BF00BF10BD0000CF
:1028900080E100E001460846002809DB00F01F0344
:1028A00001229A4043099B0003F1E023C3F8002171
:1028B00000BF70472DE9F05F80460D4616460027A1
:1028C00003F0B0FE074639462A46334601F00700BA
:1028D000C0F1070ABAF1040F02D94FF0040A01E06F
:1028E000C0F1070AD14600F1040ABAF1070F02D27B
:1028F0004FF0000A01E0A0F1030AD4464FF0010AAC
:102900000AFA09FAAAF1010A0AEA020A0AFA0CFA10
:102910004FF0010B0BFA0CFBABF1010B0BEA030BB5
:102920004AEA0B042146404603F084FEBDE8F09FCE
:1029300000BF00F00702064B19684FF6FF0319406D
:10294000044B0B4343EA0221014B196000BF70475F
:102950000CED00E00000FA05F8B50446002600255D
:10296000207800F0010000286BD000274348C069A0
:1029700000F0805070B900BF4048C06940F08050FE
:102980003E49C8610846C06900F08050009000BF11
:1029900000BF01273A48006800F48070B0B9384899
:1029A000006840F4807036490860FFF74FFA064629
:1029B00006E0FFF74BFA801B642801D90320F8BD1D
:1029C0002F48006800F480700028F2D02B48006A7D
:1029D00000F440752DB3A08800F44070A84220D0C8
:1029E0002648006A20F4407501202649086000202E
:1029F00008602248056205F0010090B1FFF726FA51
:102A0000064608E0FFF722FA801B41F2883188422F
:102A100001D90320D3E71948006A00F0020000281A
:102A2000F0D01648006A20F44070616808431349EA
:102A30000862012F04D10846C06920F08050C861A7
:102A400000BF207800F00200022807D10B48406840
:102A500020F44040A168084308494860207800F00D
:102A60001000102807D10548406820F48000E16874
:102A70000843024948600020A1E70000001002401E
:102A8000007000404004424270B504460D460CB947
:102A9000012070BD5A48006800F00700A8420ED21D
:102AA0005748006820F00700284355490860084649
:102AB000006800F00700A84201D00120E9E7207873
:102AC00000F0020002281DD1207800F00400042844
:102AD00005D14C48406840F4E0604A49486020789D
:102AE00000F00800082805D14648406840F46050CE
:102AF000444948604348406820F0F000A16808431A
:102B000040494860207800F0010078B360680128EF
:102B100006D13C48006800F4003090B90120B8E7C5
:102B20006068022806D13748006800F0007040B99C
:102B30000120AEE73348006800F0020008B9012028
:102B4000A7E73048406820F00300616808432D493A
:102B50004860FFF77BF9064609E0FFF777F9801B2D
:102B600041F28831884202D9032092E707E02548E4
:102B7000406800F00C006168B0EB810FEDD1204897
:102B8000006800F00700A8420ED91D48006820F038
:102B9000070028431A4908600846006800F007004B
:102BA000A84201D0012074E7207800F00400042836
:102BB00007D11448406820F4E060E16808431149F7
:102BC0004860207800F00800082808D10D484068C7
:102BD00020F46050216940EAC1000A49486000F0D1
:102BE000C7F808494968C1F30311074A515CC84056
:102BF0000649086006480068FFF7D8FD002048E74E
:102C000000200240001002406679000824000020E5
:102C10001C00002010B5FFF719F904463D48006874
:102C200040F001003B49086006E0FFF70FF9001B88
:102C3000022801D9032010BD3648006800F00200C8
:102C40000028F2D03348006820F0F80040F08000FF
:102C500030490860FFF7FAF8044600202D49486023
:102C600008E0FFF7F3F8001B41F28831884201D9F0
:102C70000320E0E72748406800F00C000028F0D16E
:102C800025482649086026480068FFF78FFD08B1EF
:102C90000120D0E7FFF7DAF804461E48006820F06C
:102CA00080701C49086006E0FFF7D0F8001B02287E
:102CB00001D90320BFE71748006800F00070002822
:102CC000F2D114494860FFF7C1F804461148006882
:102CD00020F410200F49086006E0FFF7B7F8001B4A
:102CE000642801D90320A6E70A48006800F40030F0
:102CF0000028F2D10748006820F4802005490860C8
:102D00000846406A40F0807048620020886000BF3A
:102D100091E700000010024000127A002400002019
:102D20001C000020014800687047000024000020BB
:102D300000B5FFF7F7FF04494968C1F30221034AD0
:102D4000515CC84000BD00000010024076790008C8
:102D500000B5FFF7E7FF04494968C1F3C221034A00
:102D6000515CC84000BD00000010024076790008A8
:102D700070B500210022002400230020134D696853
:102D800001F00C05F5B1042D02D0082D19D101E098
:102D90000F4819E00F4DC1F38346AB5D01F4803558
:102DA00055B10A4D6D68C5F340450B4E725D084D37
:102DB0005D43B5FBF2F402E0084D03FB05F4204649
:102DC00002E000BF064800BF00BF70BD0010024017
:102DD0000024F400547900086479000800093D00DB
:102DE00000127A0070B586B005460C4616460020E3
:102DF0000290039004900590022003900320059018
:102E0000002004904FF48070029000BF0C4880694D
:102E100040F004000A4988610846806900F0040017
:102E2000019000BF00BF02A90648FEF779FE0448E2
:102E3000406820F0E06020430149486006B070BD62
:102E40000010024000080140F8B504460CB901200A
:102E5000F8BD207800F00100002878D0F8484068DC
:102E600000F00C0004280CD0F548406800F00C007D
:102E7000082811D1F248406800F48030B0F5803F56
:102E80000AD1EF48006800F4003000285FD0606885
:102E900000285CD10120DBE700BF6068B0F5803F0F
:102EA00006D1E748006840F48030E549086028E032
:102EB000606858B9E248006820F48030E049086052
:102EC0000846006820F4802008601AE06068B0F5C9
:102ED000A02F0BD1DA48006840F48020D849086060
:102EE0000846006840F4803008600AE0D448006872
:102EF00020F48030D24908600846006820F4802021
:102F0000086000BF606888B1FEF7A0FF054606E0D4
:102F1000FEF79CFF401B642801D9032098E7C848AE
:102F2000006800F400300028F2D010E0FEF78EFFB9
:102F3000054606E0FEF78AFF401B642801D90320FE
:102F400086E7BF48006800F400300028F2D12078FE
:102F500000F00200022857D1B948406800F00C0088
:102F600050B1B748406800F00C00082818D1B448A8
:102F7000406800F4803098B9B148006800F0020061
:102F800020B12069012801D0012061E7AC48006828
:102F900020F0F800616940EAC100A949086033E007
:102FA0002069E8B10120A7490860FEF74FFF0546F8
:102FB00006E0FEF74BFF401B022801D9032047E73C
:102FC0009F48006800F002000028F2D09C4800688A
:102FD00020F0F800616940EAC1009949086013E0F7
:102FE000002098490860FEF731FF054606E0FEF72D
:102FF0002DFF401B022801D9032029E790480068D3
:1030000000F002000028F2D1207800F00800082823
:103010002DD1A069B8B101208B490860FEF716FFD9
:10302000054606E0FEF712FF401B022801D90320E7
:103030000EE78348406A00F002000028F2D0012029
:1030400002F0B6F813E000207F490860FEF7FEFEAC
:10305000054606E0FEF7FAFE401B022801D90320D0
:10306000F6E67748406A00F002000028F2D12078A6
:1030700000F00400042873D100277148C06900F0F3
:10308000805070B900BF6E48C06940F080506C49F4
:10309000C8610846C06900F08050009000BF00BFC2
:1030A00001276A48006800F48070B0B9674800687A
:1030B00040F4807065490860FEF7C8FE054606E0EA
:1030C000FEF7C4FE401B642801D90320C0E65F4818
:1030D000006800F480700028F2D000BFE06801288A
:1030E00006D15748006A40F001005549086227E0C0
:1030F000E06858B95248006A20F00100504908625F
:103100000846006A20F00400086219E0E06805281B
:103110000BD14B48006A40F0040049490862084658
:10312000006A40F0010008620AE04548006A20F0A9
:103130000100434908620846006A20F00400086262
:1031400000BFE068A0B1FEF781FE054609E0FEF78A
:103150007DFE401B41F28831884202D9032077E688
:1031600022E03748006A00F002000028EFD012E0A9
:10317000FEF76CFE054608E0FEF768FE401B41F2D4
:103180008831884201D9032062E62D48006A00F0A8
:1031900002000028F0D1012F05D12948C06920F094
:1031A00080502749C86100BFE069C8B3244840681F
:1031B00000F00C00082860D0E069022848D1002007
:1031C00020490866FEF742FE054606E0FEF73EFE91
:1031D000401B022801D903203AE61948006800F094
:1031E00000700028F2D1206AB0F5803F07D1144862
:1031F000406820F40030A168084311494860D4E9D0
:10320000080108430E49496821F4741108430C4928
:10321000486001200B490866FEF718FE054607E0E6
:103220003DE0FEF713FE401B022801D903200FE604
:103230000348006800F000700028F2D02FE0000082
:1032400000100240000042428004424200700040F0
:10325000002014490866FEF7F9FD054606E0FEF772
:10326000F5FD401B022801D90320F1E50E48006856
:1032700000F000700028F2D111E0E069012800D1CF
:10328000E6E50948466806F48031206A814204D1A7
:1032900006F47011606A814201D00120D8E5002057
:1032A000D6E50000000042420010024010B504467E
:1032B0000CB9012010BD606A38B96068B0F5827F32
:1032C00000D105E00021E16102E00021216161619E
:1032D0000021A16294F8510028B9002084F8500020
:1032E000204600F05BF8022084F851002068006856
:1032F00020F0400021680860A08800F482702189D5
:1033000001F404410843A18901F400610843217CD0
:1033100001F002010843217D01F001010843218BE6
:1033200001F400710843217F01F038010843202196
:10333000095D01F080010843218D01F4005108432B
:10334000216808600421A06901EA104021684860F2
:103350002068C06920F400602168C86100206065B1
:10336000012084F851000020A4E7000010B50446B5
:1033700007492068884209D10648806920F48050B6
:1033800004498861F0210448FEF730FB10BD0000BD
:1033900000300140001002400008014010B586B026
:1033A000044600200290039004900590194920687B
:1033B00088422DD100BF1848806940F480501649DA
:1033C00088610846806900F48050019000BF00BF0A
:1033D00000BF0846806940F00400886108468069A3
:1033E00000F00400019000BF00BFB0200290022056
:1033F00003900320059002A90848FEF791FB4020A6
:10340000029000200390049002A90448FEF788FB74
:1034100006B010BD0030014000100240000801401D
:1034200070B504462546681EB0F1807F01D30120A7
:103430000FE0681E4FF0E02148610F214FF0FF3090
:1034400003F0F8F800204FF0E021886107200861C0
:10345000002070BD30B502460B4600BF92F83C001C
:10346000012801D1022030BD012082F83C0000BFBC
:10347000022082F83D00106844681068816824F0DA
:1034800070041868044310684460104D1068A84226
:103490000BD01068B0F1804F07D00D4D1068A842D6
:1034A00003D00C4D1068A84205D121F08001586866
:1034B000014310688160012082F83D0000BF0020B8
:1034C00082F83C0000BF00BFCDE70000002C0140A7
:1034D000000400400008004010B504460CB901206B
:1034E00010BD94F83D0028B9002084F83C00204627
:1034F00000F026F8022084F83D00211D206802F02B
:1035000029FA012084F8460000BF84F83E0001211A
:103510003F200155402001554120015500BF00BF0B
:10352000012084F8420043200155442001554520E4
:10353000015500BF012084F83D000020D0E70000C5
:1035400008B5124A016891420DD100BF1049C969FE
:1035500041F002010E4AD1611146C96901F0020130
:10356000009100BF11E00B4A016891420DD100BFEC
:103570000749C96941F00401054AD1611146C96989
:1035800001F00401009100BF00BF08BD000400402D
:1035900000100240000800402DE9F04104460D46AD
:1035A000002700BF94F83C00012802D10220BDE8AA
:1035B000F081012084F83C0000BF022084F83D0027
:1035C0002068866826F0770626F47F4620688660A5
:1035D0002868502833D00CDC202850D004DC002888
:1035E0004BD0102851D149E0302849D040284CD147
:1035F00039E060282DD0702807D0B0F5805F03D067
:10360000B0F5005F41D10DE041E0D5E902136A68F1
:10361000206802F0EAF92068866846F0770620689C
:10362000866034E0D5E902136A68206802F0DDF9AB
:103630002068806840F480402168886027E0EA685C
:103640006968206802F0A2FA5021206802F0D8F9D7
:103650001DE0EA686968206802F0ABFA6021206822
:1036600002F0CEF913E0EA686968206802F08EFA89
:103670004021206802F0C4F909E000BF00BF00BF8C
:103680002968206802F0BCF901E0012700BF00BFF3
:10369000012084F83D0000BF002084F83C0000BFFA
:1036A000384684E710B586B00446002002900390A7
:1036B0000490059021492068884221D100BF20480C
:1036C000806940F008001E4988610846806900F062
:1036D0000800019000BF00BF10200290022003905C
:1036E000059002A91748FEF71BFA00BF1649486863
:1036F00020F4406040F0E06040F4006048601AE070
:1037000012492068884216D100BF0D48806940F0F8
:1037100008000B4988610846806900F008000190A4
:1037200000BF00BFC020029002200390059002A9B4
:103730000448FEF7F5F906B010BD00000004004093
:1037400000100240000C0140000001400008004051
:103750002DE9F04104460D461646002700BF94F8B7
:103760003C00012802D10220BDE8F081012084F84C
:103770003C0000BF36B1042E1BD0082E31D00C2ED9
:103780005ED145E02946206802F044F9206880694E
:1037900040F00800216888612068806920F00400FA
:1037A00021688861206880692969084321688861E7
:1037B00048E02946206802F05DF92068806940F4FD
:1037C0000060216888612068806920F48060216839
:1037D000886120688069296940EA01202168886140
:1037E00030E02946206802F079F92068C06940F08D
:1037F00008002168C8612068C06920F004002168C1
:10380000C8612068C069296908432168C86119E056
:103810002946206802F096F92068C06940F40060EB
:103820002168C8612068C06920F480602168C8618F
:103830002068C069296940EA01202168C86101E067
:10384000012700BF00BF00BF002084F83C0000BF7C
:10385000384689E710B504460CB9012010BD94F82C
:103860003D0028B9002084F83C00204600F025F8EF
:10387000022084F83D00211D206802F06BF8012031
:1038800084F8460000BF84F83E0001213F20015526
:10389000402001554120015500BF00BF012084F8A0
:1038A000420043200155442001554520015500BFE9
:1038B000012084F83D000020D0E7704770B5044631
:1038C0000D4615B994F83E000BE0042D02D13F20BF
:1038D000005D06E0082D02D14020005D01E041209E
:1038E000005D012801D0012070BD1DB9022084F8BF
:1038F0003E000EE0042D03D102213F20015508E0D7
:10390000082D03D102214020015502E0022141206F
:10391000015501222946206802F056F8194920680D
:10392000884201D1012000E0002028B12068406CCD
:1039300040F40040216848641249206888420BD056
:103940002068B0F1804F07D00F492068884203D02B
:103950000E49206888420CD12068806800F0070674
:10396000062E0CD02068006840F001002168086035
:1039700005E02068006840F0010021680860002030
:10398000B2E70000002C01400004004000080040A5
:103990007047704710B504460CB9012010BDA069EE
:1039A00000B100E000BF94F8410028B9002084F87D
:1039B0004000204600F062F8242084F8410020688E
:1039C000C06820F400502168C860204602F02CFC3A
:1039D0002068006920F490402168086120684069EF
:1039E00020F02A00216848612068C06840F4005037
:1039F0002168C86000206064202084F8410084F8B9
:103A000042000020606300BFC8E7000010B5044614
:103A100015492068884211D11448806920F48040FB
:103A2000124988614FF4C0611148FDF7DFFFE06B78
:103A3000FDF732FE2520FEF70BFF14E00D4920684C
:103A4000884210D10948C06920F480200749C86124
:103A50004FF440610848FDF7C9FFE06BFDF71CFE1D
:103A60002720FEF7F5FE10BD00380140001002408F
:103A70000008014000480040000C014010B586B02D
:103A80000446002002900390049005905649206857
:103A9000884252D100BF5548806940F48040534964
:103AA00088610846806900F48040019000BF00BF33
:103AB00000BF0846806940F00400886108468069BC
:103AC00000F00400019000BF00BF481502900220E2
:103AD00003900320059002A94548FEF721F84FF412
:103AE0008060029000200390049002A94048FEF7F5
:103AF00017F84048404908600020486000213E48CF
:103B000081608021C16000210161416120218161CA
:103B10000021C161FDF7C2FE08B1FDF789F900BFC0
:103B20003548E063446200BF002211462520FEF7BD
:103B3000C1FE2520FEF7AEFE54E0304920688842E1
:103B400050D100BF2948C06940F480202749C8618E
:103B50000846C06900F48020019000BF00BF00BF8C
:103B60000846806940F0080088610846806900F0D6
:103B70000800019000BF00BF0815029002200390CA
:103B80000320059002A91E48FDF7CAFF4FF400600C
:103B9000029000200390049002A91948FDF7C0FF8D
:103BA000144828381749086000204860002115484B
:103BB00081608021C1600021016141618161C16139
:103BC000FDF76CFE08B1FDF733F900BF0D48E06367
:103BD000446200BF002211462720FEF76BFE27201B
:103BE000FEF758FE06B010BD00380140001002403C
:103BF00000080140580002409403002000480040A3
:103C0000000C0140D803002070B504460D4616464E
:103C100094F8420020280BD105B10EB9012070BDE7
:103C20000020206332462946204602F07BFBF6E75F
:103C30000220F4E77047704700BFFEE701460868BE
:103C40004069C0F38020B0B16FF480600A685061B1
:103C500000200863202081F83D00002081F83E000C
:103C6000086C40F00400086400BF002081F83C00AC
:103C700000BF012070470020FCE700002DE9F84359
:103C800004460F4615469946DDE908862068006817
:103C900040F48060216808602068006840F480700B
:103CA00021680860434600224FF00111204600962B
:103CB00000F037F960B12068006800F48070B0F55A
:103CC000807F02D14FF4007020640320BDE8F883A8
:103CD00007F0FE0021680861334642463E4920460F
:103CE00000F07EF908B10120F0E700BF002000904D
:103CF00020684069009020688069009000BF00BF84
:103D000032464146204600F02DFA50B1206C04287E
:103D100005D12068006840F4007021680860012027
:103D2000D4E7B9F1010F03D1E8B22168086117E0C7
:103D3000C5F307202168086132464146204600F05D
:103D400011FA50B1206C042805D12068006840F4B5
:103D50000070216808600120B8E7E8B221680861B6
:103D600032464146204600F0FDF950B1206C04284F
:103D700005D12068006840F40070216808600120C7
:103D8000A4E72068006840F480702168086043461A
:103D900000224FF001112046009600F0C2F858B101
:103DA0002068006800F48070B0F5807F02D14FF485
:103DB00000702064032089E7F8B240F00100216818
:103DC0000861334642460449204600F009F908B12B
:103DD00001207BE7002079E7020001002DE9F8438C
:103DE0000446884615469946DDE90867206800685C
:103DF00040F4807021680860334600224FF00111C2
:103E00002046009700F08DF860B12068006800F44B
:103E10008070B0F5807F02D14FF4007020640320E1
:103E2000BDE8F88308F0FE00216808613B46324691
:103E30002149204600F0D4F808B10120F0E700BF86
:103E40000020009020684069009020688069009000
:103E500000BF00BF3A463146204600F083F950B11A
:103E6000206C042805D12068006840F400702168A7
:103E700008600120D4E7B9F1010F03D1E8B221684D
:103E8000086117E0C5F30720216808613A4631460A
:103E9000204600F067F950B1206C042805D1206855
:103EA000006840F40070216808600120B8E7E8B2BB
:103EB000216808610020B3E70200010070B50446E4
:103EC0000D46164625E02046FFF7B8FE08B1012052
:103ED00070BD681CE8B1FDF7B9FF801BA84200D88F
:103EE000BDB920684069C0F3800090B9002020630C
:103EF000202084F83D00002084F83E00206C40F033
:103F00002000206400BF002084F83C0000BF012096
:103F1000DEE720684069C0F380000028D3D000208D
:103F2000D6E72DE9F04104460D4617461E46DDF85A
:103F3000188038E0701CA8B3FDF788FFA0EB0800DC
:103F4000B04200D876BBC5F3074001280AD12068EB
:103F50004069A9B20840A9B2884201D101200BE012
:103F6000002009E020688069A9B20840A9B288420F
:103F700001D1012000E00020B84214D100202063CC
:103F8000202084F83D00002084F83E00206C40F0A2
:103F90002000206400BF002084F83C0000BF012006
:103FA000BDE8F081FFE7C5F3074001280AD120688A
:103FB0004069A9B20840A9B2884201D101200BE0B2
:103FC000002009E020688069A9B20840A9B28842AF
:103FD00001D1012000E00020B842ABD00020DFE793
:103FE0002DE9F04104460D4616461F4658E020686C
:103FF0004069C0F38020E8B12068006840F4007098
:10400000216808606FF480602168486100202063A7
:10401000202084F83D00002084F83E00206C40F011
:104020000400206400BF002084F83C0000BF012091
:10403000BDE8F081701C90B3FDF708FFC01BB042D3
:1040400000D866BBC5F3074001280AD12068406943
:10405000A9B20840A9B2884201D101200BE000209A
:1040600009E020688069A9B20840A9B2884201D15C
:10407000012000E0002090B900202063202084F877
:104080003D00002084F83E00206C40F020002064B9
:1040900000BF002084F83C0000BF0120C8E7FFE714
:1040A000C5F3074001280AD120684069A9B2084039
:1040B000A9B2884201D101200BE0002009E020686C
:1040C0008069A9B20840A9B2884201D1012000E06C
:1040D000002000288BD00020AAE770B504460D46CA
:1040E000164637E020684069C0F30010A0B16FF0B9
:1040F00010002168486100202063202084F83D00E2
:10410000002084F83E00206C206400BF002084F86A
:104110003C0000BF012070BDFDF798FE801BA84247
:1041200000D8BDB920684069C0F3801090B9002064
:104130002063202084F83D00002084F83E00206C9D
:1041400040F02000206400BF002084F83C0000BF45
:104150000120E0E720684069C0F380100028C1D04A
:104160000020D8E770B504460D46164625E02046E7
:10417000FFF764FD08B1012070BD681CE8B1FDF7D0
:1041800065FE801BA84200D8BDB920684069C0F315
:10419000C01090B900202063202084F83D0000204A
:1041A00084F83E00206C40F02000206400BF002016
:1041B00084F83C0000BF0120DEE720684069C0F3BE
:1041C000C0100028D3D00020D6E770B505460E46B3
:1041D0000024324629460E20FCF71AFB0D240FE07E
:1041E000284600F06BFA284600F082FA324629464B
:1041F0002046FCF70DFB284600F010F8601EC4B204
:10420000002CEDDC284600F059FA284600F070FA40
:10421000324629460020FCF7FBFA70BD31B588B064
:104220000020079044E2DDE9071010F82100069015
:10423000DDE9071000EB810040780590DDE907100B
:1042400000EB810080780490DDE9071000EB81002D
:10425000C0780390069803F073FB0446069803F0B9
:104260006FFB029003F06CFB4440069803F068FB80
:10427000019003F065FB029003F062FB4440069856
:1042800003F05EFB009003F05BFB019003F058FB32
:10429000029003F055FB059803F052FB0546059884
:1042A000454003F04DFB029003F04AFB059803F0F4
:1042B00047FB019003F044FB029003F041FB4540B3
:1042C000059803F03DFB009003F03AFB019003F0EA
:1042D00037FB029003F034FB6C40049803F030FB92
:1042E0000498054603F02CFB029003F029FB45409F
:1042F000049803F025FB019003F022FB029003F0E9
:104300001FFB4540049803F01BFB009003F018FBD3
:10431000019003F015FB029003F012FB6C40039830
:1043200003F00EFB0398054603F00AFB029003F02E
:1043300007FB039803F004FB019003F001FB0290DC
:1043400003F0FEFA4540039803F0FAFA009003F0F8
:10435000F7FA019003F0F4FA029003F0F1FA6C40DE
:10436000DDE9071000F82140069803F0E9FA069805
:10437000044603F0E5FA029003F0E2FA069803F02F
:10438000DFFA019003F0DCFA029003F0D9FA44401E
:10439000069803F0D5FA009003F0D2FA019003F0EA
:1043A000CFFA029003F0CCFA059803F0C9FA05465B
:1043B000059803F0C5FA029003F0C2FA454005984B
:1043C00003F0BEFA019003F0BBFA029003F0B8FAD2
:1043D0004540059803F0B4FA009003F0B1FA01905B
:1043E00003F0AEFA029003F0ABFA6C40049803F0CD
:1043F000A7FA05460498454003F0A2FA029003F09C
:104400009FFA049803F09CFA019003F099FA029045
:1044100003F096FA4540049803F092FA009003F0F6
:104420008FFA019003F08CFA029003F089FA6C4045
:10443000039803F085FA0398054603F081FA029089
:1044400003F07EFA4540039803F07AFA019003F0F6
:1044500077FA029003F074FA4540039803F070FA7B
:10446000009003F06DFA019003F06AFA029003F0F5
:1044700067FA6C40DDE9071000EB81004470069894
:1044800003F05EFA0698044603F05AFA029003F02D
:1044900057FA4440069803F053FA019003F050FA9B
:1044A000029003F04DFA4440069803F049FA009058
:1044B00003F046FA019003F043FA029003F040FA49
:1044C000059803F03DFA0598054603F039FA029085
:1044D00003F036FA059803F033FA019003F030FA4E
:1044E000029003F02DFA4540059803F029FA009058
:1044F00003F026FA019003F023FA029003F020FA69
:104500006C40049803F01CFA0546049803F018FA6E
:10451000029003F015FA4540049803F011FA019057
:1045200003F00EFA029003F00BFA4540049803F0F2
:1045300007FA009003F004FA019003F001FA0290E8
:1045400003F0FEF96C40039803F0FAF9054603986E
:10455000454003F0F5F9029003F0F2F9039803F0F7
:10456000EFF9019003F0ECF9029003F0E9F945400E
:10457000039803F0E5F9009003F0E2F9019003F0ED
:10458000DFF9029003F0DCF96C40DDE9071000EB85
:1045900081008470069803F0D3F9044606984440DD
:1045A00003F0CEF9029003F0CBF9069803F0C8F9B6
:1045B000019003F0C5F9029003F0C2F94440069857
:1045C00003F0BEF9009003F0BBF9019003F0B8F9D5
:1045D000029003F0B5F9059803F0B2F90598054685
:1045E00003F0AEF9029003F0ABF94540059803F0F3
:1045F000A7F9019003F0A4F9029003F0A1F9454056
:10460000059803F09DF9009003F09AF9019003F0EA
:1046100097F9029003F094F96C40049803F090F934
:104620000498054603F08CF9029003F089F9049888
:1046300003F086F9019003F083F9029003F080F90A
:104640004540049803F07CF9009003F079F901905B
:1046500003F076F9029003F073F96C40039803F0CD
:104660006FF90546039803F06BF9029003F068F9BF
:104670004540039803F064F9019003F061F902905A
:1046800003F05EF94540039803F05AF9009003F0F7
:1046900057F9019003F054F9029003F051F96C407E
:1046A000DDE9071000EB8100C4700798401C0790FB
:1046B00007980428FFF6B7AD09B030BD417B437AB7
:1046C0004373437943724378437141708178827AAE
:1046D000827081728179837B83718173C178C279A1
:1046E000C270C37AC371C37BC372C17370470000C9
:1046F00010B5024600200FE0002109E002EB810323
:104700001B5C074CE35C02EB810423544B1CD9B2C5
:104710000429F3DB431CD8B20428EDDB10BD0000F4
:104720005C7C000878B502460C46002020E000259D
:1047300005EB8005655D002606EB80069555012595
:1047400005EB8005655D012606EB80069555022583
:1047500005EB8005655D022606EB80069555032571
:1047600005EB8005655D032606EB80069555401C2C
:104770000828DCD3082079E0451EA900555C8DF897
:1047800000504D1C555D8DF801508D1C555D8DF808
:104790000250CD1C555D8DF8035000F007056DBB30
:1047A0009DF800509DF801608DF800609DF8026052
:1047B0008DF801609DF803608DF802608DF803505C
:1047C0009DF800502B4E755D8DF800509DF80150FE
:1047D000755D8DF801509DF80250755D8DF80250A1
:1047E0009DF80350755D8DF803509DF80050224EE2
:1047F00006EBD006367875408DF8005000F00705BE
:10480000042D14D19DF800501A4E755D8DF800509E
:104810009DF80150755D8DF801509DF80250755D51
:104820008DF802509DF80350755D8DF8035083009C
:10483000A0F10805A900555C9DF800607540D554AD
:104840004D1C555D9DF8016075405E1C95558D1C95
:10485000555D9DF8026075409E1C9555CD1C555DBB
:104860009DF803607540DE1C9555401C3C2883D3A1
:1048700078BD00005C7B00085C7D000870477047D5
:104880000B490968FA2903D10021094A11600EE099
:1048900001280CD107490978491CC9B2054A117091
:1048A000052904DB00211170FA21014A11607047CB
:1048B000340400400C00002030B5A7B004460025A9
:1048C0000C4A07CA24AB07C3684602F0C9FE0C2293
:1048D00024A9684603F004F81CA9684602F022FEE9
:1048E00020221CA92046FBF703FD00B9012528461C
:1048F00027B030BDE8F7FF1F30B585B004460D4640
:1049000000232A462146684600F008F8112269462D
:104910000120FCF7E5F905B030BD00002DE9F043BA
:10492000C7B005460C4616461F46082C01DA20463D
:1049300000E00020044606F00F063FB12B4800EBD4
:104940000411102203A8FBF72AFD06E0284800EB1B
:104950000411102203A8FBF722FD04EB44002549B3
:1049600001EB80000168009141680191806802902C
:1049700086B14FF000090BE0102103A802F0D2FF2E
:104980000C21684602F0CEFF09F1010000F0FF099A
:10499000B145F1DB46EA041000F0FF08694603A8C0
:1049A00001F05CFE14A00088288014480168C5F856
:1049B00002104168C5F806108068C5F80A0085F83D
:1049C00010800F4A0F4907A8FBF713FF1022294652
:1049D00007A8FBF7F0FE20210A48FBF757FD10213E
:1049E0000748FBF753FD47B0BDE8F0832C7A000879
:1049F000AC790008AC7A000854520000E8F7FF1FB9
:104A000014090020F408002010B50020394908706E
:104A10003948C078A02814D008DC302815D03128B7
:104A200014D042281AD05F283CD11FE0A22804D01D
:104A3000BD282FD0CF2835D11CE001202D4908708A
:104A400030E004202B4908702CE000BF02202949E7
:104A500008700121084600F091FE23E0032025495B
:104A600008700421012000F089FE1BE00520214987
:104A7000087017E020480079012803D106201D495D
:104A8000087002E007201B4908700121084600F069
:104A900075FE07E00820174908700421012000F086
:104AA0006DFE00BF00BF1348007810B3012013490A
:104AB0000871FDF7CBF90F490978491E01EB410157
:104AC0000F4A12F8211008440C4908600948007880
:104AD000401E00EB4000114601EB80010748401DDD
:104AE00051F8012F02604A6842600A890281897A7E
:104AF000817210BD390000203409002024090020F3
:104B0000687E000810B501F093F910BD70B5054638
:104B100050E001F099F904462948007830B10128A5
:104B20000ED0022813D004283ED120E0FF2C01D063
:104B3000F02C01D1012000E000202149087037E06D
:104B40001F48C470847302201D49087030E01C485F
:104B50000471807B2044C1B21948817308214171DE
:104B600000201749887048700420087020E014481D
:104B70008178407981420DDA1148807B2044C1B2AE
:104B80000F48817381788078401C0D4A9070901D89
:104B9000445408E000200A4908700846807BA0427F
:104BA00001D1FFF731FF03E000200549087000BF85
:104BB00000BF00BF281EA5F10101CDB2A9D170BD73
:104BC0003409002070B504460D4603E014F8010BCB
:104BD00001F0CEF9281EA5F10101CDB2F6D170BDCC
:104BE00010B50948007901280DD1FDF72FF90649C4
:104BF0000968884207D30020034908710B21024845
:104C0000401DFFF7DFFF10BD240900200EB5002076
:104C1000009001900290124812490860002111484A
:104C20008160017301754FF46021C16100200D495D
:104C3000486001210B480161FCF7AEF908B1FCF7AF
:104C4000F7F80020009001200190002002906946B2
:104C50000448FCF7F1F808B1FCF7EAF80EBD0000D3
:104C6000002401407001002010B50F480F49086072
:104C70000420486000210D488160C1604FF460212C
:104C800001614FF480114161002101764176817606
:104C90000121C176002101774177FCF797FB08B12C
:104CA000FCF7C6F810BD000000640040A001002021
:104CB00010B50548054908600846FCF7B5FC08B181
:104CC000FCF7B6F810BD00000030024010000020D4
:104CD00008B500BF0E48406940F001000C4948612A
:104CE0000846406900F00100009000BF00BF0022AC
:104CF00011460D20FDF7DEFD0D20FDF7CBFD002256
:104D000011460F20FDF7D6FD0F20FDF7C3FD08BDAE
:104D10000010024000B585B0002001900290039081
:104D2000049000BF4B48806940F0100049498861F9
:104D30000846806900F01000009000BF00BF00BF6F
:104D40000846806940F0200088610846806900F0CC
:104D50002000009000BF00BF00BF0846806940F0FF
:104D6000040088610846806900F00400009000BFDC
:104D700000BF00BF0846806940F00800886108460F
:104D8000806900F00800009000BF00BF00224FF4CF
:104D900040413148FDF754F800224CF22A012F48D7
:104DA000FDF74EF800224FF400412D48FDF748F87A
:104DB0004FF40050019000200290039001A9264872
:104DC000FCF7AEFE4FF4404001900120029000201D
:104DD00003900220049001A91F48FCF7A1FE0120C6
:104DE0000190204802900020039001A91B48FCF785
:104DF00097FE4CF22A0001900120029000200390BF
:104E00000220049001A91548FCF78AFE4FF4405097
:104E1000019000200290039001A91048FCF780FE49
:104E20004FF48070019002200290049001A90C4878
:104E3000FCF776FE4FF40040019001200290002024
:104E400003900220049001A90548FCF769FE05B013
:104E500000BD00000010024000100140000C0140A5
:104E6000000801400000111010B50B480B49086004
:104E70000B484860002109488160C1604FF48041BF
:104E80000161002141618161C1610162FCF7E4FFC0
:104E900008B1FBF7CDFF10BD00540040C801002051
:104EA000A086010010B50E480E4908604FF48270CC
:104EB000486000210B488160C160016141614FF48D
:104EC000802181611021C161002101624162816202
:104ED0000A21C162FEF7EAF908B1FBF7A9FF10BD8C
:104EE000003001401C02002000B58DB00020099068
:104EF0000A900B900C90079008901C216846FBF7D5
:104F0000E7FA2048204908604720486000211E48F1
:104F100081604FF4FA71C160002101618161FEF787
:104F2000DBFA08B1FBF784FF4FF48050099009A920
:104F30001548FEF731FB08B1FBF77AFF1248FEF780
:104F400089FC08B1FBF774FF00200790089007A9BF
:104F50000D48FEF77FFA08B1FBF76AFF602000906A
:104F60000020019002900490002269460648FEF756
:104F7000EFFB08B1FBF75CFF0348FEF793FB0DB0B6
:104F800000BD0000000400407402002000B58DB098
:104F9000002009900A900B900C90079008901C211B
:104FA0006846FBF795FA24482449086000204860C9
:104FB0000021224881604FF6FF71C160002101612C
:104FC0008161FEF789FA08B1FBF732FF4FF4805098
:104FD000099009A91948FEF7DFFA08B1FBF728FF85
:104FE0001648FEF737FC08B1FBF722FF00200790B8
:104FF000089007A91148FEF72DFA08B1FBF718FF32
:1050000060200090002001900290049000226946E8
:105010000A48FEF79DFB08B1FBF70AFF0422694628
:105020000648FEF795FB08B1FBF702FF0348FEF7C1
:1050300039FB0DB000BD000000080040BC0200209C
:1050400010B50F480F4908604FF4E1304860002167
:105050000C488160C16001610C21416100218161C6
:10506000C161FEF797FC08B1FBF7E2FE04480C3083
:10507000006840F0100002490C31086010BD0000CB
:10508000003801400403002010B50F480F490860A4
:105090004FF41650486000210C488160C1600161E6
:1050A0000C21416100218161C161FEF773FC08B1EF
:1050B000FBF7BEFE04480C30006840F010000249C7
:1050C0000C31086010BD0000004800404C03002077
:1050D00000BFFEE72DE9F0410546002460E015F829
:1050E000248015F8240005EB84014978484005EB3D
:1050F00084018978484005EB8401C97880EA01067B
:1051000015F8240005EB8401497880EA0107384648
:1051100002F016FC074615F8240087EA060148400D
:1051200005F8240005EB8400407805EB84018978BC
:1051300080EA0107384602F003FC074605EB8400CD
:10514000407887EA0601484005EB8401487005EB8A
:105150008400807805EB8401C97880EA010738462D
:1051600002F0EEFB074605EB8400807887EA060133
:10517000484005EB8401887005EB8400C07880EA24
:105180000807384602F0DCFB074605EB8400C078D0
:1051900087EA0601484005EB8401C870601CC4B270
:1051A000042C9CDBBDE8F08100BFFEE770470000E7
:1051B00008B508490968C9084FF47A72B1FBF2F1E1
:1051C0004143009100BF00BF00994A1E0092002990
:1051D000F9D108BD24000020704770B50446D4F80A
:1051E00020018047064671E0D4F824018047054637
:1051F000207A30B9242D01D1012000E00020207256
:1052000063E0207A012806D14D2D01D1022000E073
:105210000020207259E0207A022809D13E2D00D1C9
:1052200004E0212D01D1062000E0002020724CE096
:10523000207A032802D0207A062813D1207A062863
:1052400001D1012100E00021A173FA2D02DD00202F
:1052500020723BE004202072A5720021617321734B
:10526000E57232E0207A042806D1052020726572AA
:10527000E07A6840E07228E0207A05280DD1617B51
:10528000A07A814209DAE07A6840E072617B481CCA
:10529000607304F10F00455417E0207A052814D1FB
:1052A000617BA07A814210DB00202072E07AA84264
:1052B0000AD101202070FCF7C9FD00F5FA6060609A
:1052C000607AD4F82C118847002600BF301EA6F162
:1052D00001018EB288D1A07B08B9012070BD0020E9
:1052E000FCE770B504460D461646002140F20B104F
:1052F000015584F809512420D4F8281188474D20FD
:10530000D4F8281188473E20D4F828118847314620
:10531000204600F015F92946204600F011F970BD2D
:1053200070B505460C4622460021284600F001F8DB
:1053300070BD70B504460E461546002140F20B10B4
:105340000155401E05552420D4F8281188474D20CA
:10535000D4F8281188470EB1212200E03E221046E1
:10536000D4F8281188472946204600F0E9F894F837
:105370000911204600F0E4F870BD2DE9F04704461D
:105380000D4616461F46DDE9088944B13DB136B1E8
:105390002FB1B8F1000F02D0B9F1000F02D10020F7
:1053A000BDE8F0874FF49A712046FBF791F8C4F8F6
:1053B0002051C4F82461C4F82871C4F82C81C4F8C1
:1053C000309100202072FCF741FD00F5FA6060602A
:1053D0000120E5E730B5037B9C18837A9C4200DD11
:1053E00030BD07E0047B631C037300F10F031B5DFA
:1053F00001F8013B131EA2F10104E2B2F2D100BF99
:10540000EEE72DE9F04106460F4614461D462A46B2
:1054100039463046FFF765FF2A462146304600F000
:1054200077F8304600F09BF8BDE8F08170B504468F
:105430000D46002229462046FFF753FF204600F084
:105440008EF870BD2DE9F04105460E461446204603
:10545000FAF77AFFC7B23A4631462846FFF741FFCE
:105460002146284600F084F8284600F078F8BDE888
:10547000F08170B505460E46144601223146284695
:10548000FFF72FFF2146284600F05AF8284600F083
:1054900066F870BD70B50446FCF7D8FC05464FF4BD
:1054A0008F70005D28B3207818B34FF488700059CE
:1054B000A8421ED8B4F80C0141194FF4887001516C
:1054C00040F21F12135D04F58A72D05CD4F82C11DF
:1054D000884740F21F10005D401CC1B240F21F100F
:1054E0000155401E005D814203DB002140F21F1088
:1054F00001556068A84207D20020207005F5FA60C7
:105500006060D4F8300180472046FFF766FE70BD2A
:1055100070B504460D4616460CE02878D4F82811DC
:10552000884715F8010B40F20B11095D484040F225
:105530000B110855301EA6F10101CEB2EDD170BDA0
:1055400070B504460D462846D4F82811884740F225
:105550000B10005D684040F20B11085570BD10B58E
:10556000044640F20B12105DD4F82811884710BD94
:1055700070B505460C460CE02078D5F82811884710
:1055800014F8010B40F20B11495D484040F20B1139
:10559000485520780028EFD170BD4178427942709B
:1055A000437A4371437B437241738178827A82707C
:1055B00081728179837B83718173C178C27BC27070
:1055C000C37AC373C379C372C171704770B504469F
:1055D000FCF73CFC0546E068A84272D8207C032812
:1055E00049D007285FD16069002843D0217E6069D7
:1055F000405C00283ED0217E6069405C2D2802D0AE
:105600002E2813D106E0204600F0F4F805F5487086
:10561000E06014E0204600F0EDF8607C08B1C8209E
:1056200001E04FF4C8702844E06008E005F5FA6036
:10563000E060607C10B1204600F0DCF800BF00BFE5
:10564000607CB8B9207E401CC0B22076617E884262
:1056500010DB00202076E07E401CC0B2E076A17E08
:10566000884207DB0020E07602202074A06A08B19F
:10567000A06A804724E0A079002813DD204600F0CE
:10568000B9F8A0682844E060607C58B9A079401E51
:10569000C0B2A07130B9204600F052F8A06A08B13B
:1056A000A06A80470CE0207C042808DB207C0628C8
:1056B00005DC204600F09EF8A0682844E06000BFAA
:1056C00000BF70BD2DE9F0438BB005460E4617466E
:1056D0009846DDF8489017480088062803DB00202C
:1056E0000BB0BDE8F0832C20FAF78EFD04460CB910
:1056F0000020F5E72C2210496846FAF795FE009540
:10570000ADF804608DF812702C2269462046CDE970
:105710000989FAF789FE074801880088401C054A74
:105720001080064840F82140204600F009F801208A
:10573000D6E7000028000020807900081C04002023
:1057400010B50446A37C0BB1012300E000231A46E8
:10575000A1882068FCF774FB0020607410BD10B5B0
:105760000446A37C0BB9012300E000231A46A1885C
:105770002068FCF765FB0120607410BD70B504461D
:105780000D461A48008884422FDA062D00DD0625D2
:10579000174850F824000574072D25D2DFE805F0DE
:1057A00024181E24040B12004FF44870104951F8BD
:1057B0002410886018E04FF4C8700D4951F8241087
:1057C000886011E0C8200A4951F8241088600BE075
:1057D000074951F82400FFF7C2FF05E0044951F8DA
:1057E0002400FFF7ADFF00BF00BF70BD2800002000
:1057F0001C04002010B50446607C18B12046FFF759
:105800009FFF02E02046FFF7AAFF606A10B1607CAC
:10581000616A884710BD000070B5FCF717FB0546AC
:10582000002423E0144850F82400C068A84204D89B
:10583000114951F82400FFF7C9FE0F4850F8240021
:10584000006A88B10C4850F82400006AA8420BD8BE
:105850000020094951F824100862074850F8240034
:10586000017F2046FFF78AFF601CC4B2034800880E
:105870008442D7DB70BD00001C04002028000020FB
:1058800010B5024600200FE0002109E002EB810381
:105890001B5C074CE35C02EB810423544B1CD9B224
:1058A0000429F3DB431CD8B20428EDDB10BD000053
:1058B0005C7B000810B5FCF759FFFFF7ADFF10BD8A
:1058C00000B593B0282109A8FAF702FE142104A814
:1058D000FAF7FEFD00200090019002900390012055
:1058E000099000040A9040000B9001200D900220C6
:1058F0001090C10311914FF4E011129109A8FDF726
:10590000A3FA08B1FBF794FA0F2004900220059047
:10591000002006904FF4806007900020089002213C
:1059200004A8FDF7B1F808B1FBF782FA0220009055
:10593000800302906846FDF70FF808B1FBF778FA8C
:1059400000224FF0C0611046FDF74CFA13B000BDC5
:105950007047000010B50268184B984208D0B0F1AB
:10596000804F05D0164B984202D0164B984203D177
:1059700022F070024B681A43104B984208D0B0F1E5
:10598000804F05D00E4B984202D00E4B984203D167
:1059900022F44072CB681A4322F080034C6943EA38
:1059A000040202608B68C3620B688362034B9842F7
:1059B00001D10B6903630123436110BD002C014039
:1059C000000400400008004030B501F01F0501242C
:1059D00004FA05F3046A9C430462046A01F01F059B
:1059E00002FA05F52C43046230BD30B50C468168DF
:1059F00021F47F4142EA032525432943816030BDDC
:105A00000A46816821F0700142F007031943816062
:105A10007047000030B5026A056A25F0010505628D
:105A20004368846924F0700424F003040D682C4357
:105A300022F002028D682A430D4DA84206D100BF14
:105A400022F00802CD682A4322F00402084DA84241
:105A500007D123F4807323F400734D692B438D69C0
:105A60002B43436084614D684563026230BD000092
:105A7000002C014030B5026A056A25F01005056268
:105A80004368846924F4E04424F440740D6844EAD3
:105A9000052422F020028D6842EA05120E4DA8422C
:105AA00007D100BF22F08002CD6842EA051222F041
:105AB0004002094DA84209D123F4806323F4006316
:105AC0004D6943EA85038D6943EA85034360846138
:105AD0004D688563026230BD002C014030B5026A1A
