:020000040800F2
:100000007015002009020008D5480008253A0008AC
:10001000514800081D0B0008655B00080000000047
:10002000000000000000000000000000354900084A
:10003000250C00080000000005490008ED4F0008ED
:1000400023020008230200082302000823020008FC
:1000500023020008230200082302000823020008EC
:1000600023020008230200082302000823020008DC
:10007000230200082302000823020008D10B000815
:1000800023020008230200082302000823020008BC
:10009000555B000823020008230200082302000821
:1000A000230200082302000823020008230200089C
:1000B000230200082302000823020008230200088C
:1000C000230200082302000823020008230200087C
:1000D00023020008495A000823020008415B000877
:1000E00023020008230200082302000800F002F89F
:1000F00000F060F80AA090E8000C82448344AAF162
:100100000107DA4501D100F055F8AFF2090EBAE85F
:100110000F0013F0010F18BFFB1A43F0010318473B
:10012000106F0000306F00000A444FF0000C10F810
:10013000013B13F0070408BF10F8014B1D1108BF65
:1001400010F8015B641E05D010F8016B641E01F805
:10015000016BF9D113F0080F1EBF10F8014BAD1C55
:100160000C1B09D16D1E58BF01F801CBFAD505E073
:1001700014F8016B01F8016B6D1EF9D59142D6D3CD
:10018000704700000023002400250026103A28BFF5
:1001900078C1FBD8520728BF30C148BF0B607047F9
:1001A0001FB59DE8030000F0BBF900F0B8F81FBDD3
:1001B00010B510BD00F042FA1146FFF7F1FF05F04F
:1001C000C9FD00F060FA03B4FFF7F2FF03BC00F0D2
:1001D00091FA00000B49D1F800C04A685CF8043B72
:1001E0001068184442F8040B8C4528BFA1F1DC0CC0
:1001F0008A4228BFA1F1DC02C1F800C04A6020F0A9
:1002000000407047540200200948804709480047D1
:10021000FEE7FEE7FEE7FEE7FEE7FEE7FEE7FEE7B6
:10022000FEE7FEE704480549054A064B7047000013
:1002300081500008ED0000087009002070150020B2
:10024000700D0020700D002070B5064600F04CF9CE
:10025000056806F10B0020F00704B4429CBF0020A3
:1002600070BD2B466A68BAB11068A04210D304F181
:10027000080188423CBF5068586007D35168101984
:1002800041601168091B016058601460101D70BD49
:1002900013465268002AE7D12146284600F02CF97F
:1002A0000028DED170BD70B50446051F00F01CF9B2
:1002B0000068002C14BF446870BD002C18BFAC420D
:1002C0003CBF20466468F8D301680A18AA4218BFE8
:1002D000456003D12A680546114401602868411928
:1002E000A1421CBF6C6070BD6168696021680844F0
:1002F000286070BD0B4910B5A1F17C020A4CC2E91F
:100300003712372106E000EB104342F82130074B4B
:1003100000FB03400B1EA1F10101F4DC10BD012024
:10032000E8E70000F4010020E119D666CD0D0100D8
:1003300040EA010310B59B070FD1042A0DD310C862
:1003400008C9121F9C42F8D020BA19BA884201D9B4
:10035000012010BD4FF0FF3010BD1AB1D30703D0FC
:10036000521C07E0002010BD10F8013B11F8014BB2
:100370001B1B07D110F8013B11F8014B1B1B01D1CE
:10038000921EF1D1184610BD10B5431C02E010F8C2
:10039000011B71B18107FAD14FF0013202C88C1AEA
:1003A0008C4314EAC211F9D0C01A0A0603D0C01E49
:1003B00010BDC01A10BD0A0401D0801E10BD090274
:1003C000FCD0401E10BD032A40F2308010F0030C18
:1003D00000F0158011F8013BBCF1020F624498BF98
:1003E00011F801CB00F8013B38BF11F8013BA2F135
:1003F000040298BF00F801CB38BF00F8013B11F0B0
:10040000030300F0C380083AC0F0088051F8043BB1
:10041000083A51F804CBA0E80810F5E7121D5CBFBC
:1004200051F8043B40F8043BAFF30080D20724BFEF
:1004300011F8013B11F801CB48BF11F8012B24BF83
:1004400000F8013B00F801CB48BF00F8012B7047D2
:100450004FF000020429C0F0128010F0030C00F0ED
:100460001B80CCF1040CBCF1020F18BF00F8012B6B
:10047000A8BF20F8022BA1EB0C0100F00DB85FEA39
:10048000C17C24BF00F8012B00F8012B48BF00F805
:10049000012B70474FF0000200B513469446964674
:1004A000203922BFA0E80C50A0E80C50B1F1200187
:1004B000BFF4F7AF090728BFA0E80C5048BF0CC035
:1004C0005DF804EB890028BF40F8042B08BF704793
:1004D00048BF20F8022B11F0804F18BF00F8012B05
:1004E00070477047704770470048704764020020AB
:1004F000704770477047704738B504460A46002079
:100500006946AFF30080002808BF38BD0246009955
:10051000204600F071F8012038BD012000F086B8B7
:10052000F8B5AFF30080054600200C46102000BF50
:100530000646A819A0420DD9324669460020AFF3FD
:100540000080070008BF00F071F80098A04218BFB3
:100550000546C419FFF7C8FF05600746F01D20F0E7
:1005600007004619284600F00AF8B44208BFF8BD53
:10057000A21B31463868BDE8F84000F03DB80021C4
:100580000160C0E9011070471020704710B5203A93
:10059000C0F00B80B1E81850A0E81850B1E818502E
:1005A000A0E81850203ABFF4F5AF5FEA027C24BF00
:1005B000B1E81850A0E8185044BF18C918C0BDE8E9
:1005C00010405FEA827C24BF51F8043B40F8043BB2
:1005D00008BF7047D20728BF31F8023B48BF11F867
:1005E000012B28BF20F8023B48BF00F8012B7047C1
:1005F000004870475C020020034640688C46002893
:1006000018BF88423CBF03464068F8D318681844B6
:10061000884207D00CF1030020F00700001D411AAA
:10062000521A0146081D0A60FFF73DBE10B500F0E2
:1006300039F8BDE8104000F02FB870477546FFF755
:10064000D7FFAE4605006946534620F007008546B1
:1006500018B020B5FFF7E6FDBDE820404FF00006DA
:100660004FF000074FF000084FF0000BAC46ACE82D
:10067000C009ACE8C009ACE8C009ACE8C00921F089
:1006800007018D46704710B50446AFF30080204641
:10069000BDE81040FFF797BD002801D000F02AB850
:1006A0007047000010B5012805D0002103A000F01C
:1006B00027F8012010BD09A1F8E70000534947526F
:1006C000544D454D3A204F7574206F662068656122
:1006D00070206D656D6F7279000000003A204865EA
:1006E0006170206D656D6F727920636F72727570C5
:1006F0007465640001491820ABBEFEE726000200C5
:1007000070B505460C460A2000E06D1C00F011F89B
:1007100035B128780028F8D102E0641C00F009F80F
:1007200014B120780028F8D1BDE870400A20AFF35A
:10073000008008B569468DF800000320ABBE08BDF7
:10074000B0B5044600688168C90709D0816821F006
:100750000101816001F0A2FB21688968C90701D10C
:100760000020B0BD054603E020688068C007F7D0D0
:1007700001F094FB401B0328F6D320688068C00773
:10078000F2D0A06A40F01000A062E06A40F00100E0
:10079000E0620120B0BD00002DE9F04385B002B356
:1007A00090460D46814600F1F0070026A859AC1985
:1007B00001906068E168A2680491CDE902022046D8
:1007C000494603F06DFB2046394605F0CDF901ABF3
:1007D000049A0BCB10364645FA60BB6079603860EE
:1007E000E4D305B0BDE8F0832DE9F04700F1F0084F
:1007F00006464046AAB18A469146002541465446DF
:100800000AEB0507384605F0AFF93846314600F0E7
:10081000B5F91035214610344D45F1D30AEB0500EA
:10082000103801684268C3688068C8F80C30C8F89E
:100830000800C8F80420C8F80010BDE8F0870000E0
:10084000B0B51446054603F01DFC20686168E268F7
:10085000A368C5F8FC20C5F8F830C5F8F410C5F851
:10086000F000B0BD10B5A1F1010C02EB00104FF08B
:10087000000E00BF4FF0FF33614600BFC218527830
:1008800011F8014F01336240032B0A70F6D10EF1CB
:10089000010EBEF1040F0CF1040C00F1040008BFBE
:1008A00010BDE7E780B540F2BC20C2F20000002195
:1008B00004F066F980BD000070B5C0B040F62C159C
:1008C000C2F200052978044651B101F0E7FA40F27E
:1008D000B061C2F200010968884284BF002028701C
:1008E000032C0CD8DFE804F002A6566E40F2BC20C0
:1008F000C2F20000002104F0B3F840B070BD6E2CCD
:1009000000F083806F2C40F093802A7840F2BC2066
:10091000C2F200006F2104F051F92878002800F09D
:10092000878005F0A7F941F20000C4F202000168D7
:10093000002241F0010101604168CFF6FF02114041
:10094000416001684FF6FF72CFF6F6621140016018
:100950000168042221F4802101604168C0F6000290
:1009600021F4FE0141604FF41F0181604FF00060EF
:100970000168126840F2AC63C2F200031A604EF6DE
:100980000852CEF20002106081F308881868804790
:1009900040B070BDFFF71EFC6C46C0F3031100F0C1
:1009A0000F022046012303F07DFC40F2BC20C2F27E
:1009B000000002212246112304F0D2F80020287002
:1009C00040B070BD40F2BC206C46C2F2000021462F
:1009D000202204F0ABF8204603F024FC287050B12C
:1009E00001F05CFA00F5283040F2B06100F5F950F2
:1009F000C2F2000108602A7840F2BC20C2F2000076
:100A0000032104F0DBF840B070BD287840B1FFF757
:100A1000E1FBC0F3031200F00F01104603F030FCBD
:100A20002A7840F2BC20C2F200006E2104F0C6F821
:100A300040B070BD6C462046FFF7A6FC45F245313C
:100A4000C0F24C0121502046FFF79EFC2025255284
:100A50002046FFF799FC46F65672C7F26C622118E1
:100A600022506F2088802046FFF78EFC25522046BA
:100A7000FFF78AFC43F25642C2F630422118225058
:100A800045F22000C3F23310486043F23340C3F60E
:100A90003010886043F23950C0F23600C1F80B00C4
:100AA0002046FFF771FC25522046FFF76DFC44F607
:100AB0004E7221182252002620468E70FFF764FCE9
:100AC00025522046FFF760FC45F24872C5F22062CD
:100AD0002118225042F63160C7F23020486020468B
:100AE0000E72FFF751FC25522046FFF74DFC45F2F0
:100AF0004672C5F220622118225042F63160C6F2D9
:100B00003020486040F2BC200E72C2F20000012189
:100B1000224604F03FF840B070BD0000FEE7000040
:100B2000B0B588B040F20005C2F20005FF200DF11B
:100B30000604287020460E2105F028FED0B94FF299
:100B4000F070C1F6FF7000684FF2E87107904FF245
:100B5000EC70C1F6FF70C1F6FF71006809680C22E5
:100B6000CDE90510A11C05A8FFF7E2FB002804BF92
:100B700001202870287808B0B0BD0000F0B581B021
:100B80000C460546002029462246FFF76BFE01274A
:100B9000284604F0F7F9284604F09AF8284603F0AE
:100BA00059FEFEB2304629462246FFF75BFE0D2E67
:100BB00007F10107ECD3284604F0E4F9284604F0D5
:100BC00087F80E2029462246FFF74CFE01B0F0BD03
:100BD00080B50420C4F2020050F8041CC90303D5F8
:100BE000016841F4E021016040F21C70C2F2000093
:100BF00000F062FE80BD0000B0B5D0E900CED0E9C3
:100C00000F40012505FA00F060600846CCF804307A
:100C1000BEF1100F04BF10460A46CCF80800CCF80D
:100C20000C20B0BD7047000080B540F2B4610928C7
:100C300028BF0920C2F20001087040F26070C2F2C1
:100C40000000A0210A22642301F0FAF980BD00000F
:100C50002DE9F04383B0002A4FF0010759D040F24C
:100C6000B464C2F2000489460546207846F6E031B5
:100C7000C0F6000151F8300051191646814248D89B
:100C800001F00CF940F2B868C2F20008D8F8001080
:100C9000401A042803D8C0F1050000F059FF20785D
:100CA00004280FD8DFE800F003031A1C1E0040F2EE
:100CB00060706427CDE90096EAB2C2F20000A0217C
:100CC000012309E040F260706427C2F20000A02115
:100CD0002A461023CDE90096029713E0022002E095
:100CE000062000E00E2000EAD51000F1A0016420EB
:100CF000CDE9016040F26070EAB2C2F20000012367
:100D0000CDF8009001F06CFA074601F0C7F8C8F87A
:100D10000000384603B0BDE8F08300002DE9F04F35
:100D200083B0002A4FF0010770D0064640F2B4604D
:100D3000C2F20000007846F6E03AC0F6000A5AF81F
:100D400030000D469119144681425FD840F2B86BCD
:100D500040F26078C2F2000BC2F200081BE000EA29
:100D6000D61000F1A0011FFA89F0CDE90050F2B2CF
:100D7000404601236427029701F09CFB07461FFAB7
:100D800089F04E440544A4EB090401F087F82104DE
:100D9000CBF800003AD001F081F8DBF80010401ADF
:100DA000092803D8C0F10A0000F0D2FE40F2B46076
:100DB000C2F2000000780AEBC00189884A1E324066
:100DC000A1EB02091FFA89F1A2B28A4238BFA146FB
:100DD00004280ED8DFE800F00505031618000220ED
:100DE000BDE71FFA89F0CDE90050F2B24046A021DC
:100DF000BFE71FFA89F0CDE90050B2B24046A0210A
:100E00001023B7E70620AAE70E20A8E7384603B06C
:100E1000BDE8F08F80B504F0EFFD80BD70B540F601
:100E2000681640F62E14C2F200060020C2F200043A
:100E30003070207801216E284FF002021CDCA0F1F6
:100E40001103262B00F27780DFE803F026282828FC
:100E50002828282828282828282828282828282812
:100E6000282828282828282828242828282428280A
:100E70002828140002210EE0C02804DC6F280BD0C3
:100E8000B12807D00AE0F52804D0C12806D10222F3
:100E9000022101E0012108226270317031780229BB
:100EA0001DD0012940F08180204604F00BFD002870
:100EB0007BD12078F52878D1A3781120412B4FF0F1
:100EC000010473D0222B4FF001024FF001016FD0CB
:100ED000052B40F0868004211C20002268E040F6AB
:100EE0006911C2F200010A78012A18BF70BD3728C3
:100EF00026D0C12851D140F62D10C2F2000003784F
:100F000040F66A10C2F200000578012B40F2090396
:100F100040F2E902C2F20003C2F2000203EBC50391
:100F200008BF02EBC5031A884FF0020C84F801C019
:100F300062806A1C25E06128B0D101210422ABE760
:100F40000820607040F62D10C2F20000027840F6D2
:100F50006A10C2F20000037840F20905C2F20005EF
:100F600040F2E90C05EBC305C2F2000C012A08BFF0
:100F70000CEBC3056A682D68C4F806205A1CC4F837
:100F8000025040F20803C2F200031B78D5B29D4222
:100F9000027022BF002202700A7040F62E10C2F2C8
:100FA000000004F0E7FC0020307070BD0122012138
:100FB00040F62D13C2F200031A7040F20802C2F28A
:100FC00000021070012003F067FF40F66910C2F2C2
:100FD0000000047040F66A10C2F2000000210170A7
:100FE00070BD0120022103F057FF70BD7047000063
:100FF000EFF3108072B600BFFEE70000B0B581B01D
:101000000022009290F82420012A01D1022179E0E7
:101010004A680123062A80F8243005D803686FF057
:10102000040C03F1340E0AE003680C2A87BF03F1B5
:101030002C0E6FF0400C03F1300E6FF0220C02EB1F
:101040008202DEF8005062441F230C68934025EAB8
:10105000030304FA02F21A43CEF80020D1F800E0AC
:1010600002680EEB4E051024BEF1090F88BF1E3D2D
:1010700088BF0C2452F804C007238968AB402CEACF
:101080000303A940194311512EF001014FF0000C48
:1010900010294FF0000133D1016842F20042C4F23E
:1010A0000102914205D0816A41F020018162012153
:1010B00026E09268120222D48A68BEF1100F42F430
:1010C00000028A601BD140F20401C2F200010968EB
:1010D0004DF68362C4F21B32A1FB0212910C01EBAC
:1010E000810149000091009949B100BF009901397F
:1010F0000091009900294FF00001F7D100E0002194
:1011000080F824C0084601B0B0BD0000002804BF2C
:1011100001207047F0B581B00746044657F8280F04
:1011200030B90020E06284F82400204600F092F8F4
:101130002046FFF705FBA26AA16A002808BF12F04B
:10114000100205D041F010010120396001B0F0BD5E
:1011500041F2021291430231A162E169D4E9013204
:1011600041EA0305511EB1FA81F149091346B2F56E
:10117000807F18BF0B02267D217B012E45EA410CA2
:1011800011D141B1A16A41F02001A162E16A41F0AF
:101190000101E16207E0A1694EF60006CFF6FF7695
:1011A00006EB41310B432168B2F5807F4E6826F48F
:1011B000694643EA06034B608B684FF2FD76CFF633
:1011C000E17603EA060343EA0C038B6001D0012AAF
:1011D00006D122690023CFF6F07303EB025200E040
:1011E0000022CB6A23F470031A43CA62896840F66E
:1011F000FE62CFF61F721140614506D10021E16207
:10120000A16A012262F301019FE7A06A40F0100089
:1012100020F00200A06254F82C0F40F001010120E0
:10122000274692E780B5014640F60000C4F201006F
:10123000096800F5E052914218BF80BD41F21801E3
:10124000C4F202010A6822F400720A600F2100F061
:1012500093FC80BD80B586B0014640F60000C4F224
:101260000100096800F5E05291424FF00001CDE91C
:101270000411CDE9021101D006B080BD41F2180180
:10128000C4F202010A6842F400720A600A6802F4B9
:1012900000720192019A0A6842F004020A60096829
:1012A00001F00401019101990F21029103210391A1
:1012B00002A900F0EFFC06B080BD000070470000FE
:1012C0002DE9F04F81B0044600684669D0F80490DB
:1012D0008768D0F80CB0D0F810A0D0F81880F107CB
:1012E00003D1002530071CD423E0F90710D00121D9
:1012F000BA07816009D4780700F1AA80380700F1A5
:10130000B080204600F0E2F902E0204600F0E0F96B
:101310000025F80500F18480F80300F1AA80300769
:1013200007D51BF0100004D0206845F4007510218B
:10133000C160700708D51BF0080005D0206808219F
:10134000C160204600F0B8F9B00706D52068C06833
:10135000800702D0204600F0B1F9700607D51AF0D8
:10136000100004D0206845F4806510210161B006AA
:1013700008D51AF0080005D0206808210161204630
:1013800000F09EF9F00606D520680069800702D0BB
:10139000204600F097F9B00308D519F0100005D0E9
:1013A000206810214160204600F08EF9F00308D536
:1013B00019F0080005D0206808214160204600F09F
:1013C00091F9300440F18F805FEA497040F18880E4
:1013D00006F4807008EA102028435FEA887101460D
:1013E00048BF41F00201B20558BF01465FEA4870AC
:1013F0000D4648BF45F00405700558BF0D46300541
:101400006ED518F070006BD010380009052862D82E
:10141000DFE800F0035356595C5F45F008055AE0D9
:1014200020684FF48071BA0581600AD4780512D41F
:10143000380519D4204600F04DF9F8037FF56FAF59
:1014400017E0204600F048F9F8037FF568AF10E098
:101450004FF400655DE705F50055F8037FF55FAFD4
:1014600007E04FF4805554E705F58045F8037FF514
:1014700056AF20684FF48031BA0381600AD47803F4
:101480000FD4380313D4204600F028F930073FF575
:1014900048AF4EE7204600F023F930073FF541AF53
:1014A00047E705F5004530073FF53BAF41E705F558
:1014B000803530073FF535AF3BE745F010050AE0D2
:1014C00045F0200507E045F0400504E045F08005C3
:1014D00001E045F480752068816921F07001816127
:1014E0002068042141602DB1606A28436062204673
:1014F000FFF7E4FE01B0BDE8F08F0000B0B5C8B161
:10150000044690F8200010B9204600F08DF82068BD
:10151000016841F00101016000F0C0FC054600BF18
:1015200020684168C90707D100F0B8FC401B0B28B0
:10153000F6D312E00120B0BD016821F00201016084
:1015400000F0ACFC054600BF2068416889070DD556
:1015500000F0A4FC401B0B28F6D3606A052140F480
:1015600000306062012084F82010B0BD217E026846
:10157000012922F0800208BF80320260617E026889
:10158000012922F0400208BF40320260A17E0268B9
:10159000012922F0200208BF20320260E17E0268A9
:1015A000012922F0100218BF10320260217F026868
:1015B000012922F0080208BF08320260617F026838
:1015C000012922F0040208BF04320260D4E901C2FA
:1015D000D4E9033561691A432A431143ACF101028E
:1015E0001143C16100200121606284F82010B0BD68
:1015F00080B5016846F20040C4F20000814218BF85
:1016000080BD41F21C01C4F202010A6800F52440C9
:1016100022F000720A604FF4C05100F0ADFA1420BD
:1016200001F0E6F880BD0000B0B586B040F60004D9
:10163000C4F201040068A4F52442002190420591FF
:10164000CDE90311029101D006B0B0BD41F21800FE
:10165000C4F20200426802AD42F000724260426889
:1016600002F000720192019A026842F004020260E4
:10167000006800F00400019001984FF40060CDE98B
:10168000020104912046294600F004FB4FF48050EB
:10169000029002200390032005902046294600F086
:1016A000F9FA14200021002201F0AAF8142001F018
:1016B000A3F806B0B0BD00007047000070470000FE
:1016C000704700007047000070470000704700003E
:1016D000704700007047000070470000704700002E
:1016E0007047000070470000002804BF01207047C9
:1016F00010B50446407920B900202071204600F042
:1017000017F801206071002010BD0000006843F24E
:101710000001C4F20201884218BF704741F2140070
:10172000C4F20200016821F040010160704700002E
:1017300081B0006843F20001C4F20201884201D086
:1017400001B0704741F21400C4F20200016841F098
:1017500040010160006800F040000090009801B076
:1017600070470000014690F82100022813D1086854
:10177000D1E90FC3026822F00E020260026822F073
:1017800001020260012000FA03F2CCF8042081F883
:101790002100002002E0042088630120002281F85B
:1017A0002020704780B590F82110022923D10268CB
:1017B000116821F00E0111602F211368C4F202019B
:1017C0008A4240F20401C4F2020123F001031360D3
:1017D00016DD3023C4F202039A421DD04423C4F222
:1017E00002039A421BD05823C4F202039A421BD12F
:1017F0004FF4803320E0042181630121084680BD3D
:101800000823C4F202039A420CD01C23C4F2020340
:101810009A4209D110230FE04FF480730CE04FF48B
:10182000805309E0012307E001F1680C4FF0807359
:10183000624508BF4FF480130B60012180F821102E
:10184000426B002180F820100AB190470021084621
:1018500080BD00004FF0010160B302684FF6F873DD
:10186000CBF6FD7302EB030C4CF6CD43CCF6CC4328
:10187000ACFB033C136823F00103136000231360E7
:1018800053609360D3606FF0030202EA9C0240F25F
:10189000000CC4F2020C9140C0E90FC2CCF8041055
:1018A0000021C0E90A33C0E90C33836380F821309A
:1018B00080F820300846704710B50168D0E90FCE97
:1018C000DCF800200B685C0726D5042404FA0EF42B
:1018D000144021D00A68920603D40A6822F0040258
:1018E0000A602F22C4F20202914240F20402C4F2C2
:1018F000020259DD3023C4F2020399426CD0442322
:10190000C4F2020399426AD05823C4F202039942F6
:101910006AD14FF480236FE09C0729D5022404FA92
:101920000EF4144024D00A68920606D40A6822F005
:101930000A020A60012280F821202F22C4F202024A
:10194000914240F20402C4F2020239DD3023C4F2B3
:101950000203994256D04423C4F20203994254D060
:101960005823C4F20203994254D14FF4003359E092
:101970001B0758BF10BD082303FA0EF31A4012D0FC
:101980000A6822F00E020A60012101FA0EF2CCF878
:101990000420816380F82110016B0022002980F867
:1019A000202018BF884710BD0823C4F202039942C3
:1019B00018D01C23C4F20203994215D140231BE026
:1019C0000823C4F20203994222D01C23C4F202036A
:1019D00099421FD1202325E04FF480630CE04FF49F
:1019E000804309E0042307E002F168044FF08063BC
:1019F000A14208BF4FF480031360C16A0029D2D00E
:101A0000884710BD4FF400730CE04FF4005309E019
:101A1000022307E002F168044FF00073A14208BFFF
:101A20004FF400131360816A0022002980F82020FF
:101A3000B9D0884710BD0000014600284FF00100D2
:101A400008BF70472DE9F043D1F800C04FF6F87396
:101A5000CBF6FD734CF6CD426344CCF6CC42A3FBEF
:101A600002236FF0030707EA93030027C4F202077B
:101A700001F10C09C1E90F730223D1E9012E99E8A4
:101A80007002D1F81C8081F82130DCF8003043F678
:101A9000F077BB431A4342EA0E0222432A43324301
:101AA00042EA090242EA0802CCF8002000228A63D6
:101AB00081F8210081F820200020BDE8F043704724
:101AC00010B5044690F82000012820D0012084F8A9
:101AD000200094F82100012816D1022084F821006A
:101AE0000020A063D4F800C0DCF8000020F0010062
:101AF000CCF800002046FFF77FF82068E26A016812
:101B00003AB141F00E010AE0002084F820000220E2
:101B100010BD21F004010160016841F00A0101607B
:101B20002068016841F001010160002010BD000043
:101B300080B541F20C00C4F202004FF0FF310022E8
:101B4000416042600160026000F02EFE002080BD16
:101B5000B0B5044600F0A2F9054640F27110C2F299
:101B600000000078611C18BF044400BF00F096F923
:101B7000401BA042FAD3B0BD2DE9F04F82B000293E
:101B800000F0858041F20042C4F2010240F20043BD
:101B900090424FF00402C4F2010308BF03220092F6
:101BA000A3F57E726FF01F05019201220F261AE045
:101BB0000746BAF5807F24BFAC4604373C6806FA76
:101BC0000CF324EA0303042404FA0CF423433B60DB
:101BD000C36823EA0A03C36031FA02F302F1010287
:101BE00005F1040553D0541E012303FA04F717EA44
:101BF000010AF1D0019B4FEA940953F829E040F61D
:101C00000003C4F20103984213D040F60043C4F22B
:101C1000010398420AD041F20003C4F20103DDF847
:101C200000B0984208BF4FF0020B04E04FF0010BE8
:101C300001E04FF0000B05F1200C0CF00C0406FA4B
:101C400004F80EEA08070BFA04F4A742B0D140F2F8
:101C50000044C4F20104276840F20C4327EA0A0753
:101C600027606768C4F2010327EA0A0767601F68F4
:101C700027EA0A071F60A76827EA0A07A760019BEF
:101C800053F8297027EA080743F8297090E702B053
:101C9000BDE8F08F2DE9F04F82B00E68002E00F005
:101CA000F38041F20042C4F20102042340F2004EEC
:101CB000904208BF03234FF6FF7CC4F2010E00934D
:101CC00000240123C1F2100C4FF0000A4FF000096C
:101CD00041E0012504F00C030F279F402BEA070782
:101CE00005FA03F33B4342F826304E6840F20C45B8
:101CF000F202DEF8082054BF22EA080242EA080293
:101D0000C4F20105CEF808202A68B30254BF22EAC3
:101D1000080242EA08022A60B303DEF8042054BF36
:101D200022EA080242EA0802F303CEF80420DEF8B1
:101D300000204FF0010354BF22EA080242EA0802E1
:101D4000CEF800200E680AF1010A36FA0AF204F110
:101D5000040400F0998003FA0AFB16EA0B08F1D09C
:101D60004A68624510DC122A50D8DFE802F0330AD4
:101D700041454F4F4F4F4F4F4F4F4F4F4F4F4F4892
:101D80004C00D1F80C9041E04FF6FF75C1F22105EF
:101D9000AA420FDC0025C1F21105AA421AD0002583
:101DA000C1F21205AA4215D00025C1F22105AA42AE
:101DB00010D02BE00025C1F22205AA420AD000254E
:101DC000C1F23105AA4205D00025C1F23205AA426E
:101DD0001CD100BF8A6842B1012A14BFC0F814B0F8
:101DE000C0F810B04FF0080910E04FF004090DE002
:101DF000CA6802F1080909E04FF0000906E0CA6864
:101E000002F1040902E0CA6802F10C092246054603
:101E1000B8F5807F24BF203A04352E680F279740FD
:101E2000BE4309FA02F232432A60CA79D2067FF52C
:101E300089AF41F21803C4F202031A684FEA9A0606
:101E400042F001021A601A6840F6000302F0010233
:101E50000192019AAEF57E7252F826B0C4F20103E7
:101E600098420FD040F60043C4F2010398423FF479
:101E700030AF41F20003C4F20103009D984208BF55
:101E8000022527E7002525E702B0BDE8F08F000016
:101E9000002A08BF090401617047000040F66C1079
:101EA000C2F2000000687047F0B581B0B0B30446DC
:101EB00090F83D0028B9002084F83C00204600F04E
:101EC000ADFB242084F83D002068016821F0010169
:101ED0000160016841F400410160016821F40041A2
:101EE000016000F059FE48F28041C0F21E0140F648
:101EF0000012656888424FF00001C0F23D0248F2CE
:101F0000A16C4FF0000338BF01219042C0F2010CD8
:101F100038BF0123654538BF0B4613B1012001B01E
:101F2000F0BD4DF68361C4F21B31A0FB01122168A4
:101F30004FEA924E4B684FF4967623F03F0343EA04
:101F400092434B6044F6D3530F6A0EFB06F6C1F280
:101F50006203A6FB033627F03F03B709654538BF88
:101F6000970C7A1C1A430A62CA6948F2A0674CF6B9
:101F7000FF73C0F20107BD4222EA030C0AD8013800
:101F80006A00B0FBF2F001306FF31F30042898BFF5
:101F900004202BE0A368A0F1010E9BB11920684337
:101FA000BEFBF0F00422013062F31F30000512D0B6
:101FB0009BB119206843BEFBF0F00422013062F3AC
:101FC0001F3011E005EB4500BEFBF0F001306FF370
:101FD0001F300005ECD1012008E005EB4500BEFBF9
:101FE000F0F001306FF31F3040F4004040EA0C0085
:101FF000C8610868D4E9072320F0C00010431843E3
:102000000860886848F2FF3204F10C0790438CCFD7
:1020100018431043A6698860C86820F0FF00384361
:102020003043C860086840F00100086000202021AB
:10203000206484F83D10206384F83E0001B0F0BDB8
:102040002DE9F04F83B01E46154689460446FFF73A
:1020500025FF94F83D1020290CD102210746C0F23B
:102060001001204601221923009701F011FE30B122
:10207000022500E00225284603B0BDE8F08F94F861
:102080003C00012801D10225F5E74FF0010A206844
:1020900084F83CA00168C90703D1016841F001013F
:1020A000016001684FF0000B21F400610160242001
:1020B00084F83D000020CFF6FF7009F0FE094FF0D4
:1020C000A008C4F840B0E062012D88BFAA4600BF56
:1020D000206800220168334641F480710160204687
:1020E0004FF00111009701F0D3FD2168002854D171
:1020F000C1F81090FFF7D2FE21680A4652F8143F4B
:10210000156894F83D70A02F074620D003F0020018
:1021100005F48063C0181AD1FFF7C0FE36B1C01BAA
:10212000B04288BF84F83D8002E000BF84F83D8063
:10213000216848694A6994F83D30A02B05D000F029
:10214000020002F480628018E6D001F1140220201F
:1021500084F83D0048690B68800743F400730B6006
:1021600023D46FF48060022110602046C0F2100179
:10217000012219230097012501F08AFD00287FF430
:102180007AAF0BF1010BD345A2D1202084F83D009A
:102190000020012584F83C006DE708680325C00590
:1021A00044BF4FF40070206465E700260296106873
:1021B0000122029088690221029002982046C0F212
:1021C000100119230097012501F062FD00287FF41A
:1021D00052AF202084F83D0084F83C6000254AE797
:1021E0002DE9F04784B0044600201F4616460D46F0
:1021F0000390FFF753FE94F83D1020290FD10221E0
:102200008146C0F21001204601221923CDF800902A
:1022100001F03EFD18B994F83C00012803D10220DA
:1022200004B0BDE8F0870121226884F83C101368EF
:10223000DDE90D080C99DB0703D1136843F00103B6
:102240001360136823F400631360222284F83D2096
:10225000402284F83E200022226461626085608D05
:10226000294620850020CFF6FF70E06220463246E6
:102270003B46CDF80080CDF8049001F0EDFB18B19D
:10228000012004B0BDE8F087208D022810D001287D
:1022900024D0002838D100200290206841690291A2
:1022A000816902910299016841F40071016037E08F
:1022B0002068016841F400610160EFF3108072B69C
:1022C000002002902068416902918169029102997F
:1022D000016821F48061016062B621E02068016834
:1022E00021F480610160EFF3108072B6002002904B
:1022F000206841690291816902910299016841F463
:102300000071016062B60BE02068016841F48061F1
:102310000160002102914169029180690290029856
:10232000208D002800F0AC80042740F2040A4BF214
:102330008956C0F20107C2F2000AC1F2F84623250D
:1023400017E0204641464A4601F038FD002897D163
:102350002068616A00690870606A218D01306062DE
:10236000481E2085608D01386085208D002800F092
:102370008780032847D8022861D00128E1D0204671
:10238000394600224346CDF8009001F081FC002838
:102390007FF476AF2068016821F480610160EFF37B
:1023A000108072B62068616A00690870606A218DC9
:1023B0000130013960622185618D01396185DAF86A
:1023C0000010C908A1FB0612110A6943039100BF5E
:1023D000039901390391039900295CD021684A6966
:1023E0005207F5D50A6842F400720A600969017063
:1023F000606A218D01306062481E2085608D013841
:10240000608562B6A4E7204641464A4601F0D6FC04
:1024100000287FF435AF2068616A00690870606A3F
:10242000228D0130013A606222852168628D013A75
:1024300062854A69520798D5096901708CE7204680
:10244000394600224346CDF8009001F021FC0028D7
:102450007FF416AFEFF3108072B62068616A0268ED
:1024600042F40072026000690870606A218D0130D8
:102470006062481E2085608D0138608562B667E71E
:10248000202084F83D00002084F83E0084F83C00C1
:1024900004B0BDE8F08700202021206384F83D10BF
:1024A00084F83E00216C41F02001216462B684F87A
:1024B0003C00E5E62DE9F04383B0994616460F4609
:1024C0000446FFF7EBFC94F83D1020290ED10221C1
:1024D0000546C0F21001204601221923009501F0A3
:1024E000D7FB18B994F83C00012803D1022003B0AF
:1024F000BDE8F0830121226884F83C101368DDE90F
:102500000B080A99DB0703D1136843F0010313603A
:10251000136823F400631360212284F83D204022D5
:1025200084F83E200022226461626085608D394615
:1025300020850020CFF6FF70E062204632464B46F1
:10254000CDF80080019501F00DFB30B3012003B000
:10255000BDE8F083204641462A4601F06BFC28BBCB
:10256000606A2168034613F8012B0A61228D6362B9
:10257000571E2785638D3F04A3F1010363854B69D3
:1025800018BF13F0040308D0437802300B61606277
:10259000901E2085608D01386085208D0028D9D15E
:1025A000204641462A4601F03DFB40B1206C0428FC
:1025B000CCD12068016841F400710160C6E7206851
:1025C000016841F400710160202084F83D00002082
:1025D00084F83E0084F83C0003B0BDE8F0830000BE
:1025E00010B540F60044C4F201040068A4F5384177
:1025F000884218BF10BD41F21C00C4F202000168FD
:1026000021F40011016020464FF48071FFF7B4FA05
:1026100020464FF40071FFF7AFFA10BD10B586B039
:10262000006845F20041C4F2000188424FF000000A
:10263000CDE90400CDE9020001D006B010BD41F2A1
:102640001804C4F20204206802A940F008002060C7
:10265000206800F00800019001984FF4407002904B
:10266000122003900320059040F60040C4F20100C0
:10267000FFF710FB0420C4F20100016841F0E061A3
:1026800041F002010160606840F400106060606821
:1026900000F400100190019806B010BD40F27110D6
:1026A00040F66C11C2F20000C2F2000100780A6824
:1026B000104408607047000080B542F20000C4F288
:1026C0000200016841F010010160032000F0A8F849
:1026D0000F2000F005F800F069F8002080BD000030
:1026E000B0B540F27112C2F2000240F20401127859
:1026F000C2F200014FF47A730968B3FBF2F20446A8
:10270000B1FBF2F1084600F0FDFC0F2C4FF0010583
:102710000CD858B94FF0FF3021460022002500F0B8
:102720006FF840F27410C2F2000004602846B0BD99
:10273000002804BF01207047B0B5044690F841005E
:102740000D4628B9002084F84000204601F0AAF880
:10275000242084F841002068C16821F40051C16040
:10276000204602F0F1FF2068016921F40061016157
:10277000416921F02A014161016941F4804101610F
:10278000016921F020010161016929430161C168EA
:1027900041F40051C16000202021606484F84110A0
:1027A00084F842106063B0BD7047000082B041F20F
:1027B0001800C4F202000168022241F00101016028
:1027C000016801F0010101910199416841F08051D6
:1027D0004160406800F08050009000980420C4F2EE
:1027E0000100016862F31A61016002B070470000E5
:1027F00080B503F0CBF980BD80B503F0DBF980BD77
:1028000070B514460D46064603F0E4F92946224603
:1028100002F062F80146304603F0E4F970BD0000B2
:1028200080B503F0F1F980BD2DE9F04182B0044696
:10283000007841F21C06C007C4F202064AD0306894
:1028400010F0805808D1306840F080503060306817
:1028500000F080500190019847F20007C4F2000791
:102860003868C00512D4386840F480703860FFF7CB
:1028700015FB05463868C00508D4FFF70FFB401B61
:102880006428F7D9032002B0BDE8F081706810F425
:10289000407012D0616801F4407188420DD07068B8
:1028A00040F24042C4F24222012320F440711360FE
:1028B0000023C0071360716029D17068616820F43B
:1028C00040700843B8F1000F706003D1306820F009
:1028D000805030602068810707D556F8181CA26820
:1028E00021F44041114346F8181CC00603D40020CF
:1028F00002B0BDE8F08156F8180CE16820F48000C1
:10290000084346F8180C002002B0BDE8F081FFF73C
:10291000C5FA054641F2883770688007CDD4FFF7C5
:10292000BDFA401BB8424FF00300F5D9ECE70000B8
:102930002DE9F04381B0002800F0898042F20008C0
:10294000C4F202080446D8F800000D4600F0070063
:1029500088420CD2D8F8000020F007002843C8F8BD
:102960000000D8F8000000F00700A8426FD12068EE
:1029700041F204098107C4F2020917D5410705D5C0
:10298000D9F8001041F4E061C9F80010010705D53D
:10299000D9F8001041F46051C9F80010D9F80010BE
:1029A000A26821F0F0011143C9F80010C00745D119
:1029B000D8F8000000F00700A8420CD9D8F80000B1
:1029C00020F007002843C8F80000D8F8000000F005
:1029D0000700A8423BD12068410707D5D9F800106D
:1029E000E26821F4E0611143C9F80010000708D53E
:1029F000D9F80000216920F4605040EAC100C9F80C
:102A0000000000F0EDF8D9F8001046F66832C1F386
:102A10000311C0F60002515C40F2040220FA01F1F9
:102A200040F27410C2F200000068C2F200021160AD
:102A3000FFF756FE002001B0BDE8F0836068022871
:102A400009D0012829D159F8041C890307D4012091
:102A500001B0BDE8F08359F8041C8901F7D5D9F815
:102A6000001021F003010843C9F80000FFF716FA2F
:102A7000064641F2883700BFD9F80000616800F0CF
:102A80000C00B0EB810F93D0FFF708FA801BB8421F
:102A9000F2D9032001B0BDE8F08359F8041C89077E
:102AA000D5D5DCE770B541F20005C4F20205FFF7A9
:102AB000F5F92968044641F001002860286880077C
:102AC00006D4FFF7EBF9001B0228F7D9032070BDED
:102AD0002868102161F3C7002860FFF7DFF904467A
:102AE000002041F288366860686810F00C0F06D04C
:102AF000FFF7D4F9001BB042F6D9032070BD40F2B5
:102B00007410C2F2000040F2040141F20022006899
:102B1000C2F20001C0F27A020A60FFF7E1FD00286C
:102B20001CBF012070BDFFF7B9F92968044621F0E8
:102B3000807028602868800106D5FFF7AFF9001B78
:102B40000228F7D9032070BD00206860FFF7A6F9BE
:102B50002968044621F41020286000BF28688003FB
:102B600008D5FFF79BF9001B64284FF0030088BFCE
:102B700070BDF3E7286820F480202860686A40F080
:102B8000807068620020A86070BD000040F2040000
:102B9000C2F200000068704780B5FFF7F7FF41F20E
:102BA0000401C4F20201096846F67832C1F3022139
:102BB000C0F60002515CC84080BD000080B5FFF740
:102BC000E5FF41F20401C4F20201096846F67832D9
:102BD000C1F3C221C0F60002515CC84080BD0000B4
:102BE00041F20401C4F202010B6842F2004003F01A
:102BF0000C02042AC0F2F40008BF7047082A0CD166
:102C0000C3F3834C0CA212F80C20DB030AD440F669
:102C10000010C0F23D005043704741F20020C0F266
:102C20007A007047096808A3C1F34041595C5043DA
:102C3000B0FBF1F0704700BF020304050607080966
:102C40000A0B0C0D0E0F101001020000B0B586B07B
:102C50000020049002200390032005904FF4807020
:102C600041F218050290C4F2020528680C4640F0B3
:102C700004002860286802A900F00400019001986F
:102C800040F60000C4F20100FFF704F855F8140CF8
:102C900020F0E060204345F8140C06B0B0BD000001
:102CA0002DE9F04182B0002800F0C480044600788D
:102CB00041F20006C007C4F2020643D0706800F07B
:102CC0000C00042817D0706800F00C00082802D10E
:102CD0007068C0030FD465682DB1B5F5A02F10D072
:102CE000B5F5803F11D0306820F480303060306816
:102CF00020F480200CE03068800323D5606808BB96
:102D000098E0306840F480203060306840F48030D3
:102D10003060FFF7C3F8002D054610D030688003FF
:102D200010D4FFF7BBF8401B6428F7D904E100BFBB
:102D3000FFF7B4F8401B64284FF0030077D83068E1
:102D40008003F5D42078800718D5706810F00C0F38
:102D500007D0706800F00C00082826D17068C00306
:102D600023D43068800702D52069012862D13068F9
:102D7000616920F0F80040EAC10030602078000767
:102D80003DD5A06938B30020C4F242200121C0F82B
:102D90008014FFF783F80546706A80072DD4FFF78B
:102DA0007DF8401B0228F7D9C6E02069002840F2D0
:102DB0000000C4F2422000F0968001210160FFF77C
:102DC0006DF8054630688007D1D4FFF767F8401BDF
:102DD0000228F7D9B0E00020C4F242200021C0F858
:102DE0008014FFF75BF80546706A800707D5FFF788
:102DF00055F8401B0228F7D99EE001F085FD2078A8
:102E000040071BD4E5698DB1706800F00C000828FC
:102E100047D1012D0ED07068216A00F480328A42B9
:102E200008D1616A00F47010884203D1002002B01A
:102E3000BDE8F081012002B0BDE8F081F06910F03A
:102E4000805808D1F06940F08050F061F06900F0DE
:102E500080500190019847F20007C4F200073868DB
:102E6000C00510D4386840F480703860FFF716F859
:102E7000054600BF3868C00505D4FFF70FF8401BB2
:102E80006428F7D958E0E5681DB1052D3CD0012D27
:102E90003ED0306A20F001003062306A20F0040039
:102EA00039E00027C4F2422700203866FEF7F6FF1B
:102EB000022D05460CD100BF3068800154D5FEF7C5
:102EC000EDFF401B02284FF00300F5D9AFE700BF2C
:102ED00030688001AAD5FEF7E1FF401B02284FF0C1
:102EE0000300F5D9A3E700210160FEF7D7FF0546EF
:102EF000306880077FF542AFFEF7D0FF401B022805
:102F00004FF00300F4D992E7306A40F004003062D9
:102F1000306A40F001003062FEF7C0FF002D054628
:102F200041F2883714D000BF306A800713D4FEF70F
:102F3000B5FF401BB842F7D9032002B0BDE8F081CD
:102F4000FEF7ACFF401BB8424FF003003FF66FAFF7
:102F5000306A8007F4D4B8F1000F7FF453AFF06902
:102F600020F08050F0614DE7206AB0F5803F05D138
:102F70007168A26821F40031114371607168626A5E
:102F800021F4741110430843706001203866FEF785
:102F900085FF0446306880013FF548AFFEF77EFFAD
:102FA000001B02284FF00300F4D940E770B538B198
:102FB0000446406A30B10020206104F1140007E0AB
:102FC000012070BD6068B0F5827F03D004F11C0061
:102FD000002101600026A66294F8510020B9204625
:102FE00084F8506000F050F8022084F8510094E812
:102FF000071001F48271036802F4044223F04003D5
:103000000360236911440CF40062114403F00202CE
:103010006369114403F00102A369E569114403F4F3
:103020000072114405F03802256A114405F080024F
:10303000A56A114305F4005211430160042101EA1D
:1030400013414160C16921F40061C16101206665DD
:1030500084F85100304670BD80B5014640F600004E
:10306000C4F20100096800F52052914218BF80BDEA
:1030700041F21801C4F202010A6822F480520A6087
:10308000F021FEF779FD80BD70B586B040F60004F2
:10309000C4F20104006804F5205100268842059618
:1030A000CDE90366029601D006B070BD41F218006A
:1030B000C4F20200016802AD41F480510160016870
:1030C00001F4805101910199016841F0040101600E
:1030D0000068294600F0040001900198B020029099
:1030E00002200390032005902046FEF7D3FD4020E8
:1030F000CDE90206204629460496FEF7CBFD06B030
:1031000070BD000080B501F059FF80BD10B590F88A
:103110003C20012A4FF0020231D0012380F83C30DC
:1031200080F83D200268D2F804E0D2F808C00C68AC
:103130002EF07003234340F2FF74C4F20004A24255
:10314000536005DCB2F1804F0ED040F2004307E03F
:1031500042F60043C4F201039A4205D040F6000350
:10316000C4F200039A4204D149682CF08003194349
:1031700091600121002280F83D1080F83C2010462B
:1031800010BD0000002804BF0120704710B50446A0
:1031900090F83D0028B9002084F83C00204600F05B
:1031A0001FF8022084F83D002068211D01F06AFF0D
:1031B000012084F8460084F83E0084F83F0084F83B
:1031C000400084F8410084F8420084F8430084F809
:1031D000440084F8450084F83D00002010BD000044
:1031E00082B0006840F60001C4F20001884214D0A9
:1031F00040F20041C4F2000188421BD141F21C00A0
:10320000C4F20200016841F002010160006800F0B0
:1032100002000190019802B0704741F21C00C4F214
:103220000200016841F004010160006800F0040040
:103230000090009802B0704710B5044690F83C002A
:1032400001284FF0020008BF10BD012284F83C2085
:1032500084F83D0020684FF6777382689A43826055
:103260000A684F2A0FDC1F2A22DD202A23D0302AA9
:1032700021D0402A4DD14B68CA68194602F02AF87D
:10328000206840213BE06F2A17DDB2F5005F20D0B7
:10329000B2F5805F2AD0702A3BD1D1E9012CCB68EE
:1032A000614601F047FF2068816841F077011AE02C
:1032B0000AB1102A2DD1114621E0502A18D0602AD7
:1032C00027D14B68CA68194602F016F820686021B9
:1032D00015E0D1E9012CCB68614601F02BFF206895
:1032E000816841F48041816000200BE0002009E00A
:1032F0004B68CA68194601F0EDFF2068502101F0C3
:1033000025FF0020012184F83D10002184F83C10A5
:1033100010BD0120F6E7000080B586B0006840F6D9
:103320000001C4F2000188424FF00001CDE9041110
:10333000CDE902112ED040F20041C4F200018842D2
:1033400041D141F21800C4F20200016841F00801C5
:103350000160006802A900F00800019001981020A7
:10336000029002200390059040F60040C4F2010054
:10337000FEF790FC0420C4F2010001684FF2FF3216
:10338000CFF6FF02114041F0E06141F400610160BD
:1033900006B080BD41F21800C4F20200016841F09D
:1033A00008010160006802A900F00800019001987E
:1033B000C020029002200390059040F60040C4F225
:1033C0000100FEF767FC06B080BD0000B0B5044602
:1033D00090F83C00012804BF0220B0BD0D464FEA22
:1033E000B2010120032984F83C0037D8DFE801F05E
:1033F000020A12222068294601F0B0FE206850F827
:10340000181F0EE02068294601F0D8FE206850F809
:10341000181F16E02068294601F004FF206850F8C4
:103420001C1F41F008010160016821F004010160E6
:1034300029690FE02068294601F026FF206850F82E
:103440001C1F41F400610160016821F4806101608A
:10345000296909020268114301600020002184F8F3
:103460003C10B0BD002804BF0120704710B50446D1
:1034700090F83D0028B9002084F83C00204600F078
:103480001FF8022084F83D002068211D01F0FAFD9C
:10349000012084F8460084F83E0084F83F0084F858
:1034A000400084F8410084F8420084F8430084F826
:1034B000440084F8450084F83D00002010BD000061
:1034C00070470000B0B5044641B1082909D004296D
:1034D00014BF04F1410004F13F0004E004F13E0098
:1034E00001E004F14000007801281CBF0120B0BDBC
:1034F000022041B1082909D0042914BF84F84100F1
:1035000084F83F0004E084F83E0001E084F84000C5
:10351000206842F644450122C4F2010501F0F8FD9D
:103520002068A5F14401884203D1296841F4004193
:10353000296040F2FF71C4F20001884205DCB0F15D
:10354000804F0ED040F2004107E042F60041C4F245
:103550000101884205D040F60001C4F20001884212
:1035600006D1816801F00701062904BF0020B0BD23
:10357000016841F0010101600020B0BD704700000A
:1035800070470000B0B582B0036804461868D96877
:103590005A6900F02F05202D01F0200505D125B135
:1035A000204602F06DF802B0B0BD5FEA007C1EBF9D
:1035B00002F0010E01F4907212EB0E024AD1226B5E
:1035C0000840C1063DD5012A3BD100200190186872
:1035D00001905868019001985869400642D4A08D26
:1035E000E18DE28D002A1CBF401A5FEA004101D143
:1035F00002B0B0BD216851E8031F226821F4907128
:1036000042E80313002BF5D1216851E8051F226819
:1036100021F0010142E80513002BF5D1202184F8A7
:1036200042100021216300BF216851E8031F226876
:1036300021F0100142E80313002BF5D10221616350
:1036400054E0010658D44006D2D5204601F0FEFFD2
:1036500002B0B0BDC20718BF11F4807251D1420749
:1036600055D45BE0E06B016849688AB2002ABFD09C
:10367000A38D9A42BCD2E1858069202831D000BF59
:10368000206850E8030F216820F4807041E80302AD
:10369000002AF5D1206850E8050F216820F00100CC
:1036A00041E80502002AF5D1206850E8050F21689D
:1036B00020F0400041E80502002AF5D1202084F8DE
:1036C00042000020206300BF206850E8030F2168FB
:1036D00020F0100041E80302002AF5D1E06BFEF76C
:1036E00041F802206063A08DE18D401A81B220462E
:1036F000FFF744FF02B0B0BD204602F0B9F802B0B7
:10370000B0BD626C42F001026264420706D5BEF1B0
:10371000000F03D0626C42F002026264820706D599
:10372000BEF1000F03D0626C42F004026264BCF18F
:10373000000F06D55EEA050203D0626C42F0080273
:103740006264626C002A3FF453AF0840800602D5E1
:10375000204601F095FF20684069616C00F0400050
:1037600001F00801401827D0204601F047FF2068EB
:10377000406940061BD500BF206850E8050F21684E
:1037800020F0400041E80502002AF5D1E06B70B15D
:1037900045F2FD41C0F600014163FEF703F8002841
:1037A0003FF426AFE06B416B884702B0B0BD2046C6
:1037B000FFF7E6FE02B0B0BD2046FFF7E1FE0020B5
:1037C000606402B0B0BD0000002804BF0120704753
:1037D00010B5044690F8410028B9002084F8400054
:1037E000204600F05FF8242084F841002068C1687A
:1037F00021F40051C160204601F0A6FF2068016954
:1038000021F490410161416921F02A014161C168BF
:1038100041F40051C16000202021606484F841100F
:1038200084F84210606310BD10B50446006844F689
:103830000001C4F2000188421DD043F60001C4F229
:103840000101884218BF10BD41F21800C4F2020005
:10385000016821F48041016040F60000C4F20100DB
:103860004FF4C061FEF788F9E06BFDF7F3FF252008
:10387000FEF7BEFF10BD41F21800C4F2020041681D
:1038800021F48021416040F60000C4F2010000F5FF
:1038900080604FF44061FEF76FF92720FEF7A8FF24
:1038A00010BD00002DE9F04186B00446006844F6E2
:1038B0000001C4F20001002688420596CDE90366A6
:1038C000029652D043F60001C4F20101884240F052
:1038D0008A8041F21807C4F20207386840F60005F2
:1038E00040F4804038603868C4F2010500F480403C
:1038F0000190019838680DF1080840F00400386024
:103900003868414600F00400019001984FF40070BF
:10391000029002200390032005902846FEF7BAF992
:103920004FF480600290002628464146CDE90366A8
:10393000FEF7B0F940F21C75A7F57C60C2F20005F5
:1039400080212022C5E900062846C5E90261C5E9B3
:103950000466C5E90626FEF76FF8002818BFFDF7D4
:1039600047FBE5636C62252435E041F21C00C4F29C
:103970000200016802AD41F480210160006800F49A
:1039800080200190019841F21800C4F20200016801
:1039900041F0080101600068294600F0080001902C
:1039A00001984FF48060029002200390032005905C
:1039B00040F60000C4F2010000F580642046FEF7E6
:1039C00069F94FF40060CDE90206204629460496C5
:1039D000FEF760F92724204600210022FEF710FFA1
:1039E0002046FEF709FF06B0BDE8F08110B590F85B
:1039F0004230202B1CBF022010BD00294FF00104D3
:103A000018BF002A01D1204610BD0024046301F034
:103A1000E3FE204610BD0000704700007047000024
:103A200070470000FEE700000268516949054FF049
:103A300000010FD56FF4806353612022016380F889
:103A40003D2080F83E10026C42F00402026480F8CF
:103A50003C100121084670472DE9F04782B004462A
:103A600000680E460168DDF828A041F4806101601D
:103A70000168DDF82C9041F480711D461746016005
:103A800020464FF0011100225346CDF8009000F07F
:103A9000FFF850B120680068C00544BF4FF40070C3
:103AA0002064032002B0BDE8F08740F202082068DD
:103AB000C0F2010806F0FE06066120464146524665
:103AC0004B4600F02FF948BB0020019020684A4681
:103AD000416901918069514601900198204600F0AA
:103AE000A9F998B9012D08D02068390A016120464A
:103AF00051464A4600F09EF940B92068F9B201618A
:103B0000204651464A4600F095F958B1206C0428E9
:103B100004D12068016841F400710160012002B005
:103B2000BDE8F087206800220168534641F48071A7
:103B3000016020464FF00111CDF8009000F0A8F888
:103B40000028A7D1206846F00101016120464146C6
:103B500052464B4600F0E6F8002818BF012002B09C
:103B6000BDE8F0872DE9F04383B0044600680D46B8
:103B700001680A9F0B9E41F480719946904601604E
:103B800020464FF0011100223B46009600F080F8DD
:103B900050B120680068C00544BF4FF40070206435
:103BA000032003B0BDE8F083206805F0FE01016149
:103BB0000221C0F2010120463A46334600F0B2F835
:103BC00018B1012003B0BDE8F08300200290206806
:103BD0003246416902918069394602900298204636
:103BE00000F028F940B1206C0428EAD1206801686F
:103BF00041F400710160E4E7B9F1010F0AD02068D7
:103C00004FEA1821016120463946324600F012F988
:103C10000028E8D120685FFA88F10161002003B034
:103C2000BDE8F083F0B581B0044600684069400704
:103C30001AD415460E464F1C08E000BF20684069A4
:103C4000400714D52068406940070DD42046FFF78F
:103C5000EBFEC8B9002FF5D0FEF720F9002EEDD00D
:103C6000401BB042EED9E9E7002001B0F0BD0020D2
:103C70002021206384F83D1084F83E00216C41F03F
:103C80002001216484F83C00012001B0F0BD000057
:103C90002DE9F047DDF8208099461646044601F4E8
:103CA0007F078DB203F1010A0EE000BF2068B7F56F
:103CB000803F14BF1830143000682840401BB0FA11
:103CC00080F04009B0421DD02068B7F5803F14BF96
:103CD0001830143000682840401BB0FA80F04009CA
:103CE000B0420CD1BAF1000FEED0FEF7D7F8B9F11F
:103CF000000FDBD0A0EB08004845E5D9D6E700204F
:103D0000BDE8F08700202021206384F83D1084F86E
:103D10003E00216C41F02001216484F83C00012028
:103D2000BDE8F0872DE9F0410446006898464369F4
:103D30008FB203EA0701B94202D10020BDE8F08149
:103D40004169490517D41646551C00BF5DB1FEF701
:103D5000A5F81EB1A0EB0800B04204D92068406964
:103D60003840B8421ED1206841693940B942E4D098
:103D700041694905EAD5016841F4007101606FF4B9
:103D80008061416100202021206384F83D1084F887
:103D90003E00216C41F00401216484F83C000120C4
:103DA000BDE8F08100202021206384F83D1084F8D4
:103DB0003E00216C41F02001EEE7000070B50446A2
:103DC0000068154650F8143F5A0615D40E4608E010
:103DD0002068406940061DD5206850F8141F490628
:103DE0000AD40168C90609D4FEF758F8002EEFD0AE
:103DF000401BB042F0D9EBE7002070BD6FF010011E
:103E0000016000202021206384F83D1084F83E00EA
:103E1000216C09E000202021206384F83D1084F803
:103E20003E00216C41F02001216484F83C00012017
:103E300070BD0000F0B581B004460068406900061E
:103E40001AD415460E464F1C08E000BF2068406992
:103E5000000614D52068406900060DD42046FFF7FF
:103E6000E3FDC8B9002FF5D0FEF718F8002EEDD00D
:103E7000401BB042EED9E9E7002001B0F0BD0020C0
:103E80002021206384F83D1084F83E00216C41F02D
:103E90002001216484F83C00012001B0F0BD000045
:103EA00070B50C4605460E2029462246FCF7DAFC82
:103EB0000D2600BF284600F0ABF8284600F0C6F8F3
:103EC000F0B229462246FCF7CDFC284600F010F857
:103ED000013E3006EED1284600F09AF8284600F060
:103EE000B5F8002029462246FCF7BCFC70BD000056
:103EF0002DE9F04F8BB0A0F10309042119F8044F0C
:103F0000079119F8010C99F8016099F8025004948E
:103F10000690089602F020FE0A9002F01DFE09901D
:103F200002F01AFE0590204602F016FE039002F001
:103F300013FE044602F010FE8346304602F00CFEEB
:103F4000029002F009FE804602F006FE82462846F4
:103F50002E4602F001FE019002F0FEFD074602F03F
:103F6000FBFD089A049D864682EA05010A98714085
:103F7000414009983346059E4140039871404140B5
:103F800081EA0B0181EA080181EA0A01DDF818C023
:103F900081EA0E0109F8011C82EA0C0159407140C6
:103FA00041401A466140029B81EA0B01594081EA77
:103FB0000A01794081EA0E0189F8001085EA0C01B6
:103FC00009984A4042400898724041400A9882EA63
:103FD0000B024140714061405A40019B81EA0B0154
:103FE00081EA0A01594082EA0802794082EA0A021B
:103FF00081EA0E0007995A4082EA0E02013989F8D7
:10400000012089F802007FF479AF0BB0BDE8F08F92
:1040100080B5417A90F80DC0417341784279417181
:10402000817A83788170817B427282798171C179D2
:1040300090F803E08273C170C17AC27B80F801C03E
:104040008372C171C27280F80FE080BD80B546F600
:10405000306E4FF0000CC0F6000E00BF6FF003038F
:10406000C1180A7904331EF802200C2B0A71F7D10B
:104070000CF1010CBCF1040F00F1010008BF80BD80
:10408000ECE700002DE9F04FC21E0339082300BF02
:10409000CF78013BD77011F8047F02F8047F4F7886
:1040A00057708F789770F3D146F6307E0821002242
:1040B000C0F6000E1AE000BF845CDD787C409F787B
:1040C00083F820405C7887EA0B07043284EA0C040A
:1040D00083F8227085EA0607D02A83F8214083F806
:1040E000237001F1010108BFBDE8F08F83181F7F25
:1040F00093F81DC093F81EB0DE7F11F0070803D0BF
:10410000B8F1040FD8D110E01EF80C901EF80BC0C7
:104110001EF806B0CE080AA414F806A01EF8076020
:104120008AEA0907B8F1040FC6D1FFB21EF807707A
:104130001EF80CC01EF80BB01EF80660BCE700BFEE
:104140008D01020408102040801B360070470000DB
:104150007047000040F23441C4F200010A68FA2AB4
:1041600002BF00200860704770B140F2AA60C2F23E
:10417000000002780132D3B2052B027038BF7047BD
:1041800000220270FA2008607047000040F6E40048
:10419000C2F2000000680168C90508D56FF480719B
:1041A000016040F27A41C2F2000101220A70016806
:1041B000890600D47047416840F27A40C2F200009C
:1041C0000278013A052A88BF7047DFE802F0040B45
:1041D00003031326EEE789B255290CBF0221002103
:1041E000017070470322027040F27040C2F200007A
:1041F00001707047427840F2704CC2F2000C0CEB38
:1042000002039970511C9CF80120CBB2934241707B
:1042100022BF062101707047CCE781700021017038
:104220007047000070B5A8B04FF2E871C1F6FF7199
:104230000968044625914FF2EC704FF2F071C1F617
:10424000FF70C1F6FF71006809686D46CDE926016F
:10425000284602F07DFB25A928460C2202F046FCE8
:104260001DAE2846314602F005FB2046314620228D
:10427000FCF75EF8B0FA80F0400928B070BD00008D
:1042800010B586B00DF107040A460146204600230A
:1042900000F008F8012021461122FCF73FFD06B08E
:1042A00010BD00002DE9F047C8B08A4681460829B4
:1042B00046F6B05046F63051C0F60000C0F6000198
:1042C0004FF0000828BFC246002B18BF01464FEA36
:1042D0000A10085801EB0A1102F00F040490486814
:1042E0008A68C968CDE90502079146F680310AEB74
:1042F0004A00C0F6000151F8202001EB800041681F
:10430000806801920291039074B1002504AE01AF60
:104310003046102102F00EFC38460C2102F00AFC57
:104320000135E8B2A042F3D304A801A944EA0A1473
:1043300001F07AFC45F25420A9F800004FF2E87031
:10434000C1F6FF70006840F64815C9F802004FF248
:10435000EC70C1F6FF70006840F63816C9F8060028
:104360004FF2F070C1F6FF700068C2F20005C2F2B1
:10437000000608AFC9F80A0038462946324689F8CF
:104380001040FCF75DFA384649461022FCF72CFA3B
:10439000C5E90088C5E90288C5E90488C5E9068839
:1043A000C6E90088C6E9028848B0BDE8F087000089
:1043B000B0B584B040F2BC6042F200410024C2F2C9
:1043C0000000C4F201014FF4602201250394CDE9FD
:1043D000014404730475C261C0E90014846005617E
:1043E000FCF794FE68B940F2BC60C2F2000001A97B
:1043F000CDE901450394FCF701FE002804BF04B099
:10440000B0BDFCF7F5FD000010B540F2EC6046F2DF
:104410000041C2F20000C4F20001042200234FF068
:10442000807480E80E0000F10C014FF4602C4FF412
:10443000801E81E8085084618383FDF75FF80028BF
:1044400008BF10BDFCF7D4FD80B540F2147043F2F4
:104450000001C2F20000C4F202010160FDF744F95C
:10446000002808BF80BDFCF7C3FD000080B582B006
:1044700041F21400C4F202000168002241F001017F
:1044800001600068002100F00100019001980F20F8
:10449000FEF7B6F90F20FEF7AFF902B080BD0000BD
:1044A0002DE9F04F85B0002541F21800CDE9035504
:1044B000CDE90155C4F20200016840F6004841F020
:1044C000100101600168C4F2010801F010010091BF
:1044D0000099016808F5806741F0200101600168DA
:1044E000002201F020010091009901684FF4404A38
:1044F00041F004010160016801F00401009100999C
:10450000016841F00801016000684FF4404100F08B
:104510000800009000983846FDF7BAFC40464CF27F
:104520002A0100224CF22A09FDF7B2FCA8F58064AA
:1045300020464FF400410022FDF7AAFC4FF4005042
:1045400001AECDE90105384631460395FDF7A2FBE2
:10455000CDF804A04FF0010A4FF0020B3846314667
:10456000CDE902A5CDF810B0FDF794FB0020C1F213
:104570001100CDE9020540463146CDF804A0FDF713
:1045800089FB40463146CDE9019ACDE9035BFDF751
:1045900081FB4FF44050CDE901054046314603957B
:1045A000FDF778FB4FF48070CDE9010B20463146D2
:1045B000CDF810B0FDF76EFB4FF40040CDE9010AD5
:1045C00020463146CDE9035BFDF764FB05B0BDE84D
:1045D000F08F000080B540F2607045F20041C2F2F9
:1045E0000000C4F2000148F2A06200234FF4804CA6
:1045F000C0F2010280E80E00C0E9033CC0E90533C7
:10460000C0E90733FDF750FC002808BF80BDFCF768
:10461000EFFC000080B540F2B47043F20001C2F23A
:104620000000C4F201014FF48272002380E80E0002
:1046300000F114014FF4802C4FF0100E81E8085067
:104640000A21C0E90333C0E90833C0E90A31FEF7A3
:10465000ADFC002808BF80BDFCF7CAFC10B58EB0C9
:1046600040F60C0040F200420021C2F20000C4F209
:10467000000247234FF4FA740D91CDE90B11CDE9F7
:104680000911CDE90711CDE90511CDE90311CDE9F6
:104690000111C0E90023C0E9021401618161FEF744
:1046A00071FD90BB4FF480500A9040F60C00C2F2AE
:1046B00000000AA9FEF7C0FD38BB40F60C00C2F2AC
:1046C0000000FEF7CFFE00BB40F60C000024C2F253
:1046D000000008A9CDE90844FEF718FDA8B960203C
:1046E000CDE9010440F60C00C2F2000001A900224D
:1046F00003940594FEF76AFE38B940F60C00C2F246
:104700000000FEF709FE0EB010BDFCF771FC0000C2
:1047100010B58EB040F6540040F600020021C2F2FF
:104720000000C4F200024FF6FF730D91CDE90B11AA
:10473000CDE90911CDE90711CDE90511CDE9031145
:10474000CDE90111C0E90021C0E9021301618161D5
:10475000FEF718FDD8BB4FF480500A9040F6540085
:10476000C2F200000AA9FEF767FD80BB40F65400C4
:10477000C2F20000FEF776FE48BB40F6540000246B
:10478000C2F2000008A9CDE90844FEF7BFFCF0B969
:104790006020CDE9010440F65400C2F2000001A9F6
:1047A000002203940594FEF711FE80B940F65400F0
:1047B000C2F2000001A90422FEF708FE38B940F653
:1047C0005400C2F20000FEF7A7FD0EB010BDFCF7CA
:1047D0000FFC000010B543F60C04C4F2010440F6CF
:1047E0009C00A4F10C01C2F2000000234FF00C0C5D
:1047F0004FF4E13280E80E00C0E90333C0E905C39D
:10480000C361FEF7E1FF002801BF206840F01000FF
:10481000206010BDFCF7ECFB80B540F6E40044F6E8
:104820000001C2F20000C4F200014FF4165200234E
:104830004FF00C0C80E80E000021C0E90333C0E902
:1048400005C3FDF775FF002808BF80BDFCF7D0FB4E
:10485000FEE700002DE9F04F83B001306FF0030553
:10486000019000BF0198461996F803A0347996F894
:104870000580B77984EA0A0B8BEA0800029080EA87
:1048800007095FFA8BF002F067F989EA0A014840EC
:10489000F07088EA0400C0B202F05EF989EA04010F
:1048A0004840307187EA0800C0B202F055F98BEA3F
:1048B00007014840707187EA0A00C0B202F04CF963
:1048C0000299043548400C2DB071CBD103B0BDE83E
:1048D000F08F0000FEE7000000F0070080F0070303
:1048E000042B28BF04234FF0FF3C03380CFA03F3DA
:1048F00038BF0020994381400CFA00F022EA000002
:10490000084370477047000081B040F20400C2F2D3
:104910000000006844F6D351C1F26201A0FB01011E
:10492000480A009000BF0098411E00280091F9D16C
:1049300001B07047704700002DE9F04381B0044694
:10494000D0F820018047002864D0054600264FF0AB
:10495000040805274FF0010902E0E072280459D04D
:10496000D4F82401013D8047217A0629F6D8DFE8F2
:1049700001F012181F09042D0900E17A6072484005
:104980002772EAE70639B1FA81F14909FB28A173D8
:1049900017D32672E2E72438B0FA80F0400920727B
:1049A000DCE74D38B0FA80F0400940002072D5E7CE
:1049B0000021212808BF06213E2808BF02212172BC
:1049C000CCE784F80880A072A681C6E7A37A627B50
:1049D0009A4207D2E17A4140E172511C6173A118F9
:1049E000C873BBE70529B9D1A17A627B8A42B5D3E6
:1049F000E17A002581422572B0D184F80090FDF75C
:104A00004DFA00F5FA61D4F82C21607A6160904784
:104A10000025A3E7A07BB0FA80F0400901B0BDE813
:104A2000F083000070B506460C460020D6F8281129
:104A300086F80B012420154686F809418847D6F8E8
:104A400028114D208847D6F828113E208847304647
:104A5000294600F00FF93046214600F00BF970BDF1
:104A600080B50A46002100F001F880BD70B5064609
:104A70000D460020D6F8281186F80B012420144694
:104A800086F80A218847D6F828114D208847D6F89D
:104A900028112120002D08BF3E208847304621469E
:104AA00000F0E8F896F80911304600F0E3F870BD20
:104AB0002DE9F04700280F46044618BF01200029C1
:104AC00018BF012108401146002A18BF0121DDE965
:104AD00008A908401946002B18BF0121084051467B
:104AE000BAF1000F18BF012108404946B9F1000F83
:104AF00018BF012100EA0105012D13D120464FF412
:104B00009A7198461646FBF7C5FC0020C4E9487622
:104B1000C4E94A8AC4F830912072FDF7BFF900F564
:104B2000FA6060602846BDE8F0870000037B90F8DB
:104B30000AC01344634511D8002A08BF70470139E1
:104B400090F80CC0013A0CF10103037300EB0C0365
:104B500093F80FC0130601F801CFF1D170470000A0
:104B600070B515461A461C460646FFF75BFF3046F1
:104B70002946224600F066F8304600F089F870BDFC
:104B800010B500220446FFF74DFF204600F080F8E4
:104B900010BD000070B50646104614460D46FBF7E2
:104BA000F3FBC2B230462946FFF73CFF30462146B0
:104BB00000F076F8304600F06BF870BDB0B51446E2
:104BC00001220546FFF72EFF2846214600F052F845
:104BD000284600F05DF8B0BDB0B50446FDF75EF9BB
:104BE00094F81E110546F1B12078E0B1D4F8100117
:104BF000854218D394F81F1104F58670B4F80C217F
:104C00000844A918D4F82C21007AC4F81011904750
:104C100094F81F0194F81E110130C2B28A4228BFD5
:104C2000002084F81F016068854207D90020D4F86D
:104C30003011207005F5FA60606088472046FFF764
:104C40007BFEB0BD70B5002A08BF70BD1446054696
:104C50004E1E00BFD5F8281116F8010F013C8847F9
:104C6000307895F80B114840210685F80B01F1D1F9
:104C700070BD0000B0B5D0F82821044608460D46A6
:104C8000904794F80B01684084F80B01B0BD000018
:104C900080B5D0F8281190F80B01884780BD00003E
:104CA000B0B50A78002A08BFB0BD04464D1E00BF4B
:104CB000D4F82811D0B2884715F8010F94F80B11D9
:104CC000484084F80B016A78002AF1D1B0BD000099
:104CD000427A417843794271427B41734272827ACF
:104CE000817B90F802C0827082798171C17B4370B0
:104CF000C3788273C170C17AC27980F80AC0C17367
:104D0000C272C37170470000B0B50446FDF7C6F823
:104D1000E16888421FD30546207C032811D007286C
:104D20001AD16069B8B1217E405CA0B12E282BD089
:104D30002D2835D1204600F0D9F805F54870E060FF
:104D400036E0A07938B1204600F0D0F8A068617C48
:104D50002844E06059B1B0BD0438022888BFB0BD16
:104D6000204600F0C3F8A0682844E060B0BDA079F8
:104D700001380106A071EED1204600F077F8A06A54
:104D80000028E8D08047B0BD204600F0AFF8607C36
:104D9000C821002808BF4FF4C8714819E06007E037
:104DA000607C05F5FA61E16010B1204600F09EF8E4
:104DB000607C0028CFD1207E617E0130C2B28A4261
:104DC0002076C8D3E17EA27E0131CBB2002093428F
:104DD0002076E176BFD3E076A06A02210028217414
:104DE000B9D08047B0BD00002DE9F04782B040F255
:104DF000984AC2F2000ABAF80060052E01D90024D0
:104E00002FE005462C20984691460F46FBF71CFAEA
:104E1000044618B30A980222A062701CAAF8000087
:104E200040F2804022822277BDF805209DF80730AD
:104E3000C2F20000002140F8264020462560A780ED
:104E4000A171C4E9021184F81290C4E90511A4F813
:104E50001D20E377C4E9081800F008F8002C18BFFB
:104E60000124204602B0BDE8F087000010B50446DA
:104E70000068A188A27CFDF70BF80020607410BDCB
:104E800010B50446A27C0068A18882F00102FCF7FC
:104E9000FFFF0120607410BD80B540F29842C2F25D
:104EA00000021288824214D940F28042C2F200020B
:104EB00052F820004A1E052A017488BF80BDDFE831
:104EC00002F0030608090D11FFF7DAFF80BDFFF7B6
:104ED000CDFF80BD4FF44871816080BD4FF4C87133
:104EE000816080BDC821816080BD000010B504468E
:104EF000407C18B12046FFF7B9FF02E02046FFF7DB
:104F0000BFFF616A002908BF10BD607C884710BDE3
:104F10002DE9F04381B0FCF7C1FF40F29849C2F29D
:104F20000009B9F8001049B340F2804704464FF039
:104F30000008C2F20007002606E000BF0136B9F8FB
:104F40000000F1B2884219D9F5B257F82500C168BE
:104F50008C4228BFFFF7D8FE57F82500016A0139B7
:104F6000A142EBD2C0F82080FCF798FF57F825202B
:104F7000117FD0602846FFF78FFFDFE701B0BDE863
:104F8000F083000080B546F6307E4FF0000CC0F68E
:104F9000000E00BF6FF00303C1180A7904331EF836
:104FA00002200C2B0A71F7D10CF1010CBCF1040F9B
:104FB00000F1010008BF80BDECE70000B0B501388A
:104FC0000024B4EB106F1CBF0120B0BD4EF21005E1
:104FD000CEF2000568604FF0FF300F2100F002FEB6
:104FE0000720AC6028602046B0BD000080B5FDF70A
:104FF00055FBFFF78DFF80BD70B594B00AAC20461D
:105000002821FBF747FA01200A900E904FF4E01098
:1050100000254FF480314FF40032022613902046D1
:105020000995CDE90755CDE90555CDE90355CDE9FC
:1050300001550B910C92CDE91161FDF731FEE8B9F4
:105040000F20CDE905064FF48060CDE9080505A8DD
:1050500002210795FDF76CFC80B9022001904FF406
:105060000040039001A8FDF7DFFB38B900204FF0A6
:10507000C0610022FDF7EAFD14B070BDFBF7B8FF78
:105080007047000010B540F2FF7E0368C4F2000EC6
:1050900042F6004C7045C4F2010C05DCB0F1804FC3
:1050A0000AD040F2004203E0604505D040F600021D
:1050B000C4F20002904203D14A6823F07003134304
:1050C000704505DCB0F1804F0AD040F2004203E0A9
:1050D000604505D040F60002C4F20002904203D1C0
:1050E000CA6823F44073134323F080024B69D1F85C
:1050F00000E08C681A4360450260C462C0F828E092
:1051000002D10969CCF830100121416110BD0000C5
:1051100080B501F01F014FF0010CD0F820E00CFA2F
:1051200001F32EEA03030362036A02FA01F1194351
:10513000016280BDD0F808C011432CF47F4C41EAD5
:10514000032141EA0C01816070470000826822F06F
:105150007002114341F0070181607047B0B5026AE7
:10516000036A42F6004423F001030362D0F804E02E
:10517000D0F818C08B6822F00202C4F20104A042E9
:1051800042EA030205D1CB6822F00C0223F00403AB
:105190001A430B68A04207D1D1E905452EF4407EA1
:1051A00044EA0E0444EA050E2CF073052B43C0F8C4
:1051B00004E08361496841630262B0BDB0B5026A30
:1051C000036A42F6004423F010030362D0F804E0BF
:1051D000D0F818C08B6822F02002C4F20104A0426B
:1051E00042EA031207D1CB686FF0400522F0C002FB
:1051F00005EA03131A430B68A04207D1D1E905451C
:105200002EF4406E4EEA840444EA850E2CF4E64502
:1052100045EA0323C0F804E08361496881630262C0
:10522000B0BD0000B0B5026A036A42F6004423F440
:1052300080730362D0F804E0D0F81CC08B6822F4BD
:105240000072C4F20104A04242EA032207D1CB68F3
:1052500040F2FF451B0222F44062AB431A430B6845
:10526000A04207D1D1E905452EF4405E4EEA041470
:1052700044EA051E2CF073052B43C0F804E0C3611B
:105280004968C1630262B0BDB0B5D0F820C0026AFF
:1052900042F6004522F4805202624268C3690C68FB
:1052A000D1F808E0C4F20105A84204D14D6922F406
:1052B000804242EA851223F4E64343EA0423426033
:1052C000C3612CF40055496845EA0E32016402625C
:1052D000B0BD0000D0F820C0036A23F001030362D0
:1052E000836923F0F00343EA02122CF00A03194306
:1052F0008261016270470000D0F820C0036A23F089
:1053000010030362836923F4704343EA02322CF0F2
:10531000A00343EA011182610162704740F29A40A2
:10532000C2F20000B0F804017047000080B540F6FA
:105330009C0040F2F031C2F20000C2F20001802273
:10534000FEF754FB80BD000010B52520FDF750FA94
:1053500040F29A40C2F20000B0F8041191B1B1F5E8
:10536000807F05D190F8062102F0FD0280F8062129
:10537000B0F800210139845C0132A0F80021A0F8C6
:10538000041106E090F80611002401F0FE0180F8F7
:105390000611B0F80011B1F5807F04BF0021A0F81C
:1053A00000112520FDF728FA204610BD40F2A25139
:1053B000C2F20001B1F8042143F60C0CC4F2010C56
:1053C0009AB1B2F5807F05D191F8063103F0FD0363
:1053D00081F80631B1F80031C85C4CF8080C581C53
:1053E000A1F80001501EA1F80401B1F80001B0F5C8
:1053F000807F04BF0020A1F80001B1F8040100285B
:1054000018BF704791F8060100F0F80081F8060116
:10541000DCF8000020F08000CCF80000DCF8000090
:1054200040F04000CCF800007047000070B5044622
:10543000FCF734FD40F2A2560546C2F2000600BF5A
:10544000B6F80401B0F5807F07D1FCF727FD401BBB
:105450003228F5D996F8060170BD2520FDF7C8F968
:10546000B6F80401B0F5807F06D196F8060140F049
:10547000040086F806010EE0FF280CD8B6F80201F9
:105480003454B6F80201B6F804110130A6F802014E
:10549000481CA6F80401B6F80401B0F5807F05D1D8
:1054A00096F8060140F0020086F80601B6F80201FF
:1054B000B0F5807F04BF0020A6F802012520FDF78B
:1054C0009BF9B6F804010028C4D096F8061143F6FB
:1054D0000C0041F00101C4F2010086F806110168D8
:1054E0000906B7D4016841F080010160016821F02C
:1054F0000401016096F8060170BD000080B5406AA5
:105500000021C185C184FEF73BF880BD10B5446A17
:105510002068406994F84110212907D110F08000DB
:1055200004D00020E084204600F09CF82068406908
:1055300094F84210222907D110F0400004D0002036
:10554000E085204600F05AF8606C40F0100060647E
:105550002046FEF715F810BD80B50168406A09685D
:1055600089062FD40021C185016851E8031F026814
:1055700021F4807142E80313002BF5D1016851E852
:10558000051F026821F0010142E80513002BF5D147
:10559000016851E8051F026821F0400142E8051347
:1055A000002BF5D1202180F84210016B012909D18F
:1055B000016851E8031F026821F0100142E803135B
:1055C000002BF5D100214163016B012903D1818DAD
:1055D000FDF7D4FF80BDFEF71FFA80BD80B5406A9D
:1055E00001214163016B012904D1818D4908FDF737
:1055F000C5FF80BDFEF712FA80BD0000016851E8CA
:10560000031F026821F4907142E80313002BF5D1C7
:10561000016851E8051F026821F0010142E8051305
:10562000002BF5D1016B01290AD100BF016851E8B7
:10563000031F026821F0100142E80313002BF5D18B
:10564000202180F8421000210163704780B5016875
:10565000CA6822F04002CA60202180F84110FEF79B
:10566000DFF980BD016851E8031F026821F0C00125
:1056700042E80313002BF5D1202180F84110704738
:1056800080B582B090F8421022291ED18268B2F50E
:10569000805F02D1016900294AD0816AB2F5805F3A
:1056A00007D00AB9026922B10268526802F07F028B
:1056B00001E0026852680A700121826A1144816225
:1056C000C18D01390A04C18501D002B080BD0168D5
:1056D000CA6822F02002CA60CA6822F48072CA60D6
:1056E0004A6922F001024A61202180F8421000211B
:1056F0004163026B012A23D1016300BF016851E8B5
:10570000031F026821F0100142E80313002BF5D1BA
:1057100001680A68D20606D5002201920A68019241
:10572000496801910199818DFDF728FF02B080BD84
:105730000168826A49686FF35F2111800221BCE72A
:10574000FEF76AF902B080BD10B504460068D4E9DE
:1057500002C22369016921F4405111430161616969
:1057600043EA0C021143C26841F20C639A431143AD
:10577000C1604169A26921F44071114343F60002FE
:10578000C4F201029042416102D0FDF705FA01E046
:10579000FDF714FA6268192148439100B0FBF1F05B
:1057A00048F21F51C5F2EB11A0FB01235A096FF01B
:1057B000630302FB0300322303EB0010A0FB010193
:1057C000F02303EA5113206803EB0212C1F34311E3
:1057D0001144816010BD000070B582B013460025F1
:1057E0000446816283854564222084F842000A468B
:1057F0002168E06B45F2595C45F2DD5E45F20D56DD
:10580000C0F6000CC0F6000EC0F600060431C0E978
:105810000ACEC0E90C65FCF753F9019520680168D0
:105820000191406801900198206948B1206850E8D2
:10583000030F216840F4807041E80302002AF5D18B
:10584000206850E8050F216840F0010041E805029A
:10585000002AF5D1206850E8050F216840F040008B
:1058600041E80502002AF5D1002002B070BD000019
:1058700090F84110212923D18168B1F5805F01D1D1
:10588000016931B1016A02684B1C036209785160F9
:1058900007E0016A036831F8022B6FF35F225A6058
:1058A0000162C18C01390A04C18418BF70470068C5
:1058B000C16821F08001C160C16841F04001C16050
:1058C000704700002DE9F04381B040F27A45C2F202
:1058D00000052978042906D1814640780138072837
:1058E00005D9012025E0042001B0BDE8F0830520A2
:1058F000288099F8010040F270480027C2F20008A1
:1059000000260024AF7088F8010088F8027000BFFC
:1059100001200136FCF71CF9052E07D86878297894
:10592000A04218BF3E4600290446F1D1287828B18C
:1059300002200021297001B0BDE8F08399F8010030
:1059400070B1484610F8011F08F10102012998BF03
:10595000012100BF12F8013F013900F8013FF9D1E0
:10596000484600F0E3FEA978081A18BF032001B0EA
:10597000BDE8F0832DE9F04140F27A46C2F200061C
:10598000317804291CBF0420BDE8F081044640782A
:105990000138072801D901202AE0204600F0C6FE80
:1059A00040F6E407C2F2000739688046086800063E
:1059B000FCD5052000F0D2FE60780721317078B167
:1059C000002500BF60198178386841600168490688
:1059D000FCD5022000F0C2FE607801358542F1D38B
:1059E0003868C0F8048000BF01684906FCD5002073
:1059F00000213170BDE8F08180B540F27A40C2F2FA
:105A0000000000210180817040F27040C2F200006D
:105A1000018081700A2000F0A1FE00F07FFE80BDB1
:105A200040F27A42C2F2000213780146032B4FF093
:105A3000040018BF704740F27043C2F200031B78A5
:105A4000107000200B7070472DE9F04381B043F6D1
:105A50000C05C4F2010555F80C0CC0064CD555F8E0
:105A60000C0C40F25809009055F8080CC4F20209D9
:105A700000900098D9F8000040F29A4420F001000C
:105A8000C9F80000C2F20004D9F80400B4F8021109
:105A900040F2F038C0F18007C1F58076C2F200080C
:105AA000BE4288BF3E46601841463246FAF78BFC3C
:105AB000B4F80201B4F804113044A4F802018819C2
:105AC000BF1BA4F804010CD008EB060120463A469F
:105AD000FAF779FCB4F80401A4F802713844A4F888
