:020000040800F2
:10000000C00D0020C9010008355400083F40000819
:100010005D530008910800084568000800000000D2
:10002000000000000000000000000000655400080F
:10003000810900080000000039540008495B0008ED
:10004000E3010008E3010008E3010008E301000800
:10005000E3010008E3010008E3010008E3010008F0
:10006000E3010008E3010008E3010008E3010008E0
:10007000E3010008E3010008E30100082909000882
:10008000E3010008E3010008E3010008E3010008C0
:1000900035680008E3010008E3010008E3010008F7
:1000A000E3010008E3010008E3010008E3010008A0
:1000B000E3010008E3010008E3010008E301000890
:1000C000E3010008E3010008E3010008E301000880
:1000D000E301000811670008E30100082168000837
:1000E000E3010008E3010008E301000800F002F862
:1000F00000F040F80AA090E8000C82448344AAF182
:100100000107DA4501D100F035F8AFF2090EBAE87F
:100110000F0013F0010F18BFFB1A43F0010318473B
:10012000D87F0000F87F0000103A24BF78C878C15B
:10013000FAD8520724BF30C830C144BF04680C60ED
:10014000704700000023002400250026103A28BF35
:1001500078C1FBD8520728BF30C148BF0B60704739
:100160001FB59DE8030000F0EBF900F0B8F81FBDE3
:1001700010B510BD00F072FA1146FFF7F1FF06F05E
:1001800037FC00F090FA03B4FFF7F2FF03BC00F075
:10019000C1FA00000B49D1F800C04A685CF8043B82
:1001A0001068184442F8040B8C4528BFA1F1DC0C00
:1001B0008A4228BFA1F1DC02C1F800C04A6020F0E9
:1001C0000040704758070020094880470948004709
:1001D000FEE7FEE7FEE7FEE7FEE7FEE7FEE7FEE7F7
:1001E000FEE7FEE704480549054A064B7047000054
:1001F000E55B0008ED000008C0070020C00D0020EE
:10020000C0090020C009002070B5064600F07CF946
:10021000056806F10B0020F00704B4429CBF0020E3
:1002200070BD2B466A68BAB11068A04210D304F1C1
:10023000080188423CBF5068586007D351681019C4
:1002400041601168091B016058601460101D70BD89
:1002500013465268002AE7D12146284600F05CF98F
:100260000028DED170BD70B50446051F00F04CF9C2
:100270000068002C14BF446870BD002C18BFAC424D
:100280003CBF20466468F8D301680A18AA4218BF28
:10029000456003D12A680546114401602868411968
:1002A000A1421CBF6C6070BD616869602168084430
:1002B000286070BD0B4910B5A1F17C020A4CC2E95F
:1002C0003712372106E000EB104342F82130074B8C
:1002D00000FB03400B1EA1F10101F4DC10BD012065
:1002E000E8E70000F8060020E119D666CD0D010010
:1002F00040EA010310B59B070FD1042A0DD310C8A3
:1003000008C9121F9C42F8D020BA19BA884201D9F4
:10031000012010BD4FF0FF3010BD1AB1D30703D03C
:10032000521C07E0002010BD10F8013B11F8014BF2
:100330001B1B07D110F8013B11F8014B1B1B01D10E
:10034000921EF1D1184610BD40EA0103024630B5B5
:100350009B0710D14FF0013400E008C208C91D1BF3
:100360009D4315EAC41FF8D013F0FF0102F8011BEA
:100370000DD01B0AF8E711F8013B002B02F8013BF6
:1003800005D011F8013B002B02F8013BF3D130BD41
:1003900010B5431C02E010F8011B71B18107FAD1BE
:1003A0004FF0013202C88C1A8C4314EAC211F9D002
:1003B000C01A0A0603D0C01E10BDC01A10BD0A0420
:1003C00001D0801E10BD0902FCD0401E10BD421E8F
:1003D00012F8013F002BFBD111F8013B002B02F872
:1003E000013BF9D17047032A40F2308010F0030C32
:1003F00000F0158011F8013BBCF1020F624498BF78
:1004000011F801CB00F8013B38BF11F8013BA2F114
:10041000040298BF00F801CB38BF00F8013B11F08F
:10042000030300F0C380083AC0F0088051F8043B91
:10043000083A51F804CBA0E80810F5E7121D5CBF9C
:1004400051F8043B40F8043BAFF30080D20724BFCF
:1004500011F8013B11F801CB48BF11F8012B24BF63
:1004600000F8013B00F801CB48BF00F8012B7047B2
:100470004FF000020429C0F0128010F0030C00F0CD
:100480001B80CCF1040CBCF1020F18BF00F8012B4B
:10049000A8BF20F8022BA1EB0C0100F00DB85FEA19
:1004A000C17C24BF00F8012B00F8012B48BF00F8E5
:1004B000012B70474FF0000200B513469446964654
:1004C000203922BFA0E80C50A0E80C50B1F1200167
:1004D000BFF4F7AF090728BFA0E80C5048BF0CC015
:1004E0005DF804EB890028BF40F8042B08BF704773
:1004F00048BF20F8022B11F0804F18BF00F8012BE5
:100500007047704770477047004870476807002081
:10051000704770477047704738B504460A46002058
:100520006946AFF30080002808BF38BD0246009935
:10053000204600F071F8012038BD012000F086B897
:10054000F8B5AFF30080054600200C46102000BF30
:100550000646A819A0420DD9324669460020AFF3DD
:100560000080070008BF00F071F80098A04218BF93
:100570000546C419FFF7C8FF05600746F01D20F0C7
:1005800007004619284600F00AF8B44208BFF8BD33
:10059000A21B31463868BDE8F84000F03DB80021A4
:1005A0000160C0E9011070471020704710B5203A73
:1005B000C0F00B80B1E81850203AA0E81850B1E81C
:1005C0001850A0E81850BFF4F5AF5FEA027C24BFD2
:1005D000B1E81850A0E8185044BF18C918C0BDE8C9
:1005E00010405FEA827C24BF51F8043B40F8043B92
:1005F00008BF7047D20728BF31F8023B48BF11F847
:10060000012B28BF20F8023B48BF00F8012B7047A0
:100610000048704760070020034640688C46002869
:1006200018BF88423CBF03464068F8D31868184496
:10063000884207D00CF1030020F00700001D411A8A
:10064000521A0146081D0A60FFF70DBE10B500F0F2
:1006500039F8BDE8104000F02FB870477546FFF735
:10066000D7FFAE4605006946534620F00700854691
:1006700018B020B5FFF7B6FDBDE820404FF00006EA
:100680004FF000074FF000084FF0000B21F007017A
:10069000AC46ACE8C009ACE8C009ACE8C009ACE8BD
:1006A000C0098D46704710B50446AFF30080204660
:1006B000BDE81040FFF767BD002801D000F02AB860
:1006C0007047000010B5012805D0002103A000F0FC
:1006D00027F8012010BD09A1F8E70000534947524F
:1006E000544D454D3A204F7574206F662068656102
:1006F00070206D656D6F7279000000003A204865CA
:100700006170206D656D6F727920636F72727570A4
:100710007465640001491820ABBEFEE726000200A4
:1007200070B505460C460A2000E06D1C00F011F87B
:1007300035B128780028F8D102E0641C00F009F8EF
:1007400014B120780028F8D1BDE870400A20AFF33A
:10075000008008B569468DF800000320ABBE08BDD7
:1007600070B5044600252068806800F0010018B3C9
:100770002068806820F001002168886001F0CCFBCF
:10078000054613E001F0C8FB401B02280ED9206883
:10079000806800F0010048B1A06A40F01000A0623B
:1007A000E06A40F00100E062012070BD20688068CE
:1007B00000F001000028E5D10020F6E72DE9FF4117
:1007C00004460D461646002715E0102229466846C5
:1007D000FFF709FE2146284603F0F9FE04F1F00177
:1007E000284606F031F81022694604F1F000FFF7C0
:1007F000FAFD10351037B742E7D3BDE8FF812DE988
:10080000F04104460D46164604F1F00800270AE0C0
:100810004146284606F018F82146284600F05AF8C6
:10082000A84610351037B742F2D31022414604F1E2
:10083000F000FFF7D8FDBDE8F08170B504460E4624
:1008400015463146204604F06FF91022294604F17E
:10085000F000FFF7C8FD70BD70B504460B460020E0
:1008600013E000210DE0250105EB80050D44555DE9
:1008700003EB8006765C754003EB800675544D1CD7
:10088000E9B20429EFDB451CE8B20428E9DB70BDBE
:1008900000BFFEE700B587B0FF200C4908700E21AD
:1008A000684606F02DFF68B9094A07CA04AB07C3BA
:1008B0000C220DF1020104A8FFF71AFD10B9012066
:1008C000024908700148007807B000BD2C000020E4
:1008D000E8F7FF1F70B505460E460024324629464C
:1008E0000020FFF7B9FF01240FE0284605F012F9B8
:1008F000284605F002F8284604F032FD3246294623
:100900002046FFF7A9FF601CC4B20E2CEDDB284681
:1009100005F000F9284604F0F0FF324629460E2083
:10092000FFF79AFF70BD000010B50848006800F49A
:100930008030B0F5803F05D10448406840F4E020A5
:1009400002494860024800F041FF10BD000002402B
:100950007C02002030B590F840500124AC40C56BBB
:100960006C60046863604468102C04D10468A26061
:100970000468E16003E00468A1600468E26030BDDF
:100980007047000010B50446092C01DD092000E085
:1009900020460449087064230A22A021024801F07D
:1009A000A9FB10BD38000020B00000202DE9FE4357
:1009B00004460E4615464FF0000960193A493B4A75
:1009C000127851F83210884200D815B90120BDE8DC
:1009D000FE8301F0A1FA36490968A0EB0108B8F1DD
:1009E000050F03D2C8F1050001F052F82F48007836
:1009F000052845D2DFE800F003041122330000BFD0
:100A0000A0276420E2B201233946CDE900650290B7
:100A1000284801F04BFC81463EE004F48070A021A0
:100A200041EAE0176420E2B201233946CDE90065CE
:100A30000290204801F03AFC81462DE004F4407019
:100A4000A02141EAE0176420E2B201233946CDE952
:100A500000650290174801F029FC81461CE004F46F
:100A6000E060A02141EAE0176420E2B201233946A8
:100A7000CDE9006502900F4801F018FC81460BE0BB
:100A8000642010232246A021CDE900650290094888
:100A900001F00CFC814600BF00BF01F03DFA0449A3
:100AA0000860484693E70000847D00083800002075
:100AB00034000020B00000202DE9FE4F04460E4611
:100AC00017464FF0000BE0194B494C4A127851F889
:100AD0003210884200D817B90120BDE8FE8F85E0AA
:100AE00001F01AFA46490968A0EB010ABAF10A0FA7
:100AF00003D2CAF10A0000F0CBFF3F483F49097812
:100B000000EBC10081883C483C4A127800EBC200EF
:100B10008088401E2040081A1FFA80F94F4501DAEC
:100B2000384600E04846054634480078052846D255
:100B3000DFE800F003041223340000BF4FF0A008E8
:100B40006420E2B201234146CDE9006502902D48C0
:100B500001F05EFD83463EE004F48070A02141EA8E
:100B6000E0186420E2B201234146CDE9006502901D
:100B7000244801F04DFD83462DE004F44070A0218F
:100B800041EAE0186420E2B201234146CDE9006564
:100B900002901C4801F03CFD83461CE004F4E06038
:100BA000A02141EAE0186420E2B201234146CDE9E8
:100BB00000650290134801F02BFD83460BE0642092
:100BC00010232246A021CDE9006502900D4801F0D6
:100BD0001FFD834600BF00BF601984B22E44781BFE
:100BE00087B201F099F90649086000BF002F3FF76E
:100BF00077AF584671E70000847D00083800002078
:100C000034000020B00000207047000010B5002024
:100C10007049087070480078B1281ED004DC112893
:100C200007D0372821D111E0C12809D0F5281CD1DF
:100C300014E002206849487001206649087014E0F9
:100C4000022065494870634908700EE00820624937
:100C5000487002205F49087007E000BF08205E4925
:100C6000487001205B49087000BF00BF59480078F8
:100C700001284FD1584805F08DFC002849D156482D
:100C80000078112804D0B12819D0F52840D117E0F8
:100C90005248007890B95248007878B908205149F4
:100CA0000870012048700020887001204C490870AD
:100CB00001224FF47A71104604F0B8FE29E028E0D2
:100CC0004548807805280CD1042046490870012049
:100CD0004870002088704249087001203F49087020
:100CE00015E03D488078412811D104203D49087025
:100CF0000120487000208870394908700220374967
:100D0000087003224FF49671012004F08FFE00E07A
:100D100000BF5EE02F48007802285AD12E480078A4
:100D2000C12824D12D48007820B1012807D00228FD
:100D30000BD105E005212C4805F03AFE05E004E062
:100D400002212A4805F034FE00BF00BF2548007884
:100D500024498978084420498870224841781E48EF
:100D6000C17020484078401C1E4948702EE01A4847
:100D7000007837282AD11948007810B1022817D1F5
:100D80000AE00521184805F013FE134818490A68BF
:100D90004260898801810BE0042012490870887044
:100DA0000D481349D1F8062042604989018100BFEE
:100DB00000BF0C480078084988700A484178064806
:100DC000C17008484078401C06494870024805F048
:100DD0003BFC10BD410000206806002042000020BE
:100DE0004300002044000020E0800008EF8000085D
:100DF00047000020704772B600BFFEE738B50246D4
:100E000000230020009000BF92F82400012801D1A7
:100E1000022038BD012082F8240000BF486807285E
:100E200012D21068406B0C79641E04EB84051F24F9
:100E3000AC40A0430D796D1E05EB85050C68AC40F8
:100E400020431468606327E048680D2812D21068B8
:100E5000006B0C79E41F04EB84051F24AC40A04315
:100E60000D79ED1F05EB85050C68AC402043146837
:100E7000206311E01068C06A0C790D3C04EB840516
:100E80001F24AC40A0430D790D3D05EB85050C6892
:100E9000AC4020431468E06208680A2812D3106846
:100EA000C0680C780A3C04EB44050724AC40A0431E
:100EB0000D780A3D05EB45058C68AC40204314686D
:100EC000E0600FE0106800690C7804EB440507242B
:100ED000AC40A0430D7805EB45058C68AC40204341
:100EE000146820610868102802D00868112827D1EA
:100EF000174C1068A0421ED11068806800F40000F2
:100F0000F0B91068806840F400001468A0600868B8
:100F1000102815D10F4800680F4CB0FBF4F000EB1F
:100F200080004000009002E00098401E0090009871
:100F30000028F9D104E0906A40F02000906201237B
:100F400000BF002082F8240000BF184661E70000BF
:100F5000002401401800002040420F002DE9F0411C
:100F60000446002700250026A84614B90120BDE844
:100F7000F081A06810B1207D00B100BFA06A30B937
:100F80000020E06284F82400204600F0A1F820460A
:100F9000FFF7E6FB0746A06A00F01000002873D1B7
:100FA000002F71D1A06A20F4885040F00200A062A6
:100FB000E16960680843217B40EA41000643A0687C
:100FC000B0F5807F02D0A068012802D14FF4807074
:100FD00000E000200543207D012811D1207B38B995
:100FE000A069401E4FF4006141EA4030054307E02C
:100FF000A06A40F02000A062E06A40F00100E062D8
:101000002068406820F469402843216848602068CF
:10101000806821490840304321688860A068B0F5A5
:10102000807F02D0A068012802D14FF4807000E0D8
:101030000020B0F5807F03D1208A401E4FEA00587F
:101040002068C06A20F4700040EA08002168C86285
:101050002068806811490840B04208D10020E06251
:10106000A06A20F0020040F00100A06211E0A06A36
:1010700020F0020040F01000A062E06A40F00100A1
:10108000E062012705E0FFE7A06A40F01000A062DF
:10109000012738466BE70000FDF7E1FFFE0E1FFF5A
:1010A00010B5044607492068884209D1064880697E
:1010B00020F40070044988610F21044800F0FCFC12
:1010C00010BD000000240140001002400008014053
:1010D00010B586B00446002002900390049005905D
:1010E00014492068884222D100BF1348806940F427
:1010F0000070114988610846806900F40070019011
:1011000000BF00BF00BF0846806940F0040088614E
:101110000846806900F00400019000BF00BF0F2066
:1011200002900320039002A9044800F05FFD06B07E
:1011300010BD0000002401400010024000080140E2
:1011400070472DE9F05F0446002520684669206855
:10115000D0F80490206887682068D0F80CA0206838
:10116000D0F810B02068D0F8188006F001000028F0
:1011700055D007F00100C0B101202168886007F058
:10118000020018B1204600F02BFA0EE007F0040030
:1011900010B145F4006508E007F0080010B145F40F
:1011A000805502E0204600F01AFA07F48070C8B1BA
:1011B0004FF480702168886007F4007018B12046F1
:1011C00000F010FA0EE007F4806010B145F400550D
:1011D00008E007F4006010B145F4804502E02046C5
:1011E00000F0FFF907F48030C8B14FF48030216877
:1011F000886007F4003018B1204600F0F5F90EE0E1
:1012000007F4802010B145F4004508E007F4002001
:1012100010B145F4803502E0204600F0E4F906F014
:10122000080038B10AF0100020B145F40075102014
:101230002168C86006F0040040B10AF0080028B137
:1012400008202168C860204600F0C4F906F00200BA
:1012500038B12068C06800F0030010B1204600F0EB
:10126000BAF906F0400038B10BF0100020B145F497
:10127000806510202168086106F0200040B10BF065
:10128000080028B1082021680861204600F0A4F970
:1012900006F0100038B12068006900F0030010B1BA
:1012A000204600F09AF906F4003040B109F0100031
:1012B00028B1102021684860204600F08FF906F41C
:1012C000803040B109F0080028B10820216848604A
:1012D000204600F08AF906F4004088B309F00400C3
:1012E00078B306F4807020B108F0010008B145F031
:1012F000010506F4007020B108F0020008B145F0C5
:10130000020506F4806020B108F0040008B145F041
:10131000040506F40060A0B108F0700088B108F080
:101320007000402817D006DC10280BD020280CD0E5
:10133000302819D10CE0502810D0602814D110E0CA
:101340001DE019E045F008050FE045F010050CE040
:1013500045F0200509E045F0400506E045F0800530
:1013600003E045F4807500E000BF00BF206880699D
:1013700020F07000216888610420216848602DB148
:10138000606A284360622046FFF7DAFEBDE8F09FFE
:1013900070B504460CB9012070BD94F8200010B956
:1013A000204600F0CBF82068006840F0010021687A
:1013B000086000F0B1FD05460DE000F0ADFD401BFA
:1013C0000A2808D9606A40F400306062052084F879
:1013D00020000120E0E72068406800F001000028BC
:1013E000EBD02068006820F002002168086000F05F
:1013F00093FD05460DE000F08FFD401B0A2808D93B
:10140000606A40F400306062052084F8200001200A
:10141000C2E72068406800F002000028EBD1207E7F
:10142000012806D12068006840F08000216808602B
:1014300005E02068006820F0800021680860607E78
:10144000012806D12068006840F04000216808604B
:1014500005E02068006820F0400021680860A07E58
:10146000012806D12068006840F02000216808604B
:1014700005E02068006820F0200021680860E07E18
:10148000012806D12068006820F01000216808605B
:1014900005E02068006840F0100021680860207FA7
:1014A000012806D12068006840F008002168086023
:1014B00005E02068006820F0080021680860607F6F
:1014C000012806D12068006840F004002168086007
:1014D00005E02068006820F0040021680860D4E975
:1014E0000201084321690843616908436168491E94
:1014F00008432168C86100206062012084F8200050
:10150000002049E710B504460949206888420DD1FA
:101510000848C06920F000700649C8614FF4C05106
:10152000054800F0C9FA142001F040FA10BD00008F
:1015300000640040001002400008014010B586B071
:101540000446002002900390049005901E492068F4
:10155000884236D100BF1D48C06940F000701B4969
:10156000C8610846C06900F00070019000BF00BF6C
:1015700000BF0846806940F0040088610846806921
:1015800000F00400019000BF00BFC81402900020CA
:101590000390049002A90E4800F028FB4FF48050FD
:1015A0000290022003900320059002A9084800F051
:1015B0001DFB00221146142001F02AFA142001F02C
:1015C00017FA06B010BD0000006400400010024091
:1015D0000008014070477047704770477047704778
:1015E00070477047704770477047704710B50446A2
:1015F0000CB9012010BD607920B90020207120466F
:1016000000F014F8012060710020F3E7054A01683A
:10161000914205D10449496921F04001024A5161D2
:1016200070470000003002400010024008B5094A2F
:10163000016891420DD100BF0749496941F040015D
:10164000054A51611146496901F04001009100BF0E
:1016500000BF08BD003002400010024001460022D9
:1016600091F82100022808D00420886300BF0020E0
:1016700081F8200000BF012070470868006820F052
:101680000E000B6818600868006820F001000B6805
:10169000186091F8403001209840CB6B58600120D1
:1016A00081F8210000BF002081F8200000BF104613
:1016B000E2E7000070B50446002594F821000228F6
:1016C00003D00420A063012548E02068006820F0D2
:1016D0000E00216808602068006820F00100216881
:1016E00008601F492068884201D1012026E01C497A
:1016F00014312068884201D110201FE01849283198
:101700002068884201D1801518E015493C312068D5
:10171000884201D1801411E011495031206888427B
:1017200002D14FF4803009E00D49643120688842CD
:1017300002D14FF4801001E04FF080700849083961
:101740004860012084F8210000BF002084F82000B8
:1017500000BF606B10B12046616B8847284670BDA2
:1017600008000240014609B9012070470868006876
:1017700020F001000A68106000200A6810600A6802
:1017800050600A6890600A68D0600F4A0868801A42
:101790001422B0FBF2F0800008640B480838C863DC
:1017A00091F8402001209040CA6B50600020886270
:1017B000C86208634863886381F8210000BF81F82C
:1017C000200000BF00BFD0E70800024070B504460B
:1017D000E06B05682068066894F840100420884093
:1017E0002840002846D006F00400002842D0206897
:1017F000006800F0200028B92068006820F004008C
:101800002168086057492068884201D1042027E0F8
:10181000544914312068884201D1402020E05149C8
:1018200028312068884201D1001519E04D493C312A
:101830002068884202D14FF4804011E0494950317C
:101840002068884202D14FF4802009E04549643184
:101850002068884202D14FF4800001E04FF08060A0
:10186000404908394860E06A00287AD02046E16A99
:10187000884776E094F84010022088402840A0B3C2
:1018800006F0020088B32068006800F0200040B92C
:101890002068006820F00A0021680860012084F8B0
:1018A000210030492068884201D1022028E02D49DA
:1018B00014312068884201D1202021E029492831B3
:1018C0002068884201D140151AE026493C31206841
:1018D000884202D14FF4005012E022495031206872
:1018E000884203D14FF400300AE017E01D4964310B
:1018F0002068884202D14FF4001001E04FF00070E0
:1019000018490839486000BF002084F8200000BF53
:10191000A06A30B32046A16A884722E094F84010BC
:10192000082088402840E0B106F00800C8B12068CF
:10193000006820F00E002168086094F84010012033
:101940008840E16B48600120A06384F8210000BF5B
:10195000002084F8200000BF206B10B12046216BCE
:10196000884770BD080002400146002209B90120E5
:101970007047164B0868C01A1423B0FBF3F08000C0
:10198000086412480838C863022081F821000868FA
:10199000026843F6F0708243D1E901031843CB6833
:1019A00018430B6918434B6918438B691843CB697B
:1019B000184302430868026000208863012081F810
:1019C0002100002081F8200000BFD1E7080002407C
:1019D0002DE9F04104460D4616461F464FF000081B
:1019E00000BF94F82000012802D10220BDE8F08158
:1019F000012084F8200000BF94F8210001282CD198
:101A0000022084F821000020A0632068006820F0F4
:101A10000100216808603B46324629462046FEF711
:101A200099FFE06A30B12068006840F00E0021683C
:101A300008600BE02068006820F00400216808605E
:101A40002068006840F00A0021680860206800688B
:101A500040F001002168086006E000BF002084F823
:101A6000200000BF4FF002084046BFE710B54FF01E
:101A7000FF300649086100200861401EC860002050
:101A8000C86000F068FF002010BD00000010024098
:101A900070B5044600F040FA06462546681C10B1B1
:101AA00004480078054400BF00F036FA801BA842C5
:101AB000FAD370BD140000202DE9F04102460B4618
:101AC000002080E00127874007EA0301002979D040
:101AD000404F4FEA900C57F82C4087074FEA177C8D
:101AE0000F2707FA0CF73C403B4FBA4201D10027C1
:101AF0000FE03A4FBA4201D101270AE0384FBA420B
:101B000001D1022705E0374FBA4201D1032700E097
:101B100004274FEA807C4FEA1C7C07FA0CF7A742A7
:101B200031D1314F3F688F43DFF8BCC0CCF8007033
:101B30000CF104073F688F430CF1040CCCF80070E3
:101B4000294F0C373F688F43DFF89CC00CF10C0C19
:101B5000CCF80070ACF104073F688F43ACF1040C83
:101B6000CCF8007087074FEA177C0F2707FA0CF4B0
:101B7000184F4FEA900C57F82CC02CEA040C4FEA8F
:101B8000900847F828C0FF2901D8174600E0171D24
:101B90003D46FF2901D8870002E0A0F10807BF00F9
:101BA0003E462F684FF00F0C0CFA06FC27EA0C0794
:101BB0004FF0040C0CFA06FC47EA0C072F60D768BC
:101BC0008F43D760401C23FA00F7002F7FF47AAFD1
:101BD000BDE8F0810800014000080140000C014010
:101BE0000010014000140140000401402DE9F847B5
:101BF0000346002294466EE14FF0010808FA02F411
:101C0000D1F8008008EA0400A0427DD1DFF8DCA210
:101C1000D1F80480A8EB0A09D0453AD014DCB8F119
:101C2000030F50D009DCB8F1000F31D0B8F1010F2B
:101C30001CD0B8F1020F49D120E0B8F1110F18D033
:101C4000B8F1120F42D11EE0B9F5881F25D006DC8D
:101C5000B9F5803F20D0B9F5801F37D11AE0B9F52A
:101C6000001F18D0B9F5041F30D117E0D1F80CC00F
:101C70002DE0D1F80C8008F1040C28E0D1F80C809C
:101C800008F1080C23E0D1F80C8008F10C0C1EE0E0
:101C900000BF00BF00BF00BF00BF00BFD1F8088079
:101CA000B8F1000F02D14FF0040C0BE0D1F808801E
:101CB000B8F1010F03D14FF0080C1C6102E04FF0A6
:101CC000080C5C6103E04FF0000C00E000BF00BFB7
:101CD000FF2801D8984601E003F104084646FF2892
:101CE00002D84FEA820803E0A2F108084FEA880808
:101CF0004746D6F800804FF00F0909FA07F928EA9D
:101D000009080CFA07F900E088E048EA0908C6F873
:101D10000080D1F8048008F08058B8F1805F7DD150
:101D200000BFDFF8CC81D8F8188048F00108DFF850
:101D3000C091C9F81880C846D8F8188008F0010882
:101D4000CDF8008000BF00BF4FEAB9384FEA9209D2
:101D500058F829504FEA82784FEA18794FF00F0867
:101D600008FA09F825EA0805DFF88881434502D119
:101D70004FF0000816E0DFF88081434502D14FF0B4
:101D800001080FE0DFF87481434502D14FF00208EB
:101D900008E0DFF86C81434502D14FF0030801E011
:101DA0004FF004084FEA82794FEA197908FA09F8E6
:101DB00048EA0505DFF84C814FEA920948F82950B6
:101DC000D1F8048008F48018B8F5801F0AD1DFF834
:101DD0003881D8F8008048EA0008DFF82C91C9F86B
:101DE000008009E0DFF82081D8F8008028EA0008A8
:101DF000DFF81491C9F80080D1F8048008F40018C5
:101E0000B8F5001F10D1DFF8008108F10408D8F8F8
:101E1000008048EA0008DFF8F09000E05AE009F19D
:101E20000409C9F800800DE0DFF8DC8008F104083F
:101E3000D8F8008028EA0008DFF8CC9009F10409FE
:101E4000C9F80080D1F8048008F40038B8F5003FE4
:101E50000ED1DFF8B480A8F10408D8F8008048EA71
:101E60000008DFF8A490A9F10409C9F800800DE08A
:101E7000DFF89480A8F10408D8F8008028EA000868
:101E8000DFF88490A9F10409C9F80080D1F8048032
:101E900008F48038B8F5803F0ED1DFF86C80A8F1E7
:101EA0000808D8F8008048EA0008DFF85C90A9F13B
:101EB0000809C9F800800DE0DFF84C80A8F1080897
:101EC000D8F8008028EA0008DFF83C90A9F108095A
:101ED000C9F80080521CD1F8008028FA02F8B8F145
:101EE000000F7FF489AEBDE8F887000000001110F4
:101EF0000010024000080140000C014000100140A9
:101F00000014014008000140080401400AB10161C9
:101F100001E00B040361704701480068704700004E
:101F20000C00002070B504460CB9012070BD94F877
:101F30003D0028B9002084F83C00204600F036FC23
:101F4000242084F83D002068006820F0010021680A
:101F500008602068006840F400402168086020683C
:101F6000006820F400402168086000F08FFF0546FB
:101F70005C496068884206D85B48854201D20120EE
:101F800007E0002005E05948854201D2012000E029
:101F90000020012800D1C9E75548B5FBF0F62068BC
:101FA000406820F03F003043216848604D49606838
:101FB000884201D8701C07E04FF4967070434FF4CC
:101FC0007A71B0FBF1F0401C2168096A21F03F01F1
:101FD00008432168086243496068884214D8681E33
:101FE00061684900B0FBF1F0401CC0F30B0004280D
:101FF00001D204203DE0681E61684900B0FBF1F0A9
:10200000401CC0F30B0034E0A06838B9681E61685A
:1020100001EB4101B0FBF1F0401C0AE0681E616871
:1020200001EBC10202EB0111B0FBF1F0401C40F4E6
:102030008040C0F30B0008B901201AE0A06848B93D
:10204000681E616801EB4101B0FBF1F0401CC0F378
:102050000B000CE0681E616801EBC10202EB01118C
:10206000B0FBF1F0401CC0F30B0040F4804040F4A2
:1020700000402168C9694CF6FF729143084321680A
:10208000C861D4E9070108432168096821F0C0014B
:10209000084321680860D4E903100843216889686F
:1020A00048F2FF329143084321688860D4E9050172
:1020B00008432168C96821F0FF0108432168C8600E
:1020C0002068006840F0010021680860002020645A
:1020D000202084F83D000020206384F83E0000BFEB
:1020E00024E70000A086010080841E0000093D0056
:1020F00040420F002DE9F84F04460F4690461E4619
:10210000FFF70AFF05464FF0000994F83D0020282C
:102110007ED11923012263492046009502F003F97C
:1021200010B10220BDE8F88F00BF94F83C000128F0
:1021300001D10220F6E7012084F83C0000BF2068AE
:10214000006800F0010028B92068006840F0010034
:10215000216808602068006820F400602168086039
:10216000242084F83D00002020644F48E06200BF36
:102170002068006840F480702168086033460022BF
:102180004FF001112046009502F0CDF858B12068BB
:10219000006800F48070B0F5807F02D14FF40070C9
:1021A00020640320BEE707F0FE0021680861FFF706
:1021B000B3FE054620684069C0F3400A20684069C4
:1021C000C0F3802B10E0FFF7A7FE401BB04200D801
:1021D00016B9A02084F83D0020684069C0F3400A89
:1021E00020684069C0F3802B94F83D00A02805D0FA
:1021F000BAF1000F02D1BBF1000FE4D0202084F827
:102200003D0020684069C0F3400028B3206800E02A
:1022100045E0006840F400702168086000BF0020BD
:10222000009020684069009020688069009000BF9D
:1022300000BF192301221B492046009502F073F8C4
:1022400008B101206EE7202084F83D0000BF002087
:1022500084F83C0000BF65E72068006840F4007027
:10226000216808606FF480602168486119230122A9
:102270000C492046009502F056F808B1012051E7BC
:1022800009F10109C145FFF473AF202084F83D0036
:1022900000BF002084F83C0000BF012042E702207C
:1022A00040E70000020010000000FFFF2DE9FE4F94
:1022B00004460F4690469946DDE90CAB0E9E002081
:1022C0000290FFF729FE054694F83D00202872D1C0
:1022D00019230122CA492046009502F024F810B1C2
:1022E0000220BDE8FE8F00BF94F83C00012801D118
:1022F0000220F6E7012084F83C0000BF2068006857
:1023000000F0010028B92068006840F00100216851
:1023100008602068006820F40060216808602220BE
:1023200084F83D00402084F83E0000202064C4F87A
:1023300024A0A4F82AB0608D2085B248E0624B4604
:10234000424639462046CDE9006501F099FE08B1C4
:102350000120C6E7208D88B900BF002001902068C9
:102360004069019020688069019000BF00BF20682B
:10237000006840F40070216808604BE0208D01285F
:102380001AD12068006820F480602168086072B665
:1023900000BF00200190206840690190206880699A
:1023A000019000BF00BF2068006840F40070216801
:1023B000086062B62EE020E1208D022819D1206845
:1023C000006840F400602168086072B600BF002019
:1023D000019020684069019020688069019000BFE9
:1023E00000BF2068006820F480602168086062B641
:1023F00010E02068006840F480602168086000BF39
:102400000020019020684069019020688069019057
:1024100000BF00BFE2E0208D03287DD8208D012879
:1024200015D12A463146204602F059F808B101205C
:1024300057E720680069616A0870606A401C606242
:10244000208D401E2085608D401E6085C6E0208D59
:1024500002282CD1334600226B492046009501F01A
:1024600062FF08B101203CE772B62068006840F4C2
:1024700000702168086020680069616A0870606AFD
:10248000401C6062208D401E2085608D401E60854E
:1024900062B620680069616A0870606A401C606208
:1024A000208D401E2085608D401E608596E033465D
:1024B000002255492046009501F035FF08B1012062
:1024C0000FE72068006820F480602168086072B619
:1024D00020680069616A0870606A401C6062208D33
:1024E000401E2085608D401E608548480068192187
:1024F000B0FBF1F04FF47A71B0FBF1F0C0EBC0002B
:1025000000EB8000029000BF0298401E02900298EB
:10251000A8B90020206300E039E0202084F83D00C5
:10252000002084F83E00206C40F02000206462B659
:1025300000BF002084F83C0000BF0120D1E62068E5
:102540004069C0F380000028DED02068006840F4B5
:1025500000702168086020680069616A0870606A1C
:10256000401C6062208D401E2085608D401E60856D
:1025700062B620680069616A0870606A401C606227
:10258000208D401E2085608D401E608526E02A46F5
:102590003146204601F0A3FF08B10120A1E62068E2
:1025A0000069616A0870606A401C6062208D401E8C
:1025B0002085608D401E608520684069C0F38000E2
:1025C00060B120680069616A0870606A401C6062DE
:1025D000208D401E2085608D401E6085208D002846
:1025E0007FF419AF202084F83D00002084F83E00DD
:1025F00000BF84F83C0000BF73E6022071E60000D3
:10260000020010000000FFFF04000100180000207D
:102610002DE9FC5F04460F4690469946DDE90CAB78
:102620000E9EFFF779FC054694F83D0020287DD1E9
:10263000192301224D492046009501F074FE10B186
:102640000220BDE8FC9F00BF94F83C00012801D1A6
:102650000220F6E7012084F83C0000BF20680068F3
:1026600000F0010028B92068006840F001002168EE
:1026700008602068006820F400602168086021205C
:1026800084F83D00402084F83E0000202064C4F817
:1026900024A0A4F82AB0608D20853548E0624B461E
:1026A000424639462046CDE9006501F099FD08B162
:1026B0000120C6E731E02A463146204601F054FFAA
:1026C00050B1206C042805D12068006840F40070E7
:1026D000216808600120B4E7606A00782168086119
:1026E000606A401C6062208D401E2085608D401E07
:1026F000608520684069C0F3800070B1208D60B1B2
:10270000606A007821680861606A401C6062208D00
:10271000401E2085608D401E6085208D0028CAD116
:102720002A463146204601F0CBFD00E01CE050B1C6
:10273000206C042805D12068006840F400702168EE
:10274000086001207DE72068006840F4007021687F
:102750000860202084F83D00002084F83E0000BF7F
:1027600084F83C0000BF6CE702206AE7020010001A
:102770000000FFFF10B504460949206888420ED1C9
:102780000848C06920F400100649C8618915064848
:10279000FFF792F94FF400710348FFF78DF910BD70
:1027A0000054004000100240000C014010B586B0FB
:1027B0000446002002900390049005901A49206876
:1027C00088422FD100BF1948806940F0080017499E
:1027D00088610846806900F00800019000BF00BFD2
:1027E0004FF440700290122003900320059002A93C
:1027F0000F48FFF7FBF900BF0E49486840F0E06062
:1028000040F00200486000BF00BF0848C06940F4C3
:1028100000100649C8610846C06900F40010019024
:1028200000BF00BF06B010BD0054004000100240C1
:10283000000C01400000014003480068034909788A
:1028400008440149086070470C0000201400002073
:1028500010B50848006840F01000064908600320E1
:1028600000F014F90F2000F007F800F075F80020D0
:1028700010BD00000020024070B504460E480078EC
:102880004FF47A71B1FBF0F00C490968B1FBF0F537
:10289000284600F073FE08B1012070BD102C07D24D
:1028A00000222146501E00F0B3F80548046001E004
:1028B0000120F2E70020F0E71400002018000020BB
:1028C0001000002070B504460D460CB9012070BD03
:1028D00094F8410028B9002084F84000204601F017
:1028E000EBFA242084F841002068C06820F40050EE
:1028F0002168C860204603F03BFD2068006920F491
:102900000060216808612068406920F02A00216881
:1029100048612068006940F48040216808612068AF
:10292000006920F0200021680861206800692843C0
:10293000216808612068C06840F400502168C860C0
:1029400000206064202084F8410084F842000020C8
:10295000606300BFBBE7704708B500BF11488069DE
:1029600040F001000F4988610846806900F00100CD
:10297000009000BF00BF00BF0846C06940F0805013
:10298000C8610846C06900F08050009000BF00BFD9
:1029900000BF0549486820F0E06040F000704860E2
:1029A00000BF08BD001002400000014010B5014604
:1029B0000846002817DB00F01F0301229A400B4B4A
:1029C000440943F8242000BF00BF00BFBFF34F8F6E
:1029D00000BF00BF00BF00BF00BF00BFBFF36F8FCD
:1029E00000BF00BF00BF00BF10BD000080E100E0DD
:1029F00001460846002809DB00F01F0301229A4027
:102A000043099B0003F1E023C3F8002100BF704796
:102A10002DE9F05F80460D461646002703F022FFA1
:102A2000074639462A46334601F00700C0F1070A37
:102A3000BAF1040F02D94FF0040A01E0C0F1070A0D
:102A4000D14600F1040ABAF1070F02D24FF0000A92
:102A500001E0A0F1030AD4464FF0010A0AFA09FA8C
:102A6000AAF1010A0AEA020A0AFA0CFA4FF0010B6B
:102A70000BFA0CFBABF1010B0BEA030B4AEA0B045C
:102A80002146404603F0F6FEBDE8F09F00BF00F08F
:102A90000702064B19684FF6FF031940044B0B431E
:102AA00043EA0221014B196000BF70470CED00E0C2
:102AB0000000FA05F8B5044600260025207800F04D
:102AC000010000286BD000274348C06900F0805007
:102AD00070B900BF4048C06940F080503E49C861AD
:102AE0000846C06900F08050009000BF00BF012779
:102AF0003A48006800F48070B0B93848006840F483
:102B0000807036490860FFF707FA064606E0FFF7CF
:102B100003FA801B642801D90320F8BD2F48006800
:102B200000F480700028F2D02B48006A00F4407551
:102B30002DB3A08800F44070A84220D02648006A37
:102B400020F44075012026490860002008602248D2
:102B5000056205F0010090B1FFF7DEF9064608E0D6
:102B6000FFF7DAF9801B41F28831884201D903204E
:102B7000D3E71948006A00F002000028F0D0164898
:102B8000006A20F440706168084313490862012F0D
:102B900004D10846C06920F08050C86100BF207889
:102BA00000F00200022807D10B48406820F44040A2
:102BB000A168084308494860207800F010001028F8
:102BC00007D10548406820F48000E16808430249C5
:102BD00048600020A1E700000010024000700040A3
:102BE0004004424270B504460D460CB9012070BD48
:102BF0005A48006800F00700A8420ED25748006803
:102C000020F007002843554908600846006800F096
:102C10000700A84201D00120E9E7207800F0020077
:102C200002281DD1207800F00400042805D14C486A
:102C3000406840F4E0604A494860207800F00800AD
:102C4000082805D14648406840F46050444948602F
:102C50004348406820F0F000A168084340494860BC
:102C6000207800F0010078B36068012806D13C4864
:102C7000006800F4003090B90120B8E760680228CD
:102C800006D13748006800F0007040B90120AEE777
:102C90003348006800F0020008B90120A7E7304877
:102CA000406820F00300616808432D494860FFF741
:102CB00033F9064609E0FFF72FF9801B41F288310E
:102CC000884202D9032092E707E02548406800F0D7
:102CD0000C006168B0EB810FEDD12048006800F076
:102CE0000700A8420ED91D48006820F007002843BD
:102CF0001A4908600846006800F00700A84201D0A1
:102D0000012074E7207800F00400042807D114485B
:102D1000406820F4E060E168084311494860207889
:102D200000F00800082808D10D48406820F46050E1
:102D3000216940EAC1000A49486000F0C7F8084923
:102D40004968C1F30311074A515CC840064908604D
:102D500006480068FFF790FD002048E70020024089
:102D6000001002400A7C000818000020100000201B
:102D700010B5FFF7D1F804463D48006840F0010067
:102D80003B49086006E0FFF7C7F8001B022801D99D
:102D9000032010BD3648006800F002000028F2D081
:102DA0003348006820F0F80040F0800030490860A7
:102DB000FFF7B2F8044600202D49486008E0FFF70D
:102DC000ABF8001B41F28831884201D90320E0E7CB
:102DD0002748406800F00C000028F0D1254826491B
:102DE000086026480068FFF747FD08B10120D0E7DA
:102DF000FFF792F804461E48006820F080701C49D6
:102E0000086006E0FFF788F8001B022801D90320BC
:102E1000BFE71748006800F000700028F2D114499D
:102E20004860FFF779F804461148006820F4102044
:102E30000F49086006E0FFF76FF8001B642801D90E
:102E40000320A6E70A48006800F400300028F2D109
:102E50000748006820F48020054908600846406A59
:102E600040F0807048620020886000BF91E7000059
:102E70000010024000127A0018000020100000200C
:102E800001480068704700001800002000B5FFF7F7
:102E9000F7FF04494968C1F30221034A515CC84065
:102EA00000BD0000001002401A7C000800B5FFF7CA
:102EB000E7FF04494968C1F3C221034A515CC84095
:102EC00000BD0000001002401A7C000870B500210F
:102ED0000022002400230020134D696801F00C0536
:102EE000F5B1042D02D0082D19D101E00F4819E0E9
:102EF0000F4DC1F38346AB5D01F4803555B10A4DEA
:102F00006D68C5F340450B4E725D084D5D43B5FBE2
:102F1000F2F402E0084D03FB05F4204602E000BF96
:102F2000064800BF00BF70BD001002400024F4003E
:102F3000F87B0008087C000800093D0000127A00B8
:102F400070B586B005460C461646002002900390E8
:102F50000490059002200390032005900020049027
:102F60004FF48070029000BF0C48806940F004006C
:102F70000A4988610846806900F00400019000BF9A
:102F800000BF02A90648FEF731FE0448406820F061
:102F9000E06020430149486006B070BD0010024067
:102FA00000080140F8B504460CB90120F8BD2078AE
:102FB00000F00100002878D0F848406800F00C00CC
:102FC00004280CD0F548406800F00C00082811D106
:102FD000F248406800F48030B0F5803F0AD1EF48F5
:102FE000006800F4003000285FD0606800285CD1E1
:102FF0000120DBE700BF6068B0F5803F06D1E748FD
:10300000006840F48030E549086028E0606858B9FD
:10301000E248006820F48030E04908600846006813
:1030200020F4802008601AE06068B0F5A02F0BD172
:10303000DA48006840F48020D849086008460068F3
:1030400040F4803008600AE0D448006820F4803002
:10305000D24908600846006820F48020086000BF5C
:10306000606888B1FEF758FF054606E0FEF754FF9A
:10307000401B642801D9032098E7C848006800F481
:1030800000300028F2D010E0FEF746FF054606E0CB
:10309000FEF742FF401B642801D9032086E7BF48A2
:1030A000006800F400300028F2D1207800F002001F
:1030B000022857D1B948406800F00C0050B1B74819
:1030C000406800F00C00082818D1B448406800F4AB
:1030D000803098B9B148006800F0020020B1206942
:1030E000012801D0012061E7AC48006820F0F80019
:1030F000616940EAC100A949086033E02069E8B18C
:103100000120A7490860FEF707FF054606E0FEF725
:1031100003FF401B022801D9032047E79F480068AE
:1031200000F002000028F2D09C48006820F0F8006F
:10313000616940EAC1009949086013E0002098499C
:103140000860FEF7E9FE054606E0FEF7E5FE401BD7
:10315000022801D9032029E79048006800F0020006
:103160000028F2D1207800F0080008282DD1A069AD
:10317000B8B101208B490860FEF7CEFE054606E097
:10318000FEF7CAFE401B022801D903200EE7834840
:10319000406A00F002000028F2D0012002F04EF94F
:1031A00013E000207F490860FEF7B6FE054606E002
:1031B000FEF7B2FE401B022801D90320F6E677484D
:1031C000406A00F002000028F2D1207800F00400EC
:1031D000042873D100277148C06900F0805070B98D
:1031E00000BF6E48C06940F080506C49C861084615
:1031F000C06900F08050009000BF00BF01276A48FE
:10320000006800F48070B0B96748006840F48070CE
:1032100065490860FEF780FE054606E0FEF77CFE85
:10322000401B642801D90320C0E65F48006800F411
:1032300080700028F2D000BFE068012806D157480E
:10324000006A40F001005549086227E0E06858B97B
:103250005248006A20F00100504908620846006A9E
:1032600020F00400086219E0E06805280BD14B4803
:10327000006A40F00400494908620846006A40F0CC
:10328000010008620AE04548006A20F00100434955
:1032900008620846006A20F00400086200BFE06887
:1032A000A0B1FEF739FE054609E0FEF735FE401BEA
:1032B00041F28831884202D9032077E622E037487C
:1032C000006A00F002000028EFD012E0FEF724FEB2
:1032D000054608E0FEF720FE401B41F28831884297
:1032E00001D9032062E62D48006A00F002000028A0
:1032F000F0D1012F05D12948C06920F0805027491D
:10330000C86100BFE069C8B32448406800F00C0001
:10331000082860D0E069022848D1002020490866CA
:10332000FEF7FAFD054606E0FEF7F6FD401B022813
:1033300001D903203AE61948006800F0007000281F
:10334000F2D1206AB0F5803F07D11448406820F4DC
:103350000030A168084311494860D4E908010843D6
:103360000E49496821F4741108430C494860012052
:103370000B490866FEF7D0FD054607E03DE0FEF785
:10338000CBFD401B022801D903200FE6034800684B
:1033900000F000700028F2D02FE000000010024082
:1033A0000000424280044242007000400020144964
:1033B0000866FEF7B1FD054606E0FEF7ADFD401BD1
:1033C000022801D90320F1E50E48006800F00070E2
:1033D0000028F2D111E0E069012800D1E6E50948B2
:1033E000466806F48031206A814204D106F47011E7
:1033F000606A814201D00120D8E50020D6E50000B6
:10340000000042420010024010B504460CB90120F1
:1034100010BD606A38B96068B0F5827F00D105E000
:103420000021E16102E00021216161610021A162CE
:1034300094F8510028B9002084F85000204600F08C
:103440005BF8022084F851002068006820F04000FA
:1034500021680860A08800F48270218901F4044189
:103460000843A18901F400610843217C01F00201B5
:103470000843217D01F001010843218B01F4007113
:103480000843217F01F0380108432021095D01F044
:1034900080010843218D01F4005108432168086030
:1034A0000421A06901EA1040216848602068C069D1
:1034B00020F400602168C86100206065012084F864
:1034C00051000020A4E7000010B504460749206819
:1034D000884209D10648806920F4805004498861F7
:1034E000F0210448FEF7E8FA10BD0000003001406A
:1034F000001002400008014010B586B004460020CC
:1035000002900390049005901949206888422DD1BB
:1035100000BF1848806940F4805016498861084609
:10352000806900F48050019000BF00BF00BF0846D2
:10353000806940F0040088610846806900F004005A
:10354000019000BF00BFB020029002200390032032
:10355000059002A90848FEF749FB40200290002090
:103560000390049002A90448FEF740FB06B010BD8A
:1035700000300140001002400008014070B50446D0
:103580002546681EB0F1807F01D301200FE0681E40
:103590004FF0E02148610F214FF0FF3003F06AF94E
:1035A00000204FF0E021886107200861002070BDF5
:1035B00030B502460B4600BF92F83C00012801D10D
:1035C000022030BD012082F83C0000BF022082F8BA
:1035D0003D00106844681068816824F07004186821
:1035E000044310684460104D1068A8420BD0106866
:1035F000B0F1804F07D00D4D1068A84203D00C4D9C
:103600001068A84205D121F0800158680143106874
:103610008160012082F83D0000BF002082F83C005C
:1036200000BF00BFCDE70000002C014000040040B7
:103630000008004010B504460CB9012010BD94F8F4
:103640003D0028B9002084F83C00204600F026F810
:10365000022084F83D00211D206802F0C5FA0120F7
:1036600084F8460000BF84F83E0001213F20015548
:10367000402001554120015500BF00BF012084F8C2
:10368000420043200155442001554520015500BF0B
:10369000012084F83D000020D0E7000008B5124A60
:1036A000016891420DD100BF1049C96941F0020182
:1036B0000E4AD1611146C96901F00201009100BFB3
:1036C00011E00B4A016891420DD100BF0749C96959
:1036D00041F00401054AD1611146C96901F00401B4
:1036E000009100BF00BF08BD000400400010024070
:1036F000000800402DE9F04104460D46002700BFB8
:1037000094F83C00012802D10220BDE8F08101209C
:1037100084F83C0000BF022084F83D0020688668E1
:1037200026F0770626F47F462068866028685028B1
:1037300033D00CDC202850D004DC00284BD01028DB
:1037400051D149E0302849D040284CD139E0602897
:103750002DD0702807D0B0F5805F03D0B0F5005FA2
:1037600041D10DE041E0D5E902136A68206802F01A
:1037700086FA2068866846F077062068866034E01E
:10378000D5E902136A68206802F079FA2068806837
:1037900040F480402168886027E0EA686968206812
:1037A00002F03EFB5021206802F074FA1DE0EA6846
:1037B0006968206802F047FB6021206802F06AFA1D
:1037C00013E0EA686968206802F02AFB402120685B
:1037D00002F060FA09E000BF00BF00BF296820685E
:1037E00002F058FA01E0012700BF00BF012084F871
:1037F0003D0000BF002084F83C0000BF384684E74D
:1038000010B586B004460020029003900490059005
:1038100021492068884221D100BF2048806940F0BA
:1038200008001E4988610846806900F00800019080
:1038300000BF00BF1020029002200390059002A953
:103840001748FEF7D3F900BF1649486820F44060D6
:1038500040F0E06040F4006048601AE012492068DF
:10386000884216D100BF0D48806940F008000B491E
:1038700088610846806900F00800019000BF00BF21
:10388000C020029002200390059002A90448FEF790
:10389000ADF906B010BD0000000400400010024069
:1038A000000C014000000140000800402DE9F041FB
:1038B00004460D461646002700BF94F83C00012838
:1038C00002D10220BDE8F081012084F83C0000BF55
:1038D00036B1042E1BD0082E31D00C2E5ED145E01F
:1038E0002946206802F0E0F92068806940F008006D
:1038F000216888612068806920F00400216888615F
:1039000020688069296908432168886148E0294660
:10391000206802F0F9F92068806940F400602168AD
:1039200088612068806920F480602168886120684F
:103930008069296940EA01202168886130E02946D0
:10394000206802F015FA2068C06940F0080021687C
:10395000C8612068C06920F004002168C86120683F
:10396000C069296908432168C86119E029462068AF
:1039700002F032FA2068C06940F400602168C86132
:103980002068C06920F480602168C8612068C0692F
:10399000296940EA01202168C86101E0012700BFD0
:1039A00000BF00BF002084F83C0000BF384689E714
:1039B00010B504460CB9012010BD94F83D0028B99B
:1039C000002084F83C00204600F025F8022084F80E
:1039D0003D00211D206802F007F9012084F846000F
:1039E00000BF84F83E0001213F20015540200155D1
:1039F0004120015500BF00BF012084F84200432050
:103A00000155442001554520015500BF012084F88F
:103A10003D000020D0E7704770B504460D4615B94B
:103A200094F83E000BE0042D02D13F20005D06E03B
:103A3000082D02D14020005D01E04120005D0128F9
:103A400001D0012070BD1DB9022084F83E000EE0B7
:103A5000042D03D102213F20015508E0082D03D198
:103A600002214020015502E002214120015501229E
:103A70002946206802F0F2F819492068884201D1ED
:103A8000012000E0002028B12068406C40F4004094
:103A9000216848641249206888420BD02068B0F140
:103AA000804F07D00F492068884203D00E49206814
:103AB00088420CD12068806800F00706062E0CD0E2
:103AC0002068006840F001002168086005E0206877
:103AD000006840F00100216808600020B2E70000A3
:103AE000002C01400004004000080040704770476F
:103AF0002DE9F84F0446206805682068C6682068EC
:103B000047694FF00009CA4605F00F09B9F1000FE7
:103B10000AD105F0200038B106F0200020B120467F
:103B200002F0A7FBBDE8F88FB9F1000F7BD007F0DA
:103B3000010018B906F49070002874D005F0010057
:103B400030B106F4807018B1606C40F00100606420
:103B500005F0040030B107F0010018B1606C40F0CE
:103B60000200606405F0020030B107F0010018B1F6
:103B7000606C40F00400606405F0080048B106F095
:103B8000200010B907F0010018B1606C40F0080087
:103B90006064606C002845D005F0200028B106F074
:103BA000200010B1204602F064FB20684069C0F399
:103BB000801A606C00F0080010B9BAF1000F2CD028
:103BC000204602F0FDFA2068406900F0400000B392
:103BD00000BF00BF2168143151E8001F21F04000F0
:103BE0002168143141E80002002AF3D100BFE06BE4
:103BF00050B17748E16B4863E06BFDF75BFD88B13E
:103C0000E06B416B88470DE02046FFF770FF09E04D
:103C100009E02046FFF76BFF04E02046FFF767FF4F
:103C2000002060647EE7206B012877D105F010004A
:103C3000002873D006F010000028FAD000BF002042
:103C4000009020680068009020684068009000BFE5
:103C500000BF2068406900F0400000285FD0E06BA2
:103C6000006840681FFA80F8B8F1000F55D0A08DA9
:103C7000404552DDA4F82E80E06B8069202843D0B7
:103C800000BF00BF21680C3151E8001F21F4807093
:103C900021680C3141E80002002AF3D100BF00BFC7
:103CA00000BF2168143151E8001F21F00100216894
:103CB000143141E80002002AF3D100BF00BF00BF69
:103CC0002168143151E8001F21F0400021681431AF
:103CD00041E80002002AF3D100BF202084F842000E
:103CE0000020206300BF00BF21680C3151E8001F95
:103CF00021F0100021680C3141E80002002AF3D1C4
:103D000000BFE06BFDF7AAFC02206063A08DE28D8E
:103D1000801A81B22046FFF7E9FE03E742E0A08D5A
:103D2000E18D401A1FFA80F8E08DD0B3B8F1000F92
:103D300037D000BF00BF21680C3151E8001F21F4CB
:103D4000907021680C3141E80002002AF3D100BFD5
:103D500000BF00BF2168143151E8001F21F00100AD
:103D60002168143141E80002002AF3D100BF20206D
:103D700084F842000020206300BF00BF21680C319E
:103D800051E8001F21F0100021680C3141E80002C9
:103D9000002AF3D100BF0220606341462046FFF7AE
:103DA000A5FEBFE605F0800030B106F0800018B136
:103DB000204602F0BFFBB5E605F0400030B106F04A
:103DC000400018B1204602F031FAABE600BFA9E688
:103DD0008560000810B504460CB9012010BDA0692B
:103DE00000B100E000BF94F8410028B9002084F839
:103DF0004000204600F060F8242084F8410020684C
:103E0000C06820F400502168C860204602F0B0FA73
:103E10002068006920F490402168086120684069AA
:103E200020F02A00216848612068C06840F40050F2
:103E30002168C86000206064202084F8410084F874
:103E400042000020606300BFC8E7000010B50446D0
:103E500014492068884211D11348806920F48040B9
:103E6000114988614FF4C0611048FDF725FEE06BF1
:103E7000FDF778FC2520FEF799FD11E00C4920683C
:103E800088420DD10848C06920F480200649C861E5
:103E90004FF440610748FDF70FFE2720FEF786FD2F
:103EA00010BD000000380140001002400008014031
:103EB00000480040000C014010B586B004460020C8
:103EC000029003900490059049492068884252D19D
:103ED00000BF4848806940F48040464988610846F0
:103EE000806900F48040019000BF00BF00BF084619
:103EF000806940F0040088610846806900F0040091
:103F0000019000BF00BF48150290022003900320DB
:103F1000059002A93848FDF769FE4FF480600290D1
:103F200000200390049002A93348FDF75FFE334858
:103F300033490860002048600021314881608021B9
:103F4000C160002101614161202181610021C161C5
:103F5000FDF70AFD08B1FCF74EFF00BF2848E063FB
:103F6000446200BF002211462520FEF751FD2520A6
:103F7000FEF73EFD3AE023492068884236D100BF73
:103F80001C48C06940F480201A49C8610846C069CD
:103F900000F48020019000BF00BF00BF0846806988
:103FA00040F0080088610846806900F00800019030
:103FB00000BF00BF08150290022003900320059067
:103FC00002A91148FDF712FE4FF400600290002094
:103FD0000390049002A90C48FDF708FE0022114648
:103FE0002720FEF715FD2720FEF702FD06B010BDC5
:103FF0000038014000100240000801405800024013
:104000007C02002000480040000C014070B50446CE
:104010000D46164694F8420020280BD105B10EB982
:10402000012070BD0020206332462946204602F060
:104030001DFAF6E70220F4E770477047704700BFAB
:10404000FEE7014608684069C0F38020B0B16FF414
:1040500080600A68506100200863202081F83D00DC
:10406000002081F83E00086C40F00400086400BFA6
:10407000002081F83C0000BF012070470020FCE7D1
:104080002DE9F84304460F4615469946DDE90886B2
:104090002068006840F4806021680860206800683B
:1040A00040F4807021680860434600224FF00111FF
:1040B0002046009600F037F960B12068006800F4EF
:1040C0008070B0F5807F02D14FF40070206403202F
:1040D000BDE8F88307F0FE002168086133464246D8
:1040E0003E49204600F07EF908B10120F0E700BF0C
:1040F000002000902068406900902068806900904E
:1041000000BF00BF32464146204600F02DFA50B1B4
:10411000206C042805D12068006840F400702168F4
:1041200008600120D4E7B9F1010F03D1E8B221689A
:10413000086117E0C5F3072021680861324641464F
:10414000204600F011FA50B1206C042805D12068F7
:10415000006840F40070216808600120B8E7E8B208
:104160002168086132464146204600F0FDF950B111
:10417000206C042805D12068006840F40070216894
:1041800008600120A4E72068006840F4807021687E
:104190000860434600224FF001112046009600F0CF
:1041A000C2F858B12068006800F48070B0F5807FD4
:1041B00002D14FF400702064032089E7F8B240F088
:1041C000010021680861334642460449204600F058
:1041D00009F908B101207BE7002079E7020001001E
:1041E0002DE9F8430446884615469946DDE90867F7
:1041F0002068006840F4807021680860334600221F
:104200004FF001112046009700F08DF860B1206852
:10421000006800F48070B0F5807F02D14FF4007028
:1042200020640320BDE8F88308F0FE0021680861DF
:104230003B4632462149204600F0D4F808B101201F
:10424000F0E700BF002000902068406900902068DF
:104250008069009000BF00BF3A463146204600F01A
:1042600083F950B1206C042805D12068006840F41F
:104270000070216808600120D4E7B9F1010F03D173
:10428000E8B22168086117E0C5F3072021680861DA
:104290003A463146204600F067F950B1206C0428B8
:1042A00005D12068006840F4007021680860012092
:1042B000B8E7E8B2216808610020B3E70200010016
:1042C00070B504460D46164625E02046FFF7B9FEB8
:1042D00008B1012070BD681CE8B1FDF71DFE801B10
:1042E000A84200D8BDB920684069C0F3800090B9E9
:1042F00000202063202084F83D00002084F83E0048
:10430000206C40F02000206400BF002084F83C00B6
:1043100000BF0120DEE720684069C0F3800000286C
:10432000D3D00020D6E72DE9F04104460D461746CC
:104330001E46DDF8188038E0701CA8B3FDF7ECFDD0
:10434000A0EB0800B04200D876BBC5F307400128B7
:104350000AD120684069A9B20840A9B2884201D1B7
:1043600001200BE0002009E020688069A9B2084024
:10437000A9B2884201D1012000E00020B84214D146
:1043800000202063202084F83D00002084F83E00B7
:10439000206C40F02000206400BF002084F83C0026
:1043A00000BF0120BDE8F081FFE7C5F30740012809
:1043B0000AD120684069A9B20840A9B2884201D157
:1043C00001200BE0002009E020688069A9B20840C4
:1043D000A9B2884201D1012000E00020B842ABD050
:1043E0000020DFE72DE9F04104460D4616461F4642
:1043F00058E020684069C0F38020E8B12068006878
:1044000040F40070216808606FF4806021684861A2
:1044100000202063202084F83D00002084F83E0026
:10442000206C40F00400206400BF002084F83C00B1
:1044300000BF0120BDE8F081701C90B3FDF76CFD5A
:10444000C01BB04200D866BBC5F3074001280AD1A3
:1044500020684069A9B20840A9B2884201D1012070
:104460000BE0002009E020688069A9B20840A9B2E9
:10447000884201D1012000E0002090B90020206393
:10448000202084F83D00002084F83E00206C40F09D
:104490002000206400BF002084F83C0000BF012001
:1044A000C8E7FFE7C5F3074001280AD12068406943
:1044B000A9B20840A9B2884201D101200BE0002036
:1044C00009E020688069A9B20840A9B2884201D1F8
:1044D000012000E0002000288BD00020AAE770B562
:1044E00004460D46164637E020684069C0F30010C8
:1044F000A0B16FF0100021684861002020632020E7
:1045000084F83D00002084F83E00206C206400BF49
:10451000002084F83C0000BF012070BDFDF7FCFCCA
:10452000801BA84200D8BDB920684069C0F3801044
:1045300090B900202063202084F83D00002084F8FA
:104540003E00206C40F02000206400BF002084F872
:104550003C0000BF0120E0E720684069C0F3801004
:104560000028C1D00020D8E770B504460D46164695
:1045700025E02046FFF765FD08B1012070BD681CED
:10458000E8B1FDF7C9FC801BA84200D8BDB920687E
:104590004069C0F3C01090B900202063202084F847
:1045A0003D00002084F83E00206C40F02000206494
:1045B00000BF002084F83C0000BF0120DEE7206837
:1045C0004069C0F3C0100028D3D00020D6E770B5F2
:1045D00005460E460024324629460E20FCF73CF9DB
:1045E0000D240FE0284600F06BFA284600F082FA0E
:1045F000324629462046FCF72FF9284600F010F8ED
:10460000601EC4B2002CEDDC284600F059FA2846A2
:1046100000F070FA324629460020FCF71DF970BD03
:1046200031B588B00020079044E2DDE9071010F8AA
:1046300021000690DDE9071000EB8100407805902D
:10464000DDE9071000EB810080780490DDE90710B8
:1046500000EB8100C0780390069803F0C3FA04468B
:10466000069803F0BFFA029003F0BCFA44400698A3
:1046700003F0B8FA019003F0B5FA029003F0B2FA31
:104680004440069803F0AEFA009003F0ABFA0190B4
:1046900003F0A8FA029003F0A5FA059803F0A2FA35
:1046A00005460598454003F09DFA029003F09AFAFA
:1046B000059803F097FA019003F094FA029003F042
:1046C00091FA4540059803F08DFA009003F08AFABC
:1046D000019003F087FA029003F084FA6C4004988A
:1046E00003F080FA0498054603F07CFA029003F088
:1046F00079FA4540049803F075FA019003F072FAD4
:10470000029003F06FFA4540049803F06BFA0090B2
:1047100003F068FA019003F065FA029003F062FA80
:104720006C40039803F05EFA0398054603F05AFACA
:10473000029003F057FA039803F054FA019003F043
:1047400051FA029003F04EFA4540039803F04AFAFA
:10475000009003F047FA019003F044FA029003F04E
:1047600041FA6C40DDE9071000F82140069803F09B
:1047700039FA0698044603F035FA029003F032FA4B
:10478000069803F02FFA019003F02CFA029003F040
:1047900029FA4440069803F025FA009003F022FA23
:1047A000019003F01FFA029003F01CFA059803F041
:1047B00019FA0546059803F015FA029003F012FA6B
:1047C0004540059803F00EFA019003F00BFA0290B1
:1047D00003F008FA4540059803F004FA009003F04E
:1047E00001FA019003F0FEF9029003F0FBF96C402E
:1047F000049803F0F7F905460498454003F0F2F9F0
:10480000029003F0EFF9049803F0ECF9019003F043
:10481000E9F9029003F0E6F94540049803F0E2F963
:10482000009003F0DFF9019003F0DCF9029003F04F
:10483000D9F96C40039803F0D5F90398054603F0C5
:10484000D1F9029003F0CEF94540039803F0CAF97C
:10485000019003F0C7F9029003F0C4F945400398B2
:1048600003F0C0F9009003F0BDF9019003F0BAF92C
:10487000029003F0B7F96C40DDE9071000EB81000E
:104880004470069803F0AEF90698044603F0AAF9BE
:10489000029003F0A7F94440069803F0A3F90190B1
:1048A00003F0A0F9029003F09DF94440069803F04C
:1048B00099F9009003F096F9019003F093F90290B2
:1048C00003F090F9059803F08DF90598054603F07B
:1048D00089F9029003F086F9059803F083F90190B5
:1048E00003F080F9029003F07DF94540059803F04C
:1048F00079F9009003F076F9019003F073F90290D2
:1049000003F070F96C40049803F06CF905460498C4
:1049100003F068F9029003F065F94540049803F04C
:1049200061F9019003F05EF9029003F05BF94540F4
:10493000049803F057F9009003F054F9019003F044
:1049400051F9029003F04EF96C40039803F04AF9D4
:1049500005460398454003F045F9029003F042F9FB
:10496000039803F03FF9019003F03CF9029003F043
:1049700039F94540039803F035F9009003F032F916
:10498000019003F02FF9029003F02CF96C40DDE95F
:10499000071000EB81008470069803F023F90446A9
:1049A0000698444003F01EF9029003F01BF90698A4
:1049B00003F018F9019003F015F9029003F012F9D1
:1049C0004440069803F00EF9009003F00BF90190B3
:1049D00003F008F9029003F005F9059803F002F9D5
:1049E0000598054603F0FEF8029003F0FBF84540F9
:1049F000059803F0F7F8019003F0F4F8029003F043
:104A0000F1F84540059803F0EDF8009003F0EAF85E
:104A1000019003F0E7F8029003F0E4F86C4004988A
:104A200003F0E0F80498054603F0DCF8029003F088
:104A3000D9F8049803F0D6F8019003F0D3F8029067
:104A400003F0D0F84540049803F0CCF8009003F050
:104A5000C9F8019003F0C6F8029003F0C3F86C4067
:104A6000039803F0BFF80546039803F0BBF80290E3
:104A700003F0B8F84540039803F0B4F8019003F050
:104A8000B1F8029003F0AEF84540039803F0AAF89D
:104A9000009003F0A7F8019003F0A4F8029003F04F
:104AA000A1F86C40DDE9071000EB8100C4700798A5
:104AB000401C079007980428FFF6B7AD09B030BD39
:104AC000417B437A43734379437243784371417026
:104AD0008178827A827081728179837B837181731C
:104AE000C178C279C270C37AC371C37BC372C17308
:104AF0007047000010B5024600200FE0002109E0D9
:104B000002EB81031B5C074CE35C02EB8104235442
:104B10004B1CD9B20429F3DB431CD8B20428EDDBCB
:104B200010BD0000D47E000878B502460C46002077
:104B300020E0002505EB8005655D002606EB80067C
:104B40009555012505EB8005655D012606EB800680
:104B50009555022505EB8005655D022606EB80066E
:104B60009555032505EB8005655D032606EB80065C
:104B70009555401C0828DCD3082079E0451EA90083
:104B8000555C8DF800504D1C555D8DF801508D1C05
:104B9000555D8DF80250CD1C555D8DF8035000F029
:104BA00007056DBB9DF800509DF801608DF8006011
:104BB0009DF802608DF801609DF803608DF8026039
:104BC0008DF803509DF800502B4E755D8DF8005008
:104BD0009DF80150755D8DF801509DF80250755D8E
:104BE0008DF802509DF80350755D8DF803509DF8C7
:104BF0000050224E06EBD006367875408DF80050F6
:104C000000F00705042D14D19DF800501A4E755D73
:104C10008DF800509DF80150755D8DF801509DF89C
:104C20000250755D8DF802509DF80350755D8DF84A
:104C300003508300A0F10805A900555C9DF80060B1
:104C40007540D5544D1C555D9DF8016075405E1C46
:104C500095558D1C555D9DF8026075409E1C9555BF
:104C6000CD1C555D9DF803607540DE1C9555401CBC
:104C70003C2883D378BD0000D47D0008D47F000891
:104C8000704770470B490968FA2903D10021094A86
:104C900011600EE001280CD107490978491CC9B2FE
:104CA000054A1170052904DB00211170FA21014A1F
:104CB0001160704734040040000000202849096852
:104CC0000968C1F3002139B16FF48071244A126878
:104CD00011600121234A1170214909680968C1F353
:104CE000401100293BD01E490968496888B21D4916
:104CF0000978012909D1552803D10221194A1170D7
:104D00002DE00021174A117029E01649097802297F
:104D100005D10321134A1170134A10701FE0114985
:104D20000978052913D10F494B780F49891CC854BC
:104D30000C494978491C0B4A5170114649780A4A76
:104D4000527891420BDB0621064A117007E00549B3
:104D50000978062903D1034A907000211170704729
:104D600034020020530000207206002030B5A7B0A6
:104D7000044600250C4A07CA24AB07C3684602F064
:104D8000C1FD0C2224A9684602F0FCFE1CA968465D
:104D900002F01AFD20221CA92046FBF7A9FA00B94F
:104DA0000125284627B030BDE8F7FF1F30B585B094
:104DB00004460D4600232A462146684600F008F8BE
:104DC000112269460120FBF777FE05B030BD0000D7
:104DD0002DE9F043C7B005460C4616461F46082C81
:104DE00001DA204600E00020044606F00F063FB13D
:104DF0002B4800EB0411102203A8FBF7F4FA06E09D
:104E0000284800EB0411102203A8FBF7ECFA04EB8E
:104E10004400254901EB800001680091416801913F
:104E20008068029086B14FF000090BE0102103A8C2
:104E300002F0CAFE0C21684602F0C6FE09F101002C
:104E400000F0FF09B145F1DB46EA041000F0FF086D
:104E5000694603A801F022FD14A0008828801448A8
:104E60000168C5F802104168C5F806108068C5F8E9
:104E70000A0085F810800F4A0F4907A8FBF7DDFCF0
:104E80001022294607A8FBF7BAFC20210A48FBF7A5
:104E9000EFFA10210748FBF7EBFA47B0BDE8F083C3
:104EA000A27C0008227C0008227D000854520000E9
:104EB000E8F7FF1F58060020380600200EB5002036
:104EC0000090019002901248124908600021114898
:104ED0008160017301754FF46021C16100200D49AB
:104EE000486001210B480161FCF738F808B1FBF775
:104EF00082FF00200090012001900020029069466E
:104F00000448FBF77BFF08B1FBF775FF0EBD0000FF
:104F1000002401405800002010B50F480F490860D8
:104F20000420486000210D488160C1604FF4602179
:104F300001614FF480114161002101764176817653
:104F40000121C176002101774177FCF721FA08B1F0
:104F5000FBF751FF10BD00000064004088000020F6
:104F600010B50548054908600846FCF73FFB08B145
:104F7000FBF741FF10BD000000300240040000209C
:104F800008B500BF0A48406940F00100084948617F
:104F90000846406900F00100009000BF00BF0022F9
:104FA00011460F20FDF734FD0F20FDF721FD08BD50
:104FB0000010024000B585B00020019002900390DF
:104FC000049000BF4B48806940F010004949886157
:104FD0000846806900F01000009000BF00BF00BFCD
:104FE0000846806940F0200088610846806900F02A
:104FF0002000009000BF00BF00BF0846806940F05D
:10500000040088610846806900F00400009000BF39
:1050100000BF00BF0846806940F00800886108466C
:10502000806900F00800009000BF00BF00224FF42C
:1050300040413148FCF76AFF00224CF22A012F4818
:10504000FCF764FF00224FF400412D48FCF75EFF9F
:105050004FF40050019000200290039001A92648CF
:10506000FCF7C4FD4FF44040019001200290002065
:1050700003900220049001A91F48FCF7B7FD01200E
:105080000190204802900020039001A91B48FCF7E2
:10509000ADFD4CF22A000190012002900020039007
:1050A0000220049001A91548FCF7A0FD4FF44050E0
:1050B000019000200290039001A91048FCF796FD92
:1050C0004FF48070019002200290049001A90C48D6
:1050D000FCF78CFD4FF4004001900120029000206D
:1050E00003900220049001A90548FCF77FFD05B05C
:1050F00000BD00000010024000100140000C014003
:10510000000801400000111010B50B480B49086061
:105110000B484860002109488160C1604FF480411C
:105120000161002141618161C1610162FCF7FAFE08
:1051300008B1FBF760FE10BD00540040B000002035
:10514000A086010010B50E480E4908604FF4827029
:10515000486000210B488160C160016141614FF4EA
:10516000802181611021C16100210162416281625F
:105170000A21C162FEF748F908B1FBF73CFE10BDF9
:10518000003001400401002000B58DB000200990DE
:105190000A900B900C90079008901C216846FBF732
:1051A00089F92048204908604720486000211E48AE
:1051B00081604FF4FA71C160002101618161FEF7E5
:1051C00039FA08B1FBF717FE4FF48050099009A98E
:1051D0001548FEF78FFA08B1FBF70DFE1248FEF7EF
:1051E000E7FB08B1FBF707FE00200790089007A92E
:1051F0000D48FEF7DDF908B1FBF7FDFD60200090DA
:105200000020019002900490002269460648FEF7B3
:105210004DFB08B1FBF7EFFD0348FEF7F1FA0DB0C7
:1052200000BD0000000400405C01002000B58DB00E
:10523000002009900A900B900C90079008901C2178
:105240006846FBF737F92448244908600020486085
:105250000021224881604FF6FF71C1600021016189
:105260008161FEF7E7F908B1FBF7C5FD4FF4805007
:10527000099009A91948FEF73DFA08B1FBF7BBFDF3
:105280001648FEF795FB08B1FBF7B5FD0020079027
:10529000089007A91148FEF78BF908B1FBF7ABFDA1
:1052A0006020009000200190029004900022694646
:1052B0000A48FEF7FBFA08B1FBF79DFD0422694698
:1052C0000648FEF7F3FA08B1FBF795FD0348FEF731
:1052D00097FA0DB000BD000000080040A4010020B6
:1052E00010B50F480F4908604FF4E13048600021C5
:1052F0000C488160C16001610C2141610021816124
:10530000C161FEF767FD08B1FBF775FD04480C307D
:10531000006840F0100002490C31086010BD000028
:1053200000380140EC01002010B50A480A49086025
:105330004FF416504860002107488160C160016148
:105340000C21416100218161FDF7BCFA08B1FBF736
:1053500052FD10BD004800403402002000BFFEE7AF
:105360002DE9F0410546002460E015F8248015F889
:10537000240005EB84014978484005EB84018978D5
:10538000484005EB8401C97880EA010615F824003D
:1053900005EB8401497880EA0107384602F022FCD7
:1053A000074615F8240087EA0601484005F824005E
:1053B00005EB8400407805EB8401897880EA0107D9
:1053C000384602F00FFC074605EB8400407887EA78
:1053D0000601484005EB8401487005EB84008078A5
:1053E00005EB8401C97880EA0107384602F0FAFB30
:1053F000074605EB8400807887EA0601484005EB04
:105400008401887005EB8400C07880EA080738467C
:1054100002F0E8FB074605EB8400C07887EA060146
:10542000484005EB8401C870601CC4B2042C9CDBAE
:10543000BDE8F08100BFFEE77047000008B50849ED
:105440000968C9084FF47A72B1FBF2F14143009147
:1054500000BF00BF00994A1E00920029F9D108BD83
:10546000180000207047000070B500F001FD0546EF
:1054700074E000F00FFD04463B48007838B9242C56
:1054800001D1012000E000203749087065E036486E
:105490000078012807D14D2C01D1022000E0002026
:1054A0003149087059E030480078022807D13E2C75
:1054B00001D1032000E000202B4908704DE02A486C
:1054C0000078032810D1FE2C03DD00202649087047
:1054D00044E0042024490870084684700020487184
:1054E00008710846C47038E01F480078042808D1C5
:1054F00005201D49087008464470C0786040C87097
:105500002BE019480078052813D11748407916492F
:10551000897888420DDA1448C07860401249C87012
:10552000084641794079401C0F4A5071901D4454FF
:1055300013E00D48007805280FD10B4840790A493F
:105540008978884209DB0020074908700846C0783E
:10555000A04201D100F00AF8002500BF281EA5F1E5
:1055600001018DB285D170BDC0020020F0B5C1B07F
:105570007E4840787E4908707E48007840B1FCF74C
:10558000CBFC7D490968884202D90020794908701E
:1055900076484078032869D005DC48B101280BD053
:1055A00002287DD144E06E287CD06F28F9D196E0A6
:1055B000002000F00DF9D4E070A101A8FAF7C4FEB4
:1055C00070A101A8FAF703FF6FA101A8FAF7FFFE87
:1055D0006CA101A8FAF7FBFE6CA101A8FAF7F7FE8F
:1055E00068A101A8FAF7F3FE6AA101A8FAF7EFFE95
:1055F00064A101A8FAF7EBFE6CA101A8FAF7E7FE97
:1056000060A101A8FAF7E3FE69A101A8FAF7DFFE9D
:1056100065A101A8FAF7DBFE01A8FAF7B9FE401C64
:10562000C4B2204600F0D4F801A800F059F998E07F
:10563000FAF7B0FD0446C01704EB10600012A4EBAB
:105640000020C5B22E1105F00F0701233A4631465E
:105650003CA8FFF7BDFB112000F0BAF811213CA8CF
:1056600000F00CF90020434908707AE0202139A8A5
:1056700000F0EAF839A8FFF779FB3E4908700846C0
:10568000007828B1FCF748FC4B4908443A490860C7
:10569000012000F09DF83748007800F0FDF860E048
:1056A0005AE0FFE73348007888B1FAF773FD044603
:1056B000C01704EB10600012A4EB0020C5B22E113D
:1056C00005F00F0739463046FFF770FB00BF012099
:1056D00000F07EF82748007800F0DEF841E0012075
:1056E00000F076F82348007800F0D6F821480078DA
:1056F00088B301F0F5F83148006840F001002F4907
:105700000860084640682E4908402C494860084611
:1057100000682C490840294908600846006820F4C0
:10572000802008600846406820F4FE0048604FF47E
:105730001F008860C80304684068234908604FF070
:10574000006022490860204680F3088800BF1E4898
:105750000068804700BF04E00021012000F040F80D
:1057600000BF00BF00F0ACF841B0F0BDC0020020A7
:105770001C0000201F00002020000020485720317E
:105780002E3000005F00000045534C00566F6C76D1
:105790006F0000005336302C205338302C205843F3
:1057A00036302C2058433730000000004E4F0000A8
:1057B000465720312E30620020BF02000010024008
:1057C0000000FFF8FFFFF6FE2400002008ED00E0D7
:1057D00010B504462146002000F002F810BD00007C
:1057E00070B505460C46002016498870084644707E
:1057F000242000F0DFFB00F00200022802D1C820C4
:10580000FCF746F94D2000F0D5FB00F0020002281D
:1058100002D1C820FCF73CF90DB1212100E03E2166
:10582000084600F0C7FB00F00200022802D1C820A1
:10583000FCF72EF9204600F02FF80249087800F016
:105840002BF870BD1C00002010B503460C4603E089
:1058500000F008F803F8010B201EA4F10101CCB2FE
:10586000F6D110BD044801790079401C024A10713C
:10587000901D405C70470000C002002070B50446D7
:105880000D4603E014F8010B00F006F8281EA5F100
:105890000101CDB2F6D170BD10B50446204600F02E
:1058A00089FB00F00200022802D1C820FCF7F0F8C2
:1058B0000248807860400149887010BD1C000020BB
:1058C00010B50649887800F075FB00F00200022848
:1058D00002D1C820FCF7DCF810BD00001C0000203D
:1058E00010B5044600BF14F8010BFFF7D5FF207870
:1058F0000028F8D1FFF7D0FF10BD417842794270FF
:10590000437A4371437B437241738178827A827018
:1059100081728179837B83718173C178C27BC2700C
:10592000C37AC373C379C372C171704770B504463B
:10593000FCF7F2FA0546E068A84228D8A068284497
:10594000E060207C032811D0042804D0052803D06F
:1059500006281BD101E000BF00BF204600F0BAF8C6
:10596000606910B1607C616988470FE0A07960B11F
:10597000204600F0AFF8607C38B9A079401EC0B274
:10598000A07110B9204600F033F800BF00BF70BD11
:105990002DE9F04105460E46174698461248008804
:1059A000062802DB0020BDE8F0811820FAF72CFC65
:1059B00004460CB90020F6E72560A680A7740020F5
:1059C000607402202074C4F814800748018800889D
:1059D000401C054A1080054840F82140204600F050
:1059E00007F80120DFE7000028000020C4030020A2
:1059F00010B50446A37C0BB1012300E000231A4636
:105A0000A1882068FCF782FA0020607410BD10B5F0
:105A10000446A37C0BB9012300E000231A46A188A9
:105A20002068FCF773FA0120607410BD10B5094BB3
:105A30001B8898420CDA084B53F820309960064BCB
:105A400053F820309A710323034C54F820402374F8
:105A500010BD000028000020C403002070B50446DB
:105A60000D461A48008884422EDA062D00DD0625F0
:105A7000174850F824000574072D24D2DFE805F0FC
:105A800023171D23040B11004FF4FA70104951F82D
:105A90002410886017E0FA200D4951F8241088601E
:105AA00011E064200A4951F8241088600BE008498D
:105AB00051F82400FFF7ABFF05E0054951F8240039
:105AC000FFF796FF00BF00BF70BD00002800002058
:105AD000C403002010B50446607C18B12046FFF7CF
